{
  "_format": "hh-sol-artifact-1",
  "contractName": "GenerativeArtworksERC721",
  "sourceName": "contracts/GenerativeArtworksPayable.sol",
  "abi": [
    {
      "inputs": [
        {
          "internalType": "uint256",
          "name": "pieceId",
          "type": "uint256"
        },
        {
          "internalType": "address",
          "name": "additionalPayeeAddress",
          "type": "address"
        }
      ],
      "name": "getAdditionalPayeePercentageForPieceIdAndAdditionalPayeeAddress",
      "outputs": [
        {
          "internalType": "uint256",
          "name": "",
          "type": "uint256"
        }
      ],
      "stateMutability": "view",
      "type": "function"
    },
    {
      "inputs": [
        {
          "internalType": "uint256",
          "name": "pieceId",
          "type": "uint256"
        }
      ],
      "name": "getAdditionalPayeesForPieceId",
      "outputs": [
        {
          "internalType": "address[]",
          "name": "",
          "type": "address[]"
        }
      ],
      "stateMutability": "view",
      "type": "function"
    },
    {
      "inputs": [
        {
          "internalType": "address",
          "name": "",
          "type": "address"
        }
      ],
      "name": "isAdmin",
      "outputs": [
        {
          "internalType": "bool",
          "name": "",
          "type": "bool"
        }
      ],
      "stateMutability": "view",
      "type": "function"
    },
    {
      "inputs": [
        {
          "internalType": "address",
          "name": "to",
          "type": "address"
        },
        {
          "internalType": "uint256",
          "name": "pieceId",
          "type": "uint256"
        },
        {
          "internalType": "address",
          "name": "by",
          "type": "address"
        }
      ],
      "name": "mint",
      "outputs": [
        {
          "internalType": "uint256",
          "name": "",
          "type": "uint256"
        }
      ],
      "stateMutability": "nonpayable",
      "type": "function"
    },
    {
      "inputs": [
        {
          "internalType": "uint256",
          "name": "",
          "type": "uint256"
        }
      ],
      "name": "pieceIdToPricePerPrintInWei",
      "outputs": [
        {
          "internalType": "uint256",
          "name": "",
          "type": "uint256"
        }
      ],
      "stateMutability": "view",
      "type": "function"
    }
  ],
  "bytecode": "0x608060405234801561001057600080fd5b50610483806100206000396000f3fe608060405234801561001057600080fd5b50600436106100575760003560e01c80630d4d15131461005c57806324d7806c1461008c5780632bf88d83146100bc57806358aea421146100ec5780639fa64b4f1461011c575b600080fd5b610076600480360381019061007191906101ef565b61014c565b6040516100839190610383565b60405180910390f35b6100a660048036038101906100a191906101c6565b610155565b6040516100b39190610368565b60405180910390f35b6100d660048036038101906100d1919061023e565b610175565b6040516100e39190610383565b60405180910390f35b6101066004803603810190610101919061023e565b61018d565b6040516101139190610346565b60405180910390f35b61013660048036038101906101319190610267565b610194565b6040516101439190610383565b60405180910390f35b60009392505050565b60016020528060005260406000206000915054906101000a900460ff1681565b60006020528060005260406000206000915090505481565b6060919050565b600092915050565b6000813590506101ab8161041f565b92915050565b6000813590506101c081610436565b92915050565b6000602082840312156101d857600080fd5b60006101e68482850161019c565b91505092915050565b60008060006060848603121561020457600080fd5b60006102128682870161019c565b9350506020610223868287016101b1565b92505060406102348682870161019c565b9150509250925092565b60006020828403121561025057600080fd5b600061025e848285016101b1565b91505092915050565b6000806040838503121561027a57600080fd5b6000610288858286016101b1565b92505060206102998582860161019c565b9150509250929050565b60006102af83836102bb565b60208301905092915050565b6102c4816103d7565b82525050565b60006102d5826103ae565b6102df81856103c6565b93506102ea8361039e565b8060005b8381101561031b57815161030288826102a3565b975061030d836103b9565b9250506001810190506102ee565b5085935050505092915050565b610331816103e9565b82525050565b61034081610415565b82525050565b6000602082019050818103600083015261036081846102ca565b905092915050565b600060208201905061037d6000830184610328565b92915050565b60006020820190506103986000830184610337565b92915050565b6000819050602082019050919050565b600081519050919050565b6000602082019050919050565b600082825260208201905092915050565b60006103e2826103f5565b9050919050565b60008115159050919050565b600073ffffffffffffffffffffffffffffffffffffffff82169050919050565b6000819050919050565b610428816103d7565b811461043357600080fd5b50565b61043f81610415565b811461044a57600080fd5b5056fea2646970667358221220fb9bcb0230c3a506041b8965b7976fe1ebf9bfb101d6eaffc56256a4629c739164736f6c63430008000033",
  "linkReferences": {},
  "deployedLinkReferences": {}
}