{
  "_format": "hh-sol-artifact-1",
  "contractName": "GenerativeArtworksPayable",
  "sourceName": "contracts/GenerativeArtworksPayable.sol",
  "abi": [
    {
      "inputs": [
        {
          "internalType": "address",
          "name": "mintContractAddress",
          "type": "address"
        }
      ],
      "stateMutability": "nonpayable",
      "type": "constructor"
    },
    {
      "inputs": [
        {
          "internalType": "address",
          "name": "mintContractAddress",
          "type": "address"
        }
      ],
      "name": "changeMintContract",
      "outputs": [],
      "stateMutability": "nonpayable",
      "type": "function"
    },
    {
      "inputs": [
        {
          "internalType": "address payable",
          "name": "payableAddress",
          "type": "address"
        }
      ],
      "name": "changePayableAddress",
      "outputs": [],
      "stateMutability": "nonpayable",
      "type": "function"
    },
    {
      "inputs": [],
      "name": "generativeArtworksWallet",
      "outputs": [
        {
          "internalType": "address payable",
          "name": "",
          "type": "address"
        }
      ],
      "stateMutability": "view",
      "type": "function"
    },
    {
      "inputs": [
        {
          "internalType": "uint256",
          "name": "",
          "type": "uint256"
        },
        {
          "internalType": "address",
          "name": "",
          "type": "address"
        }
      ],
      "name": "hasMinted",
      "outputs": [
        {
          "internalType": "bool",
          "name": "",
          "type": "bool"
        }
      ],
      "stateMutability": "view",
      "type": "function"
    },
    {
      "inputs": [
        {
          "internalType": "uint256",
          "name": "",
          "type": "uint256"
        }
      ],
      "name": "isLimited",
      "outputs": [
        {
          "internalType": "bool",
          "name": "",
          "type": "bool"
        }
      ],
      "stateMutability": "view",
      "type": "function"
    },
    {
      "inputs": [
        {
          "internalType": "address",
          "name": "mintTo",
          "type": "address"
        },
        {
          "internalType": "uint256",
          "name": "pieceId",
          "type": "uint256"
        },
        {
          "internalType": "address",
          "name": "by",
          "type": "address"
        }
      ],
      "name": "purchase",
      "outputs": [
        {
          "internalType": "uint256",
          "name": "",
          "type": "uint256"
        }
      ],
      "stateMutability": "payable",
      "type": "function"
    },
    {
      "inputs": [
        {
          "internalType": "uint256",
          "name": "pieceId",
          "type": "uint256"
        }
      ],
      "name": "toggleIsLimited",
      "outputs": [],
      "stateMutability": "nonpayable",
      "type": "function"
    }
  ],
  "bytecode": "0x608060405234801561001057600080fd5b50604051610fc6380380610fc6833981810160405281019061003291906100ce565b806000806101000a81548173ffffffffffffffffffffffffffffffffffffffff021916908373ffffffffffffffffffffffffffffffffffffffff16021790555033600160006101000a81548173ffffffffffffffffffffffffffffffffffffffff021916908373ffffffffffffffffffffffffffffffffffffffff16021790555050610140565b6000815190506100c881610129565b92915050565b6000602082840312156100e057600080fd5b60006100ee848285016100b9565b91505092915050565b600061010282610109565b9050919050565b600073ffffffffffffffffffffffffffffffffffffffff82169050919050565b610132816100f7565b811461013d57600080fd5b50565b610e778061014f6000396000f3fe6080604052600436106100705760003560e01c80632320e0e91161004e5780632320e0e914610118578063504d5d9914610141578063956c7db51461016c578063e37840661461019557610070565b8063037807331461007557806308a90d5a146100b25780631c209f4c146100ef575b600080fd5b34801561008157600080fd5b5061009c60048036038101906100979190610b3f565b6101c5565b6040516100a99190610ce4565b60405180910390f35b3480156100be57600080fd5b506100d960048036038101906100d49190610aed565b6101f4565b6040516100e69190610ce4565b60405180910390f35b3480156100fb57600080fd5b5061011660048036038101906101119190610aed565b610214565b005b34801561012457600080fd5b5061013f600480360381019061013a9190610a23565b61034b565b005b34801561014d57600080fd5b50610156610476565b6040516101639190610c92565b60405180910390f35b34801561017857600080fd5b50610193600480360381019061018e9190610a4c565b61049c565b005b6101af60048036038101906101aa9190610a75565b6105c8565b6040516101bc9190610d5f565b60405180910390f35b60026020528160005260406000206020528060005260406000206000915091509054906101000a900460ff1681565b60036020528060005260406000206000915054906101000a900460ff1681565b60008054906101000a900473ffffffffffffffffffffffffffffffffffffffff1673ffffffffffffffffffffffffffffffffffffffff166324d7806c336040518263ffffffff1660e01b815260040161026d9190610c77565b60206040518083038186803b15801561028557600080fd5b505afa158015610299573d6000803e3d6000fd5b505050506040513d601f19601f820116820180604052508101906102bd9190610ac4565b6102fc576040517f08c379a00000000000000000000000000000000000000000000000000000000081526004016102f390610d3f565b60405180910390fd5b6003600082815260200190815260200160002060009054906101000a900460ff16156003600083815260200190815260200160002060006101000a81548160ff02191690831515021790555050565b60008054906101000a900473ffffffffffffffffffffffffffffffffffffffff1673ffffffffffffffffffffffffffffffffffffffff166324d7806c336040518263ffffffff1660e01b81526004016103a49190610c77565b60206040518083038186803b1580156103bc57600080fd5b505afa1580156103d0573d6000803e3d6000fd5b505050506040513d601f19601f820116820180604052508101906103f49190610ac4565b610433576040517f08c379a000000000000000000000000000000000000000000000000000000000815260040161042a90610d3f565b60405180910390fd5b806000806101000a81548173ffffffffffffffffffffffffffffffffffffffff021916908373ffffffffffffffffffffffffffffffffffffffff16021790555050565b600160009054906101000a900473ffffffffffffffffffffffffffffffffffffffff1681565b60008054906101000a900473ffffffffffffffffffffffffffffffffffffffff1673ffffffffffffffffffffffffffffffffffffffff166324d7806c336040518263ffffffff1660e01b81526004016104f59190610c77565b60206040518083038186803b15801561050d57600080fd5b505afa158015610521573d6000803e3d6000fd5b505050506040513d601f19601f820116820180604052508101906105459190610ac4565b610584576040517f08c379a000000000000000000000000000000000000000000000000000000000815260040161057b90610d3f565b60405180910390fd5b80600160006101000a81548173ffffffffffffffffffffffffffffffffffffffff021916908373ffffffffffffffffffffffffffffffffffffffff16021790555050565b60006003600084815260200190815260200160002060009054906101000a900460ff161561073f576002600084815260200190815260200160002060008373ffffffffffffffffffffffffffffffffffffffff1673ffffffffffffffffffffffffffffffffffffffff16815260200190815260200160002060009054906101000a900460ff1615806106ff575060008054906101000a900473ffffffffffffffffffffffffffffffffffffffff1673ffffffffffffffffffffffffffffffffffffffff166324d7806c836040518263ffffffff1660e01b81526004016106ae9190610c77565b60206040518083038186803b1580156106c657600080fd5b505afa1580156106da573d6000803e3d6000fd5b505050506040513d601f19601f820116820180604052508101906106fe9190610ac4565b5b61073e576040517f08c379a000000000000000000000000000000000000000000000000000000000815260040161073590610cff565b60405180910390fd5b5b60008054906101000a900473ffffffffffffffffffffffffffffffffffffffff1673ffffffffffffffffffffffffffffffffffffffff16632bf88d83846040518263ffffffff1660e01b81526004016107989190610d5f565b60206040518083038186803b1580156107b057600080fd5b505afa1580156107c4573d6000803e3d6000fd5b505050506040513d601f19601f820116820180604052508101906107e89190610b16565b3414610829576040517f08c379a000000000000000000000000000000000000000000000000000000000815260040161082090610d1f565b60405180910390fd5b60008060009054906101000a900473ffffffffffffffffffffffffffffffffffffffff1673ffffffffffffffffffffffffffffffffffffffff16630d4d15138686866040518463ffffffff1660e01b815260040161088993929190610cad565b602060405180830381600087803b1580156108a357600080fd5b505af11580156108b7573d6000803e3d6000fd5b505050506040513d601f19601f820116820180604052508101906108db9190610b16565b905060016002600086815260200190815260200160002060008573ffffffffffffffffffffffffffffffffffffffff1673ffffffffffffffffffffffffffffffffffffffff16815260200190815260200160002060006101000a81548160ff021916908315150217905550600160009054906101000a900473ffffffffffffffffffffffffffffffffffffffff1673ffffffffffffffffffffffffffffffffffffffff166108fc349081150290604051600060405180830381858888f193505050501580156109ae573d6000803e3d6000fd5b50809150509392505050565b6000813590506109c981610de5565b92915050565b6000813590506109de81610dfc565b92915050565b6000815190506109f381610e13565b92915050565b600081359050610a0881610e2a565b92915050565b600081519050610a1d81610e2a565b92915050565b600060208284031215610a3557600080fd5b6000610a43848285016109ba565b91505092915050565b600060208284031215610a5e57600080fd5b6000610a6c848285016109cf565b91505092915050565b600080600060608486031215610a8a57600080fd5b6000610a98868287016109ba565b9350506020610aa9868287016109f9565b9250506040610aba868287016109ba565b9150509250925092565b600060208284031215610ad657600080fd5b6000610ae4848285016109e4565b91505092915050565b600060208284031215610aff57600080fd5b6000610b0d848285016109f9565b91505092915050565b600060208284031215610b2857600080fd5b6000610b3684828501610a0e565b91505092915050565b60008060408385031215610b5257600080fd5b6000610b60858286016109f9565b9250506020610b71858286016109ba565b9150509250929050565b610b8481610d9d565b82525050565b610b9381610d8b565b82525050565b610ba281610daf565b82525050565b6000610bb5601f83610d7a565b91507f4c696d6974656420746f206f6e65206d696e74207065722061646472657373006000830152602082019050919050565b6000610bf5601883610d7a565b91507f496e636f7272656374207061796d656e7420616d6f756e7400000000000000006000830152602082019050919050565b6000610c35600a83610d7a565b91507f4f6e6c792061646d696e000000000000000000000000000000000000000000006000830152602082019050919050565b610c7181610ddb565b82525050565b6000602082019050610c8c6000830184610b8a565b92915050565b6000602082019050610ca76000830184610b7b565b92915050565b6000606082019050610cc26000830186610b8a565b610ccf6020830185610c68565b610cdc6040830184610b8a565b949350505050565b6000602082019050610cf96000830184610b99565b92915050565b60006020820190508181036000830152610d1881610ba8565b9050919050565b60006020820190508181036000830152610d3881610be8565b9050919050565b60006020820190508181036000830152610d5881610c28565b9050919050565b6000602082019050610d746000830184610c68565b92915050565b600082825260208201905092915050565b6000610d9682610dbb565b9050919050565b6000610da882610dbb565b9050919050565b60008115159050919050565b600073ffffffffffffffffffffffffffffffffffffffff82169050919050565b6000819050919050565b610dee81610d8b565b8114610df957600080fd5b50565b610e0581610d9d565b8114610e1057600080fd5b50565b610e1c81610daf565b8114610e2757600080fd5b50565b610e3381610ddb565b8114610e3e57600080fd5b5056fea26469706673582212204903821a848a0a01d351574f0bf541aea6e0726d71509deab2a88cf6fa1b8c1c64736f6c63430008000033",
  "linkReferences": {},
  "deployedLinkReferences": {}
}