{
  "_format": "hh-sol-artifact-1",
  "contractName": "GenerativeArtworksPayable",
  "sourceName": "contracts/GenerativeArtworksPayable.sol",
  "abi": [
    {
      "inputs": [
        {
          "internalType": "address",
          "name": "mintContractAddress",
          "type": "address"
        }
      ],
      "stateMutability": "nonpayable",
      "type": "constructor"
    },
    {
      "inputs": [
        {
          "internalType": "address",
          "name": "mintContractAddress",
          "type": "address"
        }
      ],
      "name": "changeMintContract",
      "outputs": [],
      "stateMutability": "nonpayable",
      "type": "function"
    },
    {
      "inputs": [
        {
          "internalType": "address payable",
          "name": "payableAddress",
          "type": "address"
        }
      ],
      "name": "changePayableAddress",
      "outputs": [],
      "stateMutability": "nonpayable",
      "type": "function"
    },
    {
      "inputs": [],
      "name": "generativeArtworksWallet",
      "outputs": [
        {
          "internalType": "address payable",
          "name": "",
          "type": "address"
        }
      ],
      "stateMutability": "view",
      "type": "function"
    },
    {
      "inputs": [
        {
          "internalType": "uint256",
          "name": "",
          "type": "uint256"
        },
        {
          "internalType": "address",
          "name": "",
          "type": "address"
        }
      ],
      "name": "hasMinted",
      "outputs": [
        {
          "internalType": "bool",
          "name": "",
          "type": "bool"
        }
      ],
      "stateMutability": "view",
      "type": "function"
    },
    {
      "inputs": [
        {
          "internalType": "uint256",
          "name": "",
          "type": "uint256"
        }
      ],
      "name": "isLimited",
      "outputs": [
        {
          "internalType": "bool",
          "name": "",
          "type": "bool"
        }
      ],
      "stateMutability": "view",
      "type": "function"
    },
    {
      "inputs": [
        {
          "internalType": "address",
          "name": "mintTo",
          "type": "address"
        },
        {
          "internalType": "uint256",
          "name": "pieceId",
          "type": "uint256"
        },
        {
          "internalType": "address",
          "name": "by",
          "type": "address"
        }
      ],
      "name": "purchase",
      "outputs": [
        {
          "internalType": "uint256",
          "name": "",
          "type": "uint256"
        }
      ],
      "stateMutability": "payable",
      "type": "function"
    },
    {
      "inputs": [
        {
          "internalType": "uint256",
          "name": "pieceId",
          "type": "uint256"
        }
      ],
      "name": "toggleIsLimited",
      "outputs": [],
      "stateMutability": "nonpayable",
      "type": "function"
    }
  ],
  "bytecode": "0x60806040523480156200001157600080fd5b50604051620015b4380380620015b48339818101604052810190620000379190620000d6565b806000806101000a81548173ffffffffffffffffffffffffffffffffffffffff021916908373ffffffffffffffffffffffffffffffffffffffff16021790555033600160006101000a81548173ffffffffffffffffffffffffffffffffffffffff021916908373ffffffffffffffffffffffffffffffffffffffff1602179055505062000150565b600081519050620000d08162000136565b92915050565b600060208284031215620000e957600080fd5b6000620000f984828501620000bf565b91505092915050565b60006200010f8262000116565b9050919050565b600073ffffffffffffffffffffffffffffffffffffffff82169050919050565b620001418162000102565b81146200014d57600080fd5b50565b61145480620001606000396000f3fe6080604052600436106100705760003560e01c80632320e0e91161004e5780632320e0e914610118578063504d5d9914610141578063956c7db51461016c578063e37840661461019557610070565b8063037807331461007557806308a90d5a146100b25780631c209f4c146100ef575b600080fd5b34801561008157600080fd5b5061009c60048036038101906100979190610eab565b6101c5565b6040516100a99190611050565b60405180910390f35b3480156100be57600080fd5b506100d960048036038101906100d49190610e59565b6101f4565b6040516100e69190611050565b60405180910390f35b3480156100fb57600080fd5b5061011660048036038101906101119190610e59565b610214565b005b34801561012457600080fd5b5061013f600480360381019061013a9190610d4e565b61034b565b005b34801561014d57600080fd5b50610156610476565b6040516101639190610ffe565b60405180910390f35b34801561017857600080fd5b50610193600480360381019061018e9190610d77565b61049c565b005b6101af60048036038101906101aa9190610da0565b6105c8565b6040516101bc91906110cb565b60405180910390f35b60026020528160005260406000206020528060005260406000206000915091509054906101000a900460ff1681565b60036020528060005260406000206000915054906101000a900460ff1681565b60008054906101000a900473ffffffffffffffffffffffffffffffffffffffff1673ffffffffffffffffffffffffffffffffffffffff166324d7806c336040518263ffffffff1660e01b815260040161026d9190610fe3565b60206040518083038186803b15801561028557600080fd5b505afa158015610299573d6000803e3d6000fd5b505050506040513d601f19601f820116820180604052508101906102bd9190610e30565b6102fc576040517f08c379a00000000000000000000000000000000000000000000000000000000081526004016102f3906110ab565b60405180910390fd5b6003600082815260200190815260200160002060009054906101000a900460ff16156003600083815260200190815260200160002060006101000a81548160ff02191690831515021790555050565b60008054906101000a900473ffffffffffffffffffffffffffffffffffffffff1673ffffffffffffffffffffffffffffffffffffffff166324d7806c336040518263ffffffff1660e01b81526004016103a49190610fe3565b60206040518083038186803b1580156103bc57600080fd5b505afa1580156103d0573d6000803e3d6000fd5b505050506040513d601f19601f820116820180604052508101906103f49190610e30565b610433576040517f08c379a000000000000000000000000000000000000000000000000000000000815260040161042a906110ab565b60405180910390fd5b806000806101000a81548173ffffffffffffffffffffffffffffffffffffffff021916908373ffffffffffffffffffffffffffffffffffffffff16021790555050565b600160009054906101000a900473ffffffffffffffffffffffffffffffffffffffff1681565b60008054906101000a900473ffffffffffffffffffffffffffffffffffffffff1673ffffffffffffffffffffffffffffffffffffffff166324d7806c336040518263ffffffff1660e01b81526004016104f59190610fe3565b60206040518083038186803b15801561050d57600080fd5b505afa158015610521573d6000803e3d6000fd5b505050506040513d601f19601f820116820180604052508101906105459190610e30565b610584576040517f08c379a000000000000000000000000000000000000000000000000000000000815260040161057b906110ab565b60405180910390fd5b80600160006101000a81548173ffffffffffffffffffffffffffffffffffffffff021916908373ffffffffffffffffffffffffffffffffffffffff16021790555050565b60006003600084815260200190815260200160002060009054906101000a900460ff161561073f576002600084815260200190815260200160002060008373ffffffffffffffffffffffffffffffffffffffff1673ffffffffffffffffffffffffffffffffffffffff16815260200190815260200160002060009054906101000a900460ff1615806106ff575060008054906101000a900473ffffffffffffffffffffffffffffffffffffffff1673ffffffffffffffffffffffffffffffffffffffff166324d7806c836040518263ffffffff1660e01b81526004016106ae9190610fe3565b60206040518083038186803b1580156106c657600080fd5b505afa1580156106da573d6000803e3d6000fd5b505050506040513d601f19601f820116820180604052508101906106fe9190610e30565b5b61073e576040517f08c379a00000000000000000000000000000000000000000000000000000000081526004016107359061106b565b60405180910390fd5b5b60008054906101000a900473ffffffffffffffffffffffffffffffffffffffff1673ffffffffffffffffffffffffffffffffffffffff16632bf88d83846040518263ffffffff1660e01b815260040161079891906110cb565b60206040518083038186803b1580156107b057600080fd5b505afa1580156107c4573d6000803e3d6000fd5b505050506040513d601f19601f820116820180604052508101906107e89190610e82565b3414610829576040517f08c379a00000000000000000000000000000000000000000000000000000000081526004016108209061108b565b60405180910390fd5b60008060009054906101000a900473ffffffffffffffffffffffffffffffffffffffff1673ffffffffffffffffffffffffffffffffffffffff16630d4d15138686866040518463ffffffff1660e01b815260040161088993929190611019565b602060405180830381600087803b1580156108a357600080fd5b505af11580156108b7573d6000803e3d6000fd5b505050506040513d601f19601f820116820180604052508101906108db9190610e82565b905060016002600086815260200190815260200160002060008573ffffffffffffffffffffffffffffffffffffffff1673ffffffffffffffffffffffffffffffffffffffff16815260200190815260200160002060006101000a81548160ff0219169083151502179055506000806000808060009054906101000a900473ffffffffffffffffffffffffffffffffffffffff1673ffffffffffffffffffffffffffffffffffffffff166358aea421896040518263ffffffff1660e01b81526004016109a691906110cb565b60006040518083038186803b1580156109be57600080fd5b505afa1580156109d2573d6000803e3d6000fd5b505050506040513d6000823e3d601f19601f820116820180604052508101906109fb9190610def565b9050600091505b8051821015610bb75760008054906101000a900473ffffffffffffffffffffffffffffffffffffffff1673ffffffffffffffffffffffffffffffffffffffff16639fa64b4f89838581518110610a81577f4e487b7100000000000000000000000000000000000000000000000000000000600052603260045260246000fd5b60200260200101516040518363ffffffff1660e01b8152600401610aa69291906110e6565b60206040518083038186803b158015610abe57600080fd5b505afa158015610ad2573d6000803e3d6000fd5b505050506040513d601f19601f82011682018060405250810190610af69190610e82565b606434610b0391906111d3565b610b0d9190611204565b9250808281518110610b48577f4e487b7100000000000000000000000000000000000000000000000000000000600052603260045260246000fd5b602002602001015173ffffffffffffffffffffffffffffffffffffffff166108fc849081150290604051600060405180830381858888f19350505050158015610b95573d6000803e3d6000fd5b508284610ba2919061117d565b93508180610baf906112ec565b925050610a02565b600160009054906101000a900473ffffffffffffffffffffffffffffffffffffffff1673ffffffffffffffffffffffffffffffffffffffff166108fc8534610bff919061125e565b9081150290604051600060405180830381858888f19350505050158015610c2a573d6000803e3d6000fd5b5084955050505050509392505050565b6000610c4d610c4884611140565b61110f565b90508083825260208201905082856020860282011115610c6c57600080fd5b60005b85811015610c9c5781610c828882610cbb565b845260208401935060208301925050600181019050610c6f565b5050509392505050565b600081359050610cb5816113c2565b92915050565b600081519050610cca816113c2565b92915050565b600081359050610cdf816113d9565b92915050565b600082601f830112610cf657600080fd5b8151610d06848260208601610c3a565b91505092915050565b600081519050610d1e816113f0565b92915050565b600081359050610d3381611407565b92915050565b600081519050610d4881611407565b92915050565b600060208284031215610d6057600080fd5b6000610d6e84828501610ca6565b91505092915050565b600060208284031215610d8957600080fd5b6000610d9784828501610cd0565b91505092915050565b600080600060608486031215610db557600080fd5b6000610dc386828701610ca6565b9350506020610dd486828701610d24565b9250506040610de586828701610ca6565b9150509250925092565b600060208284031215610e0157600080fd5b600082015167ffffffffffffffff811115610e1b57600080fd5b610e2784828501610ce5565b91505092915050565b600060208284031215610e4257600080fd5b6000610e5084828501610d0f565b91505092915050565b600060208284031215610e6b57600080fd5b6000610e7984828501610d24565b91505092915050565b600060208284031215610e9457600080fd5b6000610ea284828501610d39565b91505092915050565b60008060408385031215610ebe57600080fd5b6000610ecc85828601610d24565b9250506020610edd85828601610ca6565b9150509250929050565b610ef0816112a4565b82525050565b610eff81611292565b82525050565b610f0e816112b6565b82525050565b6000610f21601f8361116c565b91507f4c696d6974656420746f206f6e65206d696e74207065722061646472657373006000830152602082019050919050565b6000610f6160188361116c565b91507f496e636f7272656374207061796d656e7420616d6f756e7400000000000000006000830152602082019050919050565b6000610fa1600a8361116c565b91507f4f6e6c792061646d696e000000000000000000000000000000000000000000006000830152602082019050919050565b610fdd816112e2565b82525050565b6000602082019050610ff86000830184610ef6565b92915050565b60006020820190506110136000830184610ee7565b92915050565b600060608201905061102e6000830186610ef6565b61103b6020830185610fd4565b6110486040830184610ef6565b949350505050565b60006020820190506110656000830184610f05565b92915050565b6000602082019050818103600083015261108481610f14565b9050919050565b600060208201905081810360008301526110a481610f54565b9050919050565b600060208201905081810360008301526110c481610f94565b9050919050565b60006020820190506110e06000830184610fd4565b92915050565b60006040820190506110fb6000830185610fd4565b6111086020830184610ef6565b9392505050565b6000604051905081810181811067ffffffffffffffff8211171561113657611135611393565b5b8060405250919050565b600067ffffffffffffffff82111561115b5761115a611393565b5b602082029050602081019050919050565b600082825260208201905092915050565b6000611188826112e2565b9150611193836112e2565b9250827fffffffffffffffffffffffffffffffffffffffffffffffffffffffffffffffff038211156111c8576111c7611335565b5b828201905092915050565b60006111de826112e2565b91506111e9836112e2565b9250826111f9576111f8611364565b5b828204905092915050565b600061120f826112e2565b915061121a836112e2565b9250817fffffffffffffffffffffffffffffffffffffffffffffffffffffffffffffffff048311821515161561125357611252611335565b5b828202905092915050565b6000611269826112e2565b9150611274836112e2565b92508282101561128757611286611335565b5b828203905092915050565b600061129d826112c2565b9050919050565b60006112af826112c2565b9050919050565b60008115159050919050565b600073ffffffffffffffffffffffffffffffffffffffff82169050919050565b6000819050919050565b60006112f7826112e2565b91507fffffffffffffffffffffffffffffffffffffffffffffffffffffffffffffffff82141561132a57611329611335565b5b600182019050919050565b7f4e487b7100000000000000000000000000000000000000000000000000000000600052601160045260246000fd5b7f4e487b7100000000000000000000000000000000000000000000000000000000600052601260045260246000fd5b7f4e487b7100000000000000000000000000000000000000000000000000000000600052604160045260246000fd5b6113cb81611292565b81146113d657600080fd5b50565b6113e2816112a4565b81146113ed57600080fd5b50565b6113f9816112b6565b811461140457600080fd5b50565b611410816112e2565b811461141b57600080fd5b5056fea2646970667358221220ac9e0db0869aa233ca4f98257a11c1e456631f1c70dd0c9fdb77670167a5cb0064736f6c63430008000033",
  "linkReferences": {},
  "deployedLinkReferences": {}
}