{
  "_format": "hh-sol-artifact-1",
  "contractName": "GenerativeArtworksERC721",
  "sourceName": "contracts/GenerativeArtworksPayable.sol",
  "abi": [
    {
      "inputs": [
        {
          "internalType": "address",
          "name": "",
          "type": "address"
        }
      ],
      "name": "isAdmin",
      "outputs": [
        {
          "internalType": "bool",
          "name": "",
          "type": "bool"
        }
      ],
      "stateMutability": "view",
      "type": "function"
    },
    {
      "inputs": [
        {
          "internalType": "address",
          "name": "to",
          "type": "address"
        },
        {
          "internalType": "uint256",
          "name": "pieceId",
          "type": "uint256"
        },
        {
          "internalType": "address",
          "name": "by",
          "type": "address"
        }
      ],
      "name": "mint",
      "outputs": [
        {
          "internalType": "uint256",
          "name": "",
          "type": "uint256"
        }
      ],
      "stateMutability": "nonpayable",
      "type": "function"
    },
    {
      "inputs": [
        {
          "internalType": "uint256",
          "name": "",
          "type": "uint256"
        }
      ],
      "name": "pieceIdToPricePerPrintInWei",
      "outputs": [
        {
          "internalType": "uint256",
          "name": "",
          "type": "uint256"
        }
      ],
      "stateMutability": "view",
      "type": "function"
    }
  ],
  "bytecode": "0x608060405234801561001057600080fd5b506102e2806100206000396000f3fe608060405234801561001057600080fd5b50600436106100415760003560e01c80630d4d15131461004657806324d7806c146100765780632bf88d83146100a6575b600080fd5b610060600480360381019061005b919061016a565b6100d6565b60405161006d919061021b565b60405180910390f35b610090600480360381019061008b9190610141565b6100df565b60405161009d9190610200565b60405180910390f35b6100c060048036038101906100bb91906101b9565b6100ff565b6040516100cd919061021b565b60405180910390f35b60009392505050565b60016020528060005260406000206000915054906101000a900460ff1681565b60006020528060005260406000206000915090505481565b6000813590506101268161027e565b92915050565b60008135905061013b81610295565b92915050565b60006020828403121561015357600080fd5b600061016184828501610117565b91505092915050565b60008060006060848603121561017f57600080fd5b600061018d86828701610117565b935050602061019e8682870161012c565b92505060406101af86828701610117565b9150509250925092565b6000602082840312156101cb57600080fd5b60006101d98482850161012c565b91505092915050565b6101eb81610248565b82525050565b6101fa81610274565b82525050565b600060208201905061021560008301846101e2565b92915050565b600060208201905061023060008301846101f1565b92915050565b600061024182610254565b9050919050565b60008115159050919050565b600073ffffffffffffffffffffffffffffffffffffffff82169050919050565b6000819050919050565b61028781610236565b811461029257600080fd5b50565b61029e81610274565b81146102a957600080fd5b5056fea26469706673582212205dcd0d91380957c81b38d0fe8cc0606887acace6908aed4868f4acfdd884cfa064736f6c63430008000033",
  "linkReferences": {},
  "deployedLinkReferences": {}
}