{
  "_format": "hh-sol-artifact-1",
  "contractName": "GenerativeArtworks",
  "sourceName": "contracts/GenerativeArtworks.sol",
  "abi": [
    {
      "inputs": [
        {
          "internalType": "string",
          "name": "tokenName",
          "type": "string"
        },
        {
          "internalType": "string",
          "name": "tokenSymbol",
          "type": "string"
        }
      ],
      "stateMutability": "nonpayable",
      "type": "constructor"
    },
    {
      "anonymous": false,
      "inputs": [
        {
          "indexed": true,
          "internalType": "address",
          "name": "owner",
          "type": "address"
        },
        {
          "indexed": true,
          "internalType": "address",
          "name": "approved",
          "type": "address"
        },
        {
          "indexed": true,
          "internalType": "uint256",
          "name": "tokenId",
          "type": "uint256"
        }
      ],
      "name": "Approval",
      "type": "event"
    },
    {
      "anonymous": false,
      "inputs": [
        {
          "indexed": true,
          "internalType": "address",
          "name": "owner",
          "type": "address"
        },
        {
          "indexed": true,
          "internalType": "address",
          "name": "operator",
          "type": "address"
        },
        {
          "indexed": false,
          "internalType": "bool",
          "name": "approved",
          "type": "bool"
        }
      ],
      "name": "ApprovalForAll",
      "type": "event"
    },
    {
      "anonymous": false,
      "inputs": [
        {
          "indexed": true,
          "internalType": "address",
          "name": "_to",
          "type": "address"
        },
        {
          "indexed": true,
          "internalType": "uint256",
          "name": "_printId",
          "type": "uint256"
        },
        {
          "indexed": true,
          "internalType": "uint256",
          "name": "_pieceId",
          "type": "uint256"
        }
      ],
      "name": "Mint",
      "type": "event"
    },
    {
      "anonymous": false,
      "inputs": [
        {
          "indexed": true,
          "internalType": "address",
          "name": "from",
          "type": "address"
        },
        {
          "indexed": true,
          "internalType": "address",
          "name": "to",
          "type": "address"
        },
        {
          "indexed": true,
          "internalType": "uint256",
          "name": "tokenId",
          "type": "uint256"
        }
      ],
      "name": "Transfer",
      "type": "event"
    },
    {
      "inputs": [
        {
          "internalType": "address",
          "name": "_address",
          "type": "address"
        }
      ],
      "name": "addMintAllowlisted",
      "outputs": [],
      "stateMutability": "nonpayable",
      "type": "function"
    },
    {
      "inputs": [
        {
          "internalType": "string",
          "name": "pieceName",
          "type": "string"
        }
      ],
      "name": "addPiece",
      "outputs": [],
      "stateMutability": "nonpayable",
      "type": "function"
    },
    {
      "inputs": [
        {
          "internalType": "address",
          "name": "to",
          "type": "address"
        },
        {
          "internalType": "uint256",
          "name": "tokenId",
          "type": "uint256"
        }
      ],
      "name": "approve",
      "outputs": [],
      "stateMutability": "nonpayable",
      "type": "function"
    },
    {
      "inputs": [
        {
          "internalType": "address",
          "name": "owner",
          "type": "address"
        }
      ],
      "name": "balanceOf",
      "outputs": [
        {
          "internalType": "uint256",
          "name": "",
          "type": "uint256"
        }
      ],
      "stateMutability": "view",
      "type": "function"
    },
    {
      "inputs": [
        {
          "internalType": "uint256",
          "name": "tokenId",
          "type": "uint256"
        }
      ],
      "name": "getApproved",
      "outputs": [
        {
          "internalType": "address",
          "name": "",
          "type": "address"
        }
      ],
      "stateMutability": "view",
      "type": "function"
    },
    {
      "inputs": [
        {
          "internalType": "address",
          "name": "",
          "type": "address"
        }
      ],
      "name": "isAdmin",
      "outputs": [
        {
          "internalType": "bool",
          "name": "",
          "type": "bool"
        }
      ],
      "stateMutability": "view",
      "type": "function"
    },
    {
      "inputs": [
        {
          "internalType": "address",
          "name": "owner",
          "type": "address"
        },
        {
          "internalType": "address",
          "name": "operator",
          "type": "address"
        }
      ],
      "name": "isApprovedForAll",
      "outputs": [
        {
          "internalType": "bool",
          "name": "",
          "type": "bool"
        }
      ],
      "stateMutability": "view",
      "type": "function"
    },
    {
      "inputs": [
        {
          "internalType": "address",
          "name": "",
          "type": "address"
        }
      ],
      "name": "isMintAllowlisted",
      "outputs": [
        {
          "internalType": "bool",
          "name": "",
          "type": "bool"
        }
      ],
      "stateMutability": "view",
      "type": "function"
    },
    {
      "inputs": [
        {
          "internalType": "uint256",
          "name": "pieceId",
          "type": "uint256"
        }
      ],
      "name": "lockPiece",
      "outputs": [],
      "stateMutability": "nonpayable",
      "type": "function"
    },
    {
      "inputs": [
        {
          "internalType": "address",
          "name": "to",
          "type": "address"
        },
        {
          "internalType": "uint256",
          "name": "pieceId",
          "type": "uint256"
        },
        {
          "internalType": "address",
          "name": "by",
          "type": "address"
        }
      ],
      "name": "mint",
      "outputs": [
        {
          "internalType": "uint256",
          "name": "",
          "type": "uint256"
        }
      ],
      "stateMutability": "nonpayable",
      "type": "function"
    },
    {
      "inputs": [],
      "name": "name",
      "outputs": [
        {
          "internalType": "string",
          "name": "",
          "type": "string"
        }
      ],
      "stateMutability": "view",
      "type": "function"
    },
    {
      "inputs": [],
      "name": "nextPieceId",
      "outputs": [
        {
          "internalType": "uint256",
          "name": "",
          "type": "uint256"
        }
      ],
      "stateMutability": "view",
      "type": "function"
    },
    {
      "inputs": [
        {
          "internalType": "uint256",
          "name": "tokenId",
          "type": "uint256"
        }
      ],
      "name": "ownerOf",
      "outputs": [
        {
          "internalType": "address",
          "name": "",
          "type": "address"
        }
      ],
      "stateMutability": "view",
      "type": "function"
    },
    {
      "inputs": [
        {
          "internalType": "uint256",
          "name": "pieceId",
          "type": "uint256"
        }
      ],
      "name": "pieceDetails",
      "outputs": [
        {
          "internalType": "string",
          "name": "pieceName_",
          "type": "string"
        },
        {
          "internalType": "string",
          "name": "description_",
          "type": "string"
        },
        {
          "internalType": "string",
          "name": "license_",
          "type": "string"
        },
        {
          "internalType": "uint256",
          "name": "pricePerPrintInWei_",
          "type": "uint256"
        },
        {
          "internalType": "uint256",
          "name": "currentPrints_",
          "type": "uint256"
        },
        {
          "internalType": "uint256",
          "name": "maxPrints_",
          "type": "uint256"
        },
        {
          "internalType": "bool",
          "name": "active_",
          "type": "bool"
        },
        {
          "internalType": "bool",
          "name": "paused_",
          "type": "bool"
        },
        {
          "internalType": "bool",
          "name": "locked_",
          "type": "bool"
        }
      ],
      "stateMutability": "view",
      "type": "function"
    },
    {
      "inputs": [
        {
          "internalType": "uint256",
          "name": "",
          "type": "uint256"
        }
      ],
      "name": "pieceIdToPricePerPrintInWei",
      "outputs": [
        {
          "internalType": "uint256",
          "name": "",
          "type": "uint256"
        }
      ],
      "stateMutability": "view",
      "type": "function"
    },
    {
      "inputs": [
        {
          "internalType": "uint256",
          "name": "pieceId",
          "type": "uint256"
        }
      ],
      "name": "pieceScript",
      "outputs": [
        {
          "internalType": "string",
          "name": "",
          "type": "string"
        }
      ],
      "stateMutability": "view",
      "type": "function"
    },
    {
      "inputs": [
        {
          "internalType": "uint256",
          "name": "pieceId",
          "type": "uint256"
        }
      ],
      "name": "pieceShowAllPrints",
      "outputs": [
        {
          "internalType": "uint256[]",
          "name": "",
          "type": "uint256[]"
        }
      ],
      "stateMutability": "view",
      "type": "function"
    },
    {
      "inputs": [
        {
          "internalType": "uint256",
          "name": "",
          "type": "uint256"
        }
      ],
      "name": "printIdToHash",
      "outputs": [
        {
          "internalType": "bytes32",
          "name": "",
          "type": "bytes32"
        }
      ],
      "stateMutability": "view",
      "type": "function"
    },
    {
      "inputs": [
        {
          "internalType": "uint256",
          "name": "",
          "type": "uint256"
        }
      ],
      "name": "printIdToPieceId",
      "outputs": [
        {
          "internalType": "uint256",
          "name": "",
          "type": "uint256"
        }
      ],
      "stateMutability": "view",
      "type": "function"
    },
    {
      "inputs": [
        {
          "internalType": "address",
          "name": "_address",
          "type": "address"
        }
      ],
      "name": "removeMintAllowlisted",
      "outputs": [],
      "stateMutability": "nonpayable",
      "type": "function"
    },
    {
      "inputs": [
        {
          "internalType": "address",
          "name": "from",
          "type": "address"
        },
        {
          "internalType": "address",
          "name": "to",
          "type": "address"
        },
        {
          "internalType": "uint256",
          "name": "tokenId",
          "type": "uint256"
        }
      ],
      "name": "safeTransferFrom",
      "outputs": [],
      "stateMutability": "nonpayable",
      "type": "function"
    },
    {
      "inputs": [
        {
          "internalType": "address",
          "name": "from",
          "type": "address"
        },
        {
          "internalType": "address",
          "name": "to",
          "type": "address"
        },
        {
          "internalType": "uint256",
          "name": "tokenId",
          "type": "uint256"
        },
        {
          "internalType": "bytes",
          "name": "_data",
          "type": "bytes"
        }
      ],
      "name": "safeTransferFrom",
      "outputs": [],
      "stateMutability": "nonpayable",
      "type": "function"
    },
    {
      "inputs": [
        {
          "internalType": "address",
          "name": "operator",
          "type": "address"
        },
        {
          "internalType": "bool",
          "name": "approved",
          "type": "bool"
        }
      ],
      "name": "setApprovalForAll",
      "outputs": [],
      "stateMutability": "nonpayable",
      "type": "function"
    },
    {
      "inputs": [
        {
          "internalType": "bytes4",
          "name": "interfaceId",
          "type": "bytes4"
        }
      ],
      "name": "supportsInterface",
      "outputs": [
        {
          "internalType": "bool",
          "name": "",
          "type": "bool"
        }
      ],
      "stateMutability": "view",
      "type": "function"
    },
    {
      "inputs": [],
      "name": "symbol",
      "outputs": [
        {
          "internalType": "string",
          "name": "",
          "type": "string"
        }
      ],
      "stateMutability": "view",
      "type": "function"
    },
    {
      "inputs": [
        {
          "internalType": "uint256",
          "name": "pieceId",
          "type": "uint256"
        }
      ],
      "name": "togglePieceIsActive",
      "outputs": [],
      "stateMutability": "nonpayable",
      "type": "function"
    },
    {
      "inputs": [
        {
          "internalType": "uint256",
          "name": "pieceId",
          "type": "uint256"
        }
      ],
      "name": "togglePieceIsPaused",
      "outputs": [],
      "stateMutability": "nonpayable",
      "type": "function"
    },
    {
      "inputs": [
        {
          "internalType": "uint256",
          "name": "index",
          "type": "uint256"
        }
      ],
      "name": "tokenByIndex",
      "outputs": [
        {
          "internalType": "uint256",
          "name": "",
          "type": "uint256"
        }
      ],
      "stateMutability": "view",
      "type": "function"
    },
    {
      "inputs": [
        {
          "internalType": "address",
          "name": "owner",
          "type": "address"
        },
        {
          "internalType": "uint256",
          "name": "index",
          "type": "uint256"
        }
      ],
      "name": "tokenOfOwnerByIndex",
      "outputs": [
        {
          "internalType": "uint256",
          "name": "",
          "type": "uint256"
        }
      ],
      "stateMutability": "view",
      "type": "function"
    },
    {
      "inputs": [
        {
          "internalType": "uint256",
          "name": "printId",
          "type": "uint256"
        }
      ],
      "name": "tokenURI",
      "outputs": [
        {
          "internalType": "string",
          "name": "",
          "type": "string"
        }
      ],
      "stateMutability": "view",
      "type": "function"
    },
    {
      "inputs": [],
      "name": "totalSupply",
      "outputs": [
        {
          "internalType": "uint256",
          "name": "",
          "type": "uint256"
        }
      ],
      "stateMutability": "view",
      "type": "function"
    },
    {
      "inputs": [
        {
          "internalType": "address",
          "name": "from",
          "type": "address"
        },
        {
          "internalType": "address",
          "name": "to",
          "type": "address"
        },
        {
          "internalType": "uint256",
          "name": "tokenId",
          "type": "uint256"
        }
      ],
      "name": "transferFrom",
      "outputs": [],
      "stateMutability": "nonpayable",
      "type": "function"
    },
    {
      "inputs": [
        {
          "internalType": "uint256",
          "name": "pieceId",
          "type": "uint256"
        },
        {
          "internalType": "string",
          "name": "newBaseURI",
          "type": "string"
        }
      ],
      "name": "updatePieceBaseURI",
      "outputs": [],
      "stateMutability": "nonpayable",
      "type": "function"
    },
    {
      "inputs": [
        {
          "internalType": "uint256",
          "name": "pieceId",
          "type": "uint256"
        },
        {
          "internalType": "string",
          "name": "pieceDescription",
          "type": "string"
        }
      ],
      "name": "updatePieceDescription",
      "outputs": [],
      "stateMutability": "nonpayable",
      "type": "function"
    },
    {
      "inputs": [
        {
          "internalType": "uint256",
          "name": "pieceId",
          "type": "uint256"
        },
        {
          "internalType": "string",
          "name": "pieceLicense",
          "type": "string"
        }
      ],
      "name": "updatePieceLicense",
      "outputs": [],
      "stateMutability": "nonpayable",
      "type": "function"
    },
    {
      "inputs": [
        {
          "internalType": "uint256",
          "name": "pieceId",
          "type": "uint256"
        },
        {
          "internalType": "uint256",
          "name": "maxPrints",
          "type": "uint256"
        }
      ],
      "name": "updatePieceMaxPrints",
      "outputs": [],
      "stateMutability": "nonpayable",
      "type": "function"
    },
    {
      "inputs": [
        {
          "internalType": "uint256",
          "name": "pieceId",
          "type": "uint256"
        },
        {
          "internalType": "string",
          "name": "pieceName",
          "type": "string"
        }
      ],
      "name": "updatePieceName",
      "outputs": [],
      "stateMutability": "nonpayable",
      "type": "function"
    },
    {
      "inputs": [
        {
          "internalType": "uint256",
          "name": "pieceId",
          "type": "uint256"
        },
        {
          "internalType": "uint256",
          "name": "pricePerPrintInWei",
          "type": "uint256"
        }
      ],
      "name": "updatePiecePricePerPrintInWei",
      "outputs": [],
      "stateMutability": "nonpayable",
      "type": "function"
    },
    {
      "inputs": [
        {
          "internalType": "uint256",
          "name": "pieceId",
          "type": "uint256"
        },
        {
          "internalType": "string",
          "name": "script",
          "type": "string"
        }
      ],
      "name": "updatePieceScript",
      "outputs": [],
      "stateMutability": "nonpayable",
      "type": "function"
    }
  ],
  "bytecode": "0x608060405260006011553480156200001657600080fd5b50604051620055a6380380620055a683398181016040528101906200003c9190620001f4565b8181816000908051906020019062000056929190620000d2565b5080600190805190602001906200006f929190620000d2565b5050506001600c60003373ffffffffffffffffffffffffffffffffffffffff1673ffffffffffffffffffffffffffffffffffffffff16815260200190815260200160002060006101000a81548160ff021916908315150217905550505062000398565b828054620000e09062000304565b90600052602060002090601f01602090048101928262000104576000855562000150565b82601f106200011f57805160ff191683800117855562000150565b8280016001018555821562000150579182015b828111156200014f57825182559160200191906001019062000132565b5b5090506200015f919062000163565b5090565b5b808211156200017e57600081600090555060010162000164565b5090565b60006200019962000193846200029b565b62000267565b905082815260208101848484011115620001b257600080fd5b620001bf848285620002ce565b509392505050565b600082601f830112620001d957600080fd5b8151620001eb84826020860162000182565b91505092915050565b600080604083850312156200020857600080fd5b600083015167ffffffffffffffff8111156200022357600080fd5b6200023185828601620001c7565b925050602083015167ffffffffffffffff8111156200024f57600080fd5b6200025d85828601620001c7565b9150509250929050565b6000604051905081810181811067ffffffffffffffff8211171562000291576200029062000369565b5b8060405250919050565b600067ffffffffffffffff821115620002b957620002b862000369565b5b601f19601f8301169050602081019050919050565b60005b83811015620002ee578082015181840152602081019050620002d1565b83811115620002fe576000848401525b50505050565b600060028204905060018216806200031d57607f821691505b602082108114156200033457620003336200033a565b5b50919050565b7f4e487b7100000000000000000000000000000000000000000000000000000000600052602260045260246000fd5b7f4e487b7100000000000000000000000000000000000000000000000000000000600052604160045260246000fd5b6151fe80620003a86000396000f3fe608060405234801561001057600080fd5b506004361061023d5760003560e01c80635604fccc1161013b578063a22cb465116100b8578063c6d2a7af1161007c578063c6d2a7af1461070e578063c87b56dd1461072a578063e6ed84001461075a578063e985e9c51461078a578063eb3a86e3146107ba5761023d565b8063a22cb46514610666578063a94887cd14610682578063b7d76b7a146106ba578063b88d4fde146106d6578063bb98f6fd146106f25761023d565b8063729acb09116100ff578063729acb09146105c45780638447d42b146105e057806395952e05146105fc57806395d89b41146106185780639692dff0146106365761023d565b80635604fccc146104fc5780635c6be2ab146105185780636352211e1461053457806363e56aaa1461056457806370a08231146105945761023d565b8063236d8e89116101c95780632c0a8b381161018d5780632c0a8b38146104485780632f745c591461046457806342842e0e146104945780634f278e5a146104b05780634f6ccce7146104cc5761023d565b8063236d8e891461039257806323b872dd146103ae57806324d7806c146103ca5780632812a794146103fa5780632bf88d83146104185761023d565b80630d4d1513116102105780630d4d1513146102dc5780630e16cf931461030c57806311f373d01461032857806318160ddd14610344578063189a17a4146103625761023d565b806301ffc9a71461024257806306fdde0314610272578063081812fc14610290578063095ea7b3146102c0575b600080fd5b61025c60048036038101906102579190613b4d565b6107ea565b6040516102699190614882565b60405180910390f35b61027a610864565b60405161028791906148b8565b60405180910390f35b6102aa60048036038101906102a59190613be0565b6108f6565b6040516102b791906147f9565b60405180910390f35b6102da60048036038101906102d59190613ac2565b61097b565b005b6102f660048036038101906102f19190613afe565b610a93565b6040516103039190614c9c565b60405180910390f35b61032660048036038101906103219190613957565b610d71565b005b610342600480360381019061033d9190613c5d565b610e58565b005b61034c611025565b6040516103599190614c9c565b60405180910390f35b61037c60048036038101906103779190613957565b611032565b6040516103899190614882565b60405180910390f35b6103ac60048036038101906103a79190613b9f565b611052565b005b6103c860048036038101906103c391906139bc565b611158565b005b6103e460048036038101906103df9190613957565b6111b8565b6040516103f19190614882565b60405180910390f35b6104026111d8565b60405161040f9190614c9c565b60405180910390f35b610432600480360381019061042d9190613be0565b6111de565b60405161043f9190614c9c565b60405180910390f35b610462600480360381019061045d9190613c5d565b6111f6565b005b61047e60048036038101906104799190613ac2565b61129e565b60405161048b9190614c9c565b60405180910390f35b6104ae60048036038101906104a991906139bc565b611343565b005b6104ca60048036038101906104c59190613957565b611363565b005b6104e660048036038101906104e19190613be0565b61144a565b6040516104f39190614c9c565b60405180910390f35b61051660048036038101906105119190613c09565b6114e1565b005b610532600480360381019061052d9190613c09565b61159c565b005b61054e60048036038101906105499190613be0565b611657565b60405161055b91906147f9565b60405180910390f35b61057e60048036038101906105799190613be0565b611709565b60405161058b919061489d565b60405180910390f35b6105ae60048036038101906105a99190613957565b611721565b6040516105bb9190614c9c565b60405180910390f35b6105de60048036038101906105d99190613c09565b6117d9565b005b6105fa60048036038101906105f59190613c09565b6118fa565b005b61061660048036038101906106119190613be0565b611a1b565b005b610620611afc565b60405161062d91906148b8565b60405180910390f35b610650600480360381019061064b9190613be0565b611b8e565b60405161065d91906148b8565b60405180910390f35b610680600480360381019061067b9190613a86565b611c36565b005b61069c60048036038101906106979190613be0565b611db7565b6040516106b1999897969594939291906148da565b60405180910390f35b6106d460048036038101906106cf9190613c09565b61206f565b005b6106f060048036038101906106eb9190613a0b565b612190565b005b61070c60048036038101906107079190613be0565b6121f2565b005b61072860048036038101906107239190613be0565b6122d3565b005b610744600480360381019061073f9190613be0565b6123f7565b60405161075191906148b8565b60405180910390f35b610774600480360381019061076f9190613be0565b61249c565b6040516107819190614860565b60405180910390f35b6107a4600480360381019061079f9190613980565b612507565b6040516107b19190614882565b60405180910390f35b6107d460048036038101906107cf9190613be0565b61259b565b6040516107e19190614c9c565b60405180910390f35b60007f780e9d63000000000000000000000000000000000000000000000000000000007bffffffffffffffffffffffffffffffffffffffffffffffffffffffff1916827bffffffffffffffffffffffffffffffffffffffffffffffffffffffff1916148061085d575061085c826125b3565b5b9050919050565b60606000805461087390614fae565b80601f016020809104026020016040519081016040528092919081815260200182805461089f90614fae565b80156108ec5780601f106108c1576101008083540402835291602001916108ec565b820191906000526020600020905b8154815290600101906020018083116108cf57829003601f168201915b5050505050905090565b600061090182612695565b610940576040517f08c379a000000000000000000000000000000000000000000000000000000000815260040161093790614b7c565b60405180910390fd5b6004600083815260200190815260200160002060009054906101000a900473ffffffffffffffffffffffffffffffffffffffff169050919050565b600061098682611657565b90508073ffffffffffffffffffffffffffffffffffffffff168373ffffffffffffffffffffffffffffffffffffffff1614156109f7576040517f08c379a00000000000000000000000000000000000000000000000000000000081526004016109ee90614bdc565b60405180910390fd5b8073ffffffffffffffffffffffffffffffffffffffff16610a16612701565b73ffffffffffffffffffffffffffffffffffffffff161480610a455750610a4481610a3f612701565b612507565b5b610a84576040517f08c379a0000000000000000000000000000000000000000000000000000000008152600401610a7b90614adc565b60405180910390fd5b610a8e8383612709565b505050565b6000601060003373ffffffffffffffffffffffffffffffffffffffff1673ffffffffffffffffffffffffffffffffffffffff16815260200190815260200160002060009054906101000a900460ff1680610b365750600c60003373ffffffffffffffffffffffffffffffffffffffff1673ffffffffffffffffffffffffffffffffffffffff16815260200190815260200160002060009054906101000a900460ff165b610b75576040517f08c379a0000000000000000000000000000000000000000000000000000000008152600401610b6c90614b3c565b60405180910390fd5b600a6000848152602001908152602001600020600501546001600a600086815260200190815260200160002060040154610baf9190614dd9565b1115610bf0576040517f08c379a0000000000000000000000000000000000000000000000000000000008152600401610be790614c1c565b60405180910390fd5b600a600084815260200190815260200160002060070160009054906101000a900460ff1680610c685750600c60008373ffffffffffffffffffffffffffffffffffffffff1673ffffffffffffffffffffffffffffffffffffffff16815260200190815260200160002060009054906101000a900460ff165b610ca7576040517f08c379a0000000000000000000000000000000000000000000000000000000008152600401610c9e90614c7c565b60405180910390fd5b600a600084815260200190815260200160002060070160029054906101000a900460ff1680610d1f5750600c60008373ffffffffffffffffffffffffffffffffffffffff1673ffffffffffffffffffffffffffffffffffffffff16815260200190815260200160002060009054906101000a900460ff165b610d5e576040517f08c379a0000000000000000000000000000000000000000000000000000000008152600401610d5590614abc565b60405180910390fd5b610d6884846127c2565b90509392505050565b600c60003373ffffffffffffffffffffffffffffffffffffffff1673ffffffffffffffffffffffffffffffffffffffff16815260200190815260200160002060009054906101000a900460ff16610dfd576040517f08c379a0000000000000000000000000000000000000000000000000000000008152600401610df490614a5c565b60405180910390fd5b6001601060008373ffffffffffffffffffffffffffffffffffffffff1673ffffffffffffffffffffffffffffffffffffffff16815260200190815260200160002060006101000a81548160ff02191690831515021790555050565b600c60003373ffffffffffffffffffffffffffffffffffffffff1673ffffffffffffffffffffffffffffffffffffffff16815260200190815260200160002060009054906101000a900460ff16610ee4576040517f08c379a0000000000000000000000000000000000000000000000000000000008152600401610edb90614a5c565b60405180910390fd5b600a600083815260200190815260200160002060070160019054906101000a900460ff161580610f295750600a60008381526020019081526020016000206005015481105b610f68576040517f08c379a0000000000000000000000000000000000000000000000000000000008152600401610f5f9061497c565b60405180910390fd5b600a6000838152602001908152602001600020600401548111610fc0576040517f08c379a0000000000000000000000000000000000000000000000000000000008152600401610fb79061499c565b60405180910390fd5b620f4240811115611006576040517f08c379a0000000000000000000000000000000000000000000000000000000008152600401610ffd90614bfc565b60405180910390fd5b80600a6000848152602001908152602001600020600501819055505050565b6000600880549050905090565b60106020528060005260406000206000915054906101000a900460ff1681565b600c60003373ffffffffffffffffffffffffffffffffffffffff1673ffffffffffffffffffffffffffffffffffffffff16815260200190815260200160002060009054906101000a900460ff166110de576040517f08c379a00000000000000000000000000000000000000000000000000000000081526004016110d590614a5c565b60405180910390fd5b6000601154905081600a6000838152602001908152602001600020600001908051906020019061110f92919061377b565b506001600a600083815260200190815260200160002060070160026101000a81548160ff021916908315150217905550600160115461114e9190614dd9565b6011819055505050565b611169611163612701565b8261294c565b6111a8576040517f08c379a000000000000000000000000000000000000000000000000000000000815260040161119f90614c3c565b60405180910390fd5b6111b3838383612a2a565b505050565b600c6020528060005260406000206000915054906101000a900460ff1681565b60115481565b600b6020528060005260406000206000915090505481565b600c60003373ffffffffffffffffffffffffffffffffffffffff1673ffffffffffffffffffffffffffffffffffffffff16815260200190815260200160002060009054906101000a900460ff16611282576040517f08c379a000000000000000000000000000000000000000000000000000000000815260040161127990614a5c565b60405180910390fd5b80600b6000848152602001908152602001600020819055505050565b60006112a983611721565b82106112ea576040517f08c379a00000000000000000000000000000000000000000000000000000000081526004016112e1906149bc565b60405180910390fd5b600660008473ffffffffffffffffffffffffffffffffffffffff1673ffffffffffffffffffffffffffffffffffffffff168152602001908152602001600020600083815260200190815260200160002054905092915050565b61135e83838360405180602001604052806000815250612190565b505050565b600c60003373ffffffffffffffffffffffffffffffffffffffff1673ffffffffffffffffffffffffffffffffffffffff16815260200190815260200160002060009054906101000a900460ff166113ef576040517f08c379a00000000000000000000000000000000000000000000000000000000081526004016113e690614a5c565b60405180910390fd5b6000601060008373ffffffffffffffffffffffffffffffffffffffff1673ffffffffffffffffffffffffffffffffffffffff16815260200190815260200160002060006101000a81548160ff02191690831515021790555050565b6000611454611025565b8210611495576040517f08c379a000000000000000000000000000000000000000000000000000000000815260040161148c90614c5c565b60405180910390fd5b600882815481106114cf577f4e487b7100000000000000000000000000000000000000000000000000000000600052603260045260246000fd5b90600052602060002001549050919050565b600c60003373ffffffffffffffffffffffffffffffffffffffff1673ffffffffffffffffffffffffffffffffffffffff16815260200190815260200160002060009054906101000a900460ff1661156d576040517f08c379a000000000000000000000000000000000000000000000000000000000815260040161156490614a5c565b60405180910390fd5b80600a6000848152602001908152602001600020600101908051906020019061159792919061377b565b505050565b600c60003373ffffffffffffffffffffffffffffffffffffffff1673ffffffffffffffffffffffffffffffffffffffff16815260200190815260200160002060009054906101000a900460ff16611628576040517f08c379a000000000000000000000000000000000000000000000000000000000815260040161161f90614a5c565b60405180910390fd5b80600a6000848152602001908152602001600020600301908051906020019061165292919061377b565b505050565b6000806002600084815260200190815260200160002060009054906101000a900473ffffffffffffffffffffffffffffffffffffffff169050600073ffffffffffffffffffffffffffffffffffffffff168173ffffffffffffffffffffffffffffffffffffffff161415611700576040517f08c379a00000000000000000000000000000000000000000000000000000000081526004016116f790614b1c565b60405180910390fd5b80915050919050565b600f6020528060005260406000206000915090505481565b60008073ffffffffffffffffffffffffffffffffffffffff168273ffffffffffffffffffffffffffffffffffffffff161415611792576040517f08c379a000000000000000000000000000000000000000000000000000000000815260040161178990614afc565b60405180910390fd5b600360008373ffffffffffffffffffffffffffffffffffffffff1673ffffffffffffffffffffffffffffffffffffffff168152602001908152602001600020549050919050565b600c60003373ffffffffffffffffffffffffffffffffffffffff1673ffffffffffffffffffffffffffffffffffffffff16815260200190815260200160002060009054906101000a900460ff16611865576040517f08c379a000000000000000000000000000000000000000000000000000000000815260040161185c90614a5c565b60405180910390fd5b81600a600082815260200190815260200160002060070160019054906101000a900460ff16156118ca576040517f08c379a00000000000000000000000000000000000000000000000000000000081526004016118c190614a9c565b60405180910390fd5b81600a600085815260200190815260200160002060000190805190602001906118f492919061377b565b50505050565b81600a600082815260200190815260200160002060070160019054906101000a900460ff161561195f576040517f08c379a000000000000000000000000000000000000000000000000000000000815260040161195690614a9c565b60405180910390fd5b600c60003373ffffffffffffffffffffffffffffffffffffffff1673ffffffffffffffffffffffffffffffffffffffff16815260200190815260200160002060009054906101000a900460ff166119eb576040517f08c379a00000000000000000000000000000000000000000000000000000000081526004016119e290614a5c565b60405180910390fd5b81600a60008581526020019081526020016000206002019080519060200190611a1592919061377b565b50505050565b600c60003373ffffffffffffffffffffffffffffffffffffffff1673ffffffffffffffffffffffffffffffffffffffff16815260200190815260200160002060009054906101000a900460ff16611aa7576040517f08c379a0000000000000000000000000000000000000000000000000000000008152600401611a9e90614a5c565b60405180910390fd5b600a600082815260200190815260200160002060070160009054906101000a900460ff1615600a600083815260200190815260200160002060070160006101000a81548160ff02191690831515021790555050565b606060018054611b0b90614fae565b80601f0160208091040260200160405190810160405280929190818152602001828054611b3790614fae565b8015611b845780601f10611b5957610100808354040283529160200191611b84565b820191906000526020600020905b815481529060010190602001808311611b6757829003601f168201915b5050505050905090565b6060600a60008381526020019081526020016000206006018054611bb190614fae565b80601f0160208091040260200160405190810160405280929190818152602001828054611bdd90614fae565b8015611c2a5780601f10611bff57610100808354040283529160200191611c2a565b820191906000526020600020905b815481529060010190602001808311611c0d57829003601f168201915b50505050509050919050565b611c3e612701565b73ffffffffffffffffffffffffffffffffffffffff168273ffffffffffffffffffffffffffffffffffffffff161415611cac576040517f08c379a0000000000000000000000000000000000000000000000000000000008152600401611ca390614a3c565b60405180910390fd5b8060056000611cb9612701565b73ffffffffffffffffffffffffffffffffffffffff1673ffffffffffffffffffffffffffffffffffffffff16815260200190815260200160002060008473ffffffffffffffffffffffffffffffffffffffff1673ffffffffffffffffffffffffffffffffffffffff16815260200190815260200160002060006101000a81548160ff0219169083151502179055508173ffffffffffffffffffffffffffffffffffffffff16611d66612701565b73ffffffffffffffffffffffffffffffffffffffff167f17307eab39ab6107e8899845ad3d59bd9653f200f220920489ca2b5937696c3183604051611dab9190614882565b60405180910390a35050565b6060806060600080600080600080600a60008b81526020019081526020016000206000018054611de690614fae565b80601f0160208091040260200160405190810160405280929190818152602001828054611e1290614fae565b8015611e5f5780601f10611e3457610100808354040283529160200191611e5f565b820191906000526020600020905b815481529060010190602001808311611e4257829003601f168201915b50505050509850600a60008b81526020019081526020016000206001018054611e8790614fae565b80601f0160208091040260200160405190810160405280929190818152602001828054611eb390614fae565b8015611f005780601f10611ed557610100808354040283529160200191611f00565b820191906000526020600020905b815481529060010190602001808311611ee357829003601f168201915b50505050509750600a60008b81526020019081526020016000206002018054611f2890614fae565b80601f0160208091040260200160405190810160405280929190818152602001828054611f5490614fae565b8015611fa15780601f10611f7657610100808354040283529160200191611fa1565b820191906000526020600020905b815481529060010190602001808311611f8457829003601f168201915b50505050509650600b60008b8152602001908152602001600020549550600a60008b8152602001908152602001600020600401549450600a60008b8152602001908152602001600020600501549350600a60008b815260200190815260200160002060070160019054906101000a900460ff169050600a60008b815260200190815260200160002060070160009054906101000a900460ff169250600a60008b815260200190815260200160002060070160029054906101000a900460ff1691509193959799909294969850565b81600a600082815260200190815260200160002060070160019054906101000a900460ff16156120d4576040517f08c379a00000000000000000000000000000000000000000000000000000000081526004016120cb90614a9c565b60405180910390fd5b600c60003373ffffffffffffffffffffffffffffffffffffffff1673ffffffffffffffffffffffffffffffffffffffff16815260200190815260200160002060009054906101000a900460ff16612160576040517f08c379a000000000000000000000000000000000000000000000000000000000815260040161215790614a5c565b60405180910390fd5b81600a6000858152602001908152602001600020600601908051906020019061218a92919061377b565b50505050565b6121a161219b612701565b8361294c565b6121e0576040517f08c379a00000000000000000000000000000000000000000000000000000000081526004016121d790614c3c565b60405180910390fd5b6121ec84848484612c86565b50505050565b600c60003373ffffffffffffffffffffffffffffffffffffffff1673ffffffffffffffffffffffffffffffffffffffff16815260200190815260200160002060009054906101000a900460ff1661227e576040517f08c379a000000000000000000000000000000000000000000000000000000000815260040161227590614a5c565b60405180910390fd5b600a600082815260200190815260200160002060070160029054906101000a900460ff1615600a600083815260200190815260200160002060070160026101000a81548160ff02191690831515021790555050565b600c60003373ffffffffffffffffffffffffffffffffffffffff1673ffffffffffffffffffffffffffffffffffffffff16815260200190815260200160002060009054906101000a900460ff1661235f576040517f08c379a000000000000000000000000000000000000000000000000000000000815260040161235690614a5c565b60405180910390fd5b80600a600082815260200190815260200160002060070160019054906101000a900460ff16156123c4576040517f08c379a00000000000000000000000000000000000000000000000000000000081526004016123bb90614a9c565b60405180910390fd5b6001600a600084815260200190815260200160002060070160016101000a81548160ff0219169083151502179055505050565b60608161240381612695565b612442576040517f08c379a000000000000000000000000000000000000000000000000000000000815260040161243990614b9c565b60405180910390fd5b600a6000600d600086815260200190815260200160002054815260200190815260200160002060030161247484612ce2565b604051602001612485929190614787565b604051602081830303815290604052915050919050565b6060600e60008381526020019081526020016000208054806020026020016040519081016040528092919081815260200182805480156124fb57602002820191906000526020600020905b8154815260200190600101908083116124e7575b50505050509050919050565b6000600560008473ffffffffffffffffffffffffffffffffffffffff1673ffffffffffffffffffffffffffffffffffffffff16815260200190815260200160002060008373ffffffffffffffffffffffffffffffffffffffff1673ffffffffffffffffffffffffffffffffffffffff16815260200190815260200160002060009054906101000a900460ff16905092915050565b600d6020528060005260406000206000915090505481565b60007f80ac58cd000000000000000000000000000000000000000000000000000000007bffffffffffffffffffffffffffffffffffffffffffffffffffffffff1916827bffffffffffffffffffffffffffffffffffffffffffffffffffffffff1916148061267e57507f5b5e139f000000000000000000000000000000000000000000000000000000007bffffffffffffffffffffffffffffffffffffffffffffffffffffffff1916827bffffffffffffffffffffffffffffffffffffffffffffffffffffffff1916145b8061268e575061268d82612e8f565b5b9050919050565b60008073ffffffffffffffffffffffffffffffffffffffff166002600084815260200190815260200160002060009054906101000a900473ffffffffffffffffffffffffffffffffffffffff1673ffffffffffffffffffffffffffffffffffffffff1614159050919050565b600033905090565b816004600083815260200190815260200160002060006101000a81548173ffffffffffffffffffffffffffffffffffffffff021916908373ffffffffffffffffffffffffffffffffffffffff160217905550808273ffffffffffffffffffffffffffffffffffffffff1661277c83611657565b73ffffffffffffffffffffffffffffffffffffffff167f8c5be1e5ebec7d5bd14f71427d1e84f3dd0314c0f7b2291e5b200ac8c7c3b92560405160405180910390a45050565b600080600a600084815260200190815260200160002060040154620f4240846127eb9190614e60565b6127f59190614dd9565b90506001600a60008581526020019081526020016000206004015461281a9190614dd9565b600a6000858152602001908152602001600020600401819055506000600a6000858152602001908152602001600020600401544360014361285b9190614eba565b403360405160200161287094939291906147ab565b60405160208183030381529060405280519060200120905080600f6000848152602001908152602001600020819055506128aa8583612ef9565b83600d600084815260200190815260200160002081905550600e600085815260200190815260200160002082908060018154018082558091505060019003906000526020600020016000909190919091505583828673ffffffffffffffffffffffffffffffffffffffff167f4c209b5fc8ad50758f13e2e1088ba56a560dff690a1c6fef26394f4c03821c4f60405160405180910390a4819250505092915050565b600061295782612695565b612996576040517f08c379a000000000000000000000000000000000000000000000000000000000815260040161298d90614a7c565b60405180910390fd5b60006129a183611657565b90508073ffffffffffffffffffffffffffffffffffffffff168473ffffffffffffffffffffffffffffffffffffffff161480612a1057508373ffffffffffffffffffffffffffffffffffffffff166129f8846108f6565b73ffffffffffffffffffffffffffffffffffffffff16145b80612a215750612a208185612507565b5b91505092915050565b8273ffffffffffffffffffffffffffffffffffffffff16612a4a82611657565b73ffffffffffffffffffffffffffffffffffffffff1614612aa0576040517f08c379a0000000000000000000000000000000000000000000000000000000008152600401612a9790614bbc565b60405180910390fd5b600073ffffffffffffffffffffffffffffffffffffffff168273ffffffffffffffffffffffffffffffffffffffff161415612b10576040517f08c379a0000000000000000000000000000000000000000000000000000000008152600401612b0790614a1c565b60405180910390fd5b612b1b838383612f17565b612b26600082612709565b6001600360008573ffffffffffffffffffffffffffffffffffffffff1673ffffffffffffffffffffffffffffffffffffffff1681526020019081526020016000206000828254612b769190614eba565b925050819055506001600360008473ffffffffffffffffffffffffffffffffffffffff1673ffffffffffffffffffffffffffffffffffffffff1681526020019081526020016000206000828254612bcd9190614dd9565b92505081905550816002600083815260200190815260200160002060006101000a81548173ffffffffffffffffffffffffffffffffffffffff021916908373ffffffffffffffffffffffffffffffffffffffff160217905550808273ffffffffffffffffffffffffffffffffffffffff168473ffffffffffffffffffffffffffffffffffffffff167fddf252ad1be2c89b69c2b068fc378daa952ba7f163c4a11628f55a4df523b3ef60405160405180910390a4505050565b612c91848484612a2a565b612c9d8484848461302b565b612cdc576040517f08c379a0000000000000000000000000000000000000000000000000000000008152600401612cd3906149dc565b60405180910390fd5b50505050565b60606000821415612d2a576040518060400160405280600181526020017f30000000000000000000000000000000000000000000000000000000000000008152509050612e8a565b600082905060005b60008214612d5c578080612d4590614fe0565b915050600a82612d559190614e2f565b9150612d32565b60008167ffffffffffffffff811115612d9e577f4e487b7100000000000000000000000000000000000000000000000000000000600052604160045260246000fd5b6040519080825280601f01601f191660200182016040528015612dd05781602001600182028036833780820191505090505b5090505b60008514612e8357600182612de99190614eba565b9150600a85612df89190615061565b6030612e049190614dd9565b60f81b818381518110612e40577f4e487b7100000000000000000000000000000000000000000000000000000000600052603260045260246000fd5b60200101907effffffffffffffffffffffffffffffffffffffffffffffffffffffffffffff1916908160001a905350600a85612e7c9190614e2f565b9450612dd4565b8093505050505b919050565b60007f01ffc9a7000000000000000000000000000000000000000000000000000000007bffffffffffffffffffffffffffffffffffffffffffffffffffffffff1916827bffffffffffffffffffffffffffffffffffffffffffffffffffffffff1916149050919050565b612f138282604051806020016040528060008152506131c2565b5050565b612f2283838361321d565b600073ffffffffffffffffffffffffffffffffffffffff168373ffffffffffffffffffffffffffffffffffffffff161415612f6557612f6081613222565b612fa4565b8173ffffffffffffffffffffffffffffffffffffffff168373ffffffffffffffffffffffffffffffffffffffff1614612fa357612fa2838261326b565b5b5b600073ffffffffffffffffffffffffffffffffffffffff168273ffffffffffffffffffffffffffffffffffffffff161415612fe757612fe2816133d8565b613026565b8273ffffffffffffffffffffffffffffffffffffffff168273ffffffffffffffffffffffffffffffffffffffff161461302557613024828261351b565b5b5b505050565b600061304c8473ffffffffffffffffffffffffffffffffffffffff1661359a565b156131b5578373ffffffffffffffffffffffffffffffffffffffff1663150b7a02613075612701565b8786866040518563ffffffff1660e01b81526004016130979493929190614814565b602060405180830381600087803b1580156130b157600080fd5b505af19250505080156130e257506040513d601f19601f820116820180604052508101906130df9190613b76565b60015b613165573d8060008114613112576040519150601f19603f3d011682016040523d82523d6000602084013e613117565b606091505b5060008151141561315d576040517f08c379a0000000000000000000000000000000000000000000000000000000008152600401613154906149dc565b60405180910390fd5b805181602001fd5b63150b7a0260e01b7bffffffffffffffffffffffffffffffffffffffffffffffffffffffff1916817bffffffffffffffffffffffffffffffffffffffffffffffffffffffff1916149150506131ba565b600190505b949350505050565b6131cc83836135ad565b6131d9600084848461302b565b613218576040517f08c379a000000000000000000000000000000000000000000000000000000000815260040161320f906149dc565b60405180910390fd5b505050565b505050565b6008805490506009600083815260200190815260200160002081905550600881908060018154018082558091505060019003906000526020600020016000909190919091505550565b6000600161327884611721565b6132829190614eba565b9050600060076000848152602001908152602001600020549050818114613367576000600660008673ffffffffffffffffffffffffffffffffffffffff1673ffffffffffffffffffffffffffffffffffffffff168152602001908152602001600020600084815260200190815260200160002054905080600660008773ffffffffffffffffffffffffffffffffffffffff1673ffffffffffffffffffffffffffffffffffffffff168152602001908152602001600020600084815260200190815260200160002081905550816007600083815260200190815260200160002081905550505b6007600084815260200190815260200160002060009055600660008573ffffffffffffffffffffffffffffffffffffffff1673ffffffffffffffffffffffffffffffffffffffff16815260200190815260200160002060008381526020019081526020016000206000905550505050565b600060016008805490506133ec9190614eba565b9050600060096000848152602001908152602001600020549050600060088381548110613442577f4e487b7100000000000000000000000000000000000000000000000000000000600052603260045260246000fd5b90600052602060002001549050806008838154811061348a577f4e487b7100000000000000000000000000000000000000000000000000000000600052603260045260246000fd5b9060005260206000200181905550816009600083815260200190815260200160002081905550600960008581526020019081526020016000206000905560088054806134ff577f4e487b7100000000000000000000000000000000000000000000000000000000600052603160045260246000fd5b6001900381819060005260206000200160009055905550505050565b600061352683611721565b905081600660008573ffffffffffffffffffffffffffffffffffffffff1673ffffffffffffffffffffffffffffffffffffffff168152602001908152602001600020600083815260200190815260200160002081905550806007600084815260200190815260200160002081905550505050565b600080823b905060008111915050919050565b600073ffffffffffffffffffffffffffffffffffffffff168273ffffffffffffffffffffffffffffffffffffffff16141561361d576040517f08c379a000000000000000000000000000000000000000000000000000000000815260040161361490614b5c565b60405180910390fd5b61362681612695565b15613666576040517f08c379a000000000000000000000000000000000000000000000000000000000815260040161365d906149fc565b60405180910390fd5b61367260008383612f17565b6001600360008473ffffffffffffffffffffffffffffffffffffffff1673ffffffffffffffffffffffffffffffffffffffff16815260200190815260200160002060008282546136c29190614dd9565b92505081905550816002600083815260200190815260200160002060006101000a81548173ffffffffffffffffffffffffffffffffffffffff021916908373ffffffffffffffffffffffffffffffffffffffff160217905550808273ffffffffffffffffffffffffffffffffffffffff16600073ffffffffffffffffffffffffffffffffffffffff167fddf252ad1be2c89b69c2b068fc378daa952ba7f163c4a11628f55a4df523b3ef60405160405180910390a45050565b82805461378790614fae565b90600052602060002090601f0160209004810192826137a957600085556137f0565b82601f106137c257805160ff19168380011785556137f0565b828001600101855582156137f0579182015b828111156137ef5782518255916020019190600101906137d4565b5b5090506137fd9190613801565b5090565b5b8082111561381a576000816000905550600101613802565b5090565b600061383161382c84614ce8565b614cb7565b90508281526020810184848401111561384957600080fd5b613854848285614f6c565b509392505050565b600061386f61386a84614d18565b614cb7565b90508281526020810184848401111561388757600080fd5b613892848285614f6c565b509392505050565b6000813590506138a98161516c565b92915050565b6000813590506138be81615183565b92915050565b6000813590506138d38161519a565b92915050565b6000815190506138e88161519a565b92915050565b600082601f8301126138ff57600080fd5b813561390f84826020860161381e565b91505092915050565b600082601f83011261392957600080fd5b813561393984826020860161385c565b91505092915050565b600081359050613951816151b1565b92915050565b60006020828403121561396957600080fd5b60006139778482850161389a565b91505092915050565b6000806040838503121561399357600080fd5b60006139a18582860161389a565b92505060206139b28582860161389a565b9150509250929050565b6000806000606084860312156139d157600080fd5b60006139df8682870161389a565b93505060206139f08682870161389a565b9250506040613a0186828701613942565b9150509250925092565b60008060008060808587031215613a2157600080fd5b6000613a2f8782880161389a565b9450506020613a408782880161389a565b9350506040613a5187828801613942565b925050606085013567ffffffffffffffff811115613a6e57600080fd5b613a7a878288016138ee565b91505092959194509250565b60008060408385031215613a9957600080fd5b6000613aa78582860161389a565b9250506020613ab8858286016138af565b9150509250929050565b60008060408385031215613ad557600080fd5b6000613ae38582860161389a565b9250506020613af485828601613942565b9150509250929050565b600080600060608486031215613b1357600080fd5b6000613b218682870161389a565b9350506020613b3286828701613942565b9250506040613b438682870161389a565b9150509250925092565b600060208284031215613b5f57600080fd5b6000613b6d848285016138c4565b91505092915050565b600060208284031215613b8857600080fd5b6000613b96848285016138d9565b91505092915050565b600060208284031215613bb157600080fd5b600082013567ffffffffffffffff811115613bcb57600080fd5b613bd784828501613918565b91505092915050565b600060208284031215613bf257600080fd5b6000613c0084828501613942565b91505092915050565b60008060408385031215613c1c57600080fd5b6000613c2a85828601613942565b925050602083013567ffffffffffffffff811115613c4757600080fd5b613c5385828601613918565b9150509250929050565b60008060408385031215613c7057600080fd5b6000613c7e85828601613942565b9250506020613c8f85828601613942565b9150509250929050565b6000613ca58383614752565b60208301905092915050565b613cba81614eee565b82525050565b613cd1613ccc82614eee565b615029565b82525050565b6000613ce282614d6d565b613cec8185614d9b565b9350613cf783614d48565b8060005b83811015613d28578151613d0f8882613c99565b9750613d1a83614d8e565b925050600181019050613cfb565b5085935050505092915050565b613d3e81614f00565b82525050565b613d4d81614f0c565b82525050565b613d64613d5f82614f0c565b61503b565b82525050565b6000613d7582614d78565b613d7f8185614dac565b9350613d8f818560208601614f7b565b613d988161514e565b840191505092915050565b6000613dae82614d83565b613db88185614dbd565b9350613dc8818560208601614f7b565b613dd18161514e565b840191505092915050565b6000613de782614d83565b613df18185614dce565b9350613e01818560208601614f7b565b80840191505092915050565b60008154613e1a81614fae565b613e248186614dce565b94506001821660008114613e3f5760018114613e5057613e83565b60ff19831686528186019350613e83565b613e5985614d58565b60005b83811015613e7b57815481890152600182019150602081019050613e5c565b838801955050505b50505092915050565b6000613e99603183614dbd565b91507f43616e206f6e6c7920696e637265617365206d6178207072696e74732069662060008301527f706965636520697320756e6c6f636b65640000000000000000000000000000006020830152604082019050919050565b6000613eff602b83614dbd565b91507f4d6178207072696e7473206d757374206265206d6f7265207468616e2063757260008301527f72656e74207072696e74730000000000000000000000000000000000000000006020830152604082019050919050565b6000613f65602b83614dbd565b91507f455243373231456e756d657261626c653a206f776e657220696e646578206f7560008301527f74206f6620626f756e64730000000000000000000000000000000000000000006020830152604082019050919050565b6000613fcb603283614dbd565b91507f4552433732313a207472616e7366657220746f206e6f6e20455243373231526560008301527f63656976657220696d706c656d656e74657200000000000000000000000000006020830152604082019050919050565b6000614031601c83614dbd565b91507f4552433732313a20746f6b656e20616c7265616479206d696e746564000000006000830152602082019050919050565b6000614071602483614dbd565b91507f4552433732313a207472616e7366657220746f20746865207a65726f2061646460008301527f72657373000000000000000000000000000000000000000000000000000000006020830152604082019050919050565b60006140d7601983614dbd565b91507f4552433732313a20617070726f766520746f2063616c6c6572000000000000006000830152602082019050919050565b6000614117600a83614dbd565b91507f4f6e6c792061646d696e000000000000000000000000000000000000000000006000830152602082019050919050565b6000614157602c83614dbd565b91507f4552433732313a206f70657261746f7220717565727920666f72206e6f6e657860008301527f697374656e7420746f6b656e00000000000000000000000000000000000000006020830152604082019050919050565b60006141bd601083614dbd565b91507f4f6e6c7920696620756e6c6f636b6564000000000000000000000000000000006000830152602082019050919050565b60006141fd602a83614dbd565b91507f50757263686173696e67207072696e7473206f6620746869732070696563652060008301527f61726520706175736564000000000000000000000000000000000000000000006020830152604082019050919050565b6000614263603883614dbd565b91507f4552433732313a20617070726f76652063616c6c6572206973206e6f74206f7760008301527f6e6572206e6f7220617070726f76656420666f7220616c6c00000000000000006020830152604082019050919050565b60006142c9602a83614dbd565b91507f4552433732313a2062616c616e636520717565727920666f7220746865207a6560008301527f726f2061646472657373000000000000000000000000000000000000000000006020830152604082019050919050565b600061432f602983614dbd565b91507f4552433732313a206f776e657220717565727920666f72206e6f6e657869737460008301527f656e7420746f6b656e00000000000000000000000000000000000000000000006020830152604082019050919050565b6000614395602583614dbd565b91507f4d75737420626520616c6c6f776c697374656420746f206d696e74206469726560008301527f63746c792e0000000000000000000000000000000000000000000000000000006020830152604082019050919050565b60006143fb602083614dbd565b91507f4552433732313a206d696e7420746f20746865207a65726f20616464726573736000830152602082019050919050565b600061443b602c83614dbd565b91507f4552433732313a20617070726f76656420717565727920666f72206e6f6e657860008301527f697374656e7420746f6b656e00000000000000000000000000000000000000006020830152604082019050919050565b60006144a1601783614dbd565b91507f5072696e7420494420646f6573206e6f742065786973740000000000000000006000830152602082019050919050565b60006144e1602983614dbd565b91507f4552433732313a207472616e73666572206f6620746f6b656e2074686174206960008301527f73206e6f74206f776e00000000000000000000000000000000000000000000006020830152604082019050919050565b6000614547602183614dbd565b91507f4552433732313a20617070726f76616c20746f2063757272656e74206f776e6560008301527f72000000000000000000000000000000000000000000000000000000000000006020830152604082019050919050565b60006145ad602283614dbd565b91507f4d6178207072696e74732063616e6e6f74206578636565642031206d696c6c6960008301527f6f6e0000000000000000000000000000000000000000000000000000000000006020830152604082019050919050565b6000614613601f83614dbd565b91507f4d757374206e6f7420657863656564206d617820696e766f636174696f6e73006000830152602082019050919050565b6000614653603183614dbd565b91507f4552433732313a207472616e736665722063616c6c6572206973206e6f74206f60008301527f776e6572206e6f7220617070726f7665640000000000000000000000000000006020830152604082019050919050565b60006146b9602c83614dbd565b91507f455243373231456e756d657261626c653a20676c6f62616c20696e646578206f60008301527f7574206f6620626f756e647300000000000000000000000000000000000000006020830152604082019050919050565b600061471f601e83614dbd565b91507f5069656365206d75737420657869737420616e642062652061637469766500006000830152602082019050919050565b61475b81614f62565b82525050565b61476a81614f62565b82525050565b61478161477c82614f62565b615057565b82525050565b60006147938285613e0d565b915061479f8284613ddc565b91508190509392505050565b60006147b78287614770565b6020820191506147c78286614770565b6020820191506147d78285613d53565b6020820191506147e78284613cc0565b60148201915081905095945050505050565b600060208201905061480e6000830184613cb1565b92915050565b60006080820190506148296000830187613cb1565b6148366020830186613cb1565b6148436040830185614761565b81810360608301526148558184613d6a565b905095945050505050565b6000602082019050818103600083015261487a8184613cd7565b905092915050565b60006020820190506148976000830184613d35565b92915050565b60006020820190506148b26000830184613d44565b92915050565b600060208201905081810360008301526148d28184613da3565b905092915050565b60006101208201905081810360008301526148f5818c613da3565b90508181036020830152614909818b613da3565b9050818103604083015261491d818a613da3565b905061492c6060830189614761565b6149396080830188614761565b61494660a0830187614761565b61495360c0830186613d35565b61496060e0830185613d35565b61496e610100830184613d35565b9a9950505050505050505050565b6000602082019050818103600083015261499581613e8c565b9050919050565b600060208201905081810360008301526149b581613ef2565b9050919050565b600060208201905081810360008301526149d581613f58565b9050919050565b600060208201905081810360008301526149f581613fbe565b9050919050565b60006020820190508181036000830152614a1581614024565b9050919050565b60006020820190508181036000830152614a3581614064565b9050919050565b60006020820190508181036000830152614a55816140ca565b9050919050565b60006020820190508181036000830152614a758161410a565b9050919050565b60006020820190508181036000830152614a958161414a565b9050919050565b60006020820190508181036000830152614ab5816141b0565b9050919050565b60006020820190508181036000830152614ad5816141f0565b9050919050565b60006020820190508181036000830152614af581614256565b9050919050565b60006020820190508181036000830152614b15816142bc565b9050919050565b60006020820190508181036000830152614b3581614322565b9050919050565b60006020820190508181036000830152614b5581614388565b9050919050565b60006020820190508181036000830152614b75816143ee565b9050919050565b60006020820190508181036000830152614b958161442e565b9050919050565b60006020820190508181036000830152614bb581614494565b9050919050565b60006020820190508181036000830152614bd5816144d4565b9050919050565b60006020820190508181036000830152614bf58161453a565b9050919050565b60006020820190508181036000830152614c15816145a0565b9050919050565b60006020820190508181036000830152614c3581614606565b9050919050565b60006020820190508181036000830152614c5581614646565b9050919050565b60006020820190508181036000830152614c75816146ac565b9050919050565b60006020820190508181036000830152614c9581614712565b9050919050565b6000602082019050614cb16000830184614761565b92915050565b6000604051905081810181811067ffffffffffffffff82111715614cde57614cdd61511f565b5b8060405250919050565b600067ffffffffffffffff821115614d0357614d0261511f565b5b601f19601f8301169050602081019050919050565b600067ffffffffffffffff821115614d3357614d3261511f565b5b601f19601f8301169050602081019050919050565b6000819050602082019050919050565b60008190508160005260206000209050919050565b600081519050919050565b600081519050919050565b600081519050919050565b6000602082019050919050565b600082825260208201905092915050565b600082825260208201905092915050565b600082825260208201905092915050565b600081905092915050565b6000614de482614f62565b9150614def83614f62565b9250827fffffffffffffffffffffffffffffffffffffffffffffffffffffffffffffffff03821115614e2457614e23615092565b5b828201905092915050565b6000614e3a82614f62565b9150614e4583614f62565b925082614e5557614e546150c1565b5b828204905092915050565b6000614e6b82614f62565b9150614e7683614f62565b9250817fffffffffffffffffffffffffffffffffffffffffffffffffffffffffffffffff0483118215151615614eaf57614eae615092565b5b828202905092915050565b6000614ec582614f62565b9150614ed083614f62565b925082821015614ee357614ee2615092565b5b828203905092915050565b6000614ef982614f42565b9050919050565b60008115159050919050565b6000819050919050565b60007fffffffff0000000000000000000000000000000000000000000000000000000082169050919050565b600073ffffffffffffffffffffffffffffffffffffffff82169050919050565b6000819050919050565b82818337600083830152505050565b60005b83811015614f99578082015181840152602081019050614f7e565b83811115614fa8576000848401525b50505050565b60006002820490506001821680614fc657607f821691505b60208210811415614fda57614fd96150f0565b5b50919050565b6000614feb82614f62565b91507fffffffffffffffffffffffffffffffffffffffffffffffffffffffffffffffff82141561501e5761501d615092565b5b600182019050919050565b600061503482615045565b9050919050565b6000819050919050565b60006150508261515f565b9050919050565b6000819050919050565b600061506c82614f62565b915061507783614f62565b925082615087576150866150c1565b5b828206905092915050565b7f4e487b7100000000000000000000000000000000000000000000000000000000600052601160045260246000fd5b7f4e487b7100000000000000000000000000000000000000000000000000000000600052601260045260246000fd5b7f4e487b7100000000000000000000000000000000000000000000000000000000600052602260045260246000fd5b7f4e487b7100000000000000000000000000000000000000000000000000000000600052604160045260246000fd5b6000601f19601f8301169050919050565b60008160601b9050919050565b61517581614eee565b811461518057600080fd5b50565b61518c81614f00565b811461519757600080fd5b50565b6151a381614f16565b81146151ae57600080fd5b50565b6151ba81614f62565b81146151c557600080fd5b5056fea26469706673582212200009eb7ced8cb2b94effcee8a93603c6f40edf561f139a2f8d061a33f4b1133c64736f6c63430008000033",
  "linkReferences": {},
  "deployedLinkReferences": {}
}