{
  "_format": "hh-sol-artifact-1",
  "contractName": "GenerativeArtworks",
  "sourceName": "contracts/GenerativeArtworks.sol",
  "abi": [
    {
      "inputs": [
        {
          "internalType": "string",
          "name": "_tokenName",
          "type": "string"
        },
        {
          "internalType": "string",
          "name": "_tokenSymbol",
          "type": "string"
        }
      ],
      "stateMutability": "nonpayable",
      "type": "constructor"
    },
    {
      "anonymous": false,
      "inputs": [
        {
          "indexed": true,
          "internalType": "address",
          "name": "owner",
          "type": "address"
        },
        {
          "indexed": true,
          "internalType": "address",
          "name": "approved",
          "type": "address"
        },
        {
          "indexed": true,
          "internalType": "uint256",
          "name": "tokenId",
          "type": "uint256"
        }
      ],
      "name": "Approval",
      "type": "event"
    },
    {
      "anonymous": false,
      "inputs": [
        {
          "indexed": true,
          "internalType": "address",
          "name": "owner",
          "type": "address"
        },
        {
          "indexed": true,
          "internalType": "address",
          "name": "operator",
          "type": "address"
        },
        {
          "indexed": false,
          "internalType": "bool",
          "name": "approved",
          "type": "bool"
        }
      ],
      "name": "ApprovalForAll",
      "type": "event"
    },
    {
      "anonymous": false,
      "inputs": [
        {
          "indexed": true,
          "internalType": "address",
          "name": "_to",
          "type": "address"
        },
        {
          "indexed": true,
          "internalType": "uint256",
          "name": "_printId",
          "type": "uint256"
        },
        {
          "indexed": true,
          "internalType": "uint256",
          "name": "_pieceId",
          "type": "uint256"
        }
      ],
      "name": "Mint",
      "type": "event"
    },
    {
      "anonymous": false,
      "inputs": [
        {
          "indexed": true,
          "internalType": "address",
          "name": "from",
          "type": "address"
        },
        {
          "indexed": true,
          "internalType": "address",
          "name": "to",
          "type": "address"
        },
        {
          "indexed": true,
          "internalType": "uint256",
          "name": "tokenId",
          "type": "uint256"
        }
      ],
      "name": "Transfer",
      "type": "event"
    },
    {
      "inputs": [
        {
          "internalType": "address",
          "name": "to",
          "type": "address"
        },
        {
          "internalType": "uint256",
          "name": "tokenId",
          "type": "uint256"
        }
      ],
      "name": "approve",
      "outputs": [],
      "stateMutability": "nonpayable",
      "type": "function"
    },
    {
      "inputs": [
        {
          "internalType": "address",
          "name": "owner",
          "type": "address"
        }
      ],
      "name": "balanceOf",
      "outputs": [
        {
          "internalType": "uint256",
          "name": "",
          "type": "uint256"
        }
      ],
      "stateMutability": "view",
      "type": "function"
    },
    {
      "inputs": [
        {
          "internalType": "uint256",
          "name": "tokenId",
          "type": "uint256"
        }
      ],
      "name": "getApproved",
      "outputs": [
        {
          "internalType": "address",
          "name": "",
          "type": "address"
        }
      ],
      "stateMutability": "view",
      "type": "function"
    },
    {
      "inputs": [
        {
          "internalType": "bytes32",
          "name": "",
          "type": "bytes32"
        }
      ],
      "name": "hashToPrintId",
      "outputs": [
        {
          "internalType": "uint256",
          "name": "",
          "type": "uint256"
        }
      ],
      "stateMutability": "view",
      "type": "function"
    },
    {
      "inputs": [
        {
          "internalType": "address",
          "name": "",
          "type": "address"
        }
      ],
      "name": "isAdmin",
      "outputs": [
        {
          "internalType": "bool",
          "name": "",
          "type": "bool"
        }
      ],
      "stateMutability": "view",
      "type": "function"
    },
    {
      "inputs": [
        {
          "internalType": "address",
          "name": "owner",
          "type": "address"
        },
        {
          "internalType": "address",
          "name": "operator",
          "type": "address"
        }
      ],
      "name": "isApprovedForAll",
      "outputs": [
        {
          "internalType": "bool",
          "name": "",
          "type": "bool"
        }
      ],
      "stateMutability": "view",
      "type": "function"
    },
    {
      "inputs": [
        {
          "internalType": "address",
          "name": "",
          "type": "address"
        }
      ],
      "name": "isMintWhitelisted",
      "outputs": [
        {
          "internalType": "bool",
          "name": "",
          "type": "bool"
        }
      ],
      "stateMutability": "view",
      "type": "function"
    },
    {
      "inputs": [
        {
          "internalType": "address",
          "name": "_to",
          "type": "address"
        },
        {
          "internalType": "uint256",
          "name": "_pieceId",
          "type": "uint256"
        },
        {
          "internalType": "address",
          "name": "_by",
          "type": "address"
        }
      ],
      "name": "mint",
      "outputs": [
        {
          "internalType": "uint256",
          "name": "_tokenId",
          "type": "uint256"
        }
      ],
      "stateMutability": "nonpayable",
      "type": "function"
    },
    {
      "inputs": [],
      "name": "name",
      "outputs": [
        {
          "internalType": "string",
          "name": "",
          "type": "string"
        }
      ],
      "stateMutability": "view",
      "type": "function"
    },
    {
      "inputs": [
        {
          "internalType": "uint256",
          "name": "tokenId",
          "type": "uint256"
        }
      ],
      "name": "ownerOf",
      "outputs": [
        {
          "internalType": "address",
          "name": "",
          "type": "address"
        }
      ],
      "stateMutability": "view",
      "type": "function"
    },
    {
      "inputs": [
        {
          "internalType": "uint256",
          "name": "",
          "type": "uint256"
        }
      ],
      "name": "pieceIdToPricePerPrintInWei",
      "outputs": [
        {
          "internalType": "uint256",
          "name": "",
          "type": "uint256"
        }
      ],
      "stateMutability": "view",
      "type": "function"
    },
    {
      "inputs": [
        {
          "internalType": "uint256",
          "name": "",
          "type": "uint256"
        }
      ],
      "name": "printIdToHash",
      "outputs": [
        {
          "internalType": "bytes32",
          "name": "",
          "type": "bytes32"
        }
      ],
      "stateMutability": "view",
      "type": "function"
    },
    {
      "inputs": [
        {
          "internalType": "uint256",
          "name": "",
          "type": "uint256"
        }
      ],
      "name": "printIdToPieceId",
      "outputs": [
        {
          "internalType": "uint256",
          "name": "",
          "type": "uint256"
        }
      ],
      "stateMutability": "view",
      "type": "function"
    },
    {
      "inputs": [
        {
          "internalType": "address",
          "name": "from",
          "type": "address"
        },
        {
          "internalType": "address",
          "name": "to",
          "type": "address"
        },
        {
          "internalType": "uint256",
          "name": "tokenId",
          "type": "uint256"
        }
      ],
      "name": "safeTransferFrom",
      "outputs": [],
      "stateMutability": "nonpayable",
      "type": "function"
    },
    {
      "inputs": [
        {
          "internalType": "address",
          "name": "from",
          "type": "address"
        },
        {
          "internalType": "address",
          "name": "to",
          "type": "address"
        },
        {
          "internalType": "uint256",
          "name": "tokenId",
          "type": "uint256"
        },
        {
          "internalType": "bytes",
          "name": "_data",
          "type": "bytes"
        }
      ],
      "name": "safeTransferFrom",
      "outputs": [],
      "stateMutability": "nonpayable",
      "type": "function"
    },
    {
      "inputs": [
        {
          "internalType": "address",
          "name": "operator",
          "type": "address"
        },
        {
          "internalType": "bool",
          "name": "approved",
          "type": "bool"
        }
      ],
      "name": "setApprovalForAll",
      "outputs": [],
      "stateMutability": "nonpayable",
      "type": "function"
    },
    {
      "inputs": [
        {
          "internalType": "bytes4",
          "name": "interfaceId",
          "type": "bytes4"
        }
      ],
      "name": "supportsInterface",
      "outputs": [
        {
          "internalType": "bool",
          "name": "",
          "type": "bool"
        }
      ],
      "stateMutability": "view",
      "type": "function"
    },
    {
      "inputs": [],
      "name": "symbol",
      "outputs": [
        {
          "internalType": "string",
          "name": "",
          "type": "string"
        }
      ],
      "stateMutability": "view",
      "type": "function"
    },
    {
      "inputs": [
        {
          "internalType": "uint256",
          "name": "index",
          "type": "uint256"
        }
      ],
      "name": "tokenByIndex",
      "outputs": [
        {
          "internalType": "uint256",
          "name": "",
          "type": "uint256"
        }
      ],
      "stateMutability": "view",
      "type": "function"
    },
    {
      "inputs": [
        {
          "internalType": "address",
          "name": "owner",
          "type": "address"
        },
        {
          "internalType": "uint256",
          "name": "index",
          "type": "uint256"
        }
      ],
      "name": "tokenOfOwnerByIndex",
      "outputs": [
        {
          "internalType": "uint256",
          "name": "",
          "type": "uint256"
        }
      ],
      "stateMutability": "view",
      "type": "function"
    },
    {
      "inputs": [
        {
          "internalType": "uint256",
          "name": "tokenId",
          "type": "uint256"
        }
      ],
      "name": "tokenURI",
      "outputs": [
        {
          "internalType": "string",
          "name": "",
          "type": "string"
        }
      ],
      "stateMutability": "view",
      "type": "function"
    },
    {
      "inputs": [],
      "name": "totalSupply",
      "outputs": [
        {
          "internalType": "uint256",
          "name": "",
          "type": "uint256"
        }
      ],
      "stateMutability": "view",
      "type": "function"
    },
    {
      "inputs": [
        {
          "internalType": "address",
          "name": "from",
          "type": "address"
        },
        {
          "internalType": "address",
          "name": "to",
          "type": "address"
        },
        {
          "internalType": "uint256",
          "name": "tokenId",
          "type": "uint256"
        }
      ],
      "name": "transferFrom",
      "outputs": [],
      "stateMutability": "nonpayable",
      "type": "function"
    }
  ],
  "bytecode": "0x60806040523480156200001157600080fd5b50604051620038d9380380620038d98339818101604052810190620000379190620001ef565b8181816000908051906020019062000051929190620000cd565b5080600190805190602001906200006a929190620000cd565b5050506001600c60003373ffffffffffffffffffffffffffffffffffffffff1673ffffffffffffffffffffffffffffffffffffffff16815260200190815260200160002060006101000a81548160ff021916908315150217905550505062000393565b828054620000db90620002ff565b90600052602060002090601f016020900481019282620000ff57600085556200014b565b82601f106200011a57805160ff19168380011785556200014b565b828001600101855582156200014b579182015b828111156200014a5782518255916020019190600101906200012d565b5b5090506200015a91906200015e565b5090565b5b80821115620001795760008160009055506001016200015f565b5090565b6000620001946200018e8462000296565b62000262565b905082815260208101848484011115620001ad57600080fd5b620001ba848285620002c9565b509392505050565b600082601f830112620001d457600080fd5b8151620001e68482602086016200017d565b91505092915050565b600080604083850312156200020357600080fd5b600083015167ffffffffffffffff8111156200021e57600080fd5b6200022c85828601620001c2565b925050602083015167ffffffffffffffff8111156200024a57600080fd5b6200025885828601620001c2565b9150509250929050565b6000604051905081810181811067ffffffffffffffff821117156200028c576200028b62000364565b5b8060405250919050565b600067ffffffffffffffff821115620002b457620002b362000364565b5b601f19601f8301169050602081019050919050565b60005b83811015620002e9578082015181840152602081019050620002cc565b83811115620002f9576000848401525b50505050565b600060028204905060018216806200031857607f821691505b602082108114156200032f576200032e62000335565b5b50919050565b7f4e487b7100000000000000000000000000000000000000000000000000000000600052602260045260246000fd5b7f4e487b7100000000000000000000000000000000000000000000000000000000600052604160045260246000fd5b61353680620003a36000396000f3fe608060405234801561001057600080fd5b506004361061014d5760003560e01c80634f6ccce7116100c3578063ad0305ce1161007c578063ad0305ce146103fc578063b88d4fde1461042c578063c87b56dd14610448578063c9991c2c14610478578063e985e9c5146104a8578063eb3a86e3146104d85761014d565b80634f6ccce7146103025780636352211e1461033257806363e56aaa1461036257806370a082311461039257806395d89b41146103c2578063a22cb465146103e05761014d565b806318160ddd1161011557806318160ddd1461021c57806323b872dd1461023a57806324d7806c146102565780632bf88d83146102865780632f745c59146102b657806342842e0e146102e65761014d565b806301ffc9a71461015257806306fdde0314610182578063081812fc146101a0578063095ea7b3146101d05780630d4d1513146101ec575b600080fd5b61016c60048036038101906101679190612471565b610508565b6040516101799190612da3565b60405180910390f35b61018a610582565b6040516101979190612dd9565b60405180910390f35b6101ba60048036038101906101b591906124c3565b610614565b6040516101c79190612d3c565b60405180910390f35b6101ea60048036038101906101e591906123bd565b610699565b005b610206600480360381019061020191906123f9565b6107b1565b604051610213919061303b565b60405180910390f35b610224610a95565b604051610231919061303b565b60405180910390f35b610254600480360381019061024f91906122b7565b610aa2565b005b610270600480360381019061026b9190612252565b610b02565b60405161027d9190612da3565b60405180910390f35b6102a0600480360381019061029b91906124c3565b610b22565b6040516102ad919061303b565b60405180910390f35b6102d060048036038101906102cb91906123bd565b610b3a565b6040516102dd919061303b565b60405180910390f35b61030060048036038101906102fb91906122b7565b610bdf565b005b61031c600480360381019061031791906124c3565b610bff565b604051610329919061303b565b60405180910390f35b61034c600480360381019061034791906124c3565b610c96565b6040516103599190612d3c565b60405180910390f35b61037c600480360381019061037791906124c3565b610d48565b6040516103899190612dbe565b60405180910390f35b6103ac60048036038101906103a79190612252565b610d60565b6040516103b9919061303b565b60405180910390f35b6103ca610e18565b6040516103d79190612dd9565b60405180910390f35b6103fa60048036038101906103f59190612381565b610eaa565b005b61041660048036038101906104119190612252565b61102b565b6040516104239190612da3565b60405180910390f35b61044660048036038101906104419190612306565b61104b565b005b610462600480360381019061045d91906124c3565b6110ad565b60405161046f9190612dd9565b60405180910390f35b610492600480360381019061048d9190612448565b611154565b60405161049f919061303b565b60405180910390f35b6104c260048036038101906104bd919061227b565b61116c565b6040516104cf9190612da3565b60405180910390f35b6104f260048036038101906104ed91906124c3565b611200565b6040516104ff919061303b565b60405180910390f35b60007f780e9d63000000000000000000000000000000000000000000000000000000007bffffffffffffffffffffffffffffffffffffffffffffffffffffffff1916827bffffffffffffffffffffffffffffffffffffffffffffffffffffffff1916148061057b575061057a82611218565b5b9050919050565b606060008054610591906132cf565b80601f01602080910402602001604051908101604052809291908181526020018280546105bd906132cf565b801561060a5780601f106105df5761010080835404028352916020019161060a565b820191906000526020600020905b8154815290600101906020018083116105ed57829003601f168201915b5050505050905090565b600061061f826112fa565b61065e576040517f08c379a000000000000000000000000000000000000000000000000000000000815260040161065590612f1b565b60405180910390fd5b6004600083815260200190815260200160002060009054906101000a900473ffffffffffffffffffffffffffffffffffffffff169050919050565b60006106a482610c96565b90508073ffffffffffffffffffffffffffffffffffffffff168373ffffffffffffffffffffffffffffffffffffffff161415610715576040517f08c379a000000000000000000000000000000000000000000000000000000000815260040161070c90612f7b565b60405180910390fd5b8073ffffffffffffffffffffffffffffffffffffffff16610734611366565b73ffffffffffffffffffffffffffffffffffffffff16148061076357506107628161075d611366565b61116c565b5b6107a2576040517f08c379a000000000000000000000000000000000000000000000000000000000815260040161079990612ebb565b60405180910390fd5b6107ac838361136e565b505050565b6000601160003373ffffffffffffffffffffffffffffffffffffffff1673ffffffffffffffffffffffffffffffffffffffff16815260200190815260200160002060009054906101000a900460ff16806108545750600c60003373ffffffffffffffffffffffffffffffffffffffff1673ffffffffffffffffffffffffffffffffffffffff16815260200190815260200160002060009054906101000a900460ff165b610893576040517f08c379a000000000000000000000000000000000000000000000000000000000815260040161088a9061301b565b60405180910390fd5b600a6000848152602001908152602001600020600401546001600a6000868152602001908152602001600020600301546108cd91906130fa565b111561090e576040517f08c379a000000000000000000000000000000000000000000000000000000000815260040161090590612f9b565b60405180910390fd5b600a600084815260200190815260200160002060060160009054906101000a900460ff16806109865750600c60008373ffffffffffffffffffffffffffffffffffffffff1673ffffffffffffffffffffffffffffffffffffffff16815260200190815260200160002060009054906101000a900460ff165b6109c5576040517f08c379a00000000000000000000000000000000000000000000000000000000081526004016109bc90612ffb565b60405180910390fd5b600a600084815260200190815260200160002060060160029054906101000a900460ff1680610a3d5750600c60008373ffffffffffffffffffffffffffffffffffffffff1673ffffffffffffffffffffffffffffffffffffffff16815260200190815260200160002060009054906101000a900460ff165b610a7c576040517f08c379a0000000000000000000000000000000000000000000000000000000008152600401610a7390612e9b565b60405180910390fd5b6000610a888585611427565b9050809150509392505050565b6000600880549050905090565b610ab3610aad611366565b8261156d565b610af2576040517f08c379a0000000000000000000000000000000000000000000000000000000008152600401610ae990612fbb565b60405180910390fd5b610afd83838361164b565b505050565b600c6020528060005260406000206000915054906101000a900460ff1681565b600b6020528060005260406000206000915090505481565b6000610b4583610d60565b8210610b86576040517f08c379a0000000000000000000000000000000000000000000000000000000008152600401610b7d90612dfb565b60405180910390fd5b600660008473ffffffffffffffffffffffffffffffffffffffff1673ffffffffffffffffffffffffffffffffffffffff168152602001908152602001600020600083815260200190815260200160002054905092915050565b610bfa8383836040518060200160405280600081525061104b565b505050565b6000610c09610a95565b8210610c4a576040517f08c379a0000000000000000000000000000000000000000000000000000000008152600401610c4190612fdb565b60405180910390fd5b60088281548110610c84577f4e487b7100000000000000000000000000000000000000000000000000000000600052603260045260246000fd5b90600052602060002001549050919050565b6000806002600084815260200190815260200160002060009054906101000a900473ffffffffffffffffffffffffffffffffffffffff169050600073ffffffffffffffffffffffffffffffffffffffff168173ffffffffffffffffffffffffffffffffffffffff161415610d3f576040517f08c379a0000000000000000000000000000000000000000000000000000000008152600401610d3690612efb565b60405180910390fd5b80915050919050565b600f6020528060005260406000206000915090505481565b60008073ffffffffffffffffffffffffffffffffffffffff168273ffffffffffffffffffffffffffffffffffffffff161415610dd1576040517f08c379a0000000000000000000000000000000000000000000000000000000008152600401610dc890612edb565b60405180910390fd5b600360008373ffffffffffffffffffffffffffffffffffffffff1673ffffffffffffffffffffffffffffffffffffffff168152602001908152602001600020549050919050565b606060018054610e27906132cf565b80601f0160208091040260200160405190810160405280929190818152602001828054610e53906132cf565b8015610ea05780601f10610e7557610100808354040283529160200191610ea0565b820191906000526020600020905b815481529060010190602001808311610e8357829003601f168201915b5050505050905090565b610eb2611366565b73ffffffffffffffffffffffffffffffffffffffff168273ffffffffffffffffffffffffffffffffffffffff161415610f20576040517f08c379a0000000000000000000000000000000000000000000000000000000008152600401610f1790612e5b565b60405180910390fd5b8060056000610f2d611366565b73ffffffffffffffffffffffffffffffffffffffff1673ffffffffffffffffffffffffffffffffffffffff16815260200190815260200160002060008473ffffffffffffffffffffffffffffffffffffffff1673ffffffffffffffffffffffffffffffffffffffff16815260200190815260200160002060006101000a81548160ff0219169083151502179055508173ffffffffffffffffffffffffffffffffffffffff16610fda611366565b73ffffffffffffffffffffffffffffffffffffffff167f17307eab39ab6107e8899845ad3d59bd9653f200f220920489ca2b5937696c318360405161101f9190612da3565b60405180910390a35050565b60116020528060005260406000206000915054906101000a900460ff1681565b61105c611056611366565b8361156d565b61109b576040517f08c379a000000000000000000000000000000000000000000000000000000000815260040161109290612fbb565b60405180910390fd5b6110a7848484846118a7565b50505050565b60606110b8826112fa565b6110f7576040517f08c379a00000000000000000000000000000000000000000000000000000000081526004016110ee90612f5b565b60405180910390fd5b6000611101611903565b90506000815111611121576040518060200160405280600081525061114c565b8061112b8461191a565b60405160200161113c929190612cca565b6040516020818303038152906040525b915050919050565b60106020528060005260406000206000915090505481565b6000600560008473ffffffffffffffffffffffffffffffffffffffff1673ffffffffffffffffffffffffffffffffffffffff16815260200190815260200160002060008373ffffffffffffffffffffffffffffffffffffffff1673ffffffffffffffffffffffffffffffffffffffff16815260200190815260200160002060009054906101000a900460ff16905092915050565b600d6020528060005260406000206000915090505481565b60007f80ac58cd000000000000000000000000000000000000000000000000000000007bffffffffffffffffffffffffffffffffffffffffffffffffffffffff1916827bffffffffffffffffffffffffffffffffffffffffffffffffffffffff191614806112e357507f5b5e139f000000000000000000000000000000000000000000000000000000007bffffffffffffffffffffffffffffffffffffffffffffffffffffffff1916827bffffffffffffffffffffffffffffffffffffffffffffffffffffffff1916145b806112f357506112f282611ac7565b5b9050919050565b60008073ffffffffffffffffffffffffffffffffffffffff166002600084815260200190815260200160002060009054906101000a900473ffffffffffffffffffffffffffffffffffffffff1673ffffffffffffffffffffffffffffffffffffffff1614159050919050565b600033905090565b816004600083815260200190815260200160002060006101000a81548173ffffffffffffffffffffffffffffffffffffffff021916908373ffffffffffffffffffffffffffffffffffffffff160217905550808273ffffffffffffffffffffffffffffffffffffffff166113e183610c96565b73ffffffffffffffffffffffffffffffffffffffff167f8c5be1e5ebec7d5bd14f71427d1e84f3dd0314c0f7b2291e5b200ac8c7c3b92560405160405180910390a45050565b600080600a600084815260200190815260200160002060030154620f4240846114509190613181565b61145a91906130fa565b90506001600a60008581526020019081526020016000206003015461147f91906130fa565b600a6000858152602001908152602001600020600301819055506000600a600085815260200190815260200160002060030154436001436114c091906131db565b40336040516020016114d59493929190612cee565b60405160208183030381529060405280519060200120905080600f60008481526020019081526020016000208190555081601060008381526020019081526020016000208190555083828673ffffffffffffffffffffffffffffffffffffffff167f4c209b5fc8ad50758f13e2e1088ba56a560dff690a1c6fef26394f4c03821c4f60405160405180910390a4819250505092915050565b6000611578826112fa565b6115b7576040517f08c379a00000000000000000000000000000000000000000000000000000000081526004016115ae90612e7b565b60405180910390fd5b60006115c283610c96565b90508073ffffffffffffffffffffffffffffffffffffffff168473ffffffffffffffffffffffffffffffffffffffff16148061163157508373ffffffffffffffffffffffffffffffffffffffff1661161984610614565b73ffffffffffffffffffffffffffffffffffffffff16145b806116425750611641818561116c565b5b91505092915050565b8273ffffffffffffffffffffffffffffffffffffffff1661166b82610c96565b73ffffffffffffffffffffffffffffffffffffffff16146116c1576040517f08c379a00000000000000000000000000000000000000000000000000000000081526004016116b890612f3b565b60405180910390fd5b600073ffffffffffffffffffffffffffffffffffffffff168273ffffffffffffffffffffffffffffffffffffffff161415611731576040517f08c379a000000000000000000000000000000000000000000000000000000000815260040161172890612e3b565b60405180910390fd5b61173c838383611b31565b61174760008261136e565b6001600360008573ffffffffffffffffffffffffffffffffffffffff1673ffffffffffffffffffffffffffffffffffffffff168152602001908152602001600020600082825461179791906131db565b925050819055506001600360008473ffffffffffffffffffffffffffffffffffffffff1673ffffffffffffffffffffffffffffffffffffffff16815260200190815260200160002060008282546117ee91906130fa565b92505081905550816002600083815260200190815260200160002060006101000a81548173ffffffffffffffffffffffffffffffffffffffff021916908373ffffffffffffffffffffffffffffffffffffffff160217905550808273ffffffffffffffffffffffffffffffffffffffff168473ffffffffffffffffffffffffffffffffffffffff167fddf252ad1be2c89b69c2b068fc378daa952ba7f163c4a11628f55a4df523b3ef60405160405180910390a4505050565b6118b284848461164b565b6118be84848484611c45565b6118fd576040517f08c379a00000000000000000000000000000000000000000000000000000000081526004016118f490612e1b565b60405180910390fd5b50505050565b606060405180602001604052806000815250905090565b60606000821415611962576040518060400160405280600181526020017f30000000000000000000000000000000000000000000000000000000000000008152509050611ac2565b600082905060005b6000821461199457808061197d90613301565b915050600a8261198d9190613150565b915061196a565b60008167ffffffffffffffff8111156119d6577f4e487b7100000000000000000000000000000000000000000000000000000000600052604160045260246000fd5b6040519080825280601f01601f191660200182016040528015611a085781602001600182028036833780820191505090505b5090505b60008514611abb57600182611a2191906131db565b9150600a85611a309190613382565b6030611a3c91906130fa565b60f81b818381518110611a78577f4e487b7100000000000000000000000000000000000000000000000000000000600052603260045260246000fd5b60200101907effffffffffffffffffffffffffffffffffffffffffffffffffffffffffffff1916908160001a905350600a85611ab49190613150565b9450611a0c565b8093505050505b919050565b60007f01ffc9a7000000000000000000000000000000000000000000000000000000007bffffffffffffffffffffffffffffffffffffffffffffffffffffffff1916827bffffffffffffffffffffffffffffffffffffffffffffffffffffffff1916149050919050565b611b3c838383611ddc565b600073ffffffffffffffffffffffffffffffffffffffff168373ffffffffffffffffffffffffffffffffffffffff161415611b7f57611b7a81611de1565b611bbe565b8173ffffffffffffffffffffffffffffffffffffffff168373ffffffffffffffffffffffffffffffffffffffff1614611bbd57611bbc8382611e2a565b5b5b600073ffffffffffffffffffffffffffffffffffffffff168273ffffffffffffffffffffffffffffffffffffffff161415611c0157611bfc81611f97565b611c40565b8273ffffffffffffffffffffffffffffffffffffffff168273ffffffffffffffffffffffffffffffffffffffff1614611c3f57611c3e82826120da565b5b5b505050565b6000611c668473ffffffffffffffffffffffffffffffffffffffff16612159565b15611dcf578373ffffffffffffffffffffffffffffffffffffffff1663150b7a02611c8f611366565b8786866040518563ffffffff1660e01b8152600401611cb19493929190612d57565b602060405180830381600087803b158015611ccb57600080fd5b505af1925050508015611cfc57506040513d601f19601f82011682018060405250810190611cf9919061249a565b60015b611d7f573d8060008114611d2c576040519150601f19603f3d011682016040523d82523d6000602084013e611d31565b606091505b50600081511415611d77576040517f08c379a0000000000000000000000000000000000000000000000000000000008152600401611d6e90612e1b565b60405180910390fd5b805181602001fd5b63150b7a0260e01b7bffffffffffffffffffffffffffffffffffffffffffffffffffffffff1916817bffffffffffffffffffffffffffffffffffffffffffffffffffffffff191614915050611dd4565b600190505b949350505050565b505050565b6008805490506009600083815260200190815260200160002081905550600881908060018154018082558091505060019003906000526020600020016000909190919091505550565b60006001611e3784610d60565b611e4191906131db565b9050600060076000848152602001908152602001600020549050818114611f26576000600660008673ffffffffffffffffffffffffffffffffffffffff1673ffffffffffffffffffffffffffffffffffffffff168152602001908152602001600020600084815260200190815260200160002054905080600660008773ffffffffffffffffffffffffffffffffffffffff1673ffffffffffffffffffffffffffffffffffffffff168152602001908152602001600020600084815260200190815260200160002081905550816007600083815260200190815260200160002081905550505b6007600084815260200190815260200160002060009055600660008573ffffffffffffffffffffffffffffffffffffffff1673ffffffffffffffffffffffffffffffffffffffff16815260200190815260200160002060008381526020019081526020016000206000905550505050565b60006001600880549050611fab91906131db565b9050600060096000848152602001908152602001600020549050600060088381548110612001577f4e487b7100000000000000000000000000000000000000000000000000000000600052603260045260246000fd5b906000526020600020015490508060088381548110612049577f4e487b7100000000000000000000000000000000000000000000000000000000600052603260045260246000fd5b9060005260206000200181905550816009600083815260200190815260200160002081905550600960008581526020019081526020016000206000905560088054806120be577f4e487b7100000000000000000000000000000000000000000000000000000000600052603160045260246000fd5b6001900381819060005260206000200160009055905550505050565b60006120e583610d60565b905081600660008573ffffffffffffffffffffffffffffffffffffffff1673ffffffffffffffffffffffffffffffffffffffff168152602001908152602001600020600083815260200190815260200160002081905550806007600084815260200190815260200160002081905550505050565b600080823b905060008111915050919050565b600061217f61217a84613087565b613056565b90508281526020810184848401111561219757600080fd5b6121a284828561328d565b509392505050565b6000813590506121b98161348d565b92915050565b6000813590506121ce816134a4565b92915050565b6000813590506121e3816134bb565b92915050565b6000813590506121f8816134d2565b92915050565b60008151905061220d816134d2565b92915050565b600082601f83011261222457600080fd5b813561223484826020860161216c565b91505092915050565b60008135905061224c816134e9565b92915050565b60006020828403121561226457600080fd5b6000612272848285016121aa565b91505092915050565b6000806040838503121561228e57600080fd5b600061229c858286016121aa565b92505060206122ad858286016121aa565b9150509250929050565b6000806000606084860312156122cc57600080fd5b60006122da868287016121aa565b93505060206122eb868287016121aa565b92505060406122fc8682870161223d565b9150509250925092565b6000806000806080858703121561231c57600080fd5b600061232a878288016121aa565b945050602061233b878288016121aa565b935050604061234c8782880161223d565b925050606085013567ffffffffffffffff81111561236957600080fd5b61237587828801612213565b91505092959194509250565b6000806040838503121561239457600080fd5b60006123a2858286016121aa565b92505060206123b3858286016121bf565b9150509250929050565b600080604083850312156123d057600080fd5b60006123de858286016121aa565b92505060206123ef8582860161223d565b9150509250929050565b60008060006060848603121561240e57600080fd5b600061241c868287016121aa565b935050602061242d8682870161223d565b925050604061243e868287016121aa565b9150509250925092565b60006020828403121561245a57600080fd5b6000612468848285016121d4565b91505092915050565b60006020828403121561248357600080fd5b6000612491848285016121e9565b91505092915050565b6000602082840312156124ac57600080fd5b60006124ba848285016121fe565b91505092915050565b6000602082840312156124d557600080fd5b60006124e38482850161223d565b91505092915050565b6124f58161320f565b82525050565b61250c6125078261320f565b61334a565b82525050565b61251b81613221565b82525050565b61252a8161322d565b82525050565b61254161253c8261322d565b61335c565b82525050565b6000612552826130b7565b61255c81856130cd565b935061256c81856020860161329c565b6125758161346f565b840191505092915050565b600061258b826130c2565b61259581856130de565b93506125a581856020860161329c565b6125ae8161346f565b840191505092915050565b60006125c4826130c2565b6125ce81856130ef565b93506125de81856020860161329c565b80840191505092915050565b60006125f7602b836130de565b91507f455243373231456e756d657261626c653a206f776e657220696e646578206f7560008301527f74206f6620626f756e64730000000000000000000000000000000000000000006020830152604082019050919050565b600061265d6032836130de565b91507f4552433732313a207472616e7366657220746f206e6f6e20455243373231526560008301527f63656976657220696d706c656d656e74657200000000000000000000000000006020830152604082019050919050565b60006126c36024836130de565b91507f4552433732313a207472616e7366657220746f20746865207a65726f2061646460008301527f72657373000000000000000000000000000000000000000000000000000000006020830152604082019050919050565b60006127296019836130de565b91507f4552433732313a20617070726f766520746f2063616c6c6572000000000000006000830152602082019050919050565b6000612769602c836130de565b91507f4552433732313a206f70657261746f7220717565727920666f72206e6f6e657860008301527f697374656e7420746f6b656e00000000000000000000000000000000000000006020830152604082019050919050565b60006127cf602a836130de565b91507f50757263686173696e67207072696e7473206f6620746869732070696563652060008301527f61726520706175736564000000000000000000000000000000000000000000006020830152604082019050919050565b60006128356038836130de565b91507f4552433732313a20617070726f76652063616c6c6572206973206e6f74206f7760008301527f6e6572206e6f7220617070726f76656420666f7220616c6c00000000000000006020830152604082019050919050565b600061289b602a836130de565b91507f4552433732313a2062616c616e636520717565727920666f7220746865207a6560008301527f726f2061646472657373000000000000000000000000000000000000000000006020830152604082019050919050565b60006129016029836130de565b91507f4552433732313a206f776e657220717565727920666f72206e6f6e657869737460008301527f656e7420746f6b656e00000000000000000000000000000000000000000000006020830152604082019050919050565b6000612967602c836130de565b91507f4552433732313a20617070726f76656420717565727920666f72206e6f6e657860008301527f697374656e7420746f6b656e00000000000000000000000000000000000000006020830152604082019050919050565b60006129cd6029836130de565b91507f4552433732313a207472616e73666572206f6620746f6b656e2074686174206960008301527f73206e6f74206f776e00000000000000000000000000000000000000000000006020830152604082019050919050565b6000612a33602f836130de565b91507f4552433732314d657461646174613a2055524920717565727920666f72206e6f60008301527f6e6578697374656e7420746f6b656e00000000000000000000000000000000006020830152604082019050919050565b6000612a996021836130de565b91507f4552433732313a20617070726f76616c20746f2063757272656e74206f776e6560008301527f72000000000000000000000000000000000000000000000000000000000000006020830152604082019050919050565b6000612aff601f836130de565b91507f4d757374206e6f7420657863656564206d617820696e766f636174696f6e73006000830152602082019050919050565b6000612b3f6031836130de565b91507f4552433732313a207472616e736665722063616c6c6572206973206e6f74206f60008301527f776e6572206e6f7220617070726f7665640000000000000000000000000000006020830152604082019050919050565b6000612ba5602c836130de565b91507f455243373231456e756d657261626c653a20676c6f62616c20696e646578206f60008301527f7574206f6620626f756e647300000000000000000000000000000000000000006020830152604082019050919050565b6000612c0b601e836130de565b91507f5069656365206d75737420657869737420616e642062652061637469766500006000830152602082019050919050565b6000612c4b6025836130de565b91507f4d7573742062652077686974656c697374656420746f206d696e74206469726560008301527f63746c792e0000000000000000000000000000000000000000000000000000006020830152604082019050919050565b612cad81613283565b82525050565b612cc4612cbf82613283565b613378565b82525050565b6000612cd682856125b9565b9150612ce282846125b9565b91508190509392505050565b6000612cfa8287612cb3565b602082019150612d0a8286612cb3565b602082019150612d1a8285612530565b602082019150612d2a82846124fb565b60148201915081905095945050505050565b6000602082019050612d5160008301846124ec565b92915050565b6000608082019050612d6c60008301876124ec565b612d7960208301866124ec565b612d866040830185612ca4565b8181036060830152612d988184612547565b905095945050505050565b6000602082019050612db86000830184612512565b92915050565b6000602082019050612dd36000830184612521565b92915050565b60006020820190508181036000830152612df38184612580565b905092915050565b60006020820190508181036000830152612e14816125ea565b9050919050565b60006020820190508181036000830152612e3481612650565b9050919050565b60006020820190508181036000830152612e54816126b6565b9050919050565b60006020820190508181036000830152612e748161271c565b9050919050565b60006020820190508181036000830152612e948161275c565b9050919050565b60006020820190508181036000830152612eb4816127c2565b9050919050565b60006020820190508181036000830152612ed481612828565b9050919050565b60006020820190508181036000830152612ef48161288e565b9050919050565b60006020820190508181036000830152612f14816128f4565b9050919050565b60006020820190508181036000830152612f348161295a565b9050919050565b60006020820190508181036000830152612f54816129c0565b9050919050565b60006020820190508181036000830152612f7481612a26565b9050919050565b60006020820190508181036000830152612f9481612a8c565b9050919050565b60006020820190508181036000830152612fb481612af2565b9050919050565b60006020820190508181036000830152612fd481612b32565b9050919050565b60006020820190508181036000830152612ff481612b98565b9050919050565b6000602082019050818103600083015261301481612bfe565b9050919050565b6000602082019050818103600083015261303481612c3e565b9050919050565b60006020820190506130506000830184612ca4565b92915050565b6000604051905081810181811067ffffffffffffffff8211171561307d5761307c613440565b5b8060405250919050565b600067ffffffffffffffff8211156130a2576130a1613440565b5b601f19601f8301169050602081019050919050565b600081519050919050565b600081519050919050565b600082825260208201905092915050565b600082825260208201905092915050565b600081905092915050565b600061310582613283565b915061311083613283565b9250827fffffffffffffffffffffffffffffffffffffffffffffffffffffffffffffffff03821115613145576131446133b3565b5b828201905092915050565b600061315b82613283565b915061316683613283565b925082613176576131756133e2565b5b828204905092915050565b600061318c82613283565b915061319783613283565b9250817fffffffffffffffffffffffffffffffffffffffffffffffffffffffffffffffff04831182151516156131d0576131cf6133b3565b5b828202905092915050565b60006131e682613283565b91506131f183613283565b925082821015613204576132036133b3565b5b828203905092915050565b600061321a82613263565b9050919050565b60008115159050919050565b6000819050919050565b60007fffffffff0000000000000000000000000000000000000000000000000000000082169050919050565b600073ffffffffffffffffffffffffffffffffffffffff82169050919050565b6000819050919050565b82818337600083830152505050565b60005b838110156132ba57808201518184015260208101905061329f565b838111156132c9576000848401525b50505050565b600060028204905060018216806132e757607f821691505b602082108114156132fb576132fa613411565b5b50919050565b600061330c82613283565b91507fffffffffffffffffffffffffffffffffffffffffffffffffffffffffffffffff82141561333f5761333e6133b3565b5b600182019050919050565b600061335582613366565b9050919050565b6000819050919050565b600061337182613480565b9050919050565b6000819050919050565b600061338d82613283565b915061339883613283565b9250826133a8576133a76133e2565b5b828206905092915050565b7f4e487b7100000000000000000000000000000000000000000000000000000000600052601160045260246000fd5b7f4e487b7100000000000000000000000000000000000000000000000000000000600052601260045260246000fd5b7f4e487b7100000000000000000000000000000000000000000000000000000000600052602260045260246000fd5b7f4e487b7100000000000000000000000000000000000000000000000000000000600052604160045260246000fd5b6000601f19601f8301169050919050565b60008160601b9050919050565b6134968161320f565b81146134a157600080fd5b50565b6134ad81613221565b81146134b857600080fd5b50565b6134c48161322d565b81146134cf57600080fd5b50565b6134db81613237565b81146134e657600080fd5b50565b6134f281613283565b81146134fd57600080fd5b5056fea26469706673582212203e81de3bbfe34765d469e79c46aea0d488c6ac5d02de52b6b94f7df40233339d64736f6c63430008000033",
  "linkReferences": {},
  "deployedLinkReferences": {}
}