{
  "_format": "hh-sol-artifact-1",
  "contractName": "GenerativeArtworks",
  "sourceName": "contracts/GenerativeArtworks.sol",
  "abi": [
    {
      "inputs": [
        {
          "internalType": "string",
          "name": "_tokenName",
          "type": "string"
        },
        {
          "internalType": "string",
          "name": "_tokenSymbol",
          "type": "string"
        }
      ],
      "stateMutability": "nonpayable",
      "type": "constructor"
    },
    {
      "anonymous": false,
      "inputs": [
        {
          "indexed": true,
          "internalType": "address",
          "name": "owner",
          "type": "address"
        },
        {
          "indexed": true,
          "internalType": "address",
          "name": "approved",
          "type": "address"
        },
        {
          "indexed": true,
          "internalType": "uint256",
          "name": "tokenId",
          "type": "uint256"
        }
      ],
      "name": "Approval",
      "type": "event"
    },
    {
      "anonymous": false,
      "inputs": [
        {
          "indexed": true,
          "internalType": "address",
          "name": "owner",
          "type": "address"
        },
        {
          "indexed": true,
          "internalType": "address",
          "name": "operator",
          "type": "address"
        },
        {
          "indexed": false,
          "internalType": "bool",
          "name": "approved",
          "type": "bool"
        }
      ],
      "name": "ApprovalForAll",
      "type": "event"
    },
    {
      "anonymous": false,
      "inputs": [
        {
          "indexed": true,
          "internalType": "address",
          "name": "from",
          "type": "address"
        },
        {
          "indexed": true,
          "internalType": "address",
          "name": "to",
          "type": "address"
        },
        {
          "indexed": true,
          "internalType": "uint256",
          "name": "tokenId",
          "type": "uint256"
        }
      ],
      "name": "Transfer",
      "type": "event"
    },
    {
      "inputs": [
        {
          "internalType": "address",
          "name": "to",
          "type": "address"
        },
        {
          "internalType": "uint256",
          "name": "tokenId",
          "type": "uint256"
        }
      ],
      "name": "approve",
      "outputs": [],
      "stateMutability": "nonpayable",
      "type": "function"
    },
    {
      "inputs": [
        {
          "internalType": "address",
          "name": "owner",
          "type": "address"
        }
      ],
      "name": "balanceOf",
      "outputs": [
        {
          "internalType": "uint256",
          "name": "",
          "type": "uint256"
        }
      ],
      "stateMutability": "view",
      "type": "function"
    },
    {
      "inputs": [
        {
          "internalType": "uint256",
          "name": "tokenId",
          "type": "uint256"
        }
      ],
      "name": "getApproved",
      "outputs": [
        {
          "internalType": "address",
          "name": "",
          "type": "address"
        }
      ],
      "stateMutability": "view",
      "type": "function"
    },
    {
      "inputs": [
        {
          "internalType": "uint256",
          "name": "",
          "type": "uint256"
        }
      ],
      "name": "hashToPrintId",
      "outputs": [
        {
          "internalType": "bytes32",
          "name": "",
          "type": "bytes32"
        }
      ],
      "stateMutability": "view",
      "type": "function"
    },
    {
      "inputs": [
        {
          "internalType": "address",
          "name": "",
          "type": "address"
        }
      ],
      "name": "isAdmin",
      "outputs": [
        {
          "internalType": "bool",
          "name": "",
          "type": "bool"
        }
      ],
      "stateMutability": "view",
      "type": "function"
    },
    {
      "inputs": [
        {
          "internalType": "address",
          "name": "owner",
          "type": "address"
        },
        {
          "internalType": "address",
          "name": "operator",
          "type": "address"
        }
      ],
      "name": "isApprovedForAll",
      "outputs": [
        {
          "internalType": "bool",
          "name": "",
          "type": "bool"
        }
      ],
      "stateMutability": "view",
      "type": "function"
    },
    {
      "inputs": [],
      "name": "name",
      "outputs": [
        {
          "internalType": "string",
          "name": "",
          "type": "string"
        }
      ],
      "stateMutability": "view",
      "type": "function"
    },
    {
      "inputs": [
        {
          "internalType": "uint256",
          "name": "tokenId",
          "type": "uint256"
        }
      ],
      "name": "ownerOf",
      "outputs": [
        {
          "internalType": "address",
          "name": "",
          "type": "address"
        }
      ],
      "stateMutability": "view",
      "type": "function"
    },
    {
      "inputs": [
        {
          "internalType": "uint256",
          "name": "",
          "type": "uint256"
        }
      ],
      "name": "pieceIdToPricePerPrintInWei",
      "outputs": [
        {
          "internalType": "uint256",
          "name": "",
          "type": "uint256"
        }
      ],
      "stateMutability": "view",
      "type": "function"
    },
    {
      "inputs": [
        {
          "internalType": "uint256",
          "name": "",
          "type": "uint256"
        }
      ],
      "name": "printIdToHash",
      "outputs": [
        {
          "internalType": "bytes32",
          "name": "",
          "type": "bytes32"
        }
      ],
      "stateMutability": "view",
      "type": "function"
    },
    {
      "inputs": [
        {
          "internalType": "uint256",
          "name": "",
          "type": "uint256"
        }
      ],
      "name": "printIdToPieceId",
      "outputs": [
        {
          "internalType": "uint256",
          "name": "",
          "type": "uint256"
        }
      ],
      "stateMutability": "view",
      "type": "function"
    },
    {
      "inputs": [
        {
          "internalType": "address",
          "name": "from",
          "type": "address"
        },
        {
          "internalType": "address",
          "name": "to",
          "type": "address"
        },
        {
          "internalType": "uint256",
          "name": "tokenId",
          "type": "uint256"
        }
      ],
      "name": "safeTransferFrom",
      "outputs": [],
      "stateMutability": "nonpayable",
      "type": "function"
    },
    {
      "inputs": [
        {
          "internalType": "address",
          "name": "from",
          "type": "address"
        },
        {
          "internalType": "address",
          "name": "to",
          "type": "address"
        },
        {
          "internalType": "uint256",
          "name": "tokenId",
          "type": "uint256"
        },
        {
          "internalType": "bytes",
          "name": "_data",
          "type": "bytes"
        }
      ],
      "name": "safeTransferFrom",
      "outputs": [],
      "stateMutability": "nonpayable",
      "type": "function"
    },
    {
      "inputs": [
        {
          "internalType": "address",
          "name": "operator",
          "type": "address"
        },
        {
          "internalType": "bool",
          "name": "approved",
          "type": "bool"
        }
      ],
      "name": "setApprovalForAll",
      "outputs": [],
      "stateMutability": "nonpayable",
      "type": "function"
    },
    {
      "inputs": [
        {
          "internalType": "bytes4",
          "name": "interfaceId",
          "type": "bytes4"
        }
      ],
      "name": "supportsInterface",
      "outputs": [
        {
          "internalType": "bool",
          "name": "",
          "type": "bool"
        }
      ],
      "stateMutability": "view",
      "type": "function"
    },
    {
      "inputs": [],
      "name": "symbol",
      "outputs": [
        {
          "internalType": "string",
          "name": "",
          "type": "string"
        }
      ],
      "stateMutability": "view",
      "type": "function"
    },
    {
      "inputs": [
        {
          "internalType": "uint256",
          "name": "index",
          "type": "uint256"
        }
      ],
      "name": "tokenByIndex",
      "outputs": [
        {
          "internalType": "uint256",
          "name": "",
          "type": "uint256"
        }
      ],
      "stateMutability": "view",
      "type": "function"
    },
    {
      "inputs": [
        {
          "internalType": "address",
          "name": "owner",
          "type": "address"
        },
        {
          "internalType": "uint256",
          "name": "index",
          "type": "uint256"
        }
      ],
      "name": "tokenOfOwnerByIndex",
      "outputs": [
        {
          "internalType": "uint256",
          "name": "",
          "type": "uint256"
        }
      ],
      "stateMutability": "view",
      "type": "function"
    },
    {
      "inputs": [
        {
          "internalType": "uint256",
          "name": "tokenId",
          "type": "uint256"
        }
      ],
      "name": "tokenURI",
      "outputs": [
        {
          "internalType": "string",
          "name": "",
          "type": "string"
        }
      ],
      "stateMutability": "view",
      "type": "function"
    },
    {
      "inputs": [],
      "name": "totalSupply",
      "outputs": [
        {
          "internalType": "uint256",
          "name": "",
          "type": "uint256"
        }
      ],
      "stateMutability": "view",
      "type": "function"
    },
    {
      "inputs": [
        {
          "internalType": "address",
          "name": "from",
          "type": "address"
        },
        {
          "internalType": "address",
          "name": "to",
          "type": "address"
        },
        {
          "internalType": "uint256",
          "name": "tokenId",
          "type": "uint256"
        }
      ],
      "name": "transferFrom",
      "outputs": [],
      "stateMutability": "nonpayable",
      "type": "function"
    }
  ],
  "bytecode": "0x60806040523480156200001157600080fd5b506040516200301f3803806200301f833981810160405281019062000037919062000197565b818181600090805190602001906200005192919062000075565b5080600190805190602001906200006a92919062000075565b50505050506200033b565b8280546200008390620002a7565b90600052602060002090601f016020900481019282620000a75760008555620000f3565b82601f10620000c257805160ff1916838001178555620000f3565b82800160010185558215620000f3579182015b82811115620000f2578251825591602001919060010190620000d5565b5b50905062000102919062000106565b5090565b5b808211156200012157600081600090555060010162000107565b5090565b60006200013c62000136846200023e565b6200020a565b9050828152602081018484840111156200015557600080fd5b6200016284828562000271565b509392505050565b600082601f8301126200017c57600080fd5b81516200018e84826020860162000125565b91505092915050565b60008060408385031215620001ab57600080fd5b600083015167ffffffffffffffff811115620001c657600080fd5b620001d4858286016200016a565b925050602083015167ffffffffffffffff811115620001f257600080fd5b62000200858286016200016a565b9150509250929050565b6000604051905081810181811067ffffffffffffffff821117156200023457620002336200030c565b5b8060405250919050565b600067ffffffffffffffff8211156200025c576200025b6200030c565b5b601f19601f8301169050602081019050919050565b60005b838110156200029157808201518184015260208101905062000274565b83811115620002a1576000848401525b50505050565b60006002820490506001821680620002c057607f821691505b60208210811415620002d757620002d6620002dd565b5b50919050565b7f4e487b7100000000000000000000000000000000000000000000000000000000600052602260045260246000fd5b7f4e487b7100000000000000000000000000000000000000000000000000000000600052604160045260246000fd5b612cd4806200034b6000396000f3fe608060405234801561001057600080fd5b50600436106101375760003560e01c80634f6ccce7116100b8578063a22cb4651161007c578063a22cb4651461039a578063afda288b146103b6578063b88d4fde146103e6578063c87b56dd14610402578063e985e9c514610432578063eb3a86e31461046257610137565b80634f6ccce7146102bc5780636352211e146102ec57806363e56aaa1461031c57806370a082311461034c57806395d89b411461037c57610137565b806323b872dd116100ff57806323b872dd146101f457806324d7806c146102105780632bf88d83146102405780632f745c591461027057806342842e0e146102a057610137565b806301ffc9a71461013c57806306fdde031461016c578063081812fc1461018a578063095ea7b3146101ba57806318160ddd146101d6575b600080fd5b61015660048036038101906101519190611f24565b610492565b6040516101639190612677565b60405180910390f35b61017461050c565b60405161018191906126ad565b60405180910390f35b6101a4600480360381019061019f9190611f76565b61059e565b6040516101b19190612610565b60405180910390f35b6101d460048036038101906101cf9190611ee8565b610623565b005b6101de61073b565b6040516101eb919061288f565b60405180910390f35b61020e60048036038101906102099190611de2565b610748565b005b61022a60048036038101906102259190611d7d565b6107a8565b6040516102379190612677565b60405180910390f35b61025a60048036038101906102559190611f76565b6107c8565b604051610267919061288f565b60405180910390f35b61028a60048036038101906102859190611ee8565b6107e0565b604051610297919061288f565b60405180910390f35b6102ba60048036038101906102b59190611de2565b610885565b005b6102d660048036038101906102d19190611f76565b6108a5565b6040516102e3919061288f565b60405180910390f35b61030660048036038101906103019190611f76565b61093c565b6040516103139190612610565b60405180910390f35b61033660048036038101906103319190611f76565b6109ee565b6040516103439190612692565b60405180910390f35b61036660048036038101906103619190611d7d565b610a06565b604051610373919061288f565b60405180910390f35b610384610abe565b60405161039191906126ad565b60405180910390f35b6103b460048036038101906103af9190611eac565b610b50565b005b6103d060048036038101906103cb9190611f76565b610cd1565b6040516103dd9190612692565b60405180910390f35b61040060048036038101906103fb9190611e31565b610ce9565b005b61041c60048036038101906104179190611f76565b610d4b565b60405161042991906126ad565b60405180910390f35b61044c60048036038101906104479190611da6565b610df2565b6040516104599190612677565b60405180910390f35b61047c60048036038101906104779190611f76565b610e86565b604051610489919061288f565b60405180910390f35b60007f780e9d63000000000000000000000000000000000000000000000000000000007bffffffffffffffffffffffffffffffffffffffffffffffffffffffff1916827bffffffffffffffffffffffffffffffffffffffffffffffffffffffff19161480610505575061050482610e9e565b5b9050919050565b60606000805461051b90612ac9565b80601f016020809104026020016040519081016040528092919081815260200182805461054790612ac9565b80156105945780601f1061056957610100808354040283529160200191610594565b820191906000526020600020905b81548152906001019060200180831161057757829003601f168201915b5050505050905090565b60006105a982610f80565b6105e8576040517f08c379a00000000000000000000000000000000000000000000000000000000081526004016105df906127cf565b60405180910390fd5b6004600083815260200190815260200160002060009054906101000a900473ffffffffffffffffffffffffffffffffffffffff169050919050565b600061062e8261093c565b90508073ffffffffffffffffffffffffffffffffffffffff168373ffffffffffffffffffffffffffffffffffffffff16141561069f576040517f08c379a00000000000000000000000000000000000000000000000000000000081526004016106969061282f565b60405180910390fd5b8073ffffffffffffffffffffffffffffffffffffffff166106be610fec565b73ffffffffffffffffffffffffffffffffffffffff1614806106ed57506106ec816106e7610fec565b610df2565b5b61072c576040517f08c379a00000000000000000000000000000000000000000000000000000000081526004016107239061276f565b60405180910390fd5b6107368383610ff4565b505050565b6000600880549050905090565b610759610753610fec565b826110ad565b610798576040517f08c379a000000000000000000000000000000000000000000000000000000000815260040161078f9061284f565b60405180910390fd5b6107a383838361118b565b505050565b600c6020528060005260406000206000915054906101000a900460ff1681565b600b6020528060005260406000206000915090505481565b60006107eb83610a06565b821061082c576040517f08c379a0000000000000000000000000000000000000000000000000000000008152600401610823906126cf565b60405180910390fd5b600660008473ffffffffffffffffffffffffffffffffffffffff1673ffffffffffffffffffffffffffffffffffffffff168152602001908152602001600020600083815260200190815260200160002054905092915050565b6108a083838360405180602001604052806000815250610ce9565b505050565b60006108af61073b565b82106108f0576040517f08c379a00000000000000000000000000000000000000000000000000000000081526004016108e79061286f565b60405180910390fd5b6008828154811061092a577f4e487b7100000000000000000000000000000000000000000000000000000000600052603260045260246000fd5b90600052602060002001549050919050565b6000806002600084815260200190815260200160002060009054906101000a900473ffffffffffffffffffffffffffffffffffffffff169050600073ffffffffffffffffffffffffffffffffffffffff168173ffffffffffffffffffffffffffffffffffffffff1614156109e5576040517f08c379a00000000000000000000000000000000000000000000000000000000081526004016109dc906127af565b60405180910390fd5b80915050919050565b600f6020528060005260406000206000915090505481565b60008073ffffffffffffffffffffffffffffffffffffffff168273ffffffffffffffffffffffffffffffffffffffff161415610a77576040517f08c379a0000000000000000000000000000000000000000000000000000000008152600401610a6e9061278f565b60405180910390fd5b600360008373ffffffffffffffffffffffffffffffffffffffff1673ffffffffffffffffffffffffffffffffffffffff168152602001908152602001600020549050919050565b606060018054610acd90612ac9565b80601f0160208091040260200160405190810160405280929190818152602001828054610af990612ac9565b8015610b465780601f10610b1b57610100808354040283529160200191610b46565b820191906000526020600020905b815481529060010190602001808311610b2957829003601f168201915b5050505050905090565b610b58610fec565b73ffffffffffffffffffffffffffffffffffffffff168273ffffffffffffffffffffffffffffffffffffffff161415610bc6576040517f08c379a0000000000000000000000000000000000000000000000000000000008152600401610bbd9061272f565b60405180910390fd5b8060056000610bd3610fec565b73ffffffffffffffffffffffffffffffffffffffff1673ffffffffffffffffffffffffffffffffffffffff16815260200190815260200160002060008473ffffffffffffffffffffffffffffffffffffffff1673ffffffffffffffffffffffffffffffffffffffff16815260200190815260200160002060006101000a81548160ff0219169083151502179055508173ffffffffffffffffffffffffffffffffffffffff16610c80610fec565b73ffffffffffffffffffffffffffffffffffffffff167f17307eab39ab6107e8899845ad3d59bd9653f200f220920489ca2b5937696c3183604051610cc59190612677565b60405180910390a35050565b60106020528060005260406000206000915090505481565b610cfa610cf4610fec565b836110ad565b610d39576040517f08c379a0000000000000000000000000000000000000000000000000000000008152600401610d309061284f565b60405180910390fd5b610d45848484846113e7565b50505050565b6060610d5682610f80565b610d95576040517f08c379a0000000000000000000000000000000000000000000000000000000008152600401610d8c9061280f565b60405180910390fd5b6000610d9f611443565b90506000815111610dbf5760405180602001604052806000815250610dea565b80610dc98461145a565b604051602001610dda9291906125ec565b6040516020818303038152906040525b915050919050565b6000600560008473ffffffffffffffffffffffffffffffffffffffff1673ffffffffffffffffffffffffffffffffffffffff16815260200190815260200160002060008373ffffffffffffffffffffffffffffffffffffffff1673ffffffffffffffffffffffffffffffffffffffff16815260200190815260200160002060009054906101000a900460ff16905092915050565b600d6020528060005260406000206000915090505481565b60007f80ac58cd000000000000000000000000000000000000000000000000000000007bffffffffffffffffffffffffffffffffffffffffffffffffffffffff1916827bffffffffffffffffffffffffffffffffffffffffffffffffffffffff19161480610f6957507f5b5e139f000000000000000000000000000000000000000000000000000000007bffffffffffffffffffffffffffffffffffffffffffffffffffffffff1916827bffffffffffffffffffffffffffffffffffffffffffffffffffffffff1916145b80610f795750610f7882611607565b5b9050919050565b60008073ffffffffffffffffffffffffffffffffffffffff166002600084815260200190815260200160002060009054906101000a900473ffffffffffffffffffffffffffffffffffffffff1673ffffffffffffffffffffffffffffffffffffffff1614159050919050565b600033905090565b816004600083815260200190815260200160002060006101000a81548173ffffffffffffffffffffffffffffffffffffffff021916908373ffffffffffffffffffffffffffffffffffffffff160217905550808273ffffffffffffffffffffffffffffffffffffffff166110678361093c565b73ffffffffffffffffffffffffffffffffffffffff167f8c5be1e5ebec7d5bd14f71427d1e84f3dd0314c0f7b2291e5b200ac8c7c3b92560405160405180910390a45050565b60006110b882610f80565b6110f7576040517f08c379a00000000000000000000000000000000000000000000000000000000081526004016110ee9061274f565b60405180910390fd5b60006111028361093c565b90508073ffffffffffffffffffffffffffffffffffffffff168473ffffffffffffffffffffffffffffffffffffffff16148061117157508373ffffffffffffffffffffffffffffffffffffffff166111598461059e565b73ffffffffffffffffffffffffffffffffffffffff16145b8061118257506111818185610df2565b5b91505092915050565b8273ffffffffffffffffffffffffffffffffffffffff166111ab8261093c565b73ffffffffffffffffffffffffffffffffffffffff1614611201576040517f08c379a00000000000000000000000000000000000000000000000000000000081526004016111f8906127ef565b60405180910390fd5b600073ffffffffffffffffffffffffffffffffffffffff168273ffffffffffffffffffffffffffffffffffffffff161415611271576040517f08c379a00000000000000000000000000000000000000000000000000000000081526004016112689061270f565b60405180910390fd5b61127c838383611671565b611287600082610ff4565b6001600360008573ffffffffffffffffffffffffffffffffffffffff1673ffffffffffffffffffffffffffffffffffffffff16815260200190815260200160002060008282546112d791906129d5565b925050819055506001600360008473ffffffffffffffffffffffffffffffffffffffff1673ffffffffffffffffffffffffffffffffffffffff168152602001908152602001600020600082825461132e919061294e565b92505081905550816002600083815260200190815260200160002060006101000a81548173ffffffffffffffffffffffffffffffffffffffff021916908373ffffffffffffffffffffffffffffffffffffffff160217905550808273ffffffffffffffffffffffffffffffffffffffff168473ffffffffffffffffffffffffffffffffffffffff167fddf252ad1be2c89b69c2b068fc378daa952ba7f163c4a11628f55a4df523b3ef60405160405180910390a4505050565b6113f284848461118b565b6113fe84848484611785565b61143d576040517f08c379a0000000000000000000000000000000000000000000000000000000008152600401611434906126ef565b60405180910390fd5b50505050565b606060405180602001604052806000815250905090565b606060008214156114a2576040518060400160405280600181526020017f30000000000000000000000000000000000000000000000000000000000000008152509050611602565b600082905060005b600082146114d45780806114bd90612afb565b915050600a826114cd91906129a4565b91506114aa565b60008167ffffffffffffffff811115611516577f4e487b7100000000000000000000000000000000000000000000000000000000600052604160045260246000fd5b6040519080825280601f01601f1916602001820160405280156115485781602001600182028036833780820191505090505b5090505b600085146115fb5760018261156191906129d5565b9150600a856115709190612b44565b603061157c919061294e565b60f81b8183815181106115b8577f4e487b7100000000000000000000000000000000000000000000000000000000600052603260045260246000fd5b60200101907effffffffffffffffffffffffffffffffffffffffffffffffffffffffffffff1916908160001a905350600a856115f491906129a4565b945061154c565b8093505050505b919050565b60007f01ffc9a7000000000000000000000000000000000000000000000000000000007bffffffffffffffffffffffffffffffffffffffffffffffffffffffff1916827bffffffffffffffffffffffffffffffffffffffffffffffffffffffff1916149050919050565b61167c83838361191c565b600073ffffffffffffffffffffffffffffffffffffffff168373ffffffffffffffffffffffffffffffffffffffff1614156116bf576116ba81611921565b6116fe565b8173ffffffffffffffffffffffffffffffffffffffff168373ffffffffffffffffffffffffffffffffffffffff16146116fd576116fc838261196a565b5b5b600073ffffffffffffffffffffffffffffffffffffffff168273ffffffffffffffffffffffffffffffffffffffff1614156117415761173c81611ad7565b611780565b8273ffffffffffffffffffffffffffffffffffffffff168273ffffffffffffffffffffffffffffffffffffffff161461177f5761177e8282611c1a565b5b5b505050565b60006117a68473ffffffffffffffffffffffffffffffffffffffff16611c99565b1561190f578373ffffffffffffffffffffffffffffffffffffffff1663150b7a026117cf610fec565b8786866040518563ffffffff1660e01b81526004016117f1949392919061262b565b602060405180830381600087803b15801561180b57600080fd5b505af192505050801561183c57506040513d601f19601f820116820180604052508101906118399190611f4d565b60015b6118bf573d806000811461186c576040519150601f19603f3d011682016040523d82523d6000602084013e611871565b606091505b506000815114156118b7576040517f08c379a00000000000000000000000000000000000000000000000000000000081526004016118ae906126ef565b60405180910390fd5b805181602001fd5b63150b7a0260e01b7bffffffffffffffffffffffffffffffffffffffffffffffffffffffff1916817bffffffffffffffffffffffffffffffffffffffffffffffffffffffff191614915050611914565b600190505b949350505050565b505050565b6008805490506009600083815260200190815260200160002081905550600881908060018154018082558091505060019003906000526020600020016000909190919091505550565b6000600161197784610a06565b61198191906129d5565b9050600060076000848152602001908152602001600020549050818114611a66576000600660008673ffffffffffffffffffffffffffffffffffffffff1673ffffffffffffffffffffffffffffffffffffffff168152602001908152602001600020600084815260200190815260200160002054905080600660008773ffffffffffffffffffffffffffffffffffffffff1673ffffffffffffffffffffffffffffffffffffffff168152602001908152602001600020600084815260200190815260200160002081905550816007600083815260200190815260200160002081905550505b6007600084815260200190815260200160002060009055600660008573ffffffffffffffffffffffffffffffffffffffff1673ffffffffffffffffffffffffffffffffffffffff16815260200190815260200160002060008381526020019081526020016000206000905550505050565b60006001600880549050611aeb91906129d5565b9050600060096000848152602001908152602001600020549050600060088381548110611b41577f4e487b7100000000000000000000000000000000000000000000000000000000600052603260045260246000fd5b906000526020600020015490508060088381548110611b89577f4e487b7100000000000000000000000000000000000000000000000000000000600052603260045260246000fd5b906000526020600020018190555081600960008381526020019081526020016000208190555060096000858152602001908152602001600020600090556008805480611bfe577f4e487b7100000000000000000000000000000000000000000000000000000000600052603160045260246000fd5b6001900381819060005260206000200160009055905550505050565b6000611c2583610a06565b905081600660008573ffffffffffffffffffffffffffffffffffffffff1673ffffffffffffffffffffffffffffffffffffffff168152602001908152602001600020600083815260200190815260200160002081905550806007600084815260200190815260200160002081905550505050565b600080823b905060008111915050919050565b6000611cbf611cba846128db565b6128aa565b905082815260208101848484011115611cd757600080fd5b611ce2848285612a87565b509392505050565b600081359050611cf981612c42565b92915050565b600081359050611d0e81612c59565b92915050565b600081359050611d2381612c70565b92915050565b600081519050611d3881612c70565b92915050565b600082601f830112611d4f57600080fd5b8135611d5f848260208601611cac565b91505092915050565b600081359050611d7781612c87565b92915050565b600060208284031215611d8f57600080fd5b6000611d9d84828501611cea565b91505092915050565b60008060408385031215611db957600080fd5b6000611dc785828601611cea565b9250506020611dd885828601611cea565b9150509250929050565b600080600060608486031215611df757600080fd5b6000611e0586828701611cea565b9350506020611e1686828701611cea565b9250506040611e2786828701611d68565b9150509250925092565b60008060008060808587031215611e4757600080fd5b6000611e5587828801611cea565b9450506020611e6687828801611cea565b9350506040611e7787828801611d68565b925050606085013567ffffffffffffffff811115611e9457600080fd5b611ea087828801611d3e565b91505092959194509250565b60008060408385031215611ebf57600080fd5b6000611ecd85828601611cea565b9250506020611ede85828601611cff565b9150509250929050565b60008060408385031215611efb57600080fd5b6000611f0985828601611cea565b9250506020611f1a85828601611d68565b9150509250929050565b600060208284031215611f3657600080fd5b6000611f4484828501611d14565b91505092915050565b600060208284031215611f5f57600080fd5b6000611f6d84828501611d29565b91505092915050565b600060208284031215611f8857600080fd5b6000611f9684828501611d68565b91505092915050565b611fa881612a09565b82525050565b611fb781612a1b565b82525050565b611fc681612a27565b82525050565b6000611fd78261290b565b611fe18185612921565b9350611ff1818560208601612a96565b611ffa81612c31565b840191505092915050565b600061201082612916565b61201a8185612932565b935061202a818560208601612a96565b61203381612c31565b840191505092915050565b600061204982612916565b6120538185612943565b9350612063818560208601612a96565b80840191505092915050565b600061207c602b83612932565b91507f455243373231456e756d657261626c653a206f776e657220696e646578206f7560008301527f74206f6620626f756e64730000000000000000000000000000000000000000006020830152604082019050919050565b60006120e2603283612932565b91507f4552433732313a207472616e7366657220746f206e6f6e20455243373231526560008301527f63656976657220696d706c656d656e74657200000000000000000000000000006020830152604082019050919050565b6000612148602483612932565b91507f4552433732313a207472616e7366657220746f20746865207a65726f2061646460008301527f72657373000000000000000000000000000000000000000000000000000000006020830152604082019050919050565b60006121ae601983612932565b91507f4552433732313a20617070726f766520746f2063616c6c6572000000000000006000830152602082019050919050565b60006121ee602c83612932565b91507f4552433732313a206f70657261746f7220717565727920666f72206e6f6e657860008301527f697374656e7420746f6b656e00000000000000000000000000000000000000006020830152604082019050919050565b6000612254603883612932565b91507f4552433732313a20617070726f76652063616c6c6572206973206e6f74206f7760008301527f6e6572206e6f7220617070726f76656420666f7220616c6c00000000000000006020830152604082019050919050565b60006122ba602a83612932565b91507f4552433732313a2062616c616e636520717565727920666f7220746865207a6560008301527f726f2061646472657373000000000000000000000000000000000000000000006020830152604082019050919050565b6000612320602983612932565b91507f4552433732313a206f776e657220717565727920666f72206e6f6e657869737460008301527f656e7420746f6b656e00000000000000000000000000000000000000000000006020830152604082019050919050565b6000612386602c83612932565b91507f4552433732313a20617070726f76656420717565727920666f72206e6f6e657860008301527f697374656e7420746f6b656e00000000000000000000000000000000000000006020830152604082019050919050565b60006123ec602983612932565b91507f4552433732313a207472616e73666572206f6620746f6b656e2074686174206960008301527f73206e6f74206f776e00000000000000000000000000000000000000000000006020830152604082019050919050565b6000612452602f83612932565b91507f4552433732314d657461646174613a2055524920717565727920666f72206e6f60008301527f6e6578697374656e7420746f6b656e00000000000000000000000000000000006020830152604082019050919050565b60006124b8602183612932565b91507f4552433732313a20617070726f76616c20746f2063757272656e74206f776e6560008301527f72000000000000000000000000000000000000000000000000000000000000006020830152604082019050919050565b600061251e603183612932565b91507f4552433732313a207472616e736665722063616c6c6572206973206e6f74206f60008301527f776e6572206e6f7220617070726f7665640000000000000000000000000000006020830152604082019050919050565b6000612584602c83612932565b91507f455243373231456e756d657261626c653a20676c6f62616c20696e646578206f60008301527f7574206f6620626f756e647300000000000000000000000000000000000000006020830152604082019050919050565b6125e681612a7d565b82525050565b60006125f8828561203e565b9150612604828461203e565b91508190509392505050565b60006020820190506126256000830184611f9f565b92915050565b60006080820190506126406000830187611f9f565b61264d6020830186611f9f565b61265a60408301856125dd565b818103606083015261266c8184611fcc565b905095945050505050565b600060208201905061268c6000830184611fae565b92915050565b60006020820190506126a76000830184611fbd565b92915050565b600060208201905081810360008301526126c78184612005565b905092915050565b600060208201905081810360008301526126e88161206f565b9050919050565b60006020820190508181036000830152612708816120d5565b9050919050565b600060208201905081810360008301526127288161213b565b9050919050565b60006020820190508181036000830152612748816121a1565b9050919050565b60006020820190508181036000830152612768816121e1565b9050919050565b6000602082019050818103600083015261278881612247565b9050919050565b600060208201905081810360008301526127a8816122ad565b9050919050565b600060208201905081810360008301526127c881612313565b9050919050565b600060208201905081810360008301526127e881612379565b9050919050565b60006020820190508181036000830152612808816123df565b9050919050565b6000602082019050818103600083015261282881612445565b9050919050565b60006020820190508181036000830152612848816124ab565b9050919050565b6000602082019050818103600083015261286881612511565b9050919050565b6000602082019050818103600083015261288881612577565b9050919050565b60006020820190506128a460008301846125dd565b92915050565b6000604051905081810181811067ffffffffffffffff821117156128d1576128d0612c02565b5b8060405250919050565b600067ffffffffffffffff8211156128f6576128f5612c02565b5b601f19601f8301169050602081019050919050565b600081519050919050565b600081519050919050565b600082825260208201905092915050565b600082825260208201905092915050565b600081905092915050565b600061295982612a7d565b915061296483612a7d565b9250827fffffffffffffffffffffffffffffffffffffffffffffffffffffffffffffffff0382111561299957612998612b75565b5b828201905092915050565b60006129af82612a7d565b91506129ba83612a7d565b9250826129ca576129c9612ba4565b5b828204905092915050565b60006129e082612a7d565b91506129eb83612a7d565b9250828210156129fe576129fd612b75565b5b828203905092915050565b6000612a1482612a5d565b9050919050565b60008115159050919050565b6000819050919050565b60007fffffffff0000000000000000000000000000000000000000000000000000000082169050919050565b600073ffffffffffffffffffffffffffffffffffffffff82169050919050565b6000819050919050565b82818337600083830152505050565b60005b83811015612ab4578082015181840152602081019050612a99565b83811115612ac3576000848401525b50505050565b60006002820490506001821680612ae157607f821691505b60208210811415612af557612af4612bd3565b5b50919050565b6000612b0682612a7d565b91507fffffffffffffffffffffffffffffffffffffffffffffffffffffffffffffffff821415612b3957612b38612b75565b5b600182019050919050565b6000612b4f82612a7d565b9150612b5a83612a7d565b925082612b6a57612b69612ba4565b5b828206905092915050565b7f4e487b7100000000000000000000000000000000000000000000000000000000600052601160045260246000fd5b7f4e487b7100000000000000000000000000000000000000000000000000000000600052601260045260246000fd5b7f4e487b7100000000000000000000000000000000000000000000000000000000600052602260045260246000fd5b7f4e487b7100000000000000000000000000000000000000000000000000000000600052604160045260246000fd5b6000601f19601f8301169050919050565b612c4b81612a09565b8114612c5657600080fd5b50565b612c6281612a1b565b8114612c6d57600080fd5b50565b612c7981612a31565b8114612c8457600080fd5b50565b612c9081612a7d565b8114612c9b57600080fd5b5056fea26469706673582212205d0e6de6e635363851f7bcfb2355b4d24a94d93cfe76cbace8356589ad7f1eca64736f6c63430008000033",
  "linkReferences": {},
  "deployedLinkReferences": {}
}