{
  "_format": "hh-sol-artifact-1",
  "contractName": "GenerativeArtworks",
  "sourceName": "contracts/GenerativeArtworks.sol",
  "abi": [
    {
      "inputs": [
        {
          "internalType": "string",
          "name": "tokenName",
          "type": "string"
        },
        {
          "internalType": "string",
          "name": "tokenSymbol",
          "type": "string"
        }
      ],
      "stateMutability": "nonpayable",
      "type": "constructor"
    },
    {
      "anonymous": false,
      "inputs": [
        {
          "indexed": true,
          "internalType": "address",
          "name": "owner",
          "type": "address"
        },
        {
          "indexed": true,
          "internalType": "address",
          "name": "approved",
          "type": "address"
        },
        {
          "indexed": true,
          "internalType": "uint256",
          "name": "tokenId",
          "type": "uint256"
        }
      ],
      "name": "Approval",
      "type": "event"
    },
    {
      "anonymous": false,
      "inputs": [
        {
          "indexed": true,
          "internalType": "address",
          "name": "owner",
          "type": "address"
        },
        {
          "indexed": true,
          "internalType": "address",
          "name": "operator",
          "type": "address"
        },
        {
          "indexed": false,
          "internalType": "bool",
          "name": "approved",
          "type": "bool"
        }
      ],
      "name": "ApprovalForAll",
      "type": "event"
    },
    {
      "anonymous": false,
      "inputs": [
        {
          "indexed": true,
          "internalType": "address",
          "name": "_to",
          "type": "address"
        },
        {
          "indexed": true,
          "internalType": "uint256",
          "name": "_printId",
          "type": "uint256"
        },
        {
          "indexed": true,
          "internalType": "uint256",
          "name": "_pieceId",
          "type": "uint256"
        }
      ],
      "name": "Mint",
      "type": "event"
    },
    {
      "anonymous": false,
      "inputs": [
        {
          "indexed": true,
          "internalType": "address",
          "name": "from",
          "type": "address"
        },
        {
          "indexed": true,
          "internalType": "address",
          "name": "to",
          "type": "address"
        },
        {
          "indexed": true,
          "internalType": "uint256",
          "name": "tokenId",
          "type": "uint256"
        }
      ],
      "name": "Transfer",
      "type": "event"
    },
    {
      "inputs": [
        {
          "internalType": "address",
          "name": "_address",
          "type": "address"
        }
      ],
      "name": "addMintWhitelisted",
      "outputs": [],
      "stateMutability": "nonpayable",
      "type": "function"
    },
    {
      "inputs": [
        {
          "internalType": "string",
          "name": "pieceName",
          "type": "string"
        }
      ],
      "name": "addPiece",
      "outputs": [],
      "stateMutability": "nonpayable",
      "type": "function"
    },
    {
      "inputs": [
        {
          "internalType": "address",
          "name": "to",
          "type": "address"
        },
        {
          "internalType": "uint256",
          "name": "tokenId",
          "type": "uint256"
        }
      ],
      "name": "approve",
      "outputs": [],
      "stateMutability": "nonpayable",
      "type": "function"
    },
    {
      "inputs": [
        {
          "internalType": "address",
          "name": "owner",
          "type": "address"
        }
      ],
      "name": "balanceOf",
      "outputs": [
        {
          "internalType": "uint256",
          "name": "",
          "type": "uint256"
        }
      ],
      "stateMutability": "view",
      "type": "function"
    },
    {
      "inputs": [
        {
          "internalType": "uint256",
          "name": "pieceId",
          "type": "uint256"
        },
        {
          "internalType": "address",
          "name": "additionalPayeeAddress",
          "type": "address"
        }
      ],
      "name": "getAdditionalPayeePercentageForPieceIdAndAdditionalPayeeAddress",
      "outputs": [
        {
          "internalType": "uint256",
          "name": "",
          "type": "uint256"
        }
      ],
      "stateMutability": "view",
      "type": "function"
    },
    {
      "inputs": [
        {
          "internalType": "uint256",
          "name": "pieceId",
          "type": "uint256"
        }
      ],
      "name": "getAdditionalPayeesForPieceId",
      "outputs": [
        {
          "internalType": "address[]",
          "name": "",
          "type": "address[]"
        }
      ],
      "stateMutability": "view",
      "type": "function"
    },
    {
      "inputs": [
        {
          "internalType": "uint256",
          "name": "tokenId",
          "type": "uint256"
        }
      ],
      "name": "getApproved",
      "outputs": [
        {
          "internalType": "address",
          "name": "",
          "type": "address"
        }
      ],
      "stateMutability": "view",
      "type": "function"
    },
    {
      "inputs": [
        {
          "internalType": "bytes32",
          "name": "",
          "type": "bytes32"
        }
      ],
      "name": "hashToPrintId",
      "outputs": [
        {
          "internalType": "uint256",
          "name": "",
          "type": "uint256"
        }
      ],
      "stateMutability": "view",
      "type": "function"
    },
    {
      "inputs": [
        {
          "internalType": "address",
          "name": "",
          "type": "address"
        }
      ],
      "name": "isAdmin",
      "outputs": [
        {
          "internalType": "bool",
          "name": "",
          "type": "bool"
        }
      ],
      "stateMutability": "view",
      "type": "function"
    },
    {
      "inputs": [
        {
          "internalType": "address",
          "name": "owner",
          "type": "address"
        },
        {
          "internalType": "address",
          "name": "operator",
          "type": "address"
        }
      ],
      "name": "isApprovedForAll",
      "outputs": [
        {
          "internalType": "bool",
          "name": "",
          "type": "bool"
        }
      ],
      "stateMutability": "view",
      "type": "function"
    },
    {
      "inputs": [
        {
          "internalType": "address",
          "name": "",
          "type": "address"
        }
      ],
      "name": "isMintWhitelisted",
      "outputs": [
        {
          "internalType": "bool",
          "name": "",
          "type": "bool"
        }
      ],
      "stateMutability": "view",
      "type": "function"
    },
    {
      "inputs": [
        {
          "internalType": "uint256",
          "name": "pieceId",
          "type": "uint256"
        }
      ],
      "name": "lockPiece",
      "outputs": [],
      "stateMutability": "nonpayable",
      "type": "function"
    },
    {
      "inputs": [
        {
          "internalType": "address",
          "name": "to",
          "type": "address"
        },
        {
          "internalType": "uint256",
          "name": "pieceId",
          "type": "uint256"
        },
        {
          "internalType": "address",
          "name": "by",
          "type": "address"
        }
      ],
      "name": "mint",
      "outputs": [
        {
          "internalType": "uint256",
          "name": "",
          "type": "uint256"
        }
      ],
      "stateMutability": "nonpayable",
      "type": "function"
    },
    {
      "inputs": [],
      "name": "name",
      "outputs": [
        {
          "internalType": "string",
          "name": "",
          "type": "string"
        }
      ],
      "stateMutability": "view",
      "type": "function"
    },
    {
      "inputs": [],
      "name": "nextPieceId",
      "outputs": [
        {
          "internalType": "uint256",
          "name": "",
          "type": "uint256"
        }
      ],
      "stateMutability": "view",
      "type": "function"
    },
    {
      "inputs": [
        {
          "internalType": "uint256",
          "name": "tokenId",
          "type": "uint256"
        }
      ],
      "name": "ownerOf",
      "outputs": [
        {
          "internalType": "address",
          "name": "",
          "type": "address"
        }
      ],
      "stateMutability": "view",
      "type": "function"
    },
    {
      "inputs": [
        {
          "internalType": "uint256",
          "name": "pieceId",
          "type": "uint256"
        }
      ],
      "name": "pieceDetails",
      "outputs": [
        {
          "internalType": "string",
          "name": "pieceName_",
          "type": "string"
        },
        {
          "internalType": "string",
          "name": "description_",
          "type": "string"
        },
        {
          "internalType": "string",
          "name": "license_",
          "type": "string"
        },
        {
          "internalType": "uint256",
          "name": "pricePerPrintInWei_",
          "type": "uint256"
        },
        {
          "internalType": "uint256",
          "name": "currentPrints_",
          "type": "uint256"
        },
        {
          "internalType": "uint256",
          "name": "maxPrints_",
          "type": "uint256"
        },
        {
          "internalType": "bool",
          "name": "active_",
          "type": "bool"
        },
        {
          "internalType": "bool",
          "name": "paused_",
          "type": "bool"
        },
        {
          "internalType": "bool",
          "name": "locked_",
          "type": "bool"
        }
      ],
      "stateMutability": "view",
      "type": "function"
    },
    {
      "inputs": [
        {
          "internalType": "uint256",
          "name": "",
          "type": "uint256"
        },
        {
          "internalType": "address",
          "name": "",
          "type": "address"
        }
      ],
      "name": "pieceIdToAdditionalPayeeToPercentage",
      "outputs": [
        {
          "internalType": "uint256",
          "name": "",
          "type": "uint256"
        }
      ],
      "stateMutability": "view",
      "type": "function"
    },
    {
      "inputs": [
        {
          "internalType": "uint256",
          "name": "",
          "type": "uint256"
        },
        {
          "internalType": "uint256",
          "name": "",
          "type": "uint256"
        }
      ],
      "name": "pieceIdToAdditionalPayees",
      "outputs": [
        {
          "internalType": "address",
          "name": "",
          "type": "address"
        }
      ],
      "stateMutability": "view",
      "type": "function"
    },
    {
      "inputs": [
        {
          "internalType": "uint256",
          "name": "",
          "type": "uint256"
        }
      ],
      "name": "pieceIdToPricePerPrintInWei",
      "outputs": [
        {
          "internalType": "uint256",
          "name": "",
          "type": "uint256"
        }
      ],
      "stateMutability": "view",
      "type": "function"
    },
    {
      "inputs": [
        {
          "internalType": "uint256",
          "name": "pieceId",
          "type": "uint256"
        }
      ],
      "name": "pieceScript",
      "outputs": [
        {
          "internalType": "string",
          "name": "",
          "type": "string"
        }
      ],
      "stateMutability": "view",
      "type": "function"
    },
    {
      "inputs": [
        {
          "internalType": "uint256",
          "name": "pieceId",
          "type": "uint256"
        }
      ],
      "name": "pieceShowAllPrints",
      "outputs": [
        {
          "internalType": "uint256[]",
          "name": "",
          "type": "uint256[]"
        }
      ],
      "stateMutability": "view",
      "type": "function"
    },
    {
      "inputs": [
        {
          "internalType": "uint256",
          "name": "",
          "type": "uint256"
        }
      ],
      "name": "printIdToHash",
      "outputs": [
        {
          "internalType": "bytes32",
          "name": "",
          "type": "bytes32"
        }
      ],
      "stateMutability": "view",
      "type": "function"
    },
    {
      "inputs": [
        {
          "internalType": "uint256",
          "name": "",
          "type": "uint256"
        }
      ],
      "name": "printIdToPieceId",
      "outputs": [
        {
          "internalType": "uint256",
          "name": "",
          "type": "uint256"
        }
      ],
      "stateMutability": "view",
      "type": "function"
    },
    {
      "inputs": [
        {
          "internalType": "address",
          "name": "_address",
          "type": "address"
        }
      ],
      "name": "removeMintWhitelisted",
      "outputs": [],
      "stateMutability": "nonpayable",
      "type": "function"
    },
    {
      "inputs": [
        {
          "internalType": "address",
          "name": "from",
          "type": "address"
        },
        {
          "internalType": "address",
          "name": "to",
          "type": "address"
        },
        {
          "internalType": "uint256",
          "name": "tokenId",
          "type": "uint256"
        }
      ],
      "name": "safeTransferFrom",
      "outputs": [],
      "stateMutability": "nonpayable",
      "type": "function"
    },
    {
      "inputs": [
        {
          "internalType": "address",
          "name": "from",
          "type": "address"
        },
        {
          "internalType": "address",
          "name": "to",
          "type": "address"
        },
        {
          "internalType": "uint256",
          "name": "tokenId",
          "type": "uint256"
        },
        {
          "internalType": "bytes",
          "name": "_data",
          "type": "bytes"
        }
      ],
      "name": "safeTransferFrom",
      "outputs": [],
      "stateMutability": "nonpayable",
      "type": "function"
    },
    {
      "inputs": [
        {
          "internalType": "address",
          "name": "operator",
          "type": "address"
        },
        {
          "internalType": "bool",
          "name": "approved",
          "type": "bool"
        }
      ],
      "name": "setApprovalForAll",
      "outputs": [],
      "stateMutability": "nonpayable",
      "type": "function"
    },
    {
      "inputs": [
        {
          "internalType": "bytes4",
          "name": "interfaceId",
          "type": "bytes4"
        }
      ],
      "name": "supportsInterface",
      "outputs": [
        {
          "internalType": "bool",
          "name": "",
          "type": "bool"
        }
      ],
      "stateMutability": "view",
      "type": "function"
    },
    {
      "inputs": [],
      "name": "symbol",
      "outputs": [
        {
          "internalType": "string",
          "name": "",
          "type": "string"
        }
      ],
      "stateMutability": "view",
      "type": "function"
    },
    {
      "inputs": [
        {
          "internalType": "uint256",
          "name": "pieceId",
          "type": "uint256"
        }
      ],
      "name": "togglePieceIsActive",
      "outputs": [],
      "stateMutability": "nonpayable",
      "type": "function"
    },
    {
      "inputs": [
        {
          "internalType": "uint256",
          "name": "pieceId",
          "type": "uint256"
        }
      ],
      "name": "togglePieceIsPaused",
      "outputs": [],
      "stateMutability": "nonpayable",
      "type": "function"
    },
    {
      "inputs": [
        {
          "internalType": "uint256",
          "name": "index",
          "type": "uint256"
        }
      ],
      "name": "tokenByIndex",
      "outputs": [
        {
          "internalType": "uint256",
          "name": "",
          "type": "uint256"
        }
      ],
      "stateMutability": "view",
      "type": "function"
    },
    {
      "inputs": [
        {
          "internalType": "address",
          "name": "owner",
          "type": "address"
        },
        {
          "internalType": "uint256",
          "name": "index",
          "type": "uint256"
        }
      ],
      "name": "tokenOfOwnerByIndex",
      "outputs": [
        {
          "internalType": "uint256",
          "name": "",
          "type": "uint256"
        }
      ],
      "stateMutability": "view",
      "type": "function"
    },
    {
      "inputs": [
        {
          "internalType": "uint256",
          "name": "tokenId",
          "type": "uint256"
        }
      ],
      "name": "tokenURI",
      "outputs": [
        {
          "internalType": "string",
          "name": "",
          "type": "string"
        }
      ],
      "stateMutability": "view",
      "type": "function"
    },
    {
      "inputs": [],
      "name": "totalSupply",
      "outputs": [
        {
          "internalType": "uint256",
          "name": "",
          "type": "uint256"
        }
      ],
      "stateMutability": "view",
      "type": "function"
    },
    {
      "inputs": [
        {
          "internalType": "address",
          "name": "from",
          "type": "address"
        },
        {
          "internalType": "address",
          "name": "to",
          "type": "address"
        },
        {
          "internalType": "uint256",
          "name": "tokenId",
          "type": "uint256"
        }
      ],
      "name": "transferFrom",
      "outputs": [],
      "stateMutability": "nonpayable",
      "type": "function"
    },
    {
      "inputs": [
        {
          "internalType": "uint256",
          "name": "pieceId",
          "type": "uint256"
        },
        {
          "internalType": "address",
          "name": "additionalPayeeAddress",
          "type": "address"
        },
        {
          "internalType": "uint256",
          "name": "additionalPayeePercentage",
          "type": "uint256"
        }
      ],
      "name": "updateAdditionalPayee",
      "outputs": [],
      "stateMutability": "nonpayable",
      "type": "function"
    },
    {
      "inputs": [
        {
          "internalType": "uint256",
          "name": "pieceId",
          "type": "uint256"
        },
        {
          "internalType": "string",
          "name": "pieceDescription",
          "type": "string"
        }
      ],
      "name": "updatePieceDescription",
      "outputs": [],
      "stateMutability": "nonpayable",
      "type": "function"
    },
    {
      "inputs": [
        {
          "internalType": "uint256",
          "name": "pieceId",
          "type": "uint256"
        },
        {
          "internalType": "string",
          "name": "pieceLicense",
          "type": "string"
        }
      ],
      "name": "updatePieceLicense",
      "outputs": [],
      "stateMutability": "nonpayable",
      "type": "function"
    },
    {
      "inputs": [
        {
          "internalType": "uint256",
          "name": "pieceId",
          "type": "uint256"
        },
        {
          "internalType": "uint256",
          "name": "maxPrints",
          "type": "uint256"
        }
      ],
      "name": "updatePieceMaxPrints",
      "outputs": [],
      "stateMutability": "nonpayable",
      "type": "function"
    },
    {
      "inputs": [
        {
          "internalType": "uint256",
          "name": "pieceId",
          "type": "uint256"
        },
        {
          "internalType": "string",
          "name": "pieceName",
          "type": "string"
        }
      ],
      "name": "updatePieceName",
      "outputs": [],
      "stateMutability": "nonpayable",
      "type": "function"
    },
    {
      "inputs": [
        {
          "internalType": "uint256",
          "name": "pieceId",
          "type": "uint256"
        },
        {
          "internalType": "uint256",
          "name": "pricePerPrintInWei",
          "type": "uint256"
        }
      ],
      "name": "updatePiecePricePerPrintInWei",
      "outputs": [],
      "stateMutability": "nonpayable",
      "type": "function"
    },
    {
      "inputs": [
        {
          "internalType": "uint256",
          "name": "pieceId",
          "type": "uint256"
        },
        {
          "internalType": "string",
          "name": "script",
          "type": "string"
        }
      ],
      "name": "updatePieceScript",
      "outputs": [],
      "stateMutability": "nonpayable",
      "type": "function"
    }
  ],
  "bytecode": "0x608060405260006014553480156200001657600080fd5b5060405162005db838038062005db883398181016040528101906200003c9190620001f4565b8181816000908051906020019062000056929190620000d2565b5080600190805190602001906200006f929190620000d2565b5050506001600c60003373ffffffffffffffffffffffffffffffffffffffff1673ffffffffffffffffffffffffffffffffffffffff16815260200190815260200160002060006101000a81548160ff021916908315150217905550505062000398565b828054620000e09062000304565b90600052602060002090601f01602090048101928262000104576000855562000150565b82601f106200011f57805160ff191683800117855562000150565b8280016001018555821562000150579182015b828111156200014f57825182559160200191906001019062000132565b5b5090506200015f919062000163565b5090565b5b808211156200017e57600081600090555060010162000164565b5090565b60006200019962000193846200029b565b62000267565b905082815260208101848484011115620001b257600080fd5b620001bf848285620002ce565b509392505050565b600082601f830112620001d957600080fd5b8151620001eb84826020860162000182565b91505092915050565b600080604083850312156200020857600080fd5b600083015167ffffffffffffffff8111156200022357600080fd5b6200023185828601620001c7565b925050602083015167ffffffffffffffff8111156200024f57600080fd5b6200025d85828601620001c7565b9150509250929050565b6000604051905081810181811067ffffffffffffffff8211171562000291576200029062000369565b5b8060405250919050565b600067ffffffffffffffff821115620002b957620002b862000369565b5b601f19601f8301169050602081019050919050565b60005b83811015620002ee578082015181840152602081019050620002d1565b83811115620002fe576000848401525b50505050565b600060028204905060018216806200031d57607f821691505b602082108114156200033457620003336200033a565b5b50919050565b7f4e487b7100000000000000000000000000000000000000000000000000000000600052602260045260246000fd5b7f4e487b7100000000000000000000000000000000000000000000000000000000600052604160045260246000fd5b615a1080620003a86000396000f3fe608060405234801561001057600080fd5b50600436106102745760003560e01c8063729acb0911610151578063a94887cd116100c3578063c6d2a7af11610087578063c6d2a7af14610805578063c87b56dd14610821578063c9991c2c14610851578063e6ed840014610881578063e985e9c5146108b1578063eb3a86e3146108e157610274565b8063a94887cd14610749578063ad0305ce14610781578063b7d76b7a146107b1578063b88d4fde146107cd578063bb98f6fd146107e957610274565b80638bddb0a6116101155780638bddb0a61461067757806395952e051461069357806395d89b41146106af5780639692dff0146106cd5780639fa64b4f146106fd578063a22cb4651461072d57610274565b8063729acb09146105c35780637fc70db1146105df5780638447d42b1461060f578063867f1a3b1461062b57806386da9cb41461064757610274565b80632bf88d83116101ea5780635604fccc116101ae5780635604fccc146104cb57806357b86adb146104e757806358aea421146105035780636352211e1461053357806363e56aaa1461056357806370a082311461059357610274565b80632bf88d83146104035780632c0a8b38146104335780632f745c591461044f57806342842e0e1461047f5780634f6ccce71461049b57610274565b806311f373d01161023c57806311f373d01461034357806318160ddd1461035f578063236d8e891461037d57806323b872dd1461039957806324d7806c146103b55780632812a794146103e557610274565b806301ffc9a71461027957806306fdde03146102a9578063081812fc146102c7578063095ea7b3146102f75780630d4d151314610313575b600080fd5b610293600480360381019061028e9190614165565b610911565b6040516102a09190615019565b60405180910390f35b6102b161098b565b6040516102be919061504f565b60405180910390f35b6102e160048036038101906102dc91906141f8565b610a1d565b6040516102ee9190614f6e565b60405180910390f35b610311600480360381019061030c91906140b1565b610aa2565b005b61032d600480360381019061032891906140ed565b610bba565b60405161033a9190615473565b60405180910390f35b61035d60048036038101906103589190614300565b610e98565b005b610367611065565b6040516103749190615473565b60405180910390f35b610397600480360381019061039291906141b7565b611072565b005b6103b360048036038101906103ae9190613fab565b611178565b005b6103cf60048036038101906103ca9190613f46565b6111d8565b6040516103dc9190615019565b60405180910390f35b6103ed6111f8565b6040516103fa9190615473565b60405180910390f35b61041d600480360381019061041891906141f8565b6111fe565b60405161042a9190615473565b60405180910390f35b61044d60048036038101906104489190614300565b611216565b005b610469600480360381019061046491906140b1565b6112be565b6040516104769190615473565b60405180910390f35b61049960048036038101906104949190613fab565b611363565b005b6104b560048036038101906104b091906141f8565b611383565b6040516104c29190615473565b60405180910390f35b6104e560048036038101906104e091906142ac565b61141a565b005b61050160048036038101906104fc919061425d565b6114d5565b005b61051d600480360381019061051891906141f8565b61188b565b60405161052a9190614fd5565b60405180910390f35b61054d600480360381019061054891906141f8565b61192c565b60405161055a9190614f6e565b60405180910390f35b61057d600480360381019061057891906141f8565b6119de565b60405161058a9190615034565b60405180910390f35b6105ad60048036038101906105a89190613f46565b6119f6565b6040516105ba9190615473565b60405180910390f35b6105dd60048036038101906105d891906142ac565b611aae565b005b6105f960048036038101906105f49190614221565b611bcf565b6040516106069190615473565b60405180910390f35b610629600480360381019061062491906142ac565b611bf4565b005b61064560048036038101906106409190613f46565b611d15565b005b610661600480360381019061065c9190614300565b611dfc565b60405161066e9190614f6e565b60405180910390f35b610691600480360381019061068c9190613f46565b611e4a565b005b6106ad60048036038101906106a891906141f8565b611f31565b005b6106b7612012565b6040516106c4919061504f565b60405180910390f35b6106e760048036038101906106e291906141f8565b6120a4565b6040516106f4919061504f565b60405180910390f35b61071760048036038101906107129190614221565b61214c565b6040516107249190615473565b60405180910390f35b61074760048036038101906107429190614075565b6121a7565b005b610763600480360381019061075e91906141f8565b612328565b60405161077899989796959493929190615071565b60405180910390f35b61079b60048036038101906107969190613f46565b6125e0565b6040516107a89190615019565b60405180910390f35b6107cb60048036038101906107c691906142ac565b612600565b005b6107e760048036038101906107e29190613ffa565b612721565b005b61080360048036038101906107fe91906141f8565b612783565b005b61081f600480360381019061081a91906141f8565b612864565b005b61083b600480360381019061083691906141f8565b612988565b604051610848919061504f565b60405180910390f35b61086b6004803603810190610866919061413c565b612a2f565b6040516108789190615473565b60405180910390f35b61089b600480360381019061089691906141f8565b612a47565b6040516108a89190614ff7565b60405180910390f35b6108cb60048036038101906108c69190613f6f565b612ab2565b6040516108d89190615019565b60405180910390f35b6108fb60048036038101906108f691906141f8565b612b46565b6040516109089190615473565b60405180910390f35b60007f780e9d63000000000000000000000000000000000000000000000000000000007bffffffffffffffffffffffffffffffffffffffffffffffffffffffff1916827bffffffffffffffffffffffffffffffffffffffffffffffffffffffff19161480610984575061098382612b5e565b5b9050919050565b60606000805461099a906157a9565b80601f01602080910402602001604051908101604052809291908181526020018280546109c6906157a9565b8015610a135780601f106109e857610100808354040283529160200191610a13565b820191906000526020600020905b8154815290600101906020018083116109f657829003601f168201915b5050505050905090565b6000610a2882612c40565b610a67576040517f08c379a0000000000000000000000000000000000000000000000000000000008152600401610a5e90615333565b60405180910390fd5b6004600083815260200190815260200160002060009054906101000a900473ffffffffffffffffffffffffffffffffffffffff169050919050565b6000610aad8261192c565b90508073ffffffffffffffffffffffffffffffffffffffff168373ffffffffffffffffffffffffffffffffffffffff161415610b1e576040517f08c379a0000000000000000000000000000000000000000000000000000000008152600401610b1590615393565b60405180910390fd5b8073ffffffffffffffffffffffffffffffffffffffff16610b3d612cac565b73ffffffffffffffffffffffffffffffffffffffff161480610b6c5750610b6b81610b66612cac565b612ab2565b5b610bab576040517f08c379a0000000000000000000000000000000000000000000000000000000008152600401610ba2906152b3565b60405180910390fd5b610bb58383612cb4565b505050565b6000601160003373ffffffffffffffffffffffffffffffffffffffff1673ffffffffffffffffffffffffffffffffffffffff16815260200190815260200160002060009054906101000a900460ff1680610c5d5750600c60003373ffffffffffffffffffffffffffffffffffffffff1673ffffffffffffffffffffffffffffffffffffffff16815260200190815260200160002060009054906101000a900460ff165b610c9c576040517f08c379a0000000000000000000000000000000000000000000000000000000008152600401610c9390615453565b60405180910390fd5b600a6000848152602001908152602001600020600401546001600a600086815260200190815260200160002060030154610cd691906155d4565b1115610d17576040517f08c379a0000000000000000000000000000000000000000000000000000000008152600401610d0e906153d3565b60405180910390fd5b600a600084815260200190815260200160002060060160009054906101000a900460ff1680610d8f5750600c60008373ffffffffffffffffffffffffffffffffffffffff1673ffffffffffffffffffffffffffffffffffffffff16815260200190815260200160002060009054906101000a900460ff165b610dce576040517f08c379a0000000000000000000000000000000000000000000000000000000008152600401610dc590615433565b60405180910390fd5b600a600084815260200190815260200160002060060160029054906101000a900460ff1680610e465750600c60008373ffffffffffffffffffffffffffffffffffffffff1673ffffffffffffffffffffffffffffffffffffffff16815260200190815260200160002060009054906101000a900460ff165b610e85576040517f08c379a0000000000000000000000000000000000000000000000000000000008152600401610e7c90615293565b60405180910390fd5b610e8f8484612d6d565b90509392505050565b600c60003373ffffffffffffffffffffffffffffffffffffffff1673ffffffffffffffffffffffffffffffffffffffff16815260200190815260200160002060009054906101000a900460ff16610f24576040517f08c379a0000000000000000000000000000000000000000000000000000000008152600401610f1b90615213565b60405180910390fd5b600a600083815260200190815260200160002060060160019054906101000a900460ff161580610f695750600a60008381526020019081526020016000206004015481105b610fa8576040517f08c379a0000000000000000000000000000000000000000000000000000000008152600401610f9f90615113565b60405180910390fd5b600a6000838152602001908152602001600020600301548111611000576040517f08c379a0000000000000000000000000000000000000000000000000000000008152600401610ff790615133565b60405180910390fd5b620f4240811115611046576040517f08c379a000000000000000000000000000000000000000000000000000000000815260040161103d906153b3565b60405180910390fd5b80600a6000848152602001908152602001600020600401819055505050565b6000600880549050905090565b600c60003373ffffffffffffffffffffffffffffffffffffffff1673ffffffffffffffffffffffffffffffffffffffff16815260200190815260200160002060009054906101000a900460ff166110fe576040517f08c379a00000000000000000000000000000000000000000000000000000000081526004016110f590615213565b60405180910390fd5b6000601454905081600a6000838152602001908152602001600020600001908051906020019061112f929190613d55565b506001600a600083815260200190815260200160002060060160026101000a81548160ff021916908315150217905550600160145461116e91906155d4565b6014819055505050565b611189611183612cac565b82612f0f565b6111c8576040517f08c379a00000000000000000000000000000000000000000000000000000000081526004016111bf906153f3565b60405180910390fd5b6111d3838383612fed565b505050565b600c6020528060005260406000206000915054906101000a900460ff1681565b60145481565b600b6020528060005260406000206000915090505481565b600c60003373ffffffffffffffffffffffffffffffffffffffff1673ffffffffffffffffffffffffffffffffffffffff16815260200190815260200160002060009054906101000a900460ff166112a2576040517f08c379a000000000000000000000000000000000000000000000000000000000815260040161129990615213565b60405180910390fd5b80600b6000848152602001908152602001600020819055505050565b60006112c9836119f6565b821061130a576040517f08c379a000000000000000000000000000000000000000000000000000000000815260040161130190615173565b60405180910390fd5b600660008473ffffffffffffffffffffffffffffffffffffffff1673ffffffffffffffffffffffffffffffffffffffff168152602001908152602001600020600083815260200190815260200160002054905092915050565b61137e83838360405180602001604052806000815250612721565b505050565b600061138d611065565b82106113ce576040517f08c379a00000000000000000000000000000000000000000000000000000000081526004016113c590615413565b60405180910390fd5b60088281548110611408577f4e487b7100000000000000000000000000000000000000000000000000000000600052603260045260246000fd5b90600052602060002001549050919050565b600c60003373ffffffffffffffffffffffffffffffffffffffff1673ffffffffffffffffffffffffffffffffffffffff16815260200190815260200160002060009054906101000a900460ff166114a6576040517f08c379a000000000000000000000000000000000000000000000000000000000815260040161149d90615213565b60405180910390fd5b80600a600084815260200190815260200160002060010190805190602001906114d0929190613d55565b505050565b600c60003373ffffffffffffffffffffffffffffffffffffffff1673ffffffffffffffffffffffffffffffffffffffff16815260200190815260200160002060009054906101000a900460ff16611561576040517f08c379a000000000000000000000000000000000000000000000000000000000815260040161155890615213565b60405180910390fd5b60648111156115a5576040517f08c379a000000000000000000000000000000000000000000000000000000000815260040161159c90615153565b60405180910390fd5b60008060008092505b6012600087815260200190815260200160002080549050831015611765578473ffffffffffffffffffffffffffffffffffffffff1660126000888152602001908152602001600020848154811061162e577f4e487b7100000000000000000000000000000000000000000000000000000000600052603260045260246000fd5b9060005260206000200160009054906101000a900473ffffffffffffffffffffffffffffffffffffffff1673ffffffffffffffffffffffffffffffffffffffff16141561167e5760019150611752565b6013600087815260200190815260200160002060006012600089815260200190815260200160002085815481106116de577f4e487b7100000000000000000000000000000000000000000000000000000000600052603260045260246000fd5b9060005260206000200160009054906101000a900473ffffffffffffffffffffffffffffffffffffffff1673ffffffffffffffffffffffffffffffffffffffff1673ffffffffffffffffffffffffffffffffffffffff168152602001908152602001600020548161174f91906155d4565b90505b828061175d906157db565b9350506115ae565b6064848261177391906155d4565b11156117b4576040517f08c379a00000000000000000000000000000000000000000000000000000000081526004016117ab90615233565b60405180910390fd5b8161182e5760126000878152602001908152602001600020859080600181540180825580915050600190039060005260206000200160009091909190916101000a81548173ffffffffffffffffffffffffffffffffffffffff021916908373ffffffffffffffffffffffffffffffffffffffff1602179055505b836013600088815260200190815260200160002060008773ffffffffffffffffffffffffffffffffffffffff1673ffffffffffffffffffffffffffffffffffffffff16815260200190815260200160002081905550505050505050565b60606012600083815260200190815260200160002080548060200260200160405190810160405280929190818152602001828054801561192057602002820191906000526020600020905b8160009054906101000a900473ffffffffffffffffffffffffffffffffffffffff1673ffffffffffffffffffffffffffffffffffffffff16815260200190600101908083116118d6575b50505050509050919050565b6000806002600084815260200190815260200160002060009054906101000a900473ffffffffffffffffffffffffffffffffffffffff169050600073ffffffffffffffffffffffffffffffffffffffff168173ffffffffffffffffffffffffffffffffffffffff1614156119d5576040517f08c379a00000000000000000000000000000000000000000000000000000000081526004016119cc906152f3565b60405180910390fd5b80915050919050565b600f6020528060005260406000206000915090505481565b60008073ffffffffffffffffffffffffffffffffffffffff168273ffffffffffffffffffffffffffffffffffffffff161415611a67576040517f08c379a0000000000000000000000000000000000000000000000000000000008152600401611a5e906152d3565b60405180910390fd5b600360008373ffffffffffffffffffffffffffffffffffffffff1673ffffffffffffffffffffffffffffffffffffffff168152602001908152602001600020549050919050565b600c60003373ffffffffffffffffffffffffffffffffffffffff1673ffffffffffffffffffffffffffffffffffffffff16815260200190815260200160002060009054906101000a900460ff16611b3a576040517f08c379a0000000000000000000000000000000000000000000000000000000008152600401611b3190615213565b60405180910390fd5b81600a600082815260200190815260200160002060060160019054906101000a900460ff1615611b9f576040517f08c379a0000000000000000000000000000000000000000000000000000000008152600401611b9690615273565b60405180910390fd5b81600a60008581526020019081526020016000206000019080519060200190611bc9929190613d55565b50505050565b6013602052816000526040600020602052806000526040600020600091509150505481565b81600a600082815260200190815260200160002060060160019054906101000a900460ff1615611c59576040517f08c379a0000000000000000000000000000000000000000000000000000000008152600401611c5090615273565b60405180910390fd5b600c60003373ffffffffffffffffffffffffffffffffffffffff1673ffffffffffffffffffffffffffffffffffffffff16815260200190815260200160002060009054906101000a900460ff16611ce5576040517f08c379a0000000000000000000000000000000000000000000000000000000008152600401611cdc90615213565b60405180910390fd5b81600a60008581526020019081526020016000206002019080519060200190611d0f929190613d55565b50505050565b600c60003373ffffffffffffffffffffffffffffffffffffffff1673ffffffffffffffffffffffffffffffffffffffff16815260200190815260200160002060009054906101000a900460ff16611da1576040517f08c379a0000000000000000000000000000000000000000000000000000000008152600401611d9890615213565b60405180910390fd5b6000601160008373ffffffffffffffffffffffffffffffffffffffff1673ffffffffffffffffffffffffffffffffffffffff16815260200190815260200160002060006101000a81548160ff02191690831515021790555050565b60126020528160005260406000208181548110611e1857600080fd5b906000526020600020016000915091509054906101000a900473ffffffffffffffffffffffffffffffffffffffff1681565b600c60003373ffffffffffffffffffffffffffffffffffffffff1673ffffffffffffffffffffffffffffffffffffffff16815260200190815260200160002060009054906101000a900460ff16611ed6576040517f08c379a0000000000000000000000000000000000000000000000000000000008152600401611ecd90615213565b60405180910390fd5b6001601160008373ffffffffffffffffffffffffffffffffffffffff1673ffffffffffffffffffffffffffffffffffffffff16815260200190815260200160002060006101000a81548160ff02191690831515021790555050565b600c60003373ffffffffffffffffffffffffffffffffffffffff1673ffffffffffffffffffffffffffffffffffffffff16815260200190815260200160002060009054906101000a900460ff16611fbd576040517f08c379a0000000000000000000000000000000000000000000000000000000008152600401611fb490615213565b60405180910390fd5b600a600082815260200190815260200160002060060160009054906101000a900460ff1615600a600083815260200190815260200160002060060160006101000a81548160ff02191690831515021790555050565b606060018054612021906157a9565b80601f016020809104026020016040519081016040528092919081815260200182805461204d906157a9565b801561209a5780601f1061206f5761010080835404028352916020019161209a565b820191906000526020600020905b81548152906001019060200180831161207d57829003601f168201915b5050505050905090565b6060600a600083815260200190815260200160002060050180546120c7906157a9565b80601f01602080910402602001604051908101604052809291908181526020018280546120f3906157a9565b80156121405780601f1061211557610100808354040283529160200191612140565b820191906000526020600020905b81548152906001019060200180831161212357829003601f168201915b50505050509050919050565b60006013600084815260200190815260200160002060008373ffffffffffffffffffffffffffffffffffffffff1673ffffffffffffffffffffffffffffffffffffffff16815260200190815260200160002054905092915050565b6121af612cac565b73ffffffffffffffffffffffffffffffffffffffff168273ffffffffffffffffffffffffffffffffffffffff16141561221d576040517f08c379a0000000000000000000000000000000000000000000000000000000008152600401612214906151f3565b60405180910390fd5b806005600061222a612cac565b73ffffffffffffffffffffffffffffffffffffffff1673ffffffffffffffffffffffffffffffffffffffff16815260200190815260200160002060008473ffffffffffffffffffffffffffffffffffffffff1673ffffffffffffffffffffffffffffffffffffffff16815260200190815260200160002060006101000a81548160ff0219169083151502179055508173ffffffffffffffffffffffffffffffffffffffff166122d7612cac565b73ffffffffffffffffffffffffffffffffffffffff167f17307eab39ab6107e8899845ad3d59bd9653f200f220920489ca2b5937696c318360405161231c9190615019565b60405180910390a35050565b6060806060600080600080600080600a60008b81526020019081526020016000206000018054612357906157a9565b80601f0160208091040260200160405190810160405280929190818152602001828054612383906157a9565b80156123d05780601f106123a5576101008083540402835291602001916123d0565b820191906000526020600020905b8154815290600101906020018083116123b357829003601f168201915b50505050509850600a60008b815260200190815260200160002060010180546123f8906157a9565b80601f0160208091040260200160405190810160405280929190818152602001828054612424906157a9565b80156124715780601f1061244657610100808354040283529160200191612471565b820191906000526020600020905b81548152906001019060200180831161245457829003601f168201915b50505050509750600a60008b81526020019081526020016000206002018054612499906157a9565b80601f01602080910402602001604051908101604052809291908181526020018280546124c5906157a9565b80156125125780601f106124e757610100808354040283529160200191612512565b820191906000526020600020905b8154815290600101906020018083116124f557829003601f168201915b50505050509650600b60008b8152602001908152602001600020549550600a60008b8152602001908152602001600020600301549450600a60008b8152602001908152602001600020600401549350600a60008b815260200190815260200160002060060160019054906101000a900460ff169050600a60008b815260200190815260200160002060060160009054906101000a900460ff169250600a60008b815260200190815260200160002060060160029054906101000a900460ff1691509193959799909294969850565b60116020528060005260406000206000915054906101000a900460ff1681565b81600a600082815260200190815260200160002060060160019054906101000a900460ff1615612665576040517f08c379a000000000000000000000000000000000000000000000000000000000815260040161265c90615273565b60405180910390fd5b600c60003373ffffffffffffffffffffffffffffffffffffffff1673ffffffffffffffffffffffffffffffffffffffff16815260200190815260200160002060009054906101000a900460ff166126f1576040517f08c379a00000000000000000000000000000000000000000000000000000000081526004016126e890615213565b60405180910390fd5b81600a6000858152602001908152602001600020600501908051906020019061271b929190613d55565b50505050565b61273261272c612cac565b83612f0f565b612771576040517f08c379a0000000000000000000000000000000000000000000000000000000008152600401612768906153f3565b60405180910390fd5b61277d84848484613249565b50505050565b600c60003373ffffffffffffffffffffffffffffffffffffffff1673ffffffffffffffffffffffffffffffffffffffff16815260200190815260200160002060009054906101000a900460ff1661280f576040517f08c379a000000000000000000000000000000000000000000000000000000000815260040161280690615213565b60405180910390fd5b600a600082815260200190815260200160002060060160029054906101000a900460ff1615600a600083815260200190815260200160002060060160026101000a81548160ff02191690831515021790555050565b600c60003373ffffffffffffffffffffffffffffffffffffffff1673ffffffffffffffffffffffffffffffffffffffff16815260200190815260200160002060009054906101000a900460ff166128f0576040517f08c379a00000000000000000000000000000000000000000000000000000000081526004016128e790615213565b60405180910390fd5b80600a600082815260200190815260200160002060060160019054906101000a900460ff1615612955576040517f08c379a000000000000000000000000000000000000000000000000000000000815260040161294c90615273565b60405180910390fd5b6001600a600084815260200190815260200160002060060160016101000a81548160ff0219169083151502179055505050565b606061299382612c40565b6129d2576040517f08c379a00000000000000000000000000000000000000000000000000000000081526004016129c990615373565b60405180910390fd5b60006129dc6132a5565b905060008151116129fc5760405180602001604052806000815250612a27565b80612a06846132bc565b604051602001612a17929190614efc565b6040516020818303038152906040525b915050919050565b60106020528060005260406000206000915090505481565b6060600e6000838152602001908152602001600020805480602002602001604051908101604052809291908181526020018280548015612aa657602002820191906000526020600020905b815481526020019060010190808311612a92575b50505050509050919050565b6000600560008473ffffffffffffffffffffffffffffffffffffffff1673ffffffffffffffffffffffffffffffffffffffff16815260200190815260200160002060008373ffffffffffffffffffffffffffffffffffffffff1673ffffffffffffffffffffffffffffffffffffffff16815260200190815260200160002060009054906101000a900460ff16905092915050565b600d6020528060005260406000206000915090505481565b60007f80ac58cd000000000000000000000000000000000000000000000000000000007bffffffffffffffffffffffffffffffffffffffffffffffffffffffff1916827bffffffffffffffffffffffffffffffffffffffffffffffffffffffff19161480612c2957507f5b5e139f000000000000000000000000000000000000000000000000000000007bffffffffffffffffffffffffffffffffffffffffffffffffffffffff1916827bffffffffffffffffffffffffffffffffffffffffffffffffffffffff1916145b80612c395750612c3882613469565b5b9050919050565b60008073ffffffffffffffffffffffffffffffffffffffff166002600084815260200190815260200160002060009054906101000a900473ffffffffffffffffffffffffffffffffffffffff1673ffffffffffffffffffffffffffffffffffffffff1614159050919050565b600033905090565b816004600083815260200190815260200160002060006101000a81548173ffffffffffffffffffffffffffffffffffffffff021916908373ffffffffffffffffffffffffffffffffffffffff160217905550808273ffffffffffffffffffffffffffffffffffffffff16612d278361192c565b73ffffffffffffffffffffffffffffffffffffffff167f8c5be1e5ebec7d5bd14f71427d1e84f3dd0314c0f7b2291e5b200ac8c7c3b92560405160405180910390a45050565b600080600a600084815260200190815260200160002060030154620f424084612d96919061565b565b612da091906155d4565b90506001600a600085815260200190815260200160002060030154612dc591906155d4565b600a6000858152602001908152602001600020600301819055506000600a60008581526020019081526020016000206003015443600143612e0691906156b5565b4033604051602001612e1b9493929190614f20565b60405160208183030381529060405280519060200120905080600f600084815260200190815260200160002081905550816010600083815260200190815260200160002081905550612e6d85836134d3565b83600d600084815260200190815260200160002081905550600e600085815260200190815260200160002082908060018154018082558091505060019003906000526020600020016000909190919091505583828673ffffffffffffffffffffffffffffffffffffffff167f4c209b5fc8ad50758f13e2e1088ba56a560dff690a1c6fef26394f4c03821c4f60405160405180910390a4819250505092915050565b6000612f1a82612c40565b612f59576040517f08c379a0000000000000000000000000000000000000000000000000000000008152600401612f5090615253565b60405180910390fd5b6000612f648361192c565b90508073ffffffffffffffffffffffffffffffffffffffff168473ffffffffffffffffffffffffffffffffffffffff161480612fd357508373ffffffffffffffffffffffffffffffffffffffff16612fbb84610a1d565b73ffffffffffffffffffffffffffffffffffffffff16145b80612fe45750612fe38185612ab2565b5b91505092915050565b8273ffffffffffffffffffffffffffffffffffffffff1661300d8261192c565b73ffffffffffffffffffffffffffffffffffffffff1614613063576040517f08c379a000000000000000000000000000000000000000000000000000000000815260040161305a90615353565b60405180910390fd5b600073ffffffffffffffffffffffffffffffffffffffff168273ffffffffffffffffffffffffffffffffffffffff1614156130d3576040517f08c379a00000000000000000000000000000000000000000000000000000000081526004016130ca906151d3565b60405180910390fd5b6130de8383836134f1565b6130e9600082612cb4565b6001600360008573ffffffffffffffffffffffffffffffffffffffff1673ffffffffffffffffffffffffffffffffffffffff168152602001908152602001600020600082825461313991906156b5565b925050819055506001600360008473ffffffffffffffffffffffffffffffffffffffff1673ffffffffffffffffffffffffffffffffffffffff168152602001908152602001600020600082825461319091906155d4565b92505081905550816002600083815260200190815260200160002060006101000a81548173ffffffffffffffffffffffffffffffffffffffff021916908373ffffffffffffffffffffffffffffffffffffffff160217905550808273ffffffffffffffffffffffffffffffffffffffff168473ffffffffffffffffffffffffffffffffffffffff167fddf252ad1be2c89b69c2b068fc378daa952ba7f163c4a11628f55a4df523b3ef60405160405180910390a4505050565b613254848484612fed565b61326084848484613605565b61329f576040517f08c379a000000000000000000000000000000000000000000000000000000000815260040161329690615193565b60405180910390fd5b50505050565b606060405180602001604052806000815250905090565b60606000821415613304576040518060400160405280600181526020017f30000000000000000000000000000000000000000000000000000000000000008152509050613464565b600082905060005b6000821461333657808061331f906157db565b915050600a8261332f919061562a565b915061330c565b60008167ffffffffffffffff811115613378577f4e487b7100000000000000000000000000000000000000000000000000000000600052604160045260246000fd5b6040519080825280601f01601f1916602001820160405280156133aa5781602001600182028036833780820191505090505b5090505b6000851461345d576001826133c391906156b5565b9150600a856133d2919061585c565b60306133de91906155d4565b60f81b81838151811061341a577f4e487b7100000000000000000000000000000000000000000000000000000000600052603260045260246000fd5b60200101907effffffffffffffffffffffffffffffffffffffffffffffffffffffffffffff1916908160001a905350600a85613456919061562a565b94506133ae565b8093505050505b919050565b60007f01ffc9a7000000000000000000000000000000000000000000000000000000007bffffffffffffffffffffffffffffffffffffffffffffffffffffffff1916827bffffffffffffffffffffffffffffffffffffffffffffffffffffffff1916149050919050565b6134ed82826040518060200160405280600081525061379c565b5050565b6134fc8383836137f7565b600073ffffffffffffffffffffffffffffffffffffffff168373ffffffffffffffffffffffffffffffffffffffff16141561353f5761353a816137fc565b61357e565b8173ffffffffffffffffffffffffffffffffffffffff168373ffffffffffffffffffffffffffffffffffffffff161461357d5761357c8382613845565b5b5b600073ffffffffffffffffffffffffffffffffffffffff168273ffffffffffffffffffffffffffffffffffffffff1614156135c1576135bc816139b2565b613600565b8273ffffffffffffffffffffffffffffffffffffffff168273ffffffffffffffffffffffffffffffffffffffff16146135ff576135fe8282613af5565b5b5b505050565b60006136268473ffffffffffffffffffffffffffffffffffffffff16613b74565b1561378f578373ffffffffffffffffffffffffffffffffffffffff1663150b7a0261364f612cac565b8786866040518563ffffffff1660e01b81526004016136719493929190614f89565b602060405180830381600087803b15801561368b57600080fd5b505af19250505080156136bc57506040513d601f19601f820116820180604052508101906136b9919061418e565b60015b61373f573d80600081146136ec576040519150601f19603f3d011682016040523d82523d6000602084013e6136f1565b606091505b50600081511415613737576040517f08c379a000000000000000000000000000000000000000000000000000000000815260040161372e90615193565b60405180910390fd5b805181602001fd5b63150b7a0260e01b7bffffffffffffffffffffffffffffffffffffffffffffffffffffffff1916817bffffffffffffffffffffffffffffffffffffffffffffffffffffffff191614915050613794565b600190505b949350505050565b6137a68383613b87565b6137b36000848484613605565b6137f2576040517f08c379a00000000000000000000000000000000000000000000000000000000081526004016137e990615193565b60405180910390fd5b505050565b505050565b6008805490506009600083815260200190815260200160002081905550600881908060018154018082558091505060019003906000526020600020016000909190919091505550565b60006001613852846119f6565b61385c91906156b5565b9050600060076000848152602001908152602001600020549050818114613941576000600660008673ffffffffffffffffffffffffffffffffffffffff1673ffffffffffffffffffffffffffffffffffffffff168152602001908152602001600020600084815260200190815260200160002054905080600660008773ffffffffffffffffffffffffffffffffffffffff1673ffffffffffffffffffffffffffffffffffffffff168152602001908152602001600020600084815260200190815260200160002081905550816007600083815260200190815260200160002081905550505b6007600084815260200190815260200160002060009055600660008573ffffffffffffffffffffffffffffffffffffffff1673ffffffffffffffffffffffffffffffffffffffff16815260200190815260200160002060008381526020019081526020016000206000905550505050565b600060016008805490506139c691906156b5565b9050600060096000848152602001908152602001600020549050600060088381548110613a1c577f4e487b7100000000000000000000000000000000000000000000000000000000600052603260045260246000fd5b906000526020600020015490508060088381548110613a64577f4e487b7100000000000000000000000000000000000000000000000000000000600052603260045260246000fd5b906000526020600020018190555081600960008381526020019081526020016000208190555060096000858152602001908152602001600020600090556008805480613ad9577f4e487b7100000000000000000000000000000000000000000000000000000000600052603160045260246000fd5b6001900381819060005260206000200160009055905550505050565b6000613b00836119f6565b905081600660008573ffffffffffffffffffffffffffffffffffffffff1673ffffffffffffffffffffffffffffffffffffffff168152602001908152602001600020600083815260200190815260200160002081905550806007600084815260200190815260200160002081905550505050565b600080823b905060008111915050919050565b600073ffffffffffffffffffffffffffffffffffffffff168273ffffffffffffffffffffffffffffffffffffffff161415613bf7576040517f08c379a0000000000000000000000000000000000000000000000000000000008152600401613bee90615313565b60405180910390fd5b613c0081612c40565b15613c40576040517f08c379a0000000000000000000000000000000000000000000000000000000008152600401613c37906151b3565b60405180910390fd5b613c4c600083836134f1565b6001600360008473ffffffffffffffffffffffffffffffffffffffff1673ffffffffffffffffffffffffffffffffffffffff1681526020019081526020016000206000828254613c9c91906155d4565b92505081905550816002600083815260200190815260200160002060006101000a81548173ffffffffffffffffffffffffffffffffffffffff021916908373ffffffffffffffffffffffffffffffffffffffff160217905550808273ffffffffffffffffffffffffffffffffffffffff16600073ffffffffffffffffffffffffffffffffffffffff167fddf252ad1be2c89b69c2b068fc378daa952ba7f163c4a11628f55a4df523b3ef60405160405180910390a45050565b828054613d61906157a9565b90600052602060002090601f016020900481019282613d835760008555613dca565b82601f10613d9c57805160ff1916838001178555613dca565b82800160010185558215613dca579182015b82811115613dc9578251825591602001919060010190613dae565b5b509050613dd79190613ddb565b5090565b5b80821115613df4576000816000905550600101613ddc565b5090565b6000613e0b613e06846154bf565b61548e565b905082815260208101848484011115613e2357600080fd5b613e2e848285615767565b509392505050565b6000613e49613e44846154ef565b61548e565b905082815260208101848484011115613e6157600080fd5b613e6c848285615767565b509392505050565b600081359050613e8381615967565b92915050565b600081359050613e988161597e565b92915050565b600081359050613ead81615995565b92915050565b600081359050613ec2816159ac565b92915050565b600081519050613ed7816159ac565b92915050565b600082601f830112613eee57600080fd5b8135613efe848260208601613df8565b91505092915050565b600082601f830112613f1857600080fd5b8135613f28848260208601613e36565b91505092915050565b600081359050613f40816159c3565b92915050565b600060208284031215613f5857600080fd5b6000613f6684828501613e74565b91505092915050565b60008060408385031215613f8257600080fd5b6000613f9085828601613e74565b9250506020613fa185828601613e74565b9150509250929050565b600080600060608486031215613fc057600080fd5b6000613fce86828701613e74565b9350506020613fdf86828701613e74565b9250506040613ff086828701613f31565b9150509250925092565b6000806000806080858703121561401057600080fd5b600061401e87828801613e74565b945050602061402f87828801613e74565b935050604061404087828801613f31565b925050606085013567ffffffffffffffff81111561405d57600080fd5b61406987828801613edd565b91505092959194509250565b6000806040838503121561408857600080fd5b600061409685828601613e74565b92505060206140a785828601613e89565b9150509250929050565b600080604083850312156140c457600080fd5b60006140d285828601613e74565b92505060206140e385828601613f31565b9150509250929050565b60008060006060848603121561410257600080fd5b600061411086828701613e74565b935050602061412186828701613f31565b925050604061413286828701613e74565b9150509250925092565b60006020828403121561414e57600080fd5b600061415c84828501613e9e565b91505092915050565b60006020828403121561417757600080fd5b600061418584828501613eb3565b91505092915050565b6000602082840312156141a057600080fd5b60006141ae84828501613ec8565b91505092915050565b6000602082840312156141c957600080fd5b600082013567ffffffffffffffff8111156141e357600080fd5b6141ef84828501613f07565b91505092915050565b60006020828403121561420a57600080fd5b600061421884828501613f31565b91505092915050565b6000806040838503121561423457600080fd5b600061424285828601613f31565b925050602061425385828601613e74565b9150509250929050565b60008060006060848603121561427257600080fd5b600061428086828701613f31565b935050602061429186828701613e74565b92505060406142a286828701613f31565b9150509250925092565b600080604083850312156142bf57600080fd5b60006142cd85828601613f31565b925050602083013567ffffffffffffffff8111156142ea57600080fd5b6142f685828601613f07565b9150509250929050565b6000806040838503121561431357600080fd5b600061432185828601613f31565b925050602061433285828601613f31565b9150509250929050565b6000614348838361436c565b60208301905092915050565b60006143608383614ec7565b60208301905092915050565b614375816156e9565b82525050565b614384816156e9565b82525050565b61439b614396826156e9565b615824565b82525050565b60006143ac8261553f565b6143b68185615585565b93506143c18361551f565b8060005b838110156143f25781516143d9888261433c565b97506143e48361556b565b9250506001810190506143c5565b5085935050505092915050565b600061440a8261554a565b6144148185615596565b935061441f8361552f565b8060005b838110156144505781516144378882614354565b975061444283615578565b925050600181019050614423565b5085935050505092915050565b614466816156fb565b82525050565b61447581615707565b82525050565b61448c61448782615707565b615836565b82525050565b600061449d82615555565b6144a781856155a7565b93506144b7818560208601615776565b6144c081615949565b840191505092915050565b60006144d682615560565b6144e081856155b8565b93506144f0818560208601615776565b6144f981615949565b840191505092915050565b600061450f82615560565b61451981856155c9565b9350614529818560208601615776565b80840191505092915050565b60006145426031836155b8565b91507f43616e206f6e6c7920696e637265617365206d6178207072696e74732069662060008301527f706965636520697320756e6c6f636b65640000000000000000000000000000006020830152604082019050919050565b60006145a8602b836155b8565b91507f4d6178207072696e7473206d757374206265206d6f7265207468616e2063757260008301527f72656e74207072696e74730000000000000000000000000000000000000000006020830152604082019050919050565b600061460e6019836155b8565b91507f50657263656e74616765206d757374206265203c3d20313030000000000000006000830152602082019050919050565b600061464e602b836155b8565b91507f455243373231456e756d657261626c653a206f776e657220696e646578206f7560008301527f74206f6620626f756e64730000000000000000000000000000000000000000006020830152604082019050919050565b60006146b46032836155b8565b91507f4552433732313a207472616e7366657220746f206e6f6e20455243373231526560008301527f63656976657220696d706c656d656e74657200000000000000000000000000006020830152604082019050919050565b600061471a601c836155b8565b91507f4552433732313a20746f6b656e20616c7265616479206d696e746564000000006000830152602082019050919050565b600061475a6024836155b8565b91507f4552433732313a207472616e7366657220746f20746865207a65726f2061646460008301527f72657373000000000000000000000000000000000000000000000000000000006020830152604082019050919050565b60006147c06019836155b8565b91507f4552433732313a20617070726f766520746f2063616c6c6572000000000000006000830152602082019050919050565b6000614800600a836155b8565b91507f4f6e6c792061646d696e000000000000000000000000000000000000000000006000830152602082019050919050565b60006148406030836155b8565b91507f546f74616c206164646974696f6e616c2070617965652070657263656e74616760008301527f65206d757374206265203c3d20313030000000000000000000000000000000006020830152604082019050919050565b60006148a6602c836155b8565b91507f4552433732313a206f70657261746f7220717565727920666f72206e6f6e657860008301527f697374656e7420746f6b656e00000000000000000000000000000000000000006020830152604082019050919050565b600061490c6010836155b8565b91507f4f6e6c7920696620756e6c6f636b6564000000000000000000000000000000006000830152602082019050919050565b600061494c602a836155b8565b91507f50757263686173696e67207072696e7473206f6620746869732070696563652060008301527f61726520706175736564000000000000000000000000000000000000000000006020830152604082019050919050565b60006149b26038836155b8565b91507f4552433732313a20617070726f76652063616c6c6572206973206e6f74206f7760008301527f6e6572206e6f7220617070726f76656420666f7220616c6c00000000000000006020830152604082019050919050565b6000614a18602a836155b8565b91507f4552433732313a2062616c616e636520717565727920666f7220746865207a6560008301527f726f2061646472657373000000000000000000000000000000000000000000006020830152604082019050919050565b6000614a7e6029836155b8565b91507f4552433732313a206f776e657220717565727920666f72206e6f6e657869737460008301527f656e7420746f6b656e00000000000000000000000000000000000000000000006020830152604082019050919050565b6000614ae46020836155b8565b91507f4552433732313a206d696e7420746f20746865207a65726f20616464726573736000830152602082019050919050565b6000614b24602c836155b8565b91507f4552433732313a20617070726f76656420717565727920666f72206e6f6e657860008301527f697374656e7420746f6b656e00000000000000000000000000000000000000006020830152604082019050919050565b6000614b8a6029836155b8565b91507f4552433732313a207472616e73666572206f6620746f6b656e2074686174206960008301527f73206e6f74206f776e00000000000000000000000000000000000000000000006020830152604082019050919050565b6000614bf0602f836155b8565b91507f4552433732314d657461646174613a2055524920717565727920666f72206e6f60008301527f6e6578697374656e7420746f6b656e00000000000000000000000000000000006020830152604082019050919050565b6000614c566021836155b8565b91507f4552433732313a20617070726f76616c20746f2063757272656e74206f776e6560008301527f72000000000000000000000000000000000000000000000000000000000000006020830152604082019050919050565b6000614cbc6022836155b8565b91507f4d6178207072696e74732063616e6e6f74206578636565642031206d696c6c6960008301527f6f6e0000000000000000000000000000000000000000000000000000000000006020830152604082019050919050565b6000614d22601f836155b8565b91507f4d757374206e6f7420657863656564206d617820696e766f636174696f6e73006000830152602082019050919050565b6000614d626031836155b8565b91507f4552433732313a207472616e736665722063616c6c6572206973206e6f74206f60008301527f776e6572206e6f7220617070726f7665640000000000000000000000000000006020830152604082019050919050565b6000614dc8602c836155b8565b91507f455243373231456e756d657261626c653a20676c6f62616c20696e646578206f60008301527f7574206f6620626f756e647300000000000000000000000000000000000000006020830152604082019050919050565b6000614e2e601e836155b8565b91507f5069656365206d75737420657869737420616e642062652061637469766500006000830152602082019050919050565b6000614e6e6025836155b8565b91507f4d7573742062652077686974656c697374656420746f206d696e74206469726560008301527f63746c792e0000000000000000000000000000000000000000000000000000006020830152604082019050919050565b614ed08161575d565b82525050565b614edf8161575d565b82525050565b614ef6614ef18261575d565b615852565b82525050565b6000614f088285614504565b9150614f148284614504565b91508190509392505050565b6000614f2c8287614ee5565b602082019150614f3c8286614ee5565b602082019150614f4c828561447b565b602082019150614f5c828461438a565b60148201915081905095945050505050565b6000602082019050614f83600083018461437b565b92915050565b6000608082019050614f9e600083018761437b565b614fab602083018661437b565b614fb86040830185614ed6565b8181036060830152614fca8184614492565b905095945050505050565b60006020820190508181036000830152614fef81846143a1565b905092915050565b6000602082019050818103600083015261501181846143ff565b905092915050565b600060208201905061502e600083018461445d565b92915050565b6000602082019050615049600083018461446c565b92915050565b6000602082019050818103600083015261506981846144cb565b905092915050565b600061012082019050818103600083015261508c818c6144cb565b905081810360208301526150a0818b6144cb565b905081810360408301526150b4818a6144cb565b90506150c36060830189614ed6565b6150d06080830188614ed6565b6150dd60a0830187614ed6565b6150ea60c083018661445d565b6150f760e083018561445d565b61510561010083018461445d565b9a9950505050505050505050565b6000602082019050818103600083015261512c81614535565b9050919050565b6000602082019050818103600083015261514c8161459b565b9050919050565b6000602082019050818103600083015261516c81614601565b9050919050565b6000602082019050818103600083015261518c81614641565b9050919050565b600060208201905081810360008301526151ac816146a7565b9050919050565b600060208201905081810360008301526151cc8161470d565b9050919050565b600060208201905081810360008301526151ec8161474d565b9050919050565b6000602082019050818103600083015261520c816147b3565b9050919050565b6000602082019050818103600083015261522c816147f3565b9050919050565b6000602082019050818103600083015261524c81614833565b9050919050565b6000602082019050818103600083015261526c81614899565b9050919050565b6000602082019050818103600083015261528c816148ff565b9050919050565b600060208201905081810360008301526152ac8161493f565b9050919050565b600060208201905081810360008301526152cc816149a5565b9050919050565b600060208201905081810360008301526152ec81614a0b565b9050919050565b6000602082019050818103600083015261530c81614a71565b9050919050565b6000602082019050818103600083015261532c81614ad7565b9050919050565b6000602082019050818103600083015261534c81614b17565b9050919050565b6000602082019050818103600083015261536c81614b7d565b9050919050565b6000602082019050818103600083015261538c81614be3565b9050919050565b600060208201905081810360008301526153ac81614c49565b9050919050565b600060208201905081810360008301526153cc81614caf565b9050919050565b600060208201905081810360008301526153ec81614d15565b9050919050565b6000602082019050818103600083015261540c81614d55565b9050919050565b6000602082019050818103600083015261542c81614dbb565b9050919050565b6000602082019050818103600083015261544c81614e21565b9050919050565b6000602082019050818103600083015261546c81614e61565b9050919050565b60006020820190506154886000830184614ed6565b92915050565b6000604051905081810181811067ffffffffffffffff821117156154b5576154b461591a565b5b8060405250919050565b600067ffffffffffffffff8211156154da576154d961591a565b5b601f19601f8301169050602081019050919050565b600067ffffffffffffffff82111561550a5761550961591a565b5b601f19601f8301169050602081019050919050565b6000819050602082019050919050565b6000819050602082019050919050565b600081519050919050565b600081519050919050565b600081519050919050565b600081519050919050565b6000602082019050919050565b6000602082019050919050565b600082825260208201905092915050565b600082825260208201905092915050565b600082825260208201905092915050565b600082825260208201905092915050565b600081905092915050565b60006155df8261575d565b91506155ea8361575d565b9250827fffffffffffffffffffffffffffffffffffffffffffffffffffffffffffffffff0382111561561f5761561e61588d565b5b828201905092915050565b60006156358261575d565b91506156408361575d565b9250826156505761564f6158bc565b5b828204905092915050565b60006156668261575d565b91506156718361575d565b9250817fffffffffffffffffffffffffffffffffffffffffffffffffffffffffffffffff04831182151516156156aa576156a961588d565b5b828202905092915050565b60006156c08261575d565b91506156cb8361575d565b9250828210156156de576156dd61588d565b5b828203905092915050565b60006156f48261573d565b9050919050565b60008115159050919050565b6000819050919050565b60007fffffffff0000000000000000000000000000000000000000000000000000000082169050919050565b600073ffffffffffffffffffffffffffffffffffffffff82169050919050565b6000819050919050565b82818337600083830152505050565b60005b83811015615794578082015181840152602081019050615779565b838111156157a3576000848401525b50505050565b600060028204905060018216806157c157607f821691505b602082108114156157d5576157d46158eb565b5b50919050565b60006157e68261575d565b91507fffffffffffffffffffffffffffffffffffffffffffffffffffffffffffffffff8214156158195761581861588d565b5b600182019050919050565b600061582f82615840565b9050919050565b6000819050919050565b600061584b8261595a565b9050919050565b6000819050919050565b60006158678261575d565b91506158728361575d565b925082615882576158816158bc565b5b828206905092915050565b7f4e487b7100000000000000000000000000000000000000000000000000000000600052601160045260246000fd5b7f4e487b7100000000000000000000000000000000000000000000000000000000600052601260045260246000fd5b7f4e487b7100000000000000000000000000000000000000000000000000000000600052602260045260246000fd5b7f4e487b7100000000000000000000000000000000000000000000000000000000600052604160045260246000fd5b6000601f19601f8301169050919050565b60008160601b9050919050565b615970816156e9565b811461597b57600080fd5b50565b615987816156fb565b811461599257600080fd5b50565b61599e81615707565b81146159a957600080fd5b50565b6159b581615711565b81146159c057600080fd5b50565b6159cc8161575d565b81146159d757600080fd5b5056fea2646970667358221220f448825cc921e3ab3c12b8eae6d873e3c3b7f27040cf6f08f627c9c3ab0ea77264736f6c63430008000033",
  "linkReferences": {},
  "deployedLinkReferences": {}
}