{
  "_format": "hh-sol-artifact-1",
  "contractName": "GenerativeArtworks",
  "sourceName": "contracts/GenerativeArtworks.sol",
  "abi": [
    {
      "inputs": [
        {
          "internalType": "string",
          "name": "_tokenName",
          "type": "string"
        },
        {
          "internalType": "string",
          "name": "_tokenSymbol",
          "type": "string"
        }
      ],
      "stateMutability": "nonpayable",
      "type": "constructor"
    },
    {
      "anonymous": false,
      "inputs": [
        {
          "indexed": true,
          "internalType": "address",
          "name": "owner",
          "type": "address"
        },
        {
          "indexed": true,
          "internalType": "address",
          "name": "approved",
          "type": "address"
        },
        {
          "indexed": true,
          "internalType": "uint256",
          "name": "tokenId",
          "type": "uint256"
        }
      ],
      "name": "Approval",
      "type": "event"
    },
    {
      "anonymous": false,
      "inputs": [
        {
          "indexed": true,
          "internalType": "address",
          "name": "owner",
          "type": "address"
        },
        {
          "indexed": true,
          "internalType": "address",
          "name": "operator",
          "type": "address"
        },
        {
          "indexed": false,
          "internalType": "bool",
          "name": "approved",
          "type": "bool"
        }
      ],
      "name": "ApprovalForAll",
      "type": "event"
    },
    {
      "anonymous": false,
      "inputs": [
        {
          "indexed": true,
          "internalType": "address",
          "name": "_to",
          "type": "address"
        },
        {
          "indexed": true,
          "internalType": "uint256",
          "name": "_printId",
          "type": "uint256"
        },
        {
          "indexed": true,
          "internalType": "uint256",
          "name": "_pieceId",
          "type": "uint256"
        }
      ],
      "name": "Mint",
      "type": "event"
    },
    {
      "anonymous": false,
      "inputs": [
        {
          "indexed": true,
          "internalType": "address",
          "name": "from",
          "type": "address"
        },
        {
          "indexed": true,
          "internalType": "address",
          "name": "to",
          "type": "address"
        },
        {
          "indexed": true,
          "internalType": "uint256",
          "name": "tokenId",
          "type": "uint256"
        }
      ],
      "name": "Transfer",
      "type": "event"
    },
    {
      "inputs": [
        {
          "internalType": "address",
          "name": "to",
          "type": "address"
        },
        {
          "internalType": "uint256",
          "name": "tokenId",
          "type": "uint256"
        }
      ],
      "name": "approve",
      "outputs": [],
      "stateMutability": "nonpayable",
      "type": "function"
    },
    {
      "inputs": [
        {
          "internalType": "address",
          "name": "owner",
          "type": "address"
        }
      ],
      "name": "balanceOf",
      "outputs": [
        {
          "internalType": "uint256",
          "name": "",
          "type": "uint256"
        }
      ],
      "stateMutability": "view",
      "type": "function"
    },
    {
      "inputs": [
        {
          "internalType": "uint256",
          "name": "tokenId",
          "type": "uint256"
        }
      ],
      "name": "getApproved",
      "outputs": [
        {
          "internalType": "address",
          "name": "",
          "type": "address"
        }
      ],
      "stateMutability": "view",
      "type": "function"
    },
    {
      "inputs": [
        {
          "internalType": "bytes32",
          "name": "",
          "type": "bytes32"
        }
      ],
      "name": "hashToPrintId",
      "outputs": [
        {
          "internalType": "uint256",
          "name": "",
          "type": "uint256"
        }
      ],
      "stateMutability": "view",
      "type": "function"
    },
    {
      "inputs": [
        {
          "internalType": "address",
          "name": "",
          "type": "address"
        }
      ],
      "name": "isAdmin",
      "outputs": [
        {
          "internalType": "bool",
          "name": "",
          "type": "bool"
        }
      ],
      "stateMutability": "view",
      "type": "function"
    },
    {
      "inputs": [
        {
          "internalType": "address",
          "name": "owner",
          "type": "address"
        },
        {
          "internalType": "address",
          "name": "operator",
          "type": "address"
        }
      ],
      "name": "isApprovedForAll",
      "outputs": [
        {
          "internalType": "bool",
          "name": "",
          "type": "bool"
        }
      ],
      "stateMutability": "view",
      "type": "function"
    },
    {
      "inputs": [
        {
          "internalType": "address",
          "name": "",
          "type": "address"
        }
      ],
      "name": "isMintWhitelisted",
      "outputs": [
        {
          "internalType": "bool",
          "name": "",
          "type": "bool"
        }
      ],
      "stateMutability": "view",
      "type": "function"
    },
    {
      "inputs": [
        {
          "internalType": "address",
          "name": "_to",
          "type": "address"
        },
        {
          "internalType": "uint256",
          "name": "_pieceId",
          "type": "uint256"
        },
        {
          "internalType": "address",
          "name": "_by",
          "type": "address"
        }
      ],
      "name": "mint",
      "outputs": [
        {
          "internalType": "uint256",
          "name": "_tokenId",
          "type": "uint256"
        }
      ],
      "stateMutability": "nonpayable",
      "type": "function"
    },
    {
      "inputs": [],
      "name": "name",
      "outputs": [
        {
          "internalType": "string",
          "name": "",
          "type": "string"
        }
      ],
      "stateMutability": "view",
      "type": "function"
    },
    {
      "inputs": [
        {
          "internalType": "uint256",
          "name": "tokenId",
          "type": "uint256"
        }
      ],
      "name": "ownerOf",
      "outputs": [
        {
          "internalType": "address",
          "name": "",
          "type": "address"
        }
      ],
      "stateMutability": "view",
      "type": "function"
    },
    {
      "inputs": [
        {
          "internalType": "uint256",
          "name": "",
          "type": "uint256"
        }
      ],
      "name": "pieceIdToPricePerPrintInWei",
      "outputs": [
        {
          "internalType": "uint256",
          "name": "",
          "type": "uint256"
        }
      ],
      "stateMutability": "view",
      "type": "function"
    },
    {
      "inputs": [
        {
          "internalType": "uint256",
          "name": "",
          "type": "uint256"
        }
      ],
      "name": "printIdToHash",
      "outputs": [
        {
          "internalType": "bytes32",
          "name": "",
          "type": "bytes32"
        }
      ],
      "stateMutability": "view",
      "type": "function"
    },
    {
      "inputs": [
        {
          "internalType": "uint256",
          "name": "",
          "type": "uint256"
        }
      ],
      "name": "printIdToPieceId",
      "outputs": [
        {
          "internalType": "uint256",
          "name": "",
          "type": "uint256"
        }
      ],
      "stateMutability": "view",
      "type": "function"
    },
    {
      "inputs": [
        {
          "internalType": "address",
          "name": "from",
          "type": "address"
        },
        {
          "internalType": "address",
          "name": "to",
          "type": "address"
        },
        {
          "internalType": "uint256",
          "name": "tokenId",
          "type": "uint256"
        }
      ],
      "name": "safeTransferFrom",
      "outputs": [],
      "stateMutability": "nonpayable",
      "type": "function"
    },
    {
      "inputs": [
        {
          "internalType": "address",
          "name": "from",
          "type": "address"
        },
        {
          "internalType": "address",
          "name": "to",
          "type": "address"
        },
        {
          "internalType": "uint256",
          "name": "tokenId",
          "type": "uint256"
        },
        {
          "internalType": "bytes",
          "name": "_data",
          "type": "bytes"
        }
      ],
      "name": "safeTransferFrom",
      "outputs": [],
      "stateMutability": "nonpayable",
      "type": "function"
    },
    {
      "inputs": [
        {
          "internalType": "address",
          "name": "operator",
          "type": "address"
        },
        {
          "internalType": "bool",
          "name": "approved",
          "type": "bool"
        }
      ],
      "name": "setApprovalForAll",
      "outputs": [],
      "stateMutability": "nonpayable",
      "type": "function"
    },
    {
      "inputs": [
        {
          "internalType": "bytes4",
          "name": "interfaceId",
          "type": "bytes4"
        }
      ],
      "name": "supportsInterface",
      "outputs": [
        {
          "internalType": "bool",
          "name": "",
          "type": "bool"
        }
      ],
      "stateMutability": "view",
      "type": "function"
    },
    {
      "inputs": [],
      "name": "symbol",
      "outputs": [
        {
          "internalType": "string",
          "name": "",
          "type": "string"
        }
      ],
      "stateMutability": "view",
      "type": "function"
    },
    {
      "inputs": [
        {
          "internalType": "uint256",
          "name": "index",
          "type": "uint256"
        }
      ],
      "name": "tokenByIndex",
      "outputs": [
        {
          "internalType": "uint256",
          "name": "",
          "type": "uint256"
        }
      ],
      "stateMutability": "view",
      "type": "function"
    },
    {
      "inputs": [
        {
          "internalType": "address",
          "name": "owner",
          "type": "address"
        },
        {
          "internalType": "uint256",
          "name": "index",
          "type": "uint256"
        }
      ],
      "name": "tokenOfOwnerByIndex",
      "outputs": [
        {
          "internalType": "uint256",
          "name": "",
          "type": "uint256"
        }
      ],
      "stateMutability": "view",
      "type": "function"
    },
    {
      "inputs": [
        {
          "internalType": "uint256",
          "name": "tokenId",
          "type": "uint256"
        }
      ],
      "name": "tokenURI",
      "outputs": [
        {
          "internalType": "string",
          "name": "",
          "type": "string"
        }
      ],
      "stateMutability": "view",
      "type": "function"
    },
    {
      "inputs": [],
      "name": "totalSupply",
      "outputs": [
        {
          "internalType": "uint256",
          "name": "",
          "type": "uint256"
        }
      ],
      "stateMutability": "view",
      "type": "function"
    },
    {
      "inputs": [
        {
          "internalType": "address",
          "name": "from",
          "type": "address"
        },
        {
          "internalType": "address",
          "name": "to",
          "type": "address"
        },
        {
          "internalType": "uint256",
          "name": "tokenId",
          "type": "uint256"
        }
      ],
      "name": "transferFrom",
      "outputs": [],
      "stateMutability": "nonpayable",
      "type": "function"
    }
  ],
  "bytecode": "0x60806040523480156200001157600080fd5b5060405162003885380380620038858339818101604052810190620000379190620001ef565b8181816000908051906020019062000051929190620000cd565b5080600190805190602001906200006a929190620000cd565b5050506001600c60003373ffffffffffffffffffffffffffffffffffffffff1673ffffffffffffffffffffffffffffffffffffffff16815260200190815260200160002060006101000a81548160ff021916908315150217905550505062000393565b828054620000db90620002ff565b90600052602060002090601f016020900481019282620000ff57600085556200014b565b82601f106200011a57805160ff19168380011785556200014b565b828001600101855582156200014b579182015b828111156200014a5782518255916020019190600101906200012d565b5b5090506200015a91906200015e565b5090565b5b80821115620001795760008160009055506001016200015f565b5090565b6000620001946200018e8462000296565b62000262565b905082815260208101848484011115620001ad57600080fd5b620001ba848285620002c9565b509392505050565b600082601f830112620001d457600080fd5b8151620001e68482602086016200017d565b91505092915050565b600080604083850312156200020357600080fd5b600083015167ffffffffffffffff8111156200021e57600080fd5b6200022c85828601620001c2565b925050602083015167ffffffffffffffff8111156200024a57600080fd5b6200025885828601620001c2565b9150509250929050565b6000604051905081810181811067ffffffffffffffff821117156200028c576200028b62000364565b5b8060405250919050565b600067ffffffffffffffff821115620002b457620002b362000364565b5b601f19601f8301169050602081019050919050565b60005b83811015620002e9578082015181840152602081019050620002cc565b83811115620002f9576000848401525b50505050565b600060028204905060018216806200031857607f821691505b602082108114156200032f576200032e62000335565b5b50919050565b7f4e487b7100000000000000000000000000000000000000000000000000000000600052602260045260246000fd5b7f4e487b7100000000000000000000000000000000000000000000000000000000600052604160045260246000fd5b6134e280620003a36000396000f3fe608060405234801561001057600080fd5b506004361061014d5760003560e01c80634f6ccce7116100c3578063ad0305ce1161007c578063ad0305ce146103fc578063b88d4fde1461042c578063c87b56dd14610448578063c9991c2c14610478578063e985e9c5146104a8578063eb3a86e3146104d85761014d565b80634f6ccce7146103025780636352211e1461033257806363e56aaa1461036257806370a082311461039257806395d89b41146103c2578063a22cb465146103e05761014d565b806318160ddd1161011557806318160ddd1461021c57806323b872dd1461023a57806324d7806c146102565780632bf88d83146102865780632f745c59146102b657806342842e0e146102e65761014d565b806301ffc9a71461015257806306fdde0314610182578063081812fc146101a0578063095ea7b3146101d05780630d4d1513146101ec575b600080fd5b61016c6004803603810190610167919061241d565b610508565b6040516101799190612d4f565b60405180910390f35b61018a610582565b6040516101979190612d85565b60405180910390f35b6101ba60048036038101906101b5919061246f565b610614565b6040516101c79190612ce8565b60405180910390f35b6101ea60048036038101906101e59190612369565b610699565b005b610206600480360381019061020191906123a5565b6107b1565b6040516102139190612fe7565b60405180910390f35b610224610a41565b6040516102319190612fe7565b60405180910390f35b610254600480360381019061024f9190612263565b610a4e565b005b610270600480360381019061026b91906121fe565b610aae565b60405161027d9190612d4f565b60405180910390f35b6102a0600480360381019061029b919061246f565b610ace565b6040516102ad9190612fe7565b60405180910390f35b6102d060048036038101906102cb9190612369565b610ae6565b6040516102dd9190612fe7565b60405180910390f35b61030060048036038101906102fb9190612263565b610b8b565b005b61031c6004803603810190610317919061246f565b610bab565b6040516103299190612fe7565b60405180910390f35b61034c6004803603810190610347919061246f565b610c42565b6040516103599190612ce8565b60405180910390f35b61037c6004803603810190610377919061246f565b610cf4565b6040516103899190612d6a565b60405180910390f35b6103ac60048036038101906103a791906121fe565b610d0c565b6040516103b99190612fe7565b60405180910390f35b6103ca610dc4565b6040516103d79190612d85565b60405180910390f35b6103fa60048036038101906103f5919061232d565b610e56565b005b610416600480360381019061041191906121fe565b610fd7565b6040516104239190612d4f565b60405180910390f35b610446600480360381019061044191906122b2565b610ff7565b005b610462600480360381019061045d919061246f565b611059565b60405161046f9190612d85565b60405180910390f35b610492600480360381019061048d91906123f4565b611100565b60405161049f9190612fe7565b60405180910390f35b6104c260048036038101906104bd9190612227565b611118565b6040516104cf9190612d4f565b60405180910390f35b6104f260048036038101906104ed919061246f565b6111ac565b6040516104ff9190612fe7565b60405180910390f35b60007f780e9d63000000000000000000000000000000000000000000000000000000007bffffffffffffffffffffffffffffffffffffffffffffffffffffffff1916827bffffffffffffffffffffffffffffffffffffffffffffffffffffffff1916148061057b575061057a826111c4565b5b9050919050565b6060600080546105919061327b565b80601f01602080910402602001604051908101604052809291908181526020018280546105bd9061327b565b801561060a5780601f106105df5761010080835404028352916020019161060a565b820191906000526020600020905b8154815290600101906020018083116105ed57829003601f168201915b5050505050905090565b600061061f826112a6565b61065e576040517f08c379a000000000000000000000000000000000000000000000000000000000815260040161065590612ec7565b60405180910390fd5b6004600083815260200190815260200160002060009054906101000a900473ffffffffffffffffffffffffffffffffffffffff169050919050565b60006106a482610c42565b90508073ffffffffffffffffffffffffffffffffffffffff168373ffffffffffffffffffffffffffffffffffffffff161415610715576040517f08c379a000000000000000000000000000000000000000000000000000000000815260040161070c90612f27565b60405180910390fd5b8073ffffffffffffffffffffffffffffffffffffffff16610734611312565b73ffffffffffffffffffffffffffffffffffffffff16148061076357506107628161075d611312565b611118565b5b6107a2576040517f08c379a000000000000000000000000000000000000000000000000000000000815260040161079990612e67565b60405180910390fd5b6107ac838361131a565b505050565b6000601160003373ffffffffffffffffffffffffffffffffffffffff1673ffffffffffffffffffffffffffffffffffffffff16815260200190815260200160002060009054906101000a900460ff1661083f576040517f08c379a000000000000000000000000000000000000000000000000000000000815260040161083690612fc7565b60405180910390fd5b600a6000848152602001908152602001600020600401546001600a60008681526020019081526020016000206003015461087991906130a6565b11156108ba576040517f08c379a00000000000000000000000000000000000000000000000000000000081526004016108b190612f47565b60405180910390fd5b600a600084815260200190815260200160002060060160009054906101000a900460ff16806109325750600c60008373ffffffffffffffffffffffffffffffffffffffff1673ffffffffffffffffffffffffffffffffffffffff16815260200190815260200160002060009054906101000a900460ff165b610971576040517f08c379a000000000000000000000000000000000000000000000000000000000815260040161096890612fa7565b60405180910390fd5b600a600084815260200190815260200160002060060160029054906101000a900460ff16806109e95750600c60008373ffffffffffffffffffffffffffffffffffffffff1673ffffffffffffffffffffffffffffffffffffffff16815260200190815260200160002060009054906101000a900460ff165b610a28576040517f08c379a0000000000000000000000000000000000000000000000000000000008152600401610a1f90612e47565b60405180910390fd5b6000610a3485856113d3565b9050809150509392505050565b6000600880549050905090565b610a5f610a59611312565b82611519565b610a9e576040517f08c379a0000000000000000000000000000000000000000000000000000000008152600401610a9590612f67565b60405180910390fd5b610aa98383836115f7565b505050565b600c6020528060005260406000206000915054906101000a900460ff1681565b600b6020528060005260406000206000915090505481565b6000610af183610d0c565b8210610b32576040517f08c379a0000000000000000000000000000000000000000000000000000000008152600401610b2990612da7565b60405180910390fd5b600660008473ffffffffffffffffffffffffffffffffffffffff1673ffffffffffffffffffffffffffffffffffffffff168152602001908152602001600020600083815260200190815260200160002054905092915050565b610ba683838360405180602001604052806000815250610ff7565b505050565b6000610bb5610a41565b8210610bf6576040517f08c379a0000000000000000000000000000000000000000000000000000000008152600401610bed90612f87565b60405180910390fd5b60088281548110610c30577f4e487b7100000000000000000000000000000000000000000000000000000000600052603260045260246000fd5b90600052602060002001549050919050565b6000806002600084815260200190815260200160002060009054906101000a900473ffffffffffffffffffffffffffffffffffffffff169050600073ffffffffffffffffffffffffffffffffffffffff168173ffffffffffffffffffffffffffffffffffffffff161415610ceb576040517f08c379a0000000000000000000000000000000000000000000000000000000008152600401610ce290612ea7565b60405180910390fd5b80915050919050565b600f6020528060005260406000206000915090505481565b60008073ffffffffffffffffffffffffffffffffffffffff168273ffffffffffffffffffffffffffffffffffffffff161415610d7d576040517f08c379a0000000000000000000000000000000000000000000000000000000008152600401610d7490612e87565b60405180910390fd5b600360008373ffffffffffffffffffffffffffffffffffffffff1673ffffffffffffffffffffffffffffffffffffffff168152602001908152602001600020549050919050565b606060018054610dd39061327b565b80601f0160208091040260200160405190810160405280929190818152602001828054610dff9061327b565b8015610e4c5780601f10610e2157610100808354040283529160200191610e4c565b820191906000526020600020905b815481529060010190602001808311610e2f57829003601f168201915b5050505050905090565b610e5e611312565b73ffffffffffffffffffffffffffffffffffffffff168273ffffffffffffffffffffffffffffffffffffffff161415610ecc576040517f08c379a0000000000000000000000000000000000000000000000000000000008152600401610ec390612e07565b60405180910390fd5b8060056000610ed9611312565b73ffffffffffffffffffffffffffffffffffffffff1673ffffffffffffffffffffffffffffffffffffffff16815260200190815260200160002060008473ffffffffffffffffffffffffffffffffffffffff1673ffffffffffffffffffffffffffffffffffffffff16815260200190815260200160002060006101000a81548160ff0219169083151502179055508173ffffffffffffffffffffffffffffffffffffffff16610f86611312565b73ffffffffffffffffffffffffffffffffffffffff167f17307eab39ab6107e8899845ad3d59bd9653f200f220920489ca2b5937696c3183604051610fcb9190612d4f565b60405180910390a35050565b60116020528060005260406000206000915054906101000a900460ff1681565b611008611002611312565b83611519565b611047576040517f08c379a000000000000000000000000000000000000000000000000000000000815260040161103e90612f67565b60405180910390fd5b61105384848484611853565b50505050565b6060611064826112a6565b6110a3576040517f08c379a000000000000000000000000000000000000000000000000000000000815260040161109a90612f07565b60405180910390fd5b60006110ad6118af565b905060008151116110cd57604051806020016040528060008152506110f8565b806110d7846118c6565b6040516020016110e8929190612c76565b6040516020818303038152906040525b915050919050565b60106020528060005260406000206000915090505481565b6000600560008473ffffffffffffffffffffffffffffffffffffffff1673ffffffffffffffffffffffffffffffffffffffff16815260200190815260200160002060008373ffffffffffffffffffffffffffffffffffffffff1673ffffffffffffffffffffffffffffffffffffffff16815260200190815260200160002060009054906101000a900460ff16905092915050565b600d6020528060005260406000206000915090505481565b60007f80ac58cd000000000000000000000000000000000000000000000000000000007bffffffffffffffffffffffffffffffffffffffffffffffffffffffff1916827bffffffffffffffffffffffffffffffffffffffffffffffffffffffff1916148061128f57507f5b5e139f000000000000000000000000000000000000000000000000000000007bffffffffffffffffffffffffffffffffffffffffffffffffffffffff1916827bffffffffffffffffffffffffffffffffffffffffffffffffffffffff1916145b8061129f575061129e82611a73565b5b9050919050565b60008073ffffffffffffffffffffffffffffffffffffffff166002600084815260200190815260200160002060009054906101000a900473ffffffffffffffffffffffffffffffffffffffff1673ffffffffffffffffffffffffffffffffffffffff1614159050919050565b600033905090565b816004600083815260200190815260200160002060006101000a81548173ffffffffffffffffffffffffffffffffffffffff021916908373ffffffffffffffffffffffffffffffffffffffff160217905550808273ffffffffffffffffffffffffffffffffffffffff1661138d83610c42565b73ffffffffffffffffffffffffffffffffffffffff167f8c5be1e5ebec7d5bd14f71427d1e84f3dd0314c0f7b2291e5b200ac8c7c3b92560405160405180910390a45050565b600080600a600084815260200190815260200160002060030154620f4240846113fc919061312d565b61140691906130a6565b90506001600a60008581526020019081526020016000206003015461142b91906130a6565b600a6000858152602001908152602001600020600301819055506000600a6000858152602001908152602001600020600301544360014361146c9190613187565b40336040516020016114819493929190612c9a565b60405160208183030381529060405280519060200120905080600f60008481526020019081526020016000208190555081601060008381526020019081526020016000208190555083828673ffffffffffffffffffffffffffffffffffffffff167f4c209b5fc8ad50758f13e2e1088ba56a560dff690a1c6fef26394f4c03821c4f60405160405180910390a4819250505092915050565b6000611524826112a6565b611563576040517f08c379a000000000000000000000000000000000000000000000000000000000815260040161155a90612e27565b60405180910390fd5b600061156e83610c42565b90508073ffffffffffffffffffffffffffffffffffffffff168473ffffffffffffffffffffffffffffffffffffffff1614806115dd57508373ffffffffffffffffffffffffffffffffffffffff166115c584610614565b73ffffffffffffffffffffffffffffffffffffffff16145b806115ee57506115ed8185611118565b5b91505092915050565b8273ffffffffffffffffffffffffffffffffffffffff1661161782610c42565b73ffffffffffffffffffffffffffffffffffffffff161461166d576040517f08c379a000000000000000000000000000000000000000000000000000000000815260040161166490612ee7565b60405180910390fd5b600073ffffffffffffffffffffffffffffffffffffffff168273ffffffffffffffffffffffffffffffffffffffff1614156116dd576040517f08c379a00000000000000000000000000000000000000000000000000000000081526004016116d490612de7565b60405180910390fd5b6116e8838383611add565b6116f360008261131a565b6001600360008573ffffffffffffffffffffffffffffffffffffffff1673ffffffffffffffffffffffffffffffffffffffff16815260200190815260200160002060008282546117439190613187565b925050819055506001600360008473ffffffffffffffffffffffffffffffffffffffff1673ffffffffffffffffffffffffffffffffffffffff168152602001908152602001600020600082825461179a91906130a6565b92505081905550816002600083815260200190815260200160002060006101000a81548173ffffffffffffffffffffffffffffffffffffffff021916908373ffffffffffffffffffffffffffffffffffffffff160217905550808273ffffffffffffffffffffffffffffffffffffffff168473ffffffffffffffffffffffffffffffffffffffff167fddf252ad1be2c89b69c2b068fc378daa952ba7f163c4a11628f55a4df523b3ef60405160405180910390a4505050565b61185e8484846115f7565b61186a84848484611bf1565b6118a9576040517f08c379a00000000000000000000000000000000000000000000000000000000081526004016118a090612dc7565b60405180910390fd5b50505050565b606060405180602001604052806000815250905090565b6060600082141561190e576040518060400160405280600181526020017f30000000000000000000000000000000000000000000000000000000000000008152509050611a6e565b600082905060005b60008214611940578080611929906132ad565b915050600a8261193991906130fc565b9150611916565b60008167ffffffffffffffff811115611982577f4e487b7100000000000000000000000000000000000000000000000000000000600052604160045260246000fd5b6040519080825280601f01601f1916602001820160405280156119b45781602001600182028036833780820191505090505b5090505b60008514611a67576001826119cd9190613187565b9150600a856119dc919061332e565b60306119e891906130a6565b60f81b818381518110611a24577f4e487b7100000000000000000000000000000000000000000000000000000000600052603260045260246000fd5b60200101907effffffffffffffffffffffffffffffffffffffffffffffffffffffffffffff1916908160001a905350600a85611a6091906130fc565b94506119b8565b8093505050505b919050565b60007f01ffc9a7000000000000000000000000000000000000000000000000000000007bffffffffffffffffffffffffffffffffffffffffffffffffffffffff1916827bffffffffffffffffffffffffffffffffffffffffffffffffffffffff1916149050919050565b611ae8838383611d88565b600073ffffffffffffffffffffffffffffffffffffffff168373ffffffffffffffffffffffffffffffffffffffff161415611b2b57611b2681611d8d565b611b6a565b8173ffffffffffffffffffffffffffffffffffffffff168373ffffffffffffffffffffffffffffffffffffffff1614611b6957611b688382611dd6565b5b5b600073ffffffffffffffffffffffffffffffffffffffff168273ffffffffffffffffffffffffffffffffffffffff161415611bad57611ba881611f43565b611bec565b8273ffffffffffffffffffffffffffffffffffffffff168273ffffffffffffffffffffffffffffffffffffffff1614611beb57611bea8282612086565b5b5b505050565b6000611c128473ffffffffffffffffffffffffffffffffffffffff16612105565b15611d7b578373ffffffffffffffffffffffffffffffffffffffff1663150b7a02611c3b611312565b8786866040518563ffffffff1660e01b8152600401611c5d9493929190612d03565b602060405180830381600087803b158015611c7757600080fd5b505af1925050508015611ca857506040513d601f19601f82011682018060405250810190611ca59190612446565b60015b611d2b573d8060008114611cd8576040519150601f19603f3d011682016040523d82523d6000602084013e611cdd565b606091505b50600081511415611d23576040517f08c379a0000000000000000000000000000000000000000000000000000000008152600401611d1a90612dc7565b60405180910390fd5b805181602001fd5b63150b7a0260e01b7bffffffffffffffffffffffffffffffffffffffffffffffffffffffff1916817bffffffffffffffffffffffffffffffffffffffffffffffffffffffff191614915050611d80565b600190505b949350505050565b505050565b6008805490506009600083815260200190815260200160002081905550600881908060018154018082558091505060019003906000526020600020016000909190919091505550565b60006001611de384610d0c565b611ded9190613187565b9050600060076000848152602001908152602001600020549050818114611ed2576000600660008673ffffffffffffffffffffffffffffffffffffffff1673ffffffffffffffffffffffffffffffffffffffff168152602001908152602001600020600084815260200190815260200160002054905080600660008773ffffffffffffffffffffffffffffffffffffffff1673ffffffffffffffffffffffffffffffffffffffff168152602001908152602001600020600084815260200190815260200160002081905550816007600083815260200190815260200160002081905550505b6007600084815260200190815260200160002060009055600660008573ffffffffffffffffffffffffffffffffffffffff1673ffffffffffffffffffffffffffffffffffffffff16815260200190815260200160002060008381526020019081526020016000206000905550505050565b60006001600880549050611f579190613187565b9050600060096000848152602001908152602001600020549050600060088381548110611fad577f4e487b7100000000000000000000000000000000000000000000000000000000600052603260045260246000fd5b906000526020600020015490508060088381548110611ff5577f4e487b7100000000000000000000000000000000000000000000000000000000600052603260045260246000fd5b90600052602060002001819055508160096000838152602001908152602001600020819055506009600085815260200190815260200160002060009055600880548061206a577f4e487b7100000000000000000000000000000000000000000000000000000000600052603160045260246000fd5b6001900381819060005260206000200160009055905550505050565b600061209183610d0c565b905081600660008573ffffffffffffffffffffffffffffffffffffffff1673ffffffffffffffffffffffffffffffffffffffff168152602001908152602001600020600083815260200190815260200160002081905550806007600084815260200190815260200160002081905550505050565b600080823b905060008111915050919050565b600061212b61212684613033565b613002565b90508281526020810184848401111561214357600080fd5b61214e848285613239565b509392505050565b60008135905061216581613439565b92915050565b60008135905061217a81613450565b92915050565b60008135905061218f81613467565b92915050565b6000813590506121a48161347e565b92915050565b6000815190506121b98161347e565b92915050565b600082601f8301126121d057600080fd5b81356121e0848260208601612118565b91505092915050565b6000813590506121f881613495565b92915050565b60006020828403121561221057600080fd5b600061221e84828501612156565b91505092915050565b6000806040838503121561223a57600080fd5b600061224885828601612156565b925050602061225985828601612156565b9150509250929050565b60008060006060848603121561227857600080fd5b600061228686828701612156565b935050602061229786828701612156565b92505060406122a8868287016121e9565b9150509250925092565b600080600080608085870312156122c857600080fd5b60006122d687828801612156565b94505060206122e787828801612156565b93505060406122f8878288016121e9565b925050606085013567ffffffffffffffff81111561231557600080fd5b612321878288016121bf565b91505092959194509250565b6000806040838503121561234057600080fd5b600061234e85828601612156565b925050602061235f8582860161216b565b9150509250929050565b6000806040838503121561237c57600080fd5b600061238a85828601612156565b925050602061239b858286016121e9565b9150509250929050565b6000806000606084860312156123ba57600080fd5b60006123c886828701612156565b93505060206123d9868287016121e9565b92505060406123ea86828701612156565b9150509250925092565b60006020828403121561240657600080fd5b600061241484828501612180565b91505092915050565b60006020828403121561242f57600080fd5b600061243d84828501612195565b91505092915050565b60006020828403121561245857600080fd5b6000612466848285016121aa565b91505092915050565b60006020828403121561248157600080fd5b600061248f848285016121e9565b91505092915050565b6124a1816131bb565b82525050565b6124b86124b3826131bb565b6132f6565b82525050565b6124c7816131cd565b82525050565b6124d6816131d9565b82525050565b6124ed6124e8826131d9565b613308565b82525050565b60006124fe82613063565b6125088185613079565b9350612518818560208601613248565b6125218161341b565b840191505092915050565b60006125378261306e565b612541818561308a565b9350612551818560208601613248565b61255a8161341b565b840191505092915050565b60006125708261306e565b61257a818561309b565b935061258a818560208601613248565b80840191505092915050565b60006125a3602b8361308a565b91507f455243373231456e756d657261626c653a206f776e657220696e646578206f7560008301527f74206f6620626f756e64730000000000000000000000000000000000000000006020830152604082019050919050565b600061260960328361308a565b91507f4552433732313a207472616e7366657220746f206e6f6e20455243373231526560008301527f63656976657220696d706c656d656e74657200000000000000000000000000006020830152604082019050919050565b600061266f60248361308a565b91507f4552433732313a207472616e7366657220746f20746865207a65726f2061646460008301527f72657373000000000000000000000000000000000000000000000000000000006020830152604082019050919050565b60006126d560198361308a565b91507f4552433732313a20617070726f766520746f2063616c6c6572000000000000006000830152602082019050919050565b6000612715602c8361308a565b91507f4552433732313a206f70657261746f7220717565727920666f72206e6f6e657860008301527f697374656e7420746f6b656e00000000000000000000000000000000000000006020830152604082019050919050565b600061277b602a8361308a565b91507f50757263686173696e67207072696e7473206f6620746869732070696563652060008301527f61726520706175736564000000000000000000000000000000000000000000006020830152604082019050919050565b60006127e160388361308a565b91507f4552433732313a20617070726f76652063616c6c6572206973206e6f74206f7760008301527f6e6572206e6f7220617070726f76656420666f7220616c6c00000000000000006020830152604082019050919050565b6000612847602a8361308a565b91507f4552433732313a2062616c616e636520717565727920666f7220746865207a6560008301527f726f2061646472657373000000000000000000000000000000000000000000006020830152604082019050919050565b60006128ad60298361308a565b91507f4552433732313a206f776e657220717565727920666f72206e6f6e657869737460008301527f656e7420746f6b656e00000000000000000000000000000000000000000000006020830152604082019050919050565b6000612913602c8361308a565b91507f4552433732313a20617070726f76656420717565727920666f72206e6f6e657860008301527f697374656e7420746f6b656e00000000000000000000000000000000000000006020830152604082019050919050565b600061297960298361308a565b91507f4552433732313a207472616e73666572206f6620746f6b656e2074686174206960008301527f73206e6f74206f776e00000000000000000000000000000000000000000000006020830152604082019050919050565b60006129df602f8361308a565b91507f4552433732314d657461646174613a2055524920717565727920666f72206e6f60008301527f6e6578697374656e7420746f6b656e00000000000000000000000000000000006020830152604082019050919050565b6000612a4560218361308a565b91507f4552433732313a20617070726f76616c20746f2063757272656e74206f776e6560008301527f72000000000000000000000000000000000000000000000000000000000000006020830152604082019050919050565b6000612aab601f8361308a565b91507f4d757374206e6f7420657863656564206d617820696e766f636174696f6e73006000830152602082019050919050565b6000612aeb60318361308a565b91507f4552433732313a207472616e736665722063616c6c6572206973206e6f74206f60008301527f776e6572206e6f7220617070726f7665640000000000000000000000000000006020830152604082019050919050565b6000612b51602c8361308a565b91507f455243373231456e756d657261626c653a20676c6f62616c20696e646578206f60008301527f7574206f6620626f756e647300000000000000000000000000000000000000006020830152604082019050919050565b6000612bb7601e8361308a565b91507f5069656365206d75737420657869737420616e642062652061637469766500006000830152602082019050919050565b6000612bf760258361308a565b91507f4d7573742062652077686974656c697374656420746f206d696e74206469726560008301527f63746c792e0000000000000000000000000000000000000000000000000000006020830152604082019050919050565b612c598161322f565b82525050565b612c70612c6b8261322f565b613324565b82525050565b6000612c828285612565565b9150612c8e8284612565565b91508190509392505050565b6000612ca68287612c5f565b602082019150612cb68286612c5f565b602082019150612cc682856124dc565b602082019150612cd682846124a7565b60148201915081905095945050505050565b6000602082019050612cfd6000830184612498565b92915050565b6000608082019050612d186000830187612498565b612d256020830186612498565b612d326040830185612c50565b8181036060830152612d4481846124f3565b905095945050505050565b6000602082019050612d6460008301846124be565b92915050565b6000602082019050612d7f60008301846124cd565b92915050565b60006020820190508181036000830152612d9f818461252c565b905092915050565b60006020820190508181036000830152612dc081612596565b9050919050565b60006020820190508181036000830152612de0816125fc565b9050919050565b60006020820190508181036000830152612e0081612662565b9050919050565b60006020820190508181036000830152612e20816126c8565b9050919050565b60006020820190508181036000830152612e4081612708565b9050919050565b60006020820190508181036000830152612e608161276e565b9050919050565b60006020820190508181036000830152612e80816127d4565b9050919050565b60006020820190508181036000830152612ea08161283a565b9050919050565b60006020820190508181036000830152612ec0816128a0565b9050919050565b60006020820190508181036000830152612ee081612906565b9050919050565b60006020820190508181036000830152612f008161296c565b9050919050565b60006020820190508181036000830152612f20816129d2565b9050919050565b60006020820190508181036000830152612f4081612a38565b9050919050565b60006020820190508181036000830152612f6081612a9e565b9050919050565b60006020820190508181036000830152612f8081612ade565b9050919050565b60006020820190508181036000830152612fa081612b44565b9050919050565b60006020820190508181036000830152612fc081612baa565b9050919050565b60006020820190508181036000830152612fe081612bea565b9050919050565b6000602082019050612ffc6000830184612c50565b92915050565b6000604051905081810181811067ffffffffffffffff82111715613029576130286133ec565b5b8060405250919050565b600067ffffffffffffffff82111561304e5761304d6133ec565b5b601f19601f8301169050602081019050919050565b600081519050919050565b600081519050919050565b600082825260208201905092915050565b600082825260208201905092915050565b600081905092915050565b60006130b18261322f565b91506130bc8361322f565b9250827fffffffffffffffffffffffffffffffffffffffffffffffffffffffffffffffff038211156130f1576130f061335f565b5b828201905092915050565b60006131078261322f565b91506131128361322f565b9250826131225761312161338e565b5b828204905092915050565b60006131388261322f565b91506131438361322f565b9250817fffffffffffffffffffffffffffffffffffffffffffffffffffffffffffffffff048311821515161561317c5761317b61335f565b5b828202905092915050565b60006131928261322f565b915061319d8361322f565b9250828210156131b0576131af61335f565b5b828203905092915050565b60006131c68261320f565b9050919050565b60008115159050919050565b6000819050919050565b60007fffffffff0000000000000000000000000000000000000000000000000000000082169050919050565b600073ffffffffffffffffffffffffffffffffffffffff82169050919050565b6000819050919050565b82818337600083830152505050565b60005b8381101561326657808201518184015260208101905061324b565b83811115613275576000848401525b50505050565b6000600282049050600182168061329357607f821691505b602082108114156132a7576132a66133bd565b5b50919050565b60006132b88261322f565b91507fffffffffffffffffffffffffffffffffffffffffffffffffffffffffffffffff8214156132eb576132ea61335f565b5b600182019050919050565b600061330182613312565b9050919050565b6000819050919050565b600061331d8261342c565b9050919050565b6000819050919050565b60006133398261322f565b91506133448361322f565b9250826133545761335361338e565b5b828206905092915050565b7f4e487b7100000000000000000000000000000000000000000000000000000000600052601160045260246000fd5b7f4e487b7100000000000000000000000000000000000000000000000000000000600052601260045260246000fd5b7f4e487b7100000000000000000000000000000000000000000000000000000000600052602260045260246000fd5b7f4e487b7100000000000000000000000000000000000000000000000000000000600052604160045260246000fd5b6000601f19601f8301169050919050565b60008160601b9050919050565b613442816131bb565b811461344d57600080fd5b50565b613459816131cd565b811461346457600080fd5b50565b613470816131d9565b811461347b57600080fd5b50565b613487816131e3565b811461349257600080fd5b50565b61349e8161322f565b81146134a957600080fd5b5056fea2646970667358221220df93aa70490daced2c005685a17e98b4cde7a9dfd17d65f493be4e64a1ab82ca64736f6c63430008000033",
  "linkReferences": {},
  "deployedLinkReferences": {}
}