{
  "_format": "hh-sol-artifact-1",
  "contractName": "GenerativeArtworks",
  "sourceName": "contracts/GenerativeArtworks.sol",
  "abi": [
    {
      "inputs": [
        {
          "internalType": "string",
          "name": "tokenName",
          "type": "string"
        },
        {
          "internalType": "string",
          "name": "tokenSymbol",
          "type": "string"
        }
      ],
      "stateMutability": "nonpayable",
      "type": "constructor"
    },
    {
      "anonymous": false,
      "inputs": [
        {
          "indexed": true,
          "internalType": "address",
          "name": "owner",
          "type": "address"
        },
        {
          "indexed": true,
          "internalType": "address",
          "name": "approved",
          "type": "address"
        },
        {
          "indexed": true,
          "internalType": "uint256",
          "name": "tokenId",
          "type": "uint256"
        }
      ],
      "name": "Approval",
      "type": "event"
    },
    {
      "anonymous": false,
      "inputs": [
        {
          "indexed": true,
          "internalType": "address",
          "name": "owner",
          "type": "address"
        },
        {
          "indexed": true,
          "internalType": "address",
          "name": "operator",
          "type": "address"
        },
        {
          "indexed": false,
          "internalType": "bool",
          "name": "approved",
          "type": "bool"
        }
      ],
      "name": "ApprovalForAll",
      "type": "event"
    },
    {
      "anonymous": false,
      "inputs": [
        {
          "indexed": true,
          "internalType": "address",
          "name": "_to",
          "type": "address"
        },
        {
          "indexed": true,
          "internalType": "uint256",
          "name": "_printId",
          "type": "uint256"
        },
        {
          "indexed": true,
          "internalType": "uint256",
          "name": "_pieceId",
          "type": "uint256"
        }
      ],
      "name": "Mint",
      "type": "event"
    },
    {
      "anonymous": false,
      "inputs": [
        {
          "indexed": true,
          "internalType": "address",
          "name": "from",
          "type": "address"
        },
        {
          "indexed": true,
          "internalType": "address",
          "name": "to",
          "type": "address"
        },
        {
          "indexed": true,
          "internalType": "uint256",
          "name": "tokenId",
          "type": "uint256"
        }
      ],
      "name": "Transfer",
      "type": "event"
    },
    {
      "inputs": [
        {
          "internalType": "address",
          "name": "_address",
          "type": "address"
        }
      ],
      "name": "addMintWhitelisted",
      "outputs": [],
      "stateMutability": "nonpayable",
      "type": "function"
    },
    {
      "inputs": [
        {
          "internalType": "string",
          "name": "pieceName",
          "type": "string"
        }
      ],
      "name": "addPiece",
      "outputs": [],
      "stateMutability": "nonpayable",
      "type": "function"
    },
    {
      "inputs": [
        {
          "internalType": "address",
          "name": "to",
          "type": "address"
        },
        {
          "internalType": "uint256",
          "name": "tokenId",
          "type": "uint256"
        }
      ],
      "name": "approve",
      "outputs": [],
      "stateMutability": "nonpayable",
      "type": "function"
    },
    {
      "inputs": [
        {
          "internalType": "address",
          "name": "owner",
          "type": "address"
        }
      ],
      "name": "balanceOf",
      "outputs": [
        {
          "internalType": "uint256",
          "name": "",
          "type": "uint256"
        }
      ],
      "stateMutability": "view",
      "type": "function"
    },
    {
      "inputs": [
        {
          "internalType": "uint256",
          "name": "tokenId",
          "type": "uint256"
        }
      ],
      "name": "getApproved",
      "outputs": [
        {
          "internalType": "address",
          "name": "",
          "type": "address"
        }
      ],
      "stateMutability": "view",
      "type": "function"
    },
    {
      "inputs": [
        {
          "internalType": "bytes32",
          "name": "",
          "type": "bytes32"
        }
      ],
      "name": "hashToPrintId",
      "outputs": [
        {
          "internalType": "uint256",
          "name": "",
          "type": "uint256"
        }
      ],
      "stateMutability": "view",
      "type": "function"
    },
    {
      "inputs": [
        {
          "internalType": "address",
          "name": "",
          "type": "address"
        }
      ],
      "name": "isAdmin",
      "outputs": [
        {
          "internalType": "bool",
          "name": "",
          "type": "bool"
        }
      ],
      "stateMutability": "view",
      "type": "function"
    },
    {
      "inputs": [
        {
          "internalType": "address",
          "name": "owner",
          "type": "address"
        },
        {
          "internalType": "address",
          "name": "operator",
          "type": "address"
        }
      ],
      "name": "isApprovedForAll",
      "outputs": [
        {
          "internalType": "bool",
          "name": "",
          "type": "bool"
        }
      ],
      "stateMutability": "view",
      "type": "function"
    },
    {
      "inputs": [
        {
          "internalType": "address",
          "name": "",
          "type": "address"
        }
      ],
      "name": "isMintWhitelisted",
      "outputs": [
        {
          "internalType": "bool",
          "name": "",
          "type": "bool"
        }
      ],
      "stateMutability": "view",
      "type": "function"
    },
    {
      "inputs": [
        {
          "internalType": "uint256",
          "name": "pieceId",
          "type": "uint256"
        }
      ],
      "name": "lockPiece",
      "outputs": [],
      "stateMutability": "nonpayable",
      "type": "function"
    },
    {
      "inputs": [
        {
          "internalType": "address",
          "name": "to",
          "type": "address"
        },
        {
          "internalType": "uint256",
          "name": "pieceId",
          "type": "uint256"
        },
        {
          "internalType": "address",
          "name": "by",
          "type": "address"
        }
      ],
      "name": "mint",
      "outputs": [
        {
          "internalType": "uint256",
          "name": "",
          "type": "uint256"
        }
      ],
      "stateMutability": "nonpayable",
      "type": "function"
    },
    {
      "inputs": [],
      "name": "name",
      "outputs": [
        {
          "internalType": "string",
          "name": "",
          "type": "string"
        }
      ],
      "stateMutability": "view",
      "type": "function"
    },
    {
      "inputs": [],
      "name": "nextPieceId",
      "outputs": [
        {
          "internalType": "uint256",
          "name": "",
          "type": "uint256"
        }
      ],
      "stateMutability": "view",
      "type": "function"
    },
    {
      "inputs": [
        {
          "internalType": "uint256",
          "name": "tokenId",
          "type": "uint256"
        }
      ],
      "name": "ownerOf",
      "outputs": [
        {
          "internalType": "address",
          "name": "",
          "type": "address"
        }
      ],
      "stateMutability": "view",
      "type": "function"
    },
    {
      "inputs": [
        {
          "internalType": "uint256",
          "name": "pieceId",
          "type": "uint256"
        }
      ],
      "name": "pieceDetails",
      "outputs": [
        {
          "internalType": "string",
          "name": "pieceName_",
          "type": "string"
        },
        {
          "internalType": "string",
          "name": "description_",
          "type": "string"
        },
        {
          "internalType": "string",
          "name": "license_",
          "type": "string"
        }
      ],
      "stateMutability": "view",
      "type": "function"
    },
    {
      "inputs": [
        {
          "internalType": "uint256",
          "name": "",
          "type": "uint256"
        }
      ],
      "name": "pieceIdToPricePerPrintInWei",
      "outputs": [
        {
          "internalType": "uint256",
          "name": "",
          "type": "uint256"
        }
      ],
      "stateMutability": "view",
      "type": "function"
    },
    {
      "inputs": [
        {
          "internalType": "uint256",
          "name": "pieceId",
          "type": "uint256"
        }
      ],
      "name": "piecePrintInfo",
      "outputs": [
        {
          "internalType": "uint256",
          "name": "pricePerPrintInWei_",
          "type": "uint256"
        },
        {
          "internalType": "uint256",
          "name": "currentPrints_",
          "type": "uint256"
        },
        {
          "internalType": "uint256",
          "name": "maxPrints_",
          "type": "uint256"
        },
        {
          "internalType": "bool",
          "name": "active_",
          "type": "bool"
        },
        {
          "internalType": "bool",
          "name": "locked_",
          "type": "bool"
        },
        {
          "internalType": "bool",
          "name": "paused_",
          "type": "bool"
        }
      ],
      "stateMutability": "view",
      "type": "function"
    },
    {
      "inputs": [
        {
          "internalType": "uint256",
          "name": "pieceId",
          "type": "uint256"
        }
      ],
      "name": "pieceScript",
      "outputs": [
        {
          "internalType": "string",
          "name": "",
          "type": "string"
        }
      ],
      "stateMutability": "view",
      "type": "function"
    },
    {
      "inputs": [
        {
          "internalType": "uint256",
          "name": "pieceId",
          "type": "uint256"
        }
      ],
      "name": "pieceShowAllPrints",
      "outputs": [
        {
          "internalType": "uint256[]",
          "name": "",
          "type": "uint256[]"
        }
      ],
      "stateMutability": "view",
      "type": "function"
    },
    {
      "inputs": [
        {
          "internalType": "uint256",
          "name": "",
          "type": "uint256"
        }
      ],
      "name": "printIdToHash",
      "outputs": [
        {
          "internalType": "bytes32",
          "name": "",
          "type": "bytes32"
        }
      ],
      "stateMutability": "view",
      "type": "function"
    },
    {
      "inputs": [
        {
          "internalType": "uint256",
          "name": "",
          "type": "uint256"
        }
      ],
      "name": "printIdToPieceId",
      "outputs": [
        {
          "internalType": "uint256",
          "name": "",
          "type": "uint256"
        }
      ],
      "stateMutability": "view",
      "type": "function"
    },
    {
      "inputs": [
        {
          "internalType": "address",
          "name": "_address",
          "type": "address"
        }
      ],
      "name": "removeMintWhitelisted",
      "outputs": [],
      "stateMutability": "nonpayable",
      "type": "function"
    },
    {
      "inputs": [
        {
          "internalType": "address",
          "name": "from",
          "type": "address"
        },
        {
          "internalType": "address",
          "name": "to",
          "type": "address"
        },
        {
          "internalType": "uint256",
          "name": "tokenId",
          "type": "uint256"
        }
      ],
      "name": "safeTransferFrom",
      "outputs": [],
      "stateMutability": "nonpayable",
      "type": "function"
    },
    {
      "inputs": [
        {
          "internalType": "address",
          "name": "from",
          "type": "address"
        },
        {
          "internalType": "address",
          "name": "to",
          "type": "address"
        },
        {
          "internalType": "uint256",
          "name": "tokenId",
          "type": "uint256"
        },
        {
          "internalType": "bytes",
          "name": "_data",
          "type": "bytes"
        }
      ],
      "name": "safeTransferFrom",
      "outputs": [],
      "stateMutability": "nonpayable",
      "type": "function"
    },
    {
      "inputs": [
        {
          "internalType": "address",
          "name": "operator",
          "type": "address"
        },
        {
          "internalType": "bool",
          "name": "approved",
          "type": "bool"
        }
      ],
      "name": "setApprovalForAll",
      "outputs": [],
      "stateMutability": "nonpayable",
      "type": "function"
    },
    {
      "inputs": [
        {
          "internalType": "bytes4",
          "name": "interfaceId",
          "type": "bytes4"
        }
      ],
      "name": "supportsInterface",
      "outputs": [
        {
          "internalType": "bool",
          "name": "",
          "type": "bool"
        }
      ],
      "stateMutability": "view",
      "type": "function"
    },
    {
      "inputs": [],
      "name": "symbol",
      "outputs": [
        {
          "internalType": "string",
          "name": "",
          "type": "string"
        }
      ],
      "stateMutability": "view",
      "type": "function"
    },
    {
      "inputs": [
        {
          "internalType": "uint256",
          "name": "pieceId",
          "type": "uint256"
        }
      ],
      "name": "togglePieceIsActive",
      "outputs": [],
      "stateMutability": "nonpayable",
      "type": "function"
    },
    {
      "inputs": [
        {
          "internalType": "uint256",
          "name": "pieceId",
          "type": "uint256"
        }
      ],
      "name": "togglePieceIsPaused",
      "outputs": [],
      "stateMutability": "nonpayable",
      "type": "function"
    },
    {
      "inputs": [
        {
          "internalType": "uint256",
          "name": "index",
          "type": "uint256"
        }
      ],
      "name": "tokenByIndex",
      "outputs": [
        {
          "internalType": "uint256",
          "name": "",
          "type": "uint256"
        }
      ],
      "stateMutability": "view",
      "type": "function"
    },
    {
      "inputs": [
        {
          "internalType": "address",
          "name": "owner",
          "type": "address"
        },
        {
          "internalType": "uint256",
          "name": "index",
          "type": "uint256"
        }
      ],
      "name": "tokenOfOwnerByIndex",
      "outputs": [
        {
          "internalType": "uint256",
          "name": "",
          "type": "uint256"
        }
      ],
      "stateMutability": "view",
      "type": "function"
    },
    {
      "inputs": [
        {
          "internalType": "uint256",
          "name": "tokenId",
          "type": "uint256"
        }
      ],
      "name": "tokenURI",
      "outputs": [
        {
          "internalType": "string",
          "name": "",
          "type": "string"
        }
      ],
      "stateMutability": "view",
      "type": "function"
    },
    {
      "inputs": [],
      "name": "totalSupply",
      "outputs": [
        {
          "internalType": "uint256",
          "name": "",
          "type": "uint256"
        }
      ],
      "stateMutability": "view",
      "type": "function"
    },
    {
      "inputs": [
        {
          "internalType": "address",
          "name": "from",
          "type": "address"
        },
        {
          "internalType": "address",
          "name": "to",
          "type": "address"
        },
        {
          "internalType": "uint256",
          "name": "tokenId",
          "type": "uint256"
        }
      ],
      "name": "transferFrom",
      "outputs": [],
      "stateMutability": "nonpayable",
      "type": "function"
    },
    {
      "inputs": [
        {
          "internalType": "uint256",
          "name": "pieceId",
          "type": "uint256"
        },
        {
          "internalType": "string",
          "name": "pieceDescription",
          "type": "string"
        }
      ],
      "name": "updatePieceDescription",
      "outputs": [],
      "stateMutability": "nonpayable",
      "type": "function"
    },
    {
      "inputs": [
        {
          "internalType": "uint256",
          "name": "pieceId",
          "type": "uint256"
        },
        {
          "internalType": "string",
          "name": "pieceLicense",
          "type": "string"
        }
      ],
      "name": "updatePieceLicense",
      "outputs": [],
      "stateMutability": "nonpayable",
      "type": "function"
    },
    {
      "inputs": [
        {
          "internalType": "uint256",
          "name": "pieceId",
          "type": "uint256"
        },
        {
          "internalType": "uint256",
          "name": "maxPrints",
          "type": "uint256"
        }
      ],
      "name": "updatePieceMaxPrints",
      "outputs": [],
      "stateMutability": "nonpayable",
      "type": "function"
    },
    {
      "inputs": [
        {
          "internalType": "uint256",
          "name": "pieceId",
          "type": "uint256"
        },
        {
          "internalType": "string",
          "name": "pieceName",
          "type": "string"
        }
      ],
      "name": "updatePieceName",
      "outputs": [],
      "stateMutability": "nonpayable",
      "type": "function"
    },
    {
      "inputs": [
        {
          "internalType": "uint256",
          "name": "pieceId",
          "type": "uint256"
        },
        {
          "internalType": "uint256",
          "name": "pricePerPrintInWei",
          "type": "uint256"
        }
      ],
      "name": "updatePiecePricePerPrintInWei",
      "outputs": [],
      "stateMutability": "nonpayable",
      "type": "function"
    },
    {
      "inputs": [
        {
          "internalType": "uint256",
          "name": "pieceId",
          "type": "uint256"
        },
        {
          "internalType": "string",
          "name": "script",
          "type": "string"
        }
      ],
      "name": "updatePieceScript",
      "outputs": [],
      "stateMutability": "nonpayable",
      "type": "function"
    }
  ],
  "bytecode": "0x608060405260006012553480156200001657600080fd5b50604051620055773803806200557783398181016040528101906200003c9190620001f4565b8181816000908051906020019062000056929190620000d2565b5080600190805190602001906200006f929190620000d2565b5050506001600c60003373ffffffffffffffffffffffffffffffffffffffff1673ffffffffffffffffffffffffffffffffffffffff16815260200190815260200160002060006101000a81548160ff021916908315150217905550505062000398565b828054620000e09062000304565b90600052602060002090601f01602090048101928262000104576000855562000150565b82601f106200011f57805160ff191683800117855562000150565b8280016001018555821562000150579182015b828111156200014f57825182559160200191906001019062000132565b5b5090506200015f919062000163565b5090565b5b808211156200017e57600081600090555060010162000164565b5090565b60006200019962000193846200029b565b62000267565b905082815260208101848484011115620001b257600080fd5b620001bf848285620002ce565b509392505050565b600082601f830112620001d957600080fd5b8151620001eb84826020860162000182565b91505092915050565b600080604083850312156200020857600080fd5b600083015167ffffffffffffffff8111156200022357600080fd5b6200023185828601620001c7565b925050602083015167ffffffffffffffff8111156200024f57600080fd5b6200025d85828601620001c7565b9150509250929050565b6000604051905081810181811067ffffffffffffffff8211171562000291576200029062000369565b5b8060405250919050565b600067ffffffffffffffff821115620002b957620002b862000369565b5b601f19601f8301169050602081019050919050565b60005b83811015620002ee578082015181840152602081019050620002d1565b83811115620002fe576000848401525b50505050565b600060028204905060018216806200031d57607f821691505b602082108114156200033457620003336200033a565b5b50919050565b7f4e487b7100000000000000000000000000000000000000000000000000000000600052602260045260246000fd5b7f4e487b7100000000000000000000000000000000000000000000000000000000600052604160045260246000fd5b6151cf80620003a86000396000f3fe608060405234801561001057600080fd5b50600436106102485760003560e01c8063729acb091161013b578063ad0305ce116100b8578063c87b56dd1161007c578063c87b56dd14610748578063c9991c2c14610778578063e6ed8400146107a8578063e985e9c5146107d8578063eb3a86e31461080857610248565b8063ad0305ce146106a8578063b7d76b7a146106d8578063b88d4fde146106f4578063bb98f6fd14610710578063c6d2a7af1461072c57610248565b8063959de076116100ff578063959de076146105d757806395d89b411461060c5780639692dff01461062a578063a22cb4651461065a578063a94887cd1461067657610248565b8063729acb091461054b5780638447d42b14610567578063867f1a3b146105835780638bddb0a61461059f57806395952e05146105bb57610248565b80632812a794116101c95780634f6ccce71161018d5780634f6ccce71461046f5780635604fccc1461049f5780636352211e146104bb57806363e56aaa146104eb57806370a082311461051b57610248565b80632812a794146103b95780632bf88d83146103d75780632c0a8b38146104075780632f745c591461042357806342842e0e1461045357610248565b806311f373d01161021057806311f373d01461031757806318160ddd14610333578063236d8e891461035157806323b872dd1461036d57806324d7806c1461038957610248565b806301ffc9a71461024d57806306fdde031461027d578063081812fc1461029b578063095ea7b3146102cb5780630d4d1513146102e7575b600080fd5b61026760048036038101906102629190613b6a565b610838565b6040516102749190614846565b60405180910390f35b6102856108b2565b604051610292919061487c565b60405180910390f35b6102b560048036038101906102b09190613bfd565b610944565b6040516102c291906147bd565b60405180910390f35b6102e560048036038101906102e09190613ab6565b6109c9565b005b61030160048036038101906102fc9190613af2565b610ae1565b60405161030e9190614c0a565b60405180910390f35b610331600480360381019061032c9190613c7a565b610dbf565b005b61033b610f8c565b6040516103489190614c0a565b60405180910390f35b61036b60048036038101906103669190613bbc565b610f99565b005b610387600480360381019061038291906139b0565b61109f565b005b6103a3600480360381019061039e919061394b565b6110ff565b6040516103b09190614846565b60405180910390f35b6103c161111f565b6040516103ce9190614c0a565b60405180910390f35b6103f160048036038101906103ec9190613bfd565b611125565b6040516103fe9190614c0a565b60405180910390f35b610421600480360381019061041c9190613c7a565b61113d565b005b61043d60048036038101906104389190613ab6565b6111e5565b60405161044a9190614c0a565b60405180910390f35b61046d600480360381019061046891906139b0565b61128a565b005b61048960048036038101906104849190613bfd565b6112aa565b6040516104969190614c0a565b60405180910390f35b6104b960048036038101906104b49190613c26565b611341565b005b6104d560048036038101906104d09190613bfd565b6113fc565b6040516104e291906147bd565b60405180910390f35b61050560048036038101906105009190613bfd565b6114ae565b6040516105129190614861565b60405180910390f35b6105356004803603810190610530919061394b565b6114c6565b6040516105429190614c0a565b60405180910390f35b61056560048036038101906105609190613c26565b61157e565b005b610581600480360381019061057c9190613c26565b61169f565b005b61059d6004803603810190610598919061394b565b6117c0565b005b6105b960048036038101906105b4919061394b565b6118a7565b005b6105d560048036038101906105d09190613bfd565b61198e565b005b6105f160048036038101906105ec9190613bfd565b611a6f565b60405161060396959493929190614c25565b60405180910390f35b610614611b3b565b604051610621919061487c565b60405180910390f35b610644600480360381019061063f9190613bfd565b611bcd565b604051610651919061487c565b60405180910390f35b610674600480360381019061066f9190613a7a565b611c75565b005b610690600480360381019061068b9190613bfd565b611df6565b60405161069f9392919061489e565b60405180910390f35b6106c260048036038101906106bd919061394b565b611fe5565b6040516106cf9190614846565b60405180910390f35b6106f260048036038101906106ed9190613c26565b612005565b005b61070e600480360381019061070991906139ff565b612126565b005b61072a60048036038101906107259190613bfd565b612188565b005b61074660048036038101906107419190613bfd565b612269565b005b610762600480360381019061075d9190613bfd565b61238d565b60405161076f919061487c565b60405180910390f35b610792600480360381019061078d9190613b41565b612434565b60405161079f9190614c0a565b60405180910390f35b6107c260048036038101906107bd9190613bfd565b61244c565b6040516107cf9190614824565b60405180910390f35b6107f260048036038101906107ed9190613974565b6124b7565b6040516107ff9190614846565b60405180910390f35b610822600480360381019061081d9190613bfd565b61254b565b60405161082f9190614c0a565b60405180910390f35b60007f780e9d63000000000000000000000000000000000000000000000000000000007bffffffffffffffffffffffffffffffffffffffffffffffffffffffff1916827bffffffffffffffffffffffffffffffffffffffffffffffffffffffff191614806108ab57506108aa82612563565b5b9050919050565b6060600080546108c190614f68565b80601f01602080910402602001604051908101604052809291908181526020018280546108ed90614f68565b801561093a5780601f1061090f5761010080835404028352916020019161093a565b820191906000526020600020905b81548152906001019060200180831161091d57829003601f168201915b5050505050905090565b600061094f82612645565b61098e576040517f08c379a000000000000000000000000000000000000000000000000000000000815260040161098590614aca565b60405180910390fd5b6004600083815260200190815260200160002060009054906101000a900473ffffffffffffffffffffffffffffffffffffffff169050919050565b60006109d4826113fc565b90508073ffffffffffffffffffffffffffffffffffffffff168373ffffffffffffffffffffffffffffffffffffffff161415610a45576040517f08c379a0000000000000000000000000000000000000000000000000000000008152600401610a3c90614b2a565b60405180910390fd5b8073ffffffffffffffffffffffffffffffffffffffff16610a646126b1565b73ffffffffffffffffffffffffffffffffffffffff161480610a935750610a9281610a8d6126b1565b6124b7565b5b610ad2576040517f08c379a0000000000000000000000000000000000000000000000000000000008152600401610ac990614a4a565b60405180910390fd5b610adc83836126b9565b505050565b6000601160003373ffffffffffffffffffffffffffffffffffffffff1673ffffffffffffffffffffffffffffffffffffffff16815260200190815260200160002060009054906101000a900460ff1680610b845750600c60003373ffffffffffffffffffffffffffffffffffffffff1673ffffffffffffffffffffffffffffffffffffffff16815260200190815260200160002060009054906101000a900460ff165b610bc3576040517f08c379a0000000000000000000000000000000000000000000000000000000008152600401610bba90614bea565b60405180910390fd5b600a6000848152602001908152602001600020600401546001600a600086815260200190815260200160002060030154610bfd9190614d93565b1115610c3e576040517f08c379a0000000000000000000000000000000000000000000000000000000008152600401610c3590614b6a565b60405180910390fd5b600a600084815260200190815260200160002060060160009054906101000a900460ff1680610cb65750600c60008373ffffffffffffffffffffffffffffffffffffffff1673ffffffffffffffffffffffffffffffffffffffff16815260200190815260200160002060009054906101000a900460ff165b610cf5576040517f08c379a0000000000000000000000000000000000000000000000000000000008152600401610cec90614bca565b60405180910390fd5b600a600084815260200190815260200160002060060160029054906101000a900460ff1680610d6d5750600c60008373ffffffffffffffffffffffffffffffffffffffff1673ffffffffffffffffffffffffffffffffffffffff16815260200190815260200160002060009054906101000a900460ff165b610dac576040517f08c379a0000000000000000000000000000000000000000000000000000000008152600401610da390614a2a565b60405180910390fd5b610db68484612772565b90509392505050565b600c60003373ffffffffffffffffffffffffffffffffffffffff1673ffffffffffffffffffffffffffffffffffffffff16815260200190815260200160002060009054906101000a900460ff16610e4b576040517f08c379a0000000000000000000000000000000000000000000000000000000008152600401610e42906149ca565b60405180910390fd5b600a600083815260200190815260200160002060060160019054906101000a900460ff161580610e905750600a60008381526020019081526020016000206004015481105b610ecf576040517f08c379a0000000000000000000000000000000000000000000000000000000008152600401610ec6906148ea565b60405180910390fd5b600a6000838152602001908152602001600020600301548111610f27576040517f08c379a0000000000000000000000000000000000000000000000000000000008152600401610f1e9061490a565b60405180910390fd5b620f4240811115610f6d576040517f08c379a0000000000000000000000000000000000000000000000000000000008152600401610f6490614b4a565b60405180910390fd5b80600a6000848152602001908152602001600020600401819055505050565b6000600880549050905090565b600c60003373ffffffffffffffffffffffffffffffffffffffff1673ffffffffffffffffffffffffffffffffffffffff16815260200190815260200160002060009054906101000a900460ff16611025576040517f08c379a000000000000000000000000000000000000000000000000000000000815260040161101c906149ca565b60405180910390fd5b6000601254905081600a6000838152602001908152602001600020600001908051906020019061105692919061375a565b506001600a600083815260200190815260200160002060060160026101000a81548160ff02191690831515021790555060016012546110959190614d93565b6012819055505050565b6110b06110aa6126b1565b82612914565b6110ef576040517f08c379a00000000000000000000000000000000000000000000000000000000081526004016110e690614b8a565b60405180910390fd5b6110fa8383836129f2565b505050565b600c6020528060005260406000206000915054906101000a900460ff1681565b60125481565b600b6020528060005260406000206000915090505481565b600c60003373ffffffffffffffffffffffffffffffffffffffff1673ffffffffffffffffffffffffffffffffffffffff16815260200190815260200160002060009054906101000a900460ff166111c9576040517f08c379a00000000000000000000000000000000000000000000000000000000081526004016111c0906149ca565b60405180910390fd5b80600b6000848152602001908152602001600020819055505050565b60006111f0836114c6565b8210611231576040517f08c379a00000000000000000000000000000000000000000000000000000000081526004016112289061492a565b60405180910390fd5b600660008473ffffffffffffffffffffffffffffffffffffffff1673ffffffffffffffffffffffffffffffffffffffff168152602001908152602001600020600083815260200190815260200160002054905092915050565b6112a583838360405180602001604052806000815250612126565b505050565b60006112b4610f8c565b82106112f5576040517f08c379a00000000000000000000000000000000000000000000000000000000081526004016112ec90614baa565b60405180910390fd5b6008828154811061132f577f4e487b7100000000000000000000000000000000000000000000000000000000600052603260045260246000fd5b90600052602060002001549050919050565b600c60003373ffffffffffffffffffffffffffffffffffffffff1673ffffffffffffffffffffffffffffffffffffffff16815260200190815260200160002060009054906101000a900460ff166113cd576040517f08c379a00000000000000000000000000000000000000000000000000000000081526004016113c4906149ca565b60405180910390fd5b80600a600084815260200190815260200160002060010190805190602001906113f792919061375a565b505050565b6000806002600084815260200190815260200160002060009054906101000a900473ffffffffffffffffffffffffffffffffffffffff169050600073ffffffffffffffffffffffffffffffffffffffff168173ffffffffffffffffffffffffffffffffffffffff1614156114a5576040517f08c379a000000000000000000000000000000000000000000000000000000000815260040161149c90614a8a565b60405180910390fd5b80915050919050565b600f6020528060005260406000206000915090505481565b60008073ffffffffffffffffffffffffffffffffffffffff168273ffffffffffffffffffffffffffffffffffffffff161415611537576040517f08c379a000000000000000000000000000000000000000000000000000000000815260040161152e90614a6a565b60405180910390fd5b600360008373ffffffffffffffffffffffffffffffffffffffff1673ffffffffffffffffffffffffffffffffffffffff168152602001908152602001600020549050919050565b600c60003373ffffffffffffffffffffffffffffffffffffffff1673ffffffffffffffffffffffffffffffffffffffff16815260200190815260200160002060009054906101000a900460ff1661160a576040517f08c379a0000000000000000000000000000000000000000000000000000000008152600401611601906149ca565b60405180910390fd5b81600a600082815260200190815260200160002060060160019054906101000a900460ff161561166f576040517f08c379a000000000000000000000000000000000000000000000000000000000815260040161166690614a0a565b60405180910390fd5b81600a6000858152602001908152602001600020600001908051906020019061169992919061375a565b50505050565b81600a600082815260200190815260200160002060060160019054906101000a900460ff1615611704576040517f08c379a00000000000000000000000000000000000000000000000000000000081526004016116fb90614a0a565b60405180910390fd5b600c60003373ffffffffffffffffffffffffffffffffffffffff1673ffffffffffffffffffffffffffffffffffffffff16815260200190815260200160002060009054906101000a900460ff16611790576040517f08c379a0000000000000000000000000000000000000000000000000000000008152600401611787906149ca565b60405180910390fd5b81600a600085815260200190815260200160002060020190805190602001906117ba92919061375a565b50505050565b600c60003373ffffffffffffffffffffffffffffffffffffffff1673ffffffffffffffffffffffffffffffffffffffff16815260200190815260200160002060009054906101000a900460ff1661184c576040517f08c379a0000000000000000000000000000000000000000000000000000000008152600401611843906149ca565b60405180910390fd5b6000601160008373ffffffffffffffffffffffffffffffffffffffff1673ffffffffffffffffffffffffffffffffffffffff16815260200190815260200160002060006101000a81548160ff02191690831515021790555050565b600c60003373ffffffffffffffffffffffffffffffffffffffff1673ffffffffffffffffffffffffffffffffffffffff16815260200190815260200160002060009054906101000a900460ff16611933576040517f08c379a000000000000000000000000000000000000000000000000000000000815260040161192a906149ca565b60405180910390fd5b6001601160008373ffffffffffffffffffffffffffffffffffffffff1673ffffffffffffffffffffffffffffffffffffffff16815260200190815260200160002060006101000a81548160ff02191690831515021790555050565b600c60003373ffffffffffffffffffffffffffffffffffffffff1673ffffffffffffffffffffffffffffffffffffffff16815260200190815260200160002060009054906101000a900460ff16611a1a576040517f08c379a0000000000000000000000000000000000000000000000000000000008152600401611a11906149ca565b60405180910390fd5b600a600082815260200190815260200160002060060160009054906101000a900460ff1615600a600083815260200190815260200160002060060160006101000a81548160ff02191690831515021790555050565b600080600080600080600b6000888152602001908152602001600020549550600a6000888152602001908152602001600020600301549450600a6000888152602001908152602001600020600401549350600a600088815260200190815260200160002060060160009054906101000a900460ff169250600a600088815260200190815260200160002060060160019054906101000a900460ff169150600a600088815260200190815260200160002060060160029054906101000a900460ff16905091939550919395565b606060018054611b4a90614f68565b80601f0160208091040260200160405190810160405280929190818152602001828054611b7690614f68565b8015611bc35780601f10611b9857610100808354040283529160200191611bc3565b820191906000526020600020905b815481529060010190602001808311611ba657829003601f168201915b5050505050905090565b6060600a60008381526020019081526020016000206005018054611bf090614f68565b80601f0160208091040260200160405190810160405280929190818152602001828054611c1c90614f68565b8015611c695780601f10611c3e57610100808354040283529160200191611c69565b820191906000526020600020905b815481529060010190602001808311611c4c57829003601f168201915b50505050509050919050565b611c7d6126b1565b73ffffffffffffffffffffffffffffffffffffffff168273ffffffffffffffffffffffffffffffffffffffff161415611ceb576040517f08c379a0000000000000000000000000000000000000000000000000000000008152600401611ce2906149aa565b60405180910390fd5b8060056000611cf86126b1565b73ffffffffffffffffffffffffffffffffffffffff1673ffffffffffffffffffffffffffffffffffffffff16815260200190815260200160002060008473ffffffffffffffffffffffffffffffffffffffff1673ffffffffffffffffffffffffffffffffffffffff16815260200190815260200160002060006101000a81548160ff0219169083151502179055508173ffffffffffffffffffffffffffffffffffffffff16611da56126b1565b73ffffffffffffffffffffffffffffffffffffffff167f17307eab39ab6107e8899845ad3d59bd9653f200f220920489ca2b5937696c3183604051611dea9190614846565b60405180910390a35050565b6060806060600a60008581526020019081526020016000206000018054611e1c90614f68565b80601f0160208091040260200160405190810160405280929190818152602001828054611e4890614f68565b8015611e955780601f10611e6a57610100808354040283529160200191611e95565b820191906000526020600020905b815481529060010190602001808311611e7857829003601f168201915b50505050509250600a60008581526020019081526020016000206001018054611ebd90614f68565b80601f0160208091040260200160405190810160405280929190818152602001828054611ee990614f68565b8015611f365780601f10611f0b57610100808354040283529160200191611f36565b820191906000526020600020905b815481529060010190602001808311611f1957829003601f168201915b50505050509150600a60008581526020019081526020016000206002018054611f5e90614f68565b80601f0160208091040260200160405190810160405280929190818152602001828054611f8a90614f68565b8015611fd75780601f10611fac57610100808354040283529160200191611fd7565b820191906000526020600020905b815481529060010190602001808311611fba57829003601f168201915b505050505090509193909250565b60116020528060005260406000206000915054906101000a900460ff1681565b81600a600082815260200190815260200160002060060160019054906101000a900460ff161561206a576040517f08c379a000000000000000000000000000000000000000000000000000000000815260040161206190614a0a565b60405180910390fd5b600c60003373ffffffffffffffffffffffffffffffffffffffff1673ffffffffffffffffffffffffffffffffffffffff16815260200190815260200160002060009054906101000a900460ff166120f6576040517f08c379a00000000000000000000000000000000000000000000000000000000081526004016120ed906149ca565b60405180910390fd5b81600a6000858152602001908152602001600020600501908051906020019061212092919061375a565b50505050565b6121376121316126b1565b83612914565b612176576040517f08c379a000000000000000000000000000000000000000000000000000000000815260040161216d90614b8a565b60405180910390fd5b61218284848484612c4e565b50505050565b600c60003373ffffffffffffffffffffffffffffffffffffffff1673ffffffffffffffffffffffffffffffffffffffff16815260200190815260200160002060009054906101000a900460ff16612214576040517f08c379a000000000000000000000000000000000000000000000000000000000815260040161220b906149ca565b60405180910390fd5b600a600082815260200190815260200160002060060160029054906101000a900460ff1615600a600083815260200190815260200160002060060160026101000a81548160ff02191690831515021790555050565b600c60003373ffffffffffffffffffffffffffffffffffffffff1673ffffffffffffffffffffffffffffffffffffffff16815260200190815260200160002060009054906101000a900460ff166122f5576040517f08c379a00000000000000000000000000000000000000000000000000000000081526004016122ec906149ca565b60405180910390fd5b80600a600082815260200190815260200160002060060160019054906101000a900460ff161561235a576040517f08c379a000000000000000000000000000000000000000000000000000000000815260040161235190614a0a565b60405180910390fd5b6001600a600084815260200190815260200160002060060160016101000a81548160ff0219169083151502179055505050565b606061239882612645565b6123d7576040517f08c379a00000000000000000000000000000000000000000000000000000000081526004016123ce90614b0a565b60405180910390fd5b60006123e1612caa565b90506000815111612401576040518060200160405280600081525061242c565b8061240b84612cc1565b60405160200161241c92919061474b565b6040516020818303038152906040525b915050919050565b60106020528060005260406000206000915090505481565b6060600e60008381526020019081526020016000208054806020026020016040519081016040528092919081815260200182805480156124ab57602002820191906000526020600020905b815481526020019060010190808311612497575b50505050509050919050565b6000600560008473ffffffffffffffffffffffffffffffffffffffff1673ffffffffffffffffffffffffffffffffffffffff16815260200190815260200160002060008373ffffffffffffffffffffffffffffffffffffffff1673ffffffffffffffffffffffffffffffffffffffff16815260200190815260200160002060009054906101000a900460ff16905092915050565b600d6020528060005260406000206000915090505481565b60007f80ac58cd000000000000000000000000000000000000000000000000000000007bffffffffffffffffffffffffffffffffffffffffffffffffffffffff1916827bffffffffffffffffffffffffffffffffffffffffffffffffffffffff1916148061262e57507f5b5e139f000000000000000000000000000000000000000000000000000000007bffffffffffffffffffffffffffffffffffffffffffffffffffffffff1916827bffffffffffffffffffffffffffffffffffffffffffffffffffffffff1916145b8061263e575061263d82612e6e565b5b9050919050565b60008073ffffffffffffffffffffffffffffffffffffffff166002600084815260200190815260200160002060009054906101000a900473ffffffffffffffffffffffffffffffffffffffff1673ffffffffffffffffffffffffffffffffffffffff1614159050919050565b600033905090565b816004600083815260200190815260200160002060006101000a81548173ffffffffffffffffffffffffffffffffffffffff021916908373ffffffffffffffffffffffffffffffffffffffff160217905550808273ffffffffffffffffffffffffffffffffffffffff1661272c836113fc565b73ffffffffffffffffffffffffffffffffffffffff167f8c5be1e5ebec7d5bd14f71427d1e84f3dd0314c0f7b2291e5b200ac8c7c3b92560405160405180910390a45050565b600080600a600084815260200190815260200160002060030154620f42408461279b9190614e1a565b6127a59190614d93565b90506001600a6000858152602001908152602001600020600301546127ca9190614d93565b600a6000858152602001908152602001600020600301819055506000600a6000858152602001908152602001600020600301544360014361280b9190614e74565b4033604051602001612820949392919061476f565b60405160208183030381529060405280519060200120905080600f6000848152602001908152602001600020819055508160106000838152602001908152602001600020819055506128728583612ed8565b83600d600084815260200190815260200160002081905550600e600085815260200190815260200160002082908060018154018082558091505060019003906000526020600020016000909190919091505583828673ffffffffffffffffffffffffffffffffffffffff167f4c209b5fc8ad50758f13e2e1088ba56a560dff690a1c6fef26394f4c03821c4f60405160405180910390a4819250505092915050565b600061291f82612645565b61295e576040517f08c379a0000000000000000000000000000000000000000000000000000000008152600401612955906149ea565b60405180910390fd5b6000612969836113fc565b90508073ffffffffffffffffffffffffffffffffffffffff168473ffffffffffffffffffffffffffffffffffffffff1614806129d857508373ffffffffffffffffffffffffffffffffffffffff166129c084610944565b73ffffffffffffffffffffffffffffffffffffffff16145b806129e957506129e881856124b7565b5b91505092915050565b8273ffffffffffffffffffffffffffffffffffffffff16612a12826113fc565b73ffffffffffffffffffffffffffffffffffffffff1614612a68576040517f08c379a0000000000000000000000000000000000000000000000000000000008152600401612a5f90614aea565b60405180910390fd5b600073ffffffffffffffffffffffffffffffffffffffff168273ffffffffffffffffffffffffffffffffffffffff161415612ad8576040517f08c379a0000000000000000000000000000000000000000000000000000000008152600401612acf9061498a565b60405180910390fd5b612ae3838383612ef6565b612aee6000826126b9565b6001600360008573ffffffffffffffffffffffffffffffffffffffff1673ffffffffffffffffffffffffffffffffffffffff1681526020019081526020016000206000828254612b3e9190614e74565b925050819055506001600360008473ffffffffffffffffffffffffffffffffffffffff1673ffffffffffffffffffffffffffffffffffffffff1681526020019081526020016000206000828254612b959190614d93565b92505081905550816002600083815260200190815260200160002060006101000a81548173ffffffffffffffffffffffffffffffffffffffff021916908373ffffffffffffffffffffffffffffffffffffffff160217905550808273ffffffffffffffffffffffffffffffffffffffff168473ffffffffffffffffffffffffffffffffffffffff167fddf252ad1be2c89b69c2b068fc378daa952ba7f163c4a11628f55a4df523b3ef60405160405180910390a4505050565b612c598484846129f2565b612c658484848461300a565b612ca4576040517f08c379a0000000000000000000000000000000000000000000000000000000008152600401612c9b9061494a565b60405180910390fd5b50505050565b606060405180602001604052806000815250905090565b60606000821415612d09576040518060400160405280600181526020017f30000000000000000000000000000000000000000000000000000000000000008152509050612e69565b600082905060005b60008214612d3b578080612d2490614f9a565b915050600a82612d349190614de9565b9150612d11565b60008167ffffffffffffffff811115612d7d577f4e487b7100000000000000000000000000000000000000000000000000000000600052604160045260246000fd5b6040519080825280601f01601f191660200182016040528015612daf5781602001600182028036833780820191505090505b5090505b60008514612e6257600182612dc89190614e74565b9150600a85612dd7919061501b565b6030612de39190614d93565b60f81b818381518110612e1f577f4e487b7100000000000000000000000000000000000000000000000000000000600052603260045260246000fd5b60200101907effffffffffffffffffffffffffffffffffffffffffffffffffffffffffffff1916908160001a905350600a85612e5b9190614de9565b9450612db3565b8093505050505b919050565b60007f01ffc9a7000000000000000000000000000000000000000000000000000000007bffffffffffffffffffffffffffffffffffffffffffffffffffffffff1916827bffffffffffffffffffffffffffffffffffffffffffffffffffffffff1916149050919050565b612ef28282604051806020016040528060008152506131a1565b5050565b612f018383836131fc565b600073ffffffffffffffffffffffffffffffffffffffff168373ffffffffffffffffffffffffffffffffffffffff161415612f4457612f3f81613201565b612f83565b8173ffffffffffffffffffffffffffffffffffffffff168373ffffffffffffffffffffffffffffffffffffffff1614612f8257612f81838261324a565b5b5b600073ffffffffffffffffffffffffffffffffffffffff168273ffffffffffffffffffffffffffffffffffffffff161415612fc657612fc1816133b7565b613005565b8273ffffffffffffffffffffffffffffffffffffffff168273ffffffffffffffffffffffffffffffffffffffff16146130045761300382826134fa565b5b5b505050565b600061302b8473ffffffffffffffffffffffffffffffffffffffff16613579565b15613194578373ffffffffffffffffffffffffffffffffffffffff1663150b7a026130546126b1565b8786866040518563ffffffff1660e01b815260040161307694939291906147d8565b602060405180830381600087803b15801561309057600080fd5b505af19250505080156130c157506040513d601f19601f820116820180604052508101906130be9190613b93565b60015b613144573d80600081146130f1576040519150601f19603f3d011682016040523d82523d6000602084013e6130f6565b606091505b5060008151141561313c576040517f08c379a00000000000000000000000000000000000000000000000000000000081526004016131339061494a565b60405180910390fd5b805181602001fd5b63150b7a0260e01b7bffffffffffffffffffffffffffffffffffffffffffffffffffffffff1916817bffffffffffffffffffffffffffffffffffffffffffffffffffffffff191614915050613199565b600190505b949350505050565b6131ab838361358c565b6131b8600084848461300a565b6131f7576040517f08c379a00000000000000000000000000000000000000000000000000000000081526004016131ee9061494a565b60405180910390fd5b505050565b505050565b6008805490506009600083815260200190815260200160002081905550600881908060018154018082558091505060019003906000526020600020016000909190919091505550565b60006001613257846114c6565b6132619190614e74565b9050600060076000848152602001908152602001600020549050818114613346576000600660008673ffffffffffffffffffffffffffffffffffffffff1673ffffffffffffffffffffffffffffffffffffffff168152602001908152602001600020600084815260200190815260200160002054905080600660008773ffffffffffffffffffffffffffffffffffffffff1673ffffffffffffffffffffffffffffffffffffffff168152602001908152602001600020600084815260200190815260200160002081905550816007600083815260200190815260200160002081905550505b6007600084815260200190815260200160002060009055600660008573ffffffffffffffffffffffffffffffffffffffff1673ffffffffffffffffffffffffffffffffffffffff16815260200190815260200160002060008381526020019081526020016000206000905550505050565b600060016008805490506133cb9190614e74565b9050600060096000848152602001908152602001600020549050600060088381548110613421577f4e487b7100000000000000000000000000000000000000000000000000000000600052603260045260246000fd5b906000526020600020015490508060088381548110613469577f4e487b7100000000000000000000000000000000000000000000000000000000600052603260045260246000fd5b9060005260206000200181905550816009600083815260200190815260200160002081905550600960008581526020019081526020016000206000905560088054806134de577f4e487b7100000000000000000000000000000000000000000000000000000000600052603160045260246000fd5b6001900381819060005260206000200160009055905550505050565b6000613505836114c6565b905081600660008573ffffffffffffffffffffffffffffffffffffffff1673ffffffffffffffffffffffffffffffffffffffff168152602001908152602001600020600083815260200190815260200160002081905550806007600084815260200190815260200160002081905550505050565b600080823b905060008111915050919050565b600073ffffffffffffffffffffffffffffffffffffffff168273ffffffffffffffffffffffffffffffffffffffff1614156135fc576040517f08c379a00000000000000000000000000000000000000000000000000000000081526004016135f390614aaa565b60405180910390fd5b61360581612645565b15613645576040517f08c379a000000000000000000000000000000000000000000000000000000000815260040161363c9061496a565b60405180910390fd5b61365160008383612ef6565b6001600360008473ffffffffffffffffffffffffffffffffffffffff1673ffffffffffffffffffffffffffffffffffffffff16815260200190815260200160002060008282546136a19190614d93565b92505081905550816002600083815260200190815260200160002060006101000a81548173ffffffffffffffffffffffffffffffffffffffff021916908373ffffffffffffffffffffffffffffffffffffffff160217905550808273ffffffffffffffffffffffffffffffffffffffff16600073ffffffffffffffffffffffffffffffffffffffff167fddf252ad1be2c89b69c2b068fc378daa952ba7f163c4a11628f55a4df523b3ef60405160405180910390a45050565b82805461376690614f68565b90600052602060002090601f01602090048101928261378857600085556137cf565b82601f106137a157805160ff19168380011785556137cf565b828001600101855582156137cf579182015b828111156137ce5782518255916020019190600101906137b3565b5b5090506137dc91906137e0565b5090565b5b808211156137f95760008160009055506001016137e1565b5090565b600061381061380b84614cb7565b614c86565b90508281526020810184848401111561382857600080fd5b613833848285614f26565b509392505050565b600061384e61384984614ce7565b614c86565b90508281526020810184848401111561386657600080fd5b613871848285614f26565b509392505050565b60008135905061388881615126565b92915050565b60008135905061389d8161513d565b92915050565b6000813590506138b281615154565b92915050565b6000813590506138c78161516b565b92915050565b6000815190506138dc8161516b565b92915050565b600082601f8301126138f357600080fd5b81356139038482602086016137fd565b91505092915050565b600082601f83011261391d57600080fd5b813561392d84826020860161383b565b91505092915050565b60008135905061394581615182565b92915050565b60006020828403121561395d57600080fd5b600061396b84828501613879565b91505092915050565b6000806040838503121561398757600080fd5b600061399585828601613879565b92505060206139a685828601613879565b9150509250929050565b6000806000606084860312156139c557600080fd5b60006139d386828701613879565b93505060206139e486828701613879565b92505060406139f586828701613936565b9150509250925092565b60008060008060808587031215613a1557600080fd5b6000613a2387828801613879565b9450506020613a3487828801613879565b9350506040613a4587828801613936565b925050606085013567ffffffffffffffff811115613a6257600080fd5b613a6e878288016138e2565b91505092959194509250565b60008060408385031215613a8d57600080fd5b6000613a9b85828601613879565b9250506020613aac8582860161388e565b9150509250929050565b60008060408385031215613ac957600080fd5b6000613ad785828601613879565b9250506020613ae885828601613936565b9150509250929050565b600080600060608486031215613b0757600080fd5b6000613b1586828701613879565b9350506020613b2686828701613936565b9250506040613b3786828701613879565b9150509250925092565b600060208284031215613b5357600080fd5b6000613b61848285016138a3565b91505092915050565b600060208284031215613b7c57600080fd5b6000613b8a848285016138b8565b91505092915050565b600060208284031215613ba557600080fd5b6000613bb3848285016138cd565b91505092915050565b600060208284031215613bce57600080fd5b600082013567ffffffffffffffff811115613be857600080fd5b613bf48482850161390c565b91505092915050565b600060208284031215613c0f57600080fd5b6000613c1d84828501613936565b91505092915050565b60008060408385031215613c3957600080fd5b6000613c4785828601613936565b925050602083013567ffffffffffffffff811115613c6457600080fd5b613c708582860161390c565b9150509250929050565b60008060408385031215613c8d57600080fd5b6000613c9b85828601613936565b9250506020613cac85828601613936565b9150509250929050565b6000613cc28383614716565b60208301905092915050565b613cd781614ea8565b82525050565b613cee613ce982614ea8565b614fe3565b82525050565b6000613cff82614d27565b613d098185614d55565b9350613d1483614d17565b8060005b83811015613d45578151613d2c8882613cb6565b9750613d3783614d48565b925050600181019050613d18565b5085935050505092915050565b613d5b81614eba565b82525050565b613d6a81614ec6565b82525050565b613d81613d7c82614ec6565b614ff5565b82525050565b6000613d9282614d32565b613d9c8185614d66565b9350613dac818560208601614f35565b613db581615108565b840191505092915050565b6000613dcb82614d3d565b613dd58185614d77565b9350613de5818560208601614f35565b613dee81615108565b840191505092915050565b6000613e0482614d3d565b613e0e8185614d88565b9350613e1e818560208601614f35565b80840191505092915050565b6000613e37603183614d77565b91507f43616e206f6e6c7920696e637265617365206d6178207072696e74732069662060008301527f706965636520697320756e6c6f636b65640000000000000000000000000000006020830152604082019050919050565b6000613e9d602b83614d77565b91507f4d6178207072696e7473206d757374206265206d6f7265207468616e2063757260008301527f72656e74207072696e74730000000000000000000000000000000000000000006020830152604082019050919050565b6000613f03602b83614d77565b91507f455243373231456e756d657261626c653a206f776e657220696e646578206f7560008301527f74206f6620626f756e64730000000000000000000000000000000000000000006020830152604082019050919050565b6000613f69603283614d77565b91507f4552433732313a207472616e7366657220746f206e6f6e20455243373231526560008301527f63656976657220696d706c656d656e74657200000000000000000000000000006020830152604082019050919050565b6000613fcf601c83614d77565b91507f4552433732313a20746f6b656e20616c7265616479206d696e746564000000006000830152602082019050919050565b600061400f602483614d77565b91507f4552433732313a207472616e7366657220746f20746865207a65726f2061646460008301527f72657373000000000000000000000000000000000000000000000000000000006020830152604082019050919050565b6000614075601983614d77565b91507f4552433732313a20617070726f766520746f2063616c6c6572000000000000006000830152602082019050919050565b60006140b5600a83614d77565b91507f4f6e6c792061646d696e000000000000000000000000000000000000000000006000830152602082019050919050565b60006140f5602c83614d77565b91507f4552433732313a206f70657261746f7220717565727920666f72206e6f6e657860008301527f697374656e7420746f6b656e00000000000000000000000000000000000000006020830152604082019050919050565b600061415b601083614d77565b91507f4f6e6c7920696620756e6c6f636b6564000000000000000000000000000000006000830152602082019050919050565b600061419b602a83614d77565b91507f50757263686173696e67207072696e7473206f6620746869732070696563652060008301527f61726520706175736564000000000000000000000000000000000000000000006020830152604082019050919050565b6000614201603883614d77565b91507f4552433732313a20617070726f76652063616c6c6572206973206e6f74206f7760008301527f6e6572206e6f7220617070726f76656420666f7220616c6c00000000000000006020830152604082019050919050565b6000614267602a83614d77565b91507f4552433732313a2062616c616e636520717565727920666f7220746865207a6560008301527f726f2061646472657373000000000000000000000000000000000000000000006020830152604082019050919050565b60006142cd602983614d77565b91507f4552433732313a206f776e657220717565727920666f72206e6f6e657869737460008301527f656e7420746f6b656e00000000000000000000000000000000000000000000006020830152604082019050919050565b6000614333602083614d77565b91507f4552433732313a206d696e7420746f20746865207a65726f20616464726573736000830152602082019050919050565b6000614373602c83614d77565b91507f4552433732313a20617070726f76656420717565727920666f72206e6f6e657860008301527f697374656e7420746f6b656e00000000000000000000000000000000000000006020830152604082019050919050565b60006143d9602983614d77565b91507f4552433732313a207472616e73666572206f6620746f6b656e2074686174206960008301527f73206e6f74206f776e00000000000000000000000000000000000000000000006020830152604082019050919050565b600061443f602f83614d77565b91507f4552433732314d657461646174613a2055524920717565727920666f72206e6f60008301527f6e6578697374656e7420746f6b656e00000000000000000000000000000000006020830152604082019050919050565b60006144a5602183614d77565b91507f4552433732313a20617070726f76616c20746f2063757272656e74206f776e6560008301527f72000000000000000000000000000000000000000000000000000000000000006020830152604082019050919050565b600061450b602283614d77565b91507f4d6178207072696e74732063616e6e6f74206578636565642031206d696c6c6960008301527f6f6e0000000000000000000000000000000000000000000000000000000000006020830152604082019050919050565b6000614571601f83614d77565b91507f4d757374206e6f7420657863656564206d617820696e766f636174696f6e73006000830152602082019050919050565b60006145b1603183614d77565b91507f4552433732313a207472616e736665722063616c6c6572206973206e6f74206f60008301527f776e6572206e6f7220617070726f7665640000000000000000000000000000006020830152604082019050919050565b6000614617602c83614d77565b91507f455243373231456e756d657261626c653a20676c6f62616c20696e646578206f60008301527f7574206f6620626f756e647300000000000000000000000000000000000000006020830152604082019050919050565b600061467d601e83614d77565b91507f5069656365206d75737420657869737420616e642062652061637469766500006000830152602082019050919050565b60006146bd602583614d77565b91507f4d7573742062652077686974656c697374656420746f206d696e74206469726560008301527f63746c792e0000000000000000000000000000000000000000000000000000006020830152604082019050919050565b61471f81614f1c565b82525050565b61472e81614f1c565b82525050565b61474561474082614f1c565b615011565b82525050565b60006147578285613df9565b91506147638284613df9565b91508190509392505050565b600061477b8287614734565b60208201915061478b8286614734565b60208201915061479b8285613d70565b6020820191506147ab8284613cdd565b60148201915081905095945050505050565b60006020820190506147d26000830184613cce565b92915050565b60006080820190506147ed6000830187613cce565b6147fa6020830186613cce565b6148076040830185614725565b81810360608301526148198184613d87565b905095945050505050565b6000602082019050818103600083015261483e8184613cf4565b905092915050565b600060208201905061485b6000830184613d52565b92915050565b60006020820190506148766000830184613d61565b92915050565b600060208201905081810360008301526148968184613dc0565b905092915050565b600060608201905081810360008301526148b88186613dc0565b905081810360208301526148cc8185613dc0565b905081810360408301526148e08184613dc0565b9050949350505050565b6000602082019050818103600083015261490381613e2a565b9050919050565b6000602082019050818103600083015261492381613e90565b9050919050565b6000602082019050818103600083015261494381613ef6565b9050919050565b6000602082019050818103600083015261496381613f5c565b9050919050565b6000602082019050818103600083015261498381613fc2565b9050919050565b600060208201905081810360008301526149a381614002565b9050919050565b600060208201905081810360008301526149c381614068565b9050919050565b600060208201905081810360008301526149e3816140a8565b9050919050565b60006020820190508181036000830152614a03816140e8565b9050919050565b60006020820190508181036000830152614a238161414e565b9050919050565b60006020820190508181036000830152614a438161418e565b9050919050565b60006020820190508181036000830152614a63816141f4565b9050919050565b60006020820190508181036000830152614a838161425a565b9050919050565b60006020820190508181036000830152614aa3816142c0565b9050919050565b60006020820190508181036000830152614ac381614326565b9050919050565b60006020820190508181036000830152614ae381614366565b9050919050565b60006020820190508181036000830152614b03816143cc565b9050919050565b60006020820190508181036000830152614b2381614432565b9050919050565b60006020820190508181036000830152614b4381614498565b9050919050565b60006020820190508181036000830152614b63816144fe565b9050919050565b60006020820190508181036000830152614b8381614564565b9050919050565b60006020820190508181036000830152614ba3816145a4565b9050919050565b60006020820190508181036000830152614bc38161460a565b9050919050565b60006020820190508181036000830152614be381614670565b9050919050565b60006020820190508181036000830152614c03816146b0565b9050919050565b6000602082019050614c1f6000830184614725565b92915050565b600060c082019050614c3a6000830189614725565b614c476020830188614725565b614c546040830187614725565b614c616060830186613d52565b614c6e6080830185613d52565b614c7b60a0830184613d52565b979650505050505050565b6000604051905081810181811067ffffffffffffffff82111715614cad57614cac6150d9565b5b8060405250919050565b600067ffffffffffffffff821115614cd257614cd16150d9565b5b601f19601f8301169050602081019050919050565b600067ffffffffffffffff821115614d0257614d016150d9565b5b601f19601f8301169050602081019050919050565b6000819050602082019050919050565b600081519050919050565b600081519050919050565b600081519050919050565b6000602082019050919050565b600082825260208201905092915050565b600082825260208201905092915050565b600082825260208201905092915050565b600081905092915050565b6000614d9e82614f1c565b9150614da983614f1c565b9250827fffffffffffffffffffffffffffffffffffffffffffffffffffffffffffffffff03821115614dde57614ddd61504c565b5b828201905092915050565b6000614df482614f1c565b9150614dff83614f1c565b925082614e0f57614e0e61507b565b5b828204905092915050565b6000614e2582614f1c565b9150614e3083614f1c565b9250817fffffffffffffffffffffffffffffffffffffffffffffffffffffffffffffffff0483118215151615614e6957614e6861504c565b5b828202905092915050565b6000614e7f82614f1c565b9150614e8a83614f1c565b925082821015614e9d57614e9c61504c565b5b828203905092915050565b6000614eb382614efc565b9050919050565b60008115159050919050565b6000819050919050565b60007fffffffff0000000000000000000000000000000000000000000000000000000082169050919050565b600073ffffffffffffffffffffffffffffffffffffffff82169050919050565b6000819050919050565b82818337600083830152505050565b60005b83811015614f53578082015181840152602081019050614f38565b83811115614f62576000848401525b50505050565b60006002820490506001821680614f8057607f821691505b60208210811415614f9457614f936150aa565b5b50919050565b6000614fa582614f1c565b91507fffffffffffffffffffffffffffffffffffffffffffffffffffffffffffffffff821415614fd857614fd761504c565b5b600182019050919050565b6000614fee82614fff565b9050919050565b6000819050919050565b600061500a82615119565b9050919050565b6000819050919050565b600061502682614f1c565b915061503183614f1c565b9250826150415761504061507b565b5b828206905092915050565b7f4e487b7100000000000000000000000000000000000000000000000000000000600052601160045260246000fd5b7f4e487b7100000000000000000000000000000000000000000000000000000000600052601260045260246000fd5b7f4e487b7100000000000000000000000000000000000000000000000000000000600052602260045260246000fd5b7f4e487b7100000000000000000000000000000000000000000000000000000000600052604160045260246000fd5b6000601f19601f8301169050919050565b60008160601b9050919050565b61512f81614ea8565b811461513a57600080fd5b50565b61514681614eba565b811461515157600080fd5b50565b61515d81614ec6565b811461516857600080fd5b50565b61517481614ed0565b811461517f57600080fd5b50565b61518b81614f1c565b811461519657600080fd5b5056fea2646970667358221220976b778a7bff8707efd303fa4f1a830d72d38d6076669c6bebea99eb2144a91264736f6c63430008000033",
  "linkReferences": {},
  "deployedLinkReferences": {}
}