{
  "_format": "hh-sol-artifact-1",
  "contractName": "GenerativeArtworks",
  "sourceName": "contracts/GenerativeArtworks.sol",
  "abi": [
    {
      "inputs": [
        {
          "internalType": "string",
          "name": "tokenName",
          "type": "string"
        },
        {
          "internalType": "string",
          "name": "tokenSymbol",
          "type": "string"
        }
      ],
      "stateMutability": "nonpayable",
      "type": "constructor"
    },
    {
      "anonymous": false,
      "inputs": [
        {
          "indexed": true,
          "internalType": "address",
          "name": "owner",
          "type": "address"
        },
        {
          "indexed": true,
          "internalType": "address",
          "name": "approved",
          "type": "address"
        },
        {
          "indexed": true,
          "internalType": "uint256",
          "name": "tokenId",
          "type": "uint256"
        }
      ],
      "name": "Approval",
      "type": "event"
    },
    {
      "anonymous": false,
      "inputs": [
        {
          "indexed": true,
          "internalType": "address",
          "name": "owner",
          "type": "address"
        },
        {
          "indexed": true,
          "internalType": "address",
          "name": "operator",
          "type": "address"
        },
        {
          "indexed": false,
          "internalType": "bool",
          "name": "approved",
          "type": "bool"
        }
      ],
      "name": "ApprovalForAll",
      "type": "event"
    },
    {
      "anonymous": false,
      "inputs": [
        {
          "indexed": true,
          "internalType": "address",
          "name": "_to",
          "type": "address"
        },
        {
          "indexed": true,
          "internalType": "uint256",
          "name": "_printId",
          "type": "uint256"
        },
        {
          "indexed": true,
          "internalType": "uint256",
          "name": "_pieceId",
          "type": "uint256"
        }
      ],
      "name": "Mint",
      "type": "event"
    },
    {
      "anonymous": false,
      "inputs": [
        {
          "indexed": true,
          "internalType": "address",
          "name": "from",
          "type": "address"
        },
        {
          "indexed": true,
          "internalType": "address",
          "name": "to",
          "type": "address"
        },
        {
          "indexed": true,
          "internalType": "uint256",
          "name": "tokenId",
          "type": "uint256"
        }
      ],
      "name": "Transfer",
      "type": "event"
    },
    {
      "inputs": [
        {
          "internalType": "address",
          "name": "_address",
          "type": "address"
        }
      ],
      "name": "addMintWhitelisted",
      "outputs": [],
      "stateMutability": "nonpayable",
      "type": "function"
    },
    {
      "inputs": [
        {
          "internalType": "string",
          "name": "pieceName",
          "type": "string"
        }
      ],
      "name": "addPiece",
      "outputs": [],
      "stateMutability": "nonpayable",
      "type": "function"
    },
    {
      "inputs": [
        {
          "internalType": "address",
          "name": "to",
          "type": "address"
        },
        {
          "internalType": "uint256",
          "name": "tokenId",
          "type": "uint256"
        }
      ],
      "name": "approve",
      "outputs": [],
      "stateMutability": "nonpayable",
      "type": "function"
    },
    {
      "inputs": [
        {
          "internalType": "address",
          "name": "owner",
          "type": "address"
        }
      ],
      "name": "balanceOf",
      "outputs": [
        {
          "internalType": "uint256",
          "name": "",
          "type": "uint256"
        }
      ],
      "stateMutability": "view",
      "type": "function"
    },
    {
      "inputs": [
        {
          "internalType": "uint256",
          "name": "tokenId",
          "type": "uint256"
        }
      ],
      "name": "getApproved",
      "outputs": [
        {
          "internalType": "address",
          "name": "",
          "type": "address"
        }
      ],
      "stateMutability": "view",
      "type": "function"
    },
    {
      "inputs": [
        {
          "internalType": "bytes32",
          "name": "",
          "type": "bytes32"
        }
      ],
      "name": "hashToPrintId",
      "outputs": [
        {
          "internalType": "uint256",
          "name": "",
          "type": "uint256"
        }
      ],
      "stateMutability": "view",
      "type": "function"
    },
    {
      "inputs": [
        {
          "internalType": "address",
          "name": "",
          "type": "address"
        }
      ],
      "name": "isAdmin",
      "outputs": [
        {
          "internalType": "bool",
          "name": "",
          "type": "bool"
        }
      ],
      "stateMutability": "view",
      "type": "function"
    },
    {
      "inputs": [
        {
          "internalType": "address",
          "name": "owner",
          "type": "address"
        },
        {
          "internalType": "address",
          "name": "operator",
          "type": "address"
        }
      ],
      "name": "isApprovedForAll",
      "outputs": [
        {
          "internalType": "bool",
          "name": "",
          "type": "bool"
        }
      ],
      "stateMutability": "view",
      "type": "function"
    },
    {
      "inputs": [
        {
          "internalType": "address",
          "name": "",
          "type": "address"
        }
      ],
      "name": "isMintWhitelisted",
      "outputs": [
        {
          "internalType": "bool",
          "name": "",
          "type": "bool"
        }
      ],
      "stateMutability": "view",
      "type": "function"
    },
    {
      "inputs": [
        {
          "internalType": "uint256",
          "name": "pieceId",
          "type": "uint256"
        }
      ],
      "name": "lockPiece",
      "outputs": [],
      "stateMutability": "nonpayable",
      "type": "function"
    },
    {
      "inputs": [
        {
          "internalType": "address",
          "name": "to",
          "type": "address"
        },
        {
          "internalType": "uint256",
          "name": "pieceId",
          "type": "uint256"
        },
        {
          "internalType": "address",
          "name": "by",
          "type": "address"
        }
      ],
      "name": "mint",
      "outputs": [
        {
          "internalType": "uint256",
          "name": "",
          "type": "uint256"
        }
      ],
      "stateMutability": "nonpayable",
      "type": "function"
    },
    {
      "inputs": [],
      "name": "name",
      "outputs": [
        {
          "internalType": "string",
          "name": "",
          "type": "string"
        }
      ],
      "stateMutability": "view",
      "type": "function"
    },
    {
      "inputs": [],
      "name": "nextPieceId",
      "outputs": [
        {
          "internalType": "uint256",
          "name": "",
          "type": "uint256"
        }
      ],
      "stateMutability": "view",
      "type": "function"
    },
    {
      "inputs": [
        {
          "internalType": "uint256",
          "name": "tokenId",
          "type": "uint256"
        }
      ],
      "name": "ownerOf",
      "outputs": [
        {
          "internalType": "address",
          "name": "",
          "type": "address"
        }
      ],
      "stateMutability": "view",
      "type": "function"
    },
    {
      "inputs": [
        {
          "internalType": "uint256",
          "name": "pieceId",
          "type": "uint256"
        }
      ],
      "name": "pieceDetails",
      "outputs": [
        {
          "internalType": "string",
          "name": "pieceName_",
          "type": "string"
        },
        {
          "internalType": "string",
          "name": "description_",
          "type": "string"
        },
        {
          "internalType": "string",
          "name": "license_",
          "type": "string"
        }
      ],
      "stateMutability": "view",
      "type": "function"
    },
    {
      "inputs": [
        {
          "internalType": "uint256",
          "name": "",
          "type": "uint256"
        }
      ],
      "name": "pieceIdToPricePerPrintInWei",
      "outputs": [
        {
          "internalType": "uint256",
          "name": "",
          "type": "uint256"
        }
      ],
      "stateMutability": "view",
      "type": "function"
    },
    {
      "inputs": [
        {
          "internalType": "uint256",
          "name": "pieceId",
          "type": "uint256"
        }
      ],
      "name": "piecePrintInfo",
      "outputs": [
        {
          "internalType": "uint256",
          "name": "pricePerPrintInWei_",
          "type": "uint256"
        },
        {
          "internalType": "uint256",
          "name": "currentPrints_",
          "type": "uint256"
        },
        {
          "internalType": "uint256",
          "name": "maxPrints_",
          "type": "uint256"
        },
        {
          "internalType": "bool",
          "name": "active_",
          "type": "bool"
        },
        {
          "internalType": "bool",
          "name": "locked_",
          "type": "bool"
        },
        {
          "internalType": "bool",
          "name": "paused_",
          "type": "bool"
        }
      ],
      "stateMutability": "view",
      "type": "function"
    },
    {
      "inputs": [
        {
          "internalType": "uint256",
          "name": "pieceId",
          "type": "uint256"
        }
      ],
      "name": "pieceShowAllPrints",
      "outputs": [
        {
          "internalType": "uint256[]",
          "name": "",
          "type": "uint256[]"
        }
      ],
      "stateMutability": "view",
      "type": "function"
    },
    {
      "inputs": [
        {
          "internalType": "uint256",
          "name": "",
          "type": "uint256"
        }
      ],
      "name": "printIdToHash",
      "outputs": [
        {
          "internalType": "bytes32",
          "name": "",
          "type": "bytes32"
        }
      ],
      "stateMutability": "view",
      "type": "function"
    },
    {
      "inputs": [
        {
          "internalType": "uint256",
          "name": "",
          "type": "uint256"
        }
      ],
      "name": "printIdToPieceId",
      "outputs": [
        {
          "internalType": "uint256",
          "name": "",
          "type": "uint256"
        }
      ],
      "stateMutability": "view",
      "type": "function"
    },
    {
      "inputs": [
        {
          "internalType": "address",
          "name": "_address",
          "type": "address"
        }
      ],
      "name": "removeMintWhitelisted",
      "outputs": [],
      "stateMutability": "nonpayable",
      "type": "function"
    },
    {
      "inputs": [
        {
          "internalType": "address",
          "name": "from",
          "type": "address"
        },
        {
          "internalType": "address",
          "name": "to",
          "type": "address"
        },
        {
          "internalType": "uint256",
          "name": "tokenId",
          "type": "uint256"
        }
      ],
      "name": "safeTransferFrom",
      "outputs": [],
      "stateMutability": "nonpayable",
      "type": "function"
    },
    {
      "inputs": [
        {
          "internalType": "address",
          "name": "from",
          "type": "address"
        },
        {
          "internalType": "address",
          "name": "to",
          "type": "address"
        },
        {
          "internalType": "uint256",
          "name": "tokenId",
          "type": "uint256"
        },
        {
          "internalType": "bytes",
          "name": "_data",
          "type": "bytes"
        }
      ],
      "name": "safeTransferFrom",
      "outputs": [],
      "stateMutability": "nonpayable",
      "type": "function"
    },
    {
      "inputs": [
        {
          "internalType": "address",
          "name": "operator",
          "type": "address"
        },
        {
          "internalType": "bool",
          "name": "approved",
          "type": "bool"
        }
      ],
      "name": "setApprovalForAll",
      "outputs": [],
      "stateMutability": "nonpayable",
      "type": "function"
    },
    {
      "inputs": [
        {
          "internalType": "bytes4",
          "name": "interfaceId",
          "type": "bytes4"
        }
      ],
      "name": "supportsInterface",
      "outputs": [
        {
          "internalType": "bool",
          "name": "",
          "type": "bool"
        }
      ],
      "stateMutability": "view",
      "type": "function"
    },
    {
      "inputs": [],
      "name": "symbol",
      "outputs": [
        {
          "internalType": "string",
          "name": "",
          "type": "string"
        }
      ],
      "stateMutability": "view",
      "type": "function"
    },
    {
      "inputs": [
        {
          "internalType": "uint256",
          "name": "pieceId",
          "type": "uint256"
        }
      ],
      "name": "togglePieceIsActive",
      "outputs": [],
      "stateMutability": "nonpayable",
      "type": "function"
    },
    {
      "inputs": [
        {
          "internalType": "uint256",
          "name": "pieceId",
          "type": "uint256"
        }
      ],
      "name": "togglePieceIsPaused",
      "outputs": [],
      "stateMutability": "nonpayable",
      "type": "function"
    },
    {
      "inputs": [
        {
          "internalType": "uint256",
          "name": "index",
          "type": "uint256"
        }
      ],
      "name": "tokenByIndex",
      "outputs": [
        {
          "internalType": "uint256",
          "name": "",
          "type": "uint256"
        }
      ],
      "stateMutability": "view",
      "type": "function"
    },
    {
      "inputs": [
        {
          "internalType": "address",
          "name": "owner",
          "type": "address"
        },
        {
          "internalType": "uint256",
          "name": "index",
          "type": "uint256"
        }
      ],
      "name": "tokenOfOwnerByIndex",
      "outputs": [
        {
          "internalType": "uint256",
          "name": "",
          "type": "uint256"
        }
      ],
      "stateMutability": "view",
      "type": "function"
    },
    {
      "inputs": [
        {
          "internalType": "uint256",
          "name": "tokenId",
          "type": "uint256"
        }
      ],
      "name": "tokenURI",
      "outputs": [
        {
          "internalType": "string",
          "name": "",
          "type": "string"
        }
      ],
      "stateMutability": "view",
      "type": "function"
    },
    {
      "inputs": [],
      "name": "totalSupply",
      "outputs": [
        {
          "internalType": "uint256",
          "name": "",
          "type": "uint256"
        }
      ],
      "stateMutability": "view",
      "type": "function"
    },
    {
      "inputs": [
        {
          "internalType": "address",
          "name": "from",
          "type": "address"
        },
        {
          "internalType": "address",
          "name": "to",
          "type": "address"
        },
        {
          "internalType": "uint256",
          "name": "tokenId",
          "type": "uint256"
        }
      ],
      "name": "transferFrom",
      "outputs": [],
      "stateMutability": "nonpayable",
      "type": "function"
    },
    {
      "inputs": [
        {
          "internalType": "uint256",
          "name": "pieceId",
          "type": "uint256"
        },
        {
          "internalType": "string",
          "name": "pieceDescription",
          "type": "string"
        }
      ],
      "name": "updatePieceDescription",
      "outputs": [],
      "stateMutability": "nonpayable",
      "type": "function"
    },
    {
      "inputs": [
        {
          "internalType": "uint256",
          "name": "pieceId",
          "type": "uint256"
        },
        {
          "internalType": "string",
          "name": "pieceLicense",
          "type": "string"
        }
      ],
      "name": "updatePieceLicense",
      "outputs": [],
      "stateMutability": "nonpayable",
      "type": "function"
    },
    {
      "inputs": [
        {
          "internalType": "uint256",
          "name": "pieceId",
          "type": "uint256"
        },
        {
          "internalType": "uint256",
          "name": "maxPrints",
          "type": "uint256"
        }
      ],
      "name": "updatePieceMaxPrints",
      "outputs": [],
      "stateMutability": "nonpayable",
      "type": "function"
    },
    {
      "inputs": [
        {
          "internalType": "uint256",
          "name": "pieceId",
          "type": "uint256"
        },
        {
          "internalType": "string",
          "name": "pieceName",
          "type": "string"
        }
      ],
      "name": "updatePieceName",
      "outputs": [],
      "stateMutability": "nonpayable",
      "type": "function"
    },
    {
      "inputs": [
        {
          "internalType": "uint256",
          "name": "pieceId",
          "type": "uint256"
        },
        {
          "internalType": "uint256",
          "name": "pricePerPrintInWei",
          "type": "uint256"
        }
      ],
      "name": "updatePiecePricePerPrintInWei",
      "outputs": [],
      "stateMutability": "nonpayable",
      "type": "function"
    },
    {
      "inputs": [
        {
          "internalType": "uint256",
          "name": "pieceId",
          "type": "uint256"
        },
        {
          "internalType": "string",
          "name": "script",
          "type": "string"
        }
      ],
      "name": "updatePieceScript",
      "outputs": [],
      "stateMutability": "nonpayable",
      "type": "function"
    }
  ],
  "bytecode": "0x608060405260006012553480156200001657600080fd5b50604051620054943803806200549483398181016040528101906200003c9190620001f4565b8181816000908051906020019062000056929190620000d2565b5080600190805190602001906200006f929190620000d2565b5050506001600c60003373ffffffffffffffffffffffffffffffffffffffff1673ffffffffffffffffffffffffffffffffffffffff16815260200190815260200160002060006101000a81548160ff021916908315150217905550505062000398565b828054620000e09062000304565b90600052602060002090601f01602090048101928262000104576000855562000150565b82601f106200011f57805160ff191683800117855562000150565b8280016001018555821562000150579182015b828111156200014f57825182559160200191906001019062000132565b5b5090506200015f919062000163565b5090565b5b808211156200017e57600081600090555060010162000164565b5090565b60006200019962000193846200029b565b62000267565b905082815260208101848484011115620001b257600080fd5b620001bf848285620002ce565b509392505050565b600082601f830112620001d957600080fd5b8151620001eb84826020860162000182565b91505092915050565b600080604083850312156200020857600080fd5b600083015167ffffffffffffffff8111156200022357600080fd5b6200023185828601620001c7565b925050602083015167ffffffffffffffff8111156200024f57600080fd5b6200025d85828601620001c7565b9150509250929050565b6000604051905081810181811067ffffffffffffffff8211171562000291576200029062000369565b5b8060405250919050565b600067ffffffffffffffff821115620002b957620002b862000369565b5b601f19601f8301169050602081019050919050565b60005b83811015620002ee578082015181840152602081019050620002d1565b83811115620002fe576000848401525b50505050565b600060028204905060018216806200031d57607f821691505b602082108114156200033457620003336200033a565b5b50919050565b7f4e487b7100000000000000000000000000000000000000000000000000000000600052602260045260246000fd5b7f4e487b7100000000000000000000000000000000000000000000000000000000600052604160045260246000fd5b6150ec80620003a86000396000f3fe608060405234801561001057600080fd5b506004361061023d5760003560e01c806370a082311161013b578063ad0305ce116100b8578063c87b56dd1161007c578063c87b56dd1461070d578063c9991c2c1461073d578063e6ed84001461076d578063e985e9c51461079d578063eb3a86e3146107cd5761023d565b8063ad0305ce1461066d578063b7d76b7a1461069d578063b88d4fde146106b9578063bb98f6fd146106d5578063c6d2a7af146106f15761023d565b806395952e05116100ff57806395952e05146105b0578063959de076146105cc57806395d89b4114610601578063a22cb4651461061f578063a94887cd1461063b5761023d565b806370a0823114610510578063729acb09146105405780638447d42b1461055c578063867f1a3b146105785780638bddb0a6146105945761023d565b806324d7806c116101c957806342842e0e1161018d57806342842e0e146104485780634f6ccce7146104645780635604fccc146104945780636352211e146104b057806363e56aaa146104e05761023d565b806324d7806c1461037e5780632812a794146103ae5780632bf88d83146103cc5780632c0a8b38146103fc5780632f745c59146104185761023d565b80630d4d1513116102105780630d4d1513146102dc57806311f373d01461030c57806318160ddd14610328578063236d8e891461034657806323b872dd146103625761023d565b806301ffc9a71461024257806306fdde0314610272578063081812fc14610290578063095ea7b3146102c0575b600080fd5b61025c60048036038101906102579190613a87565b6107fd565b6040516102699190614763565b60405180910390f35b61027a610877565b6040516102879190614799565b60405180910390f35b6102aa60048036038101906102a59190613b1a565b610909565b6040516102b791906146da565b60405180910390f35b6102da60048036038101906102d591906139d3565b61098e565b005b6102f660048036038101906102f19190613a0f565b610aa6565b6040516103039190614b27565b60405180910390f35b61032660048036038101906103219190613b97565b610d84565b005b610330610f51565b60405161033d9190614b27565b60405180910390f35b610360600480360381019061035b9190613ad9565b610f5e565b005b61037c600480360381019061037791906138cd565b611064565b005b61039860048036038101906103939190613868565b6110c4565b6040516103a59190614763565b60405180910390f35b6103b66110e4565b6040516103c39190614b27565b60405180910390f35b6103e660048036038101906103e19190613b1a565b6110ea565b6040516103f39190614b27565b60405180910390f35b61041660048036038101906104119190613b97565b611102565b005b610432600480360381019061042d91906139d3565b6111aa565b60405161043f9190614b27565b60405180910390f35b610462600480360381019061045d91906138cd565b61124f565b005b61047e60048036038101906104799190613b1a565b61126f565b60405161048b9190614b27565b60405180910390f35b6104ae60048036038101906104a99190613b43565b611306565b005b6104ca60048036038101906104c59190613b1a565b6113c1565b6040516104d791906146da565b60405180910390f35b6104fa60048036038101906104f59190613b1a565b611473565b604051610507919061477e565b60405180910390f35b61052a60048036038101906105259190613868565b61148b565b6040516105379190614b27565b60405180910390f35b61055a60048036038101906105559190613b43565b611543565b005b61057660048036038101906105719190613b43565b611664565b005b610592600480360381019061058d9190613868565b611785565b005b6105ae60048036038101906105a99190613868565b61186c565b005b6105ca60048036038101906105c59190613b1a565b611953565b005b6105e660048036038101906105e19190613b1a565b611a34565b6040516105f896959493929190614b42565b60405180910390f35b610609611b00565b6040516106169190614799565b60405180910390f35b61063960048036038101906106349190613997565b611b92565b005b61065560048036038101906106509190613b1a565b611d13565b604051610664939291906147bb565b60405180910390f35b61068760048036038101906106829190613868565b611f02565b6040516106949190614763565b60405180910390f35b6106b760048036038101906106b29190613b43565b611f22565b005b6106d360048036038101906106ce919061391c565b612043565b005b6106ef60048036038101906106ea9190613b1a565b6120a5565b005b61070b60048036038101906107069190613b1a565b612186565b005b61072760048036038101906107229190613b1a565b6122aa565b6040516107349190614799565b60405180910390f35b61075760048036038101906107529190613a5e565b612351565b6040516107649190614b27565b60405180910390f35b61078760048036038101906107829190613b1a565b612369565b6040516107949190614741565b60405180910390f35b6107b760048036038101906107b29190613891565b6123d4565b6040516107c49190614763565b60405180910390f35b6107e760048036038101906107e29190613b1a565b612468565b6040516107f49190614b27565b60405180910390f35b60007f780e9d63000000000000000000000000000000000000000000000000000000007bffffffffffffffffffffffffffffffffffffffffffffffffffffffff1916827bffffffffffffffffffffffffffffffffffffffffffffffffffffffff19161480610870575061086f82612480565b5b9050919050565b60606000805461088690614e85565b80601f01602080910402602001604051908101604052809291908181526020018280546108b290614e85565b80156108ff5780601f106108d4576101008083540402835291602001916108ff565b820191906000526020600020905b8154815290600101906020018083116108e257829003601f168201915b5050505050905090565b600061091482612562565b610953576040517f08c379a000000000000000000000000000000000000000000000000000000000815260040161094a906149e7565b60405180910390fd5b6004600083815260200190815260200160002060009054906101000a900473ffffffffffffffffffffffffffffffffffffffff169050919050565b6000610999826113c1565b90508073ffffffffffffffffffffffffffffffffffffffff168373ffffffffffffffffffffffffffffffffffffffff161415610a0a576040517f08c379a0000000000000000000000000000000000000000000000000000000008152600401610a0190614a47565b60405180910390fd5b8073ffffffffffffffffffffffffffffffffffffffff16610a296125ce565b73ffffffffffffffffffffffffffffffffffffffff161480610a585750610a5781610a526125ce565b6123d4565b5b610a97576040517f08c379a0000000000000000000000000000000000000000000000000000000008152600401610a8e90614967565b60405180910390fd5b610aa183836125d6565b505050565b6000601160003373ffffffffffffffffffffffffffffffffffffffff1673ffffffffffffffffffffffffffffffffffffffff16815260200190815260200160002060009054906101000a900460ff1680610b495750600c60003373ffffffffffffffffffffffffffffffffffffffff1673ffffffffffffffffffffffffffffffffffffffff16815260200190815260200160002060009054906101000a900460ff165b610b88576040517f08c379a0000000000000000000000000000000000000000000000000000000008152600401610b7f90614b07565b60405180910390fd5b600a6000848152602001908152602001600020600401546001600a600086815260200190815260200160002060030154610bc29190614cb0565b1115610c03576040517f08c379a0000000000000000000000000000000000000000000000000000000008152600401610bfa90614a87565b60405180910390fd5b600a600084815260200190815260200160002060060160009054906101000a900460ff1680610c7b5750600c60008373ffffffffffffffffffffffffffffffffffffffff1673ffffffffffffffffffffffffffffffffffffffff16815260200190815260200160002060009054906101000a900460ff165b610cba576040517f08c379a0000000000000000000000000000000000000000000000000000000008152600401610cb190614ae7565b60405180910390fd5b600a600084815260200190815260200160002060060160029054906101000a900460ff1680610d325750600c60008373ffffffffffffffffffffffffffffffffffffffff1673ffffffffffffffffffffffffffffffffffffffff16815260200190815260200160002060009054906101000a900460ff165b610d71576040517f08c379a0000000000000000000000000000000000000000000000000000000008152600401610d6890614947565b60405180910390fd5b610d7b848461268f565b90509392505050565b600c60003373ffffffffffffffffffffffffffffffffffffffff1673ffffffffffffffffffffffffffffffffffffffff16815260200190815260200160002060009054906101000a900460ff16610e10576040517f08c379a0000000000000000000000000000000000000000000000000000000008152600401610e07906148e7565b60405180910390fd5b600a600083815260200190815260200160002060060160019054906101000a900460ff161580610e555750600a60008381526020019081526020016000206004015481105b610e94576040517f08c379a0000000000000000000000000000000000000000000000000000000008152600401610e8b90614807565b60405180910390fd5b600a6000838152602001908152602001600020600301548111610eec576040517f08c379a0000000000000000000000000000000000000000000000000000000008152600401610ee390614827565b60405180910390fd5b620f4240811115610f32576040517f08c379a0000000000000000000000000000000000000000000000000000000008152600401610f2990614a67565b60405180910390fd5b80600a6000848152602001908152602001600020600401819055505050565b6000600880549050905090565b600c60003373ffffffffffffffffffffffffffffffffffffffff1673ffffffffffffffffffffffffffffffffffffffff16815260200190815260200160002060009054906101000a900460ff16610fea576040517f08c379a0000000000000000000000000000000000000000000000000000000008152600401610fe1906148e7565b60405180910390fd5b6000601254905081600a6000838152602001908152602001600020600001908051906020019061101b929190613677565b506001600a600083815260200190815260200160002060060160026101000a81548160ff021916908315150217905550600160125461105a9190614cb0565b6012819055505050565b61107561106f6125ce565b82612831565b6110b4576040517f08c379a00000000000000000000000000000000000000000000000000000000081526004016110ab90614aa7565b60405180910390fd5b6110bf83838361290f565b505050565b600c6020528060005260406000206000915054906101000a900460ff1681565b60125481565b600b6020528060005260406000206000915090505481565b600c60003373ffffffffffffffffffffffffffffffffffffffff1673ffffffffffffffffffffffffffffffffffffffff16815260200190815260200160002060009054906101000a900460ff1661118e576040517f08c379a0000000000000000000000000000000000000000000000000000000008152600401611185906148e7565b60405180910390fd5b80600b6000848152602001908152602001600020819055505050565b60006111b58361148b565b82106111f6576040517f08c379a00000000000000000000000000000000000000000000000000000000081526004016111ed90614847565b60405180910390fd5b600660008473ffffffffffffffffffffffffffffffffffffffff1673ffffffffffffffffffffffffffffffffffffffff168152602001908152602001600020600083815260200190815260200160002054905092915050565b61126a83838360405180602001604052806000815250612043565b505050565b6000611279610f51565b82106112ba576040517f08c379a00000000000000000000000000000000000000000000000000000000081526004016112b190614ac7565b60405180910390fd5b600882815481106112f4577f4e487b7100000000000000000000000000000000000000000000000000000000600052603260045260246000fd5b90600052602060002001549050919050565b600c60003373ffffffffffffffffffffffffffffffffffffffff1673ffffffffffffffffffffffffffffffffffffffff16815260200190815260200160002060009054906101000a900460ff16611392576040517f08c379a0000000000000000000000000000000000000000000000000000000008152600401611389906148e7565b60405180910390fd5b80600a600084815260200190815260200160002060010190805190602001906113bc929190613677565b505050565b6000806002600084815260200190815260200160002060009054906101000a900473ffffffffffffffffffffffffffffffffffffffff169050600073ffffffffffffffffffffffffffffffffffffffff168173ffffffffffffffffffffffffffffffffffffffff16141561146a576040517f08c379a0000000000000000000000000000000000000000000000000000000008152600401611461906149a7565b60405180910390fd5b80915050919050565b600f6020528060005260406000206000915090505481565b60008073ffffffffffffffffffffffffffffffffffffffff168273ffffffffffffffffffffffffffffffffffffffff1614156114fc576040517f08c379a00000000000000000000000000000000000000000000000000000000081526004016114f390614987565b60405180910390fd5b600360008373ffffffffffffffffffffffffffffffffffffffff1673ffffffffffffffffffffffffffffffffffffffff168152602001908152602001600020549050919050565b600c60003373ffffffffffffffffffffffffffffffffffffffff1673ffffffffffffffffffffffffffffffffffffffff16815260200190815260200160002060009054906101000a900460ff166115cf576040517f08c379a00000000000000000000000000000000000000000000000000000000081526004016115c6906148e7565b60405180910390fd5b81600a600082815260200190815260200160002060060160019054906101000a900460ff1615611634576040517f08c379a000000000000000000000000000000000000000000000000000000000815260040161162b90614927565b60405180910390fd5b81600a6000858152602001908152602001600020600001908051906020019061165e929190613677565b50505050565b81600a600082815260200190815260200160002060060160019054906101000a900460ff16156116c9576040517f08c379a00000000000000000000000000000000000000000000000000000000081526004016116c090614927565b60405180910390fd5b600c60003373ffffffffffffffffffffffffffffffffffffffff1673ffffffffffffffffffffffffffffffffffffffff16815260200190815260200160002060009054906101000a900460ff16611755576040517f08c379a000000000000000000000000000000000000000000000000000000000815260040161174c906148e7565b60405180910390fd5b81600a6000858152602001908152602001600020600201908051906020019061177f929190613677565b50505050565b600c60003373ffffffffffffffffffffffffffffffffffffffff1673ffffffffffffffffffffffffffffffffffffffff16815260200190815260200160002060009054906101000a900460ff16611811576040517f08c379a0000000000000000000000000000000000000000000000000000000008152600401611808906148e7565b60405180910390fd5b6000601160008373ffffffffffffffffffffffffffffffffffffffff1673ffffffffffffffffffffffffffffffffffffffff16815260200190815260200160002060006101000a81548160ff02191690831515021790555050565b600c60003373ffffffffffffffffffffffffffffffffffffffff1673ffffffffffffffffffffffffffffffffffffffff16815260200190815260200160002060009054906101000a900460ff166118f8576040517f08c379a00000000000000000000000000000000000000000000000000000000081526004016118ef906148e7565b60405180910390fd5b6001601160008373ffffffffffffffffffffffffffffffffffffffff1673ffffffffffffffffffffffffffffffffffffffff16815260200190815260200160002060006101000a81548160ff02191690831515021790555050565b600c60003373ffffffffffffffffffffffffffffffffffffffff1673ffffffffffffffffffffffffffffffffffffffff16815260200190815260200160002060009054906101000a900460ff166119df576040517f08c379a00000000000000000000000000000000000000000000000000000000081526004016119d6906148e7565b60405180910390fd5b600a600082815260200190815260200160002060060160009054906101000a900460ff1615600a600083815260200190815260200160002060060160006101000a81548160ff02191690831515021790555050565b600080600080600080600b6000888152602001908152602001600020549550600a6000888152602001908152602001600020600301549450600a6000888152602001908152602001600020600401549350600a600088815260200190815260200160002060060160009054906101000a900460ff169250600a600088815260200190815260200160002060060160019054906101000a900460ff169150600a600088815260200190815260200160002060060160029054906101000a900460ff16905091939550919395565b606060018054611b0f90614e85565b80601f0160208091040260200160405190810160405280929190818152602001828054611b3b90614e85565b8015611b885780601f10611b5d57610100808354040283529160200191611b88565b820191906000526020600020905b815481529060010190602001808311611b6b57829003601f168201915b5050505050905090565b611b9a6125ce565b73ffffffffffffffffffffffffffffffffffffffff168273ffffffffffffffffffffffffffffffffffffffff161415611c08576040517f08c379a0000000000000000000000000000000000000000000000000000000008152600401611bff906148c7565b60405180910390fd5b8060056000611c156125ce565b73ffffffffffffffffffffffffffffffffffffffff1673ffffffffffffffffffffffffffffffffffffffff16815260200190815260200160002060008473ffffffffffffffffffffffffffffffffffffffff1673ffffffffffffffffffffffffffffffffffffffff16815260200190815260200160002060006101000a81548160ff0219169083151502179055508173ffffffffffffffffffffffffffffffffffffffff16611cc26125ce565b73ffffffffffffffffffffffffffffffffffffffff167f17307eab39ab6107e8899845ad3d59bd9653f200f220920489ca2b5937696c3183604051611d079190614763565b60405180910390a35050565b6060806060600a60008581526020019081526020016000206000018054611d3990614e85565b80601f0160208091040260200160405190810160405280929190818152602001828054611d6590614e85565b8015611db25780601f10611d8757610100808354040283529160200191611db2565b820191906000526020600020905b815481529060010190602001808311611d9557829003601f168201915b50505050509250600a60008581526020019081526020016000206001018054611dda90614e85565b80601f0160208091040260200160405190810160405280929190818152602001828054611e0690614e85565b8015611e535780601f10611e2857610100808354040283529160200191611e53565b820191906000526020600020905b815481529060010190602001808311611e3657829003601f168201915b50505050509150600a60008581526020019081526020016000206002018054611e7b90614e85565b80601f0160208091040260200160405190810160405280929190818152602001828054611ea790614e85565b8015611ef45780601f10611ec957610100808354040283529160200191611ef4565b820191906000526020600020905b815481529060010190602001808311611ed757829003601f168201915b505050505090509193909250565b60116020528060005260406000206000915054906101000a900460ff1681565b81600a600082815260200190815260200160002060060160019054906101000a900460ff1615611f87576040517f08c379a0000000000000000000000000000000000000000000000000000000008152600401611f7e90614927565b60405180910390fd5b600c60003373ffffffffffffffffffffffffffffffffffffffff1673ffffffffffffffffffffffffffffffffffffffff16815260200190815260200160002060009054906101000a900460ff16612013576040517f08c379a000000000000000000000000000000000000000000000000000000000815260040161200a906148e7565b60405180910390fd5b81600a6000858152602001908152602001600020600501908051906020019061203d929190613677565b50505050565b61205461204e6125ce565b83612831565b612093576040517f08c379a000000000000000000000000000000000000000000000000000000000815260040161208a90614aa7565b60405180910390fd5b61209f84848484612b6b565b50505050565b600c60003373ffffffffffffffffffffffffffffffffffffffff1673ffffffffffffffffffffffffffffffffffffffff16815260200190815260200160002060009054906101000a900460ff16612131576040517f08c379a0000000000000000000000000000000000000000000000000000000008152600401612128906148e7565b60405180910390fd5b600a600082815260200190815260200160002060060160029054906101000a900460ff1615600a600083815260200190815260200160002060060160026101000a81548160ff02191690831515021790555050565b600c60003373ffffffffffffffffffffffffffffffffffffffff1673ffffffffffffffffffffffffffffffffffffffff16815260200190815260200160002060009054906101000a900460ff16612212576040517f08c379a0000000000000000000000000000000000000000000000000000000008152600401612209906148e7565b60405180910390fd5b80600a600082815260200190815260200160002060060160019054906101000a900460ff1615612277576040517f08c379a000000000000000000000000000000000000000000000000000000000815260040161226e90614927565b60405180910390fd5b6001600a600084815260200190815260200160002060060160016101000a81548160ff0219169083151502179055505050565b60606122b582612562565b6122f4576040517f08c379a00000000000000000000000000000000000000000000000000000000081526004016122eb90614a27565b60405180910390fd5b60006122fe612bc7565b9050600081511161231e5760405180602001604052806000815250612349565b8061232884612bde565b604051602001612339929190614668565b6040516020818303038152906040525b915050919050565b60106020528060005260406000206000915090505481565b6060600e60008381526020019081526020016000208054806020026020016040519081016040528092919081815260200182805480156123c857602002820191906000526020600020905b8154815260200190600101908083116123b4575b50505050509050919050565b6000600560008473ffffffffffffffffffffffffffffffffffffffff1673ffffffffffffffffffffffffffffffffffffffff16815260200190815260200160002060008373ffffffffffffffffffffffffffffffffffffffff1673ffffffffffffffffffffffffffffffffffffffff16815260200190815260200160002060009054906101000a900460ff16905092915050565b600d6020528060005260406000206000915090505481565b60007f80ac58cd000000000000000000000000000000000000000000000000000000007bffffffffffffffffffffffffffffffffffffffffffffffffffffffff1916827bffffffffffffffffffffffffffffffffffffffffffffffffffffffff1916148061254b57507f5b5e139f000000000000000000000000000000000000000000000000000000007bffffffffffffffffffffffffffffffffffffffffffffffffffffffff1916827bffffffffffffffffffffffffffffffffffffffffffffffffffffffff1916145b8061255b575061255a82612d8b565b5b9050919050565b60008073ffffffffffffffffffffffffffffffffffffffff166002600084815260200190815260200160002060009054906101000a900473ffffffffffffffffffffffffffffffffffffffff1673ffffffffffffffffffffffffffffffffffffffff1614159050919050565b600033905090565b816004600083815260200190815260200160002060006101000a81548173ffffffffffffffffffffffffffffffffffffffff021916908373ffffffffffffffffffffffffffffffffffffffff160217905550808273ffffffffffffffffffffffffffffffffffffffff16612649836113c1565b73ffffffffffffffffffffffffffffffffffffffff167f8c5be1e5ebec7d5bd14f71427d1e84f3dd0314c0f7b2291e5b200ac8c7c3b92560405160405180910390a45050565b600080600a600084815260200190815260200160002060030154620f4240846126b89190614d37565b6126c29190614cb0565b90506001600a6000858152602001908152602001600020600301546126e79190614cb0565b600a6000858152602001908152602001600020600301819055506000600a600085815260200190815260200160002060030154436001436127289190614d91565b403360405160200161273d949392919061468c565b60405160208183030381529060405280519060200120905080600f60008481526020019081526020016000208190555081601060008381526020019081526020016000208190555061278f8583612df5565b83600d600084815260200190815260200160002081905550600e600085815260200190815260200160002082908060018154018082558091505060019003906000526020600020016000909190919091505583828673ffffffffffffffffffffffffffffffffffffffff167f4c209b5fc8ad50758f13e2e1088ba56a560dff690a1c6fef26394f4c03821c4f60405160405180910390a4819250505092915050565b600061283c82612562565b61287b576040517f08c379a000000000000000000000000000000000000000000000000000000000815260040161287290614907565b60405180910390fd5b6000612886836113c1565b90508073ffffffffffffffffffffffffffffffffffffffff168473ffffffffffffffffffffffffffffffffffffffff1614806128f557508373ffffffffffffffffffffffffffffffffffffffff166128dd84610909565b73ffffffffffffffffffffffffffffffffffffffff16145b80612906575061290581856123d4565b5b91505092915050565b8273ffffffffffffffffffffffffffffffffffffffff1661292f826113c1565b73ffffffffffffffffffffffffffffffffffffffff1614612985576040517f08c379a000000000000000000000000000000000000000000000000000000000815260040161297c90614a07565b60405180910390fd5b600073ffffffffffffffffffffffffffffffffffffffff168273ffffffffffffffffffffffffffffffffffffffff1614156129f5576040517f08c379a00000000000000000000000000000000000000000000000000000000081526004016129ec906148a7565b60405180910390fd5b612a00838383612e13565b612a0b6000826125d6565b6001600360008573ffffffffffffffffffffffffffffffffffffffff1673ffffffffffffffffffffffffffffffffffffffff1681526020019081526020016000206000828254612a5b9190614d91565b925050819055506001600360008473ffffffffffffffffffffffffffffffffffffffff1673ffffffffffffffffffffffffffffffffffffffff1681526020019081526020016000206000828254612ab29190614cb0565b92505081905550816002600083815260200190815260200160002060006101000a81548173ffffffffffffffffffffffffffffffffffffffff021916908373ffffffffffffffffffffffffffffffffffffffff160217905550808273ffffffffffffffffffffffffffffffffffffffff168473ffffffffffffffffffffffffffffffffffffffff167fddf252ad1be2c89b69c2b068fc378daa952ba7f163c4a11628f55a4df523b3ef60405160405180910390a4505050565b612b7684848461290f565b612b8284848484612f27565b612bc1576040517f08c379a0000000000000000000000000000000000000000000000000000000008152600401612bb890614867565b60405180910390fd5b50505050565b606060405180602001604052806000815250905090565b60606000821415612c26576040518060400160405280600181526020017f30000000000000000000000000000000000000000000000000000000000000008152509050612d86565b600082905060005b60008214612c58578080612c4190614eb7565b915050600a82612c519190614d06565b9150612c2e565b60008167ffffffffffffffff811115612c9a577f4e487b7100000000000000000000000000000000000000000000000000000000600052604160045260246000fd5b6040519080825280601f01601f191660200182016040528015612ccc5781602001600182028036833780820191505090505b5090505b60008514612d7f57600182612ce59190614d91565b9150600a85612cf49190614f38565b6030612d009190614cb0565b60f81b818381518110612d3c577f4e487b7100000000000000000000000000000000000000000000000000000000600052603260045260246000fd5b60200101907effffffffffffffffffffffffffffffffffffffffffffffffffffffffffffff1916908160001a905350600a85612d789190614d06565b9450612cd0565b8093505050505b919050565b60007f01ffc9a7000000000000000000000000000000000000000000000000000000007bffffffffffffffffffffffffffffffffffffffffffffffffffffffff1916827bffffffffffffffffffffffffffffffffffffffffffffffffffffffff1916149050919050565b612e0f8282604051806020016040528060008152506130be565b5050565b612e1e838383613119565b600073ffffffffffffffffffffffffffffffffffffffff168373ffffffffffffffffffffffffffffffffffffffff161415612e6157612e5c8161311e565b612ea0565b8173ffffffffffffffffffffffffffffffffffffffff168373ffffffffffffffffffffffffffffffffffffffff1614612e9f57612e9e8382613167565b5b5b600073ffffffffffffffffffffffffffffffffffffffff168273ffffffffffffffffffffffffffffffffffffffff161415612ee357612ede816132d4565b612f22565b8273ffffffffffffffffffffffffffffffffffffffff168273ffffffffffffffffffffffffffffffffffffffff1614612f2157612f208282613417565b5b5b505050565b6000612f488473ffffffffffffffffffffffffffffffffffffffff16613496565b156130b1578373ffffffffffffffffffffffffffffffffffffffff1663150b7a02612f716125ce565b8786866040518563ffffffff1660e01b8152600401612f9394939291906146f5565b602060405180830381600087803b158015612fad57600080fd5b505af1925050508015612fde57506040513d601f19601f82011682018060405250810190612fdb9190613ab0565b60015b613061573d806000811461300e576040519150601f19603f3d011682016040523d82523d6000602084013e613013565b606091505b50600081511415613059576040517f08c379a000000000000000000000000000000000000000000000000000000000815260040161305090614867565b60405180910390fd5b805181602001fd5b63150b7a0260e01b7bffffffffffffffffffffffffffffffffffffffffffffffffffffffff1916817bffffffffffffffffffffffffffffffffffffffffffffffffffffffff1916149150506130b6565b600190505b949350505050565b6130c883836134a9565b6130d56000848484612f27565b613114576040517f08c379a000000000000000000000000000000000000000000000000000000000815260040161310b90614867565b60405180910390fd5b505050565b505050565b6008805490506009600083815260200190815260200160002081905550600881908060018154018082558091505060019003906000526020600020016000909190919091505550565b600060016131748461148b565b61317e9190614d91565b9050600060076000848152602001908152602001600020549050818114613263576000600660008673ffffffffffffffffffffffffffffffffffffffff1673ffffffffffffffffffffffffffffffffffffffff168152602001908152602001600020600084815260200190815260200160002054905080600660008773ffffffffffffffffffffffffffffffffffffffff1673ffffffffffffffffffffffffffffffffffffffff168152602001908152602001600020600084815260200190815260200160002081905550816007600083815260200190815260200160002081905550505b6007600084815260200190815260200160002060009055600660008573ffffffffffffffffffffffffffffffffffffffff1673ffffffffffffffffffffffffffffffffffffffff16815260200190815260200160002060008381526020019081526020016000206000905550505050565b600060016008805490506132e89190614d91565b905060006009600084815260200190815260200160002054905060006008838154811061333e577f4e487b7100000000000000000000000000000000000000000000000000000000600052603260045260246000fd5b906000526020600020015490508060088381548110613386577f4e487b7100000000000000000000000000000000000000000000000000000000600052603260045260246000fd5b9060005260206000200181905550816009600083815260200190815260200160002081905550600960008581526020019081526020016000206000905560088054806133fb577f4e487b7100000000000000000000000000000000000000000000000000000000600052603160045260246000fd5b6001900381819060005260206000200160009055905550505050565b60006134228361148b565b905081600660008573ffffffffffffffffffffffffffffffffffffffff1673ffffffffffffffffffffffffffffffffffffffff168152602001908152602001600020600083815260200190815260200160002081905550806007600084815260200190815260200160002081905550505050565b600080823b905060008111915050919050565b600073ffffffffffffffffffffffffffffffffffffffff168273ffffffffffffffffffffffffffffffffffffffff161415613519576040517f08c379a0000000000000000000000000000000000000000000000000000000008152600401613510906149c7565b60405180910390fd5b61352281612562565b15613562576040517f08c379a000000000000000000000000000000000000000000000000000000000815260040161355990614887565b60405180910390fd5b61356e60008383612e13565b6001600360008473ffffffffffffffffffffffffffffffffffffffff1673ffffffffffffffffffffffffffffffffffffffff16815260200190815260200160002060008282546135be9190614cb0565b92505081905550816002600083815260200190815260200160002060006101000a81548173ffffffffffffffffffffffffffffffffffffffff021916908373ffffffffffffffffffffffffffffffffffffffff160217905550808273ffffffffffffffffffffffffffffffffffffffff16600073ffffffffffffffffffffffffffffffffffffffff167fddf252ad1be2c89b69c2b068fc378daa952ba7f163c4a11628f55a4df523b3ef60405160405180910390a45050565b82805461368390614e85565b90600052602060002090601f0160209004810192826136a557600085556136ec565b82601f106136be57805160ff19168380011785556136ec565b828001600101855582156136ec579182015b828111156136eb5782518255916020019190600101906136d0565b5b5090506136f991906136fd565b5090565b5b808211156137165760008160009055506001016136fe565b5090565b600061372d61372884614bd4565b614ba3565b90508281526020810184848401111561374557600080fd5b613750848285614e43565b509392505050565b600061376b61376684614c04565b614ba3565b90508281526020810184848401111561378357600080fd5b61378e848285614e43565b509392505050565b6000813590506137a581615043565b92915050565b6000813590506137ba8161505a565b92915050565b6000813590506137cf81615071565b92915050565b6000813590506137e481615088565b92915050565b6000815190506137f981615088565b92915050565b600082601f83011261381057600080fd5b813561382084826020860161371a565b91505092915050565b600082601f83011261383a57600080fd5b813561384a848260208601613758565b91505092915050565b6000813590506138628161509f565b92915050565b60006020828403121561387a57600080fd5b600061388884828501613796565b91505092915050565b600080604083850312156138a457600080fd5b60006138b285828601613796565b92505060206138c385828601613796565b9150509250929050565b6000806000606084860312156138e257600080fd5b60006138f086828701613796565b935050602061390186828701613796565b925050604061391286828701613853565b9150509250925092565b6000806000806080858703121561393257600080fd5b600061394087828801613796565b945050602061395187828801613796565b935050604061396287828801613853565b925050606085013567ffffffffffffffff81111561397f57600080fd5b61398b878288016137ff565b91505092959194509250565b600080604083850312156139aa57600080fd5b60006139b885828601613796565b92505060206139c9858286016137ab565b9150509250929050565b600080604083850312156139e657600080fd5b60006139f485828601613796565b9250506020613a0585828601613853565b9150509250929050565b600080600060608486031215613a2457600080fd5b6000613a3286828701613796565b9350506020613a4386828701613853565b9250506040613a5486828701613796565b9150509250925092565b600060208284031215613a7057600080fd5b6000613a7e848285016137c0565b91505092915050565b600060208284031215613a9957600080fd5b6000613aa7848285016137d5565b91505092915050565b600060208284031215613ac257600080fd5b6000613ad0848285016137ea565b91505092915050565b600060208284031215613aeb57600080fd5b600082013567ffffffffffffffff811115613b0557600080fd5b613b1184828501613829565b91505092915050565b600060208284031215613b2c57600080fd5b6000613b3a84828501613853565b91505092915050565b60008060408385031215613b5657600080fd5b6000613b6485828601613853565b925050602083013567ffffffffffffffff811115613b8157600080fd5b613b8d85828601613829565b9150509250929050565b60008060408385031215613baa57600080fd5b6000613bb885828601613853565b9250506020613bc985828601613853565b9150509250929050565b6000613bdf8383614633565b60208301905092915050565b613bf481614dc5565b82525050565b613c0b613c0682614dc5565b614f00565b82525050565b6000613c1c82614c44565b613c268185614c72565b9350613c3183614c34565b8060005b83811015613c62578151613c498882613bd3565b9750613c5483614c65565b925050600181019050613c35565b5085935050505092915050565b613c7881614dd7565b82525050565b613c8781614de3565b82525050565b613c9e613c9982614de3565b614f12565b82525050565b6000613caf82614c4f565b613cb98185614c83565b9350613cc9818560208601614e52565b613cd281615025565b840191505092915050565b6000613ce882614c5a565b613cf28185614c94565b9350613d02818560208601614e52565b613d0b81615025565b840191505092915050565b6000613d2182614c5a565b613d2b8185614ca5565b9350613d3b818560208601614e52565b80840191505092915050565b6000613d54603183614c94565b91507f43616e206f6e6c7920696e637265617365206d6178207072696e74732069662060008301527f706965636520697320756e6c6f636b65640000000000000000000000000000006020830152604082019050919050565b6000613dba602b83614c94565b91507f4d6178207072696e7473206d757374206265206d6f7265207468616e2063757260008301527f72656e74207072696e74730000000000000000000000000000000000000000006020830152604082019050919050565b6000613e20602b83614c94565b91507f455243373231456e756d657261626c653a206f776e657220696e646578206f7560008301527f74206f6620626f756e64730000000000000000000000000000000000000000006020830152604082019050919050565b6000613e86603283614c94565b91507f4552433732313a207472616e7366657220746f206e6f6e20455243373231526560008301527f63656976657220696d706c656d656e74657200000000000000000000000000006020830152604082019050919050565b6000613eec601c83614c94565b91507f4552433732313a20746f6b656e20616c7265616479206d696e746564000000006000830152602082019050919050565b6000613f2c602483614c94565b91507f4552433732313a207472616e7366657220746f20746865207a65726f2061646460008301527f72657373000000000000000000000000000000000000000000000000000000006020830152604082019050919050565b6000613f92601983614c94565b91507f4552433732313a20617070726f766520746f2063616c6c6572000000000000006000830152602082019050919050565b6000613fd2600a83614c94565b91507f4f6e6c792061646d696e000000000000000000000000000000000000000000006000830152602082019050919050565b6000614012602c83614c94565b91507f4552433732313a206f70657261746f7220717565727920666f72206e6f6e657860008301527f697374656e7420746f6b656e00000000000000000000000000000000000000006020830152604082019050919050565b6000614078601083614c94565b91507f4f6e6c7920696620756e6c6f636b6564000000000000000000000000000000006000830152602082019050919050565b60006140b8602a83614c94565b91507f50757263686173696e67207072696e7473206f6620746869732070696563652060008301527f61726520706175736564000000000000000000000000000000000000000000006020830152604082019050919050565b600061411e603883614c94565b91507f4552433732313a20617070726f76652063616c6c6572206973206e6f74206f7760008301527f6e6572206e6f7220617070726f76656420666f7220616c6c00000000000000006020830152604082019050919050565b6000614184602a83614c94565b91507f4552433732313a2062616c616e636520717565727920666f7220746865207a6560008301527f726f2061646472657373000000000000000000000000000000000000000000006020830152604082019050919050565b60006141ea602983614c94565b91507f4552433732313a206f776e657220717565727920666f72206e6f6e657869737460008301527f656e7420746f6b656e00000000000000000000000000000000000000000000006020830152604082019050919050565b6000614250602083614c94565b91507f4552433732313a206d696e7420746f20746865207a65726f20616464726573736000830152602082019050919050565b6000614290602c83614c94565b91507f4552433732313a20617070726f76656420717565727920666f72206e6f6e657860008301527f697374656e7420746f6b656e00000000000000000000000000000000000000006020830152604082019050919050565b60006142f6602983614c94565b91507f4552433732313a207472616e73666572206f6620746f6b656e2074686174206960008301527f73206e6f74206f776e00000000000000000000000000000000000000000000006020830152604082019050919050565b600061435c602f83614c94565b91507f4552433732314d657461646174613a2055524920717565727920666f72206e6f60008301527f6e6578697374656e7420746f6b656e00000000000000000000000000000000006020830152604082019050919050565b60006143c2602183614c94565b91507f4552433732313a20617070726f76616c20746f2063757272656e74206f776e6560008301527f72000000000000000000000000000000000000000000000000000000000000006020830152604082019050919050565b6000614428602283614c94565b91507f4d6178207072696e74732063616e6e6f74206578636565642031206d696c6c6960008301527f6f6e0000000000000000000000000000000000000000000000000000000000006020830152604082019050919050565b600061448e601f83614c94565b91507f4d757374206e6f7420657863656564206d617820696e766f636174696f6e73006000830152602082019050919050565b60006144ce603183614c94565b91507f4552433732313a207472616e736665722063616c6c6572206973206e6f74206f60008301527f776e6572206e6f7220617070726f7665640000000000000000000000000000006020830152604082019050919050565b6000614534602c83614c94565b91507f455243373231456e756d657261626c653a20676c6f62616c20696e646578206f60008301527f7574206f6620626f756e647300000000000000000000000000000000000000006020830152604082019050919050565b600061459a601e83614c94565b91507f5069656365206d75737420657869737420616e642062652061637469766500006000830152602082019050919050565b60006145da602583614c94565b91507f4d7573742062652077686974656c697374656420746f206d696e74206469726560008301527f63746c792e0000000000000000000000000000000000000000000000000000006020830152604082019050919050565b61463c81614e39565b82525050565b61464b81614e39565b82525050565b61466261465d82614e39565b614f2e565b82525050565b60006146748285613d16565b91506146808284613d16565b91508190509392505050565b60006146988287614651565b6020820191506146a88286614651565b6020820191506146b88285613c8d565b6020820191506146c88284613bfa565b60148201915081905095945050505050565b60006020820190506146ef6000830184613beb565b92915050565b600060808201905061470a6000830187613beb565b6147176020830186613beb565b6147246040830185614642565b81810360608301526147368184613ca4565b905095945050505050565b6000602082019050818103600083015261475b8184613c11565b905092915050565b60006020820190506147786000830184613c6f565b92915050565b60006020820190506147936000830184613c7e565b92915050565b600060208201905081810360008301526147b38184613cdd565b905092915050565b600060608201905081810360008301526147d58186613cdd565b905081810360208301526147e98185613cdd565b905081810360408301526147fd8184613cdd565b9050949350505050565b6000602082019050818103600083015261482081613d47565b9050919050565b6000602082019050818103600083015261484081613dad565b9050919050565b6000602082019050818103600083015261486081613e13565b9050919050565b6000602082019050818103600083015261488081613e79565b9050919050565b600060208201905081810360008301526148a081613edf565b9050919050565b600060208201905081810360008301526148c081613f1f565b9050919050565b600060208201905081810360008301526148e081613f85565b9050919050565b6000602082019050818103600083015261490081613fc5565b9050919050565b6000602082019050818103600083015261492081614005565b9050919050565b600060208201905081810360008301526149408161406b565b9050919050565b60006020820190508181036000830152614960816140ab565b9050919050565b6000602082019050818103600083015261498081614111565b9050919050565b600060208201905081810360008301526149a081614177565b9050919050565b600060208201905081810360008301526149c0816141dd565b9050919050565b600060208201905081810360008301526149e081614243565b9050919050565b60006020820190508181036000830152614a0081614283565b9050919050565b60006020820190508181036000830152614a20816142e9565b9050919050565b60006020820190508181036000830152614a408161434f565b9050919050565b60006020820190508181036000830152614a60816143b5565b9050919050565b60006020820190508181036000830152614a808161441b565b9050919050565b60006020820190508181036000830152614aa081614481565b9050919050565b60006020820190508181036000830152614ac0816144c1565b9050919050565b60006020820190508181036000830152614ae081614527565b9050919050565b60006020820190508181036000830152614b008161458d565b9050919050565b60006020820190508181036000830152614b20816145cd565b9050919050565b6000602082019050614b3c6000830184614642565b92915050565b600060c082019050614b576000830189614642565b614b646020830188614642565b614b716040830187614642565b614b7e6060830186613c6f565b614b8b6080830185613c6f565b614b9860a0830184613c6f565b979650505050505050565b6000604051905081810181811067ffffffffffffffff82111715614bca57614bc9614ff6565b5b8060405250919050565b600067ffffffffffffffff821115614bef57614bee614ff6565b5b601f19601f8301169050602081019050919050565b600067ffffffffffffffff821115614c1f57614c1e614ff6565b5b601f19601f8301169050602081019050919050565b6000819050602082019050919050565b600081519050919050565b600081519050919050565b600081519050919050565b6000602082019050919050565b600082825260208201905092915050565b600082825260208201905092915050565b600082825260208201905092915050565b600081905092915050565b6000614cbb82614e39565b9150614cc683614e39565b9250827fffffffffffffffffffffffffffffffffffffffffffffffffffffffffffffffff03821115614cfb57614cfa614f69565b5b828201905092915050565b6000614d1182614e39565b9150614d1c83614e39565b925082614d2c57614d2b614f98565b5b828204905092915050565b6000614d4282614e39565b9150614d4d83614e39565b9250817fffffffffffffffffffffffffffffffffffffffffffffffffffffffffffffffff0483118215151615614d8657614d85614f69565b5b828202905092915050565b6000614d9c82614e39565b9150614da783614e39565b925082821015614dba57614db9614f69565b5b828203905092915050565b6000614dd082614e19565b9050919050565b60008115159050919050565b6000819050919050565b60007fffffffff0000000000000000000000000000000000000000000000000000000082169050919050565b600073ffffffffffffffffffffffffffffffffffffffff82169050919050565b6000819050919050565b82818337600083830152505050565b60005b83811015614e70578082015181840152602081019050614e55565b83811115614e7f576000848401525b50505050565b60006002820490506001821680614e9d57607f821691505b60208210811415614eb157614eb0614fc7565b5b50919050565b6000614ec282614e39565b91507fffffffffffffffffffffffffffffffffffffffffffffffffffffffffffffffff821415614ef557614ef4614f69565b5b600182019050919050565b6000614f0b82614f1c565b9050919050565b6000819050919050565b6000614f2782615036565b9050919050565b6000819050919050565b6000614f4382614e39565b9150614f4e83614e39565b925082614f5e57614f5d614f98565b5b828206905092915050565b7f4e487b7100000000000000000000000000000000000000000000000000000000600052601160045260246000fd5b7f4e487b7100000000000000000000000000000000000000000000000000000000600052601260045260246000fd5b7f4e487b7100000000000000000000000000000000000000000000000000000000600052602260045260246000fd5b7f4e487b7100000000000000000000000000000000000000000000000000000000600052604160045260246000fd5b6000601f19601f8301169050919050565b60008160601b9050919050565b61504c81614dc5565b811461505757600080fd5b50565b61506381614dd7565b811461506e57600080fd5b50565b61507a81614de3565b811461508557600080fd5b50565b61509181614ded565b811461509c57600080fd5b50565b6150a881614e39565b81146150b357600080fd5b5056fea2646970667358221220117110e82961361f6f73199e242ad9cbd490065aba68cad586c48e28a3d5606a64736f6c63430008000033",
  "linkReferences": {},
  "deployedLinkReferences": {}
}