{
  "_format": "hh-sol-artifact-1",
  "contractName": "GenerativeArtworks",
  "sourceName": "contracts/GenerativeArtworks.sol",
  "abi": [
    {
      "inputs": [
        {
          "internalType": "string",
          "name": "tokenName",
          "type": "string"
        },
        {
          "internalType": "string",
          "name": "tokenSymbol",
          "type": "string"
        }
      ],
      "stateMutability": "nonpayable",
      "type": "constructor"
    },
    {
      "anonymous": false,
      "inputs": [
        {
          "indexed": true,
          "internalType": "address",
          "name": "owner",
          "type": "address"
        },
        {
          "indexed": true,
          "internalType": "address",
          "name": "approved",
          "type": "address"
        },
        {
          "indexed": true,
          "internalType": "uint256",
          "name": "tokenId",
          "type": "uint256"
        }
      ],
      "name": "Approval",
      "type": "event"
    },
    {
      "anonymous": false,
      "inputs": [
        {
          "indexed": true,
          "internalType": "address",
          "name": "owner",
          "type": "address"
        },
        {
          "indexed": true,
          "internalType": "address",
          "name": "operator",
          "type": "address"
        },
        {
          "indexed": false,
          "internalType": "bool",
          "name": "approved",
          "type": "bool"
        }
      ],
      "name": "ApprovalForAll",
      "type": "event"
    },
    {
      "anonymous": false,
      "inputs": [
        {
          "indexed": true,
          "internalType": "address",
          "name": "_to",
          "type": "address"
        },
        {
          "indexed": true,
          "internalType": "uint256",
          "name": "_printId",
          "type": "uint256"
        },
        {
          "indexed": true,
          "internalType": "uint256",
          "name": "_pieceId",
          "type": "uint256"
        }
      ],
      "name": "Mint",
      "type": "event"
    },
    {
      "anonymous": false,
      "inputs": [
        {
          "indexed": true,
          "internalType": "address",
          "name": "from",
          "type": "address"
        },
        {
          "indexed": true,
          "internalType": "address",
          "name": "to",
          "type": "address"
        },
        {
          "indexed": true,
          "internalType": "uint256",
          "name": "tokenId",
          "type": "uint256"
        }
      ],
      "name": "Transfer",
      "type": "event"
    },
    {
      "inputs": [
        {
          "internalType": "address",
          "name": "_address",
          "type": "address"
        }
      ],
      "name": "addMintWhitelisted",
      "outputs": [],
      "stateMutability": "nonpayable",
      "type": "function"
    },
    {
      "inputs": [
        {
          "internalType": "string",
          "name": "pieceName",
          "type": "string"
        }
      ],
      "name": "addPiece",
      "outputs": [],
      "stateMutability": "nonpayable",
      "type": "function"
    },
    {
      "inputs": [
        {
          "internalType": "address",
          "name": "to",
          "type": "address"
        },
        {
          "internalType": "uint256",
          "name": "tokenId",
          "type": "uint256"
        }
      ],
      "name": "approve",
      "outputs": [],
      "stateMutability": "nonpayable",
      "type": "function"
    },
    {
      "inputs": [
        {
          "internalType": "address",
          "name": "owner",
          "type": "address"
        }
      ],
      "name": "balanceOf",
      "outputs": [
        {
          "internalType": "uint256",
          "name": "",
          "type": "uint256"
        }
      ],
      "stateMutability": "view",
      "type": "function"
    },
    {
      "inputs": [
        {
          "internalType": "uint256",
          "name": "tokenId",
          "type": "uint256"
        }
      ],
      "name": "getApproved",
      "outputs": [
        {
          "internalType": "address",
          "name": "",
          "type": "address"
        }
      ],
      "stateMutability": "view",
      "type": "function"
    },
    {
      "inputs": [
        {
          "internalType": "bytes32",
          "name": "",
          "type": "bytes32"
        }
      ],
      "name": "hashToPrintId",
      "outputs": [
        {
          "internalType": "uint256",
          "name": "",
          "type": "uint256"
        }
      ],
      "stateMutability": "view",
      "type": "function"
    },
    {
      "inputs": [
        {
          "internalType": "address",
          "name": "",
          "type": "address"
        }
      ],
      "name": "isAdmin",
      "outputs": [
        {
          "internalType": "bool",
          "name": "",
          "type": "bool"
        }
      ],
      "stateMutability": "view",
      "type": "function"
    },
    {
      "inputs": [
        {
          "internalType": "address",
          "name": "owner",
          "type": "address"
        },
        {
          "internalType": "address",
          "name": "operator",
          "type": "address"
        }
      ],
      "name": "isApprovedForAll",
      "outputs": [
        {
          "internalType": "bool",
          "name": "",
          "type": "bool"
        }
      ],
      "stateMutability": "view",
      "type": "function"
    },
    {
      "inputs": [
        {
          "internalType": "address",
          "name": "",
          "type": "address"
        }
      ],
      "name": "isMintWhitelisted",
      "outputs": [
        {
          "internalType": "bool",
          "name": "",
          "type": "bool"
        }
      ],
      "stateMutability": "view",
      "type": "function"
    },
    {
      "inputs": [
        {
          "internalType": "uint256",
          "name": "pieceId",
          "type": "uint256"
        }
      ],
      "name": "lockPiece",
      "outputs": [],
      "stateMutability": "nonpayable",
      "type": "function"
    },
    {
      "inputs": [
        {
          "internalType": "address",
          "name": "to",
          "type": "address"
        },
        {
          "internalType": "uint256",
          "name": "pieceId",
          "type": "uint256"
        },
        {
          "internalType": "address",
          "name": "by",
          "type": "address"
        }
      ],
      "name": "mint",
      "outputs": [
        {
          "internalType": "uint256",
          "name": "",
          "type": "uint256"
        }
      ],
      "stateMutability": "nonpayable",
      "type": "function"
    },
    {
      "inputs": [],
      "name": "name",
      "outputs": [
        {
          "internalType": "string",
          "name": "",
          "type": "string"
        }
      ],
      "stateMutability": "view",
      "type": "function"
    },
    {
      "inputs": [],
      "name": "nextPieceId",
      "outputs": [
        {
          "internalType": "uint256",
          "name": "",
          "type": "uint256"
        }
      ],
      "stateMutability": "view",
      "type": "function"
    },
    {
      "inputs": [
        {
          "internalType": "uint256",
          "name": "tokenId",
          "type": "uint256"
        }
      ],
      "name": "ownerOf",
      "outputs": [
        {
          "internalType": "address",
          "name": "",
          "type": "address"
        }
      ],
      "stateMutability": "view",
      "type": "function"
    },
    {
      "inputs": [
        {
          "internalType": "uint256",
          "name": "pieceId",
          "type": "uint256"
        }
      ],
      "name": "pieceDetails",
      "outputs": [
        {
          "internalType": "string",
          "name": "pieceName_",
          "type": "string"
        },
        {
          "internalType": "string",
          "name": "description_",
          "type": "string"
        },
        {
          "internalType": "string",
          "name": "license_",
          "type": "string"
        },
        {
          "internalType": "uint256",
          "name": "pricePerPrintInWei_",
          "type": "uint256"
        },
        {
          "internalType": "uint256",
          "name": "currentPrints_",
          "type": "uint256"
        },
        {
          "internalType": "uint256",
          "name": "maxPrints_",
          "type": "uint256"
        },
        {
          "internalType": "bool",
          "name": "active_",
          "type": "bool"
        },
        {
          "internalType": "bool",
          "name": "paused_",
          "type": "bool"
        },
        {
          "internalType": "bool",
          "name": "locked_",
          "type": "bool"
        }
      ],
      "stateMutability": "view",
      "type": "function"
    },
    {
      "inputs": [
        {
          "internalType": "uint256",
          "name": "",
          "type": "uint256"
        }
      ],
      "name": "pieceIdToPricePerPrintInWei",
      "outputs": [
        {
          "internalType": "uint256",
          "name": "",
          "type": "uint256"
        }
      ],
      "stateMutability": "view",
      "type": "function"
    },
    {
      "inputs": [
        {
          "internalType": "uint256",
          "name": "pieceId",
          "type": "uint256"
        }
      ],
      "name": "pieceScript",
      "outputs": [
        {
          "internalType": "string",
          "name": "",
          "type": "string"
        }
      ],
      "stateMutability": "view",
      "type": "function"
    },
    {
      "inputs": [
        {
          "internalType": "uint256",
          "name": "pieceId",
          "type": "uint256"
        }
      ],
      "name": "pieceShowAllPrints",
      "outputs": [
        {
          "internalType": "uint256[]",
          "name": "",
          "type": "uint256[]"
        }
      ],
      "stateMutability": "view",
      "type": "function"
    },
    {
      "inputs": [
        {
          "internalType": "uint256",
          "name": "",
          "type": "uint256"
        }
      ],
      "name": "printIdToHash",
      "outputs": [
        {
          "internalType": "bytes32",
          "name": "",
          "type": "bytes32"
        }
      ],
      "stateMutability": "view",
      "type": "function"
    },
    {
      "inputs": [
        {
          "internalType": "uint256",
          "name": "",
          "type": "uint256"
        }
      ],
      "name": "printIdToPieceId",
      "outputs": [
        {
          "internalType": "uint256",
          "name": "",
          "type": "uint256"
        }
      ],
      "stateMutability": "view",
      "type": "function"
    },
    {
      "inputs": [
        {
          "internalType": "address",
          "name": "_address",
          "type": "address"
        }
      ],
      "name": "removeMintWhitelisted",
      "outputs": [],
      "stateMutability": "nonpayable",
      "type": "function"
    },
    {
      "inputs": [
        {
          "internalType": "address",
          "name": "from",
          "type": "address"
        },
        {
          "internalType": "address",
          "name": "to",
          "type": "address"
        },
        {
          "internalType": "uint256",
          "name": "tokenId",
          "type": "uint256"
        }
      ],
      "name": "safeTransferFrom",
      "outputs": [],
      "stateMutability": "nonpayable",
      "type": "function"
    },
    {
      "inputs": [
        {
          "internalType": "address",
          "name": "from",
          "type": "address"
        },
        {
          "internalType": "address",
          "name": "to",
          "type": "address"
        },
        {
          "internalType": "uint256",
          "name": "tokenId",
          "type": "uint256"
        },
        {
          "internalType": "bytes",
          "name": "_data",
          "type": "bytes"
        }
      ],
      "name": "safeTransferFrom",
      "outputs": [],
      "stateMutability": "nonpayable",
      "type": "function"
    },
    {
      "inputs": [
        {
          "internalType": "address",
          "name": "operator",
          "type": "address"
        },
        {
          "internalType": "bool",
          "name": "approved",
          "type": "bool"
        }
      ],
      "name": "setApprovalForAll",
      "outputs": [],
      "stateMutability": "nonpayable",
      "type": "function"
    },
    {
      "inputs": [
        {
          "internalType": "bytes4",
          "name": "interfaceId",
          "type": "bytes4"
        }
      ],
      "name": "supportsInterface",
      "outputs": [
        {
          "internalType": "bool",
          "name": "",
          "type": "bool"
        }
      ],
      "stateMutability": "view",
      "type": "function"
    },
    {
      "inputs": [],
      "name": "symbol",
      "outputs": [
        {
          "internalType": "string",
          "name": "",
          "type": "string"
        }
      ],
      "stateMutability": "view",
      "type": "function"
    },
    {
      "inputs": [
        {
          "internalType": "uint256",
          "name": "pieceId",
          "type": "uint256"
        }
      ],
      "name": "togglePieceIsActive",
      "outputs": [],
      "stateMutability": "nonpayable",
      "type": "function"
    },
    {
      "inputs": [
        {
          "internalType": "uint256",
          "name": "pieceId",
          "type": "uint256"
        }
      ],
      "name": "togglePieceIsPaused",
      "outputs": [],
      "stateMutability": "nonpayable",
      "type": "function"
    },
    {
      "inputs": [
        {
          "internalType": "uint256",
          "name": "index",
          "type": "uint256"
        }
      ],
      "name": "tokenByIndex",
      "outputs": [
        {
          "internalType": "uint256",
          "name": "",
          "type": "uint256"
        }
      ],
      "stateMutability": "view",
      "type": "function"
    },
    {
      "inputs": [
        {
          "internalType": "address",
          "name": "owner",
          "type": "address"
        },
        {
          "internalType": "uint256",
          "name": "index",
          "type": "uint256"
        }
      ],
      "name": "tokenOfOwnerByIndex",
      "outputs": [
        {
          "internalType": "uint256",
          "name": "",
          "type": "uint256"
        }
      ],
      "stateMutability": "view",
      "type": "function"
    },
    {
      "inputs": [
        {
          "internalType": "uint256",
          "name": "tokenId",
          "type": "uint256"
        }
      ],
      "name": "tokenURI",
      "outputs": [
        {
          "internalType": "string",
          "name": "",
          "type": "string"
        }
      ],
      "stateMutability": "view",
      "type": "function"
    },
    {
      "inputs": [],
      "name": "totalSupply",
      "outputs": [
        {
          "internalType": "uint256",
          "name": "",
          "type": "uint256"
        }
      ],
      "stateMutability": "view",
      "type": "function"
    },
    {
      "inputs": [
        {
          "internalType": "address",
          "name": "from",
          "type": "address"
        },
        {
          "internalType": "address",
          "name": "to",
          "type": "address"
        },
        {
          "internalType": "uint256",
          "name": "tokenId",
          "type": "uint256"
        }
      ],
      "name": "transferFrom",
      "outputs": [],
      "stateMutability": "nonpayable",
      "type": "function"
    },
    {
      "inputs": [
        {
          "internalType": "uint256",
          "name": "pieceId",
          "type": "uint256"
        },
        {
          "internalType": "string",
          "name": "pieceDescription",
          "type": "string"
        }
      ],
      "name": "updatePieceDescription",
      "outputs": [],
      "stateMutability": "nonpayable",
      "type": "function"
    },
    {
      "inputs": [
        {
          "internalType": "uint256",
          "name": "pieceId",
          "type": "uint256"
        },
        {
          "internalType": "string",
          "name": "pieceLicense",
          "type": "string"
        }
      ],
      "name": "updatePieceLicense",
      "outputs": [],
      "stateMutability": "nonpayable",
      "type": "function"
    },
    {
      "inputs": [
        {
          "internalType": "uint256",
          "name": "pieceId",
          "type": "uint256"
        },
        {
          "internalType": "uint256",
          "name": "maxPrints",
          "type": "uint256"
        }
      ],
      "name": "updatePieceMaxPrints",
      "outputs": [],
      "stateMutability": "nonpayable",
      "type": "function"
    },
    {
      "inputs": [
        {
          "internalType": "uint256",
          "name": "pieceId",
          "type": "uint256"
        },
        {
          "internalType": "string",
          "name": "pieceName",
          "type": "string"
        }
      ],
      "name": "updatePieceName",
      "outputs": [],
      "stateMutability": "nonpayable",
      "type": "function"
    },
    {
      "inputs": [
        {
          "internalType": "uint256",
          "name": "pieceId",
          "type": "uint256"
        },
        {
          "internalType": "uint256",
          "name": "pricePerPrintInWei",
          "type": "uint256"
        }
      ],
      "name": "updatePiecePricePerPrintInWei",
      "outputs": [],
      "stateMutability": "nonpayable",
      "type": "function"
    },
    {
      "inputs": [
        {
          "internalType": "uint256",
          "name": "pieceId",
          "type": "uint256"
        },
        {
          "internalType": "string",
          "name": "script",
          "type": "string"
        }
      ],
      "name": "updatePieceScript",
      "outputs": [],
      "stateMutability": "nonpayable",
      "type": "function"
    }
  ],
  "bytecode": "0x608060405260006012553480156200001657600080fd5b506040516200552f3803806200552f83398181016040528101906200003c9190620001f4565b8181816000908051906020019062000056929190620000d2565b5080600190805190602001906200006f929190620000d2565b5050506001600c60003373ffffffffffffffffffffffffffffffffffffffff1673ffffffffffffffffffffffffffffffffffffffff16815260200190815260200160002060006101000a81548160ff021916908315150217905550505062000398565b828054620000e09062000304565b90600052602060002090601f01602090048101928262000104576000855562000150565b82601f106200011f57805160ff191683800117855562000150565b8280016001018555821562000150579182015b828111156200014f57825182559160200191906001019062000132565b5b5090506200015f919062000163565b5090565b5b808211156200017e57600081600090555060010162000164565b5090565b60006200019962000193846200029b565b62000267565b905082815260208101848484011115620001b257600080fd5b620001bf848285620002ce565b509392505050565b600082601f830112620001d957600080fd5b8151620001eb84826020860162000182565b91505092915050565b600080604083850312156200020857600080fd5b600083015167ffffffffffffffff8111156200022357600080fd5b6200023185828601620001c7565b925050602083015167ffffffffffffffff8111156200024f57600080fd5b6200025d85828601620001c7565b9150509250929050565b6000604051905081810181811067ffffffffffffffff8211171562000291576200029062000369565b5b8060405250919050565b600067ffffffffffffffff821115620002b957620002b862000369565b5b601f19601f8301169050602081019050919050565b60005b83811015620002ee578082015181840152602081019050620002d1565b83811115620002fe576000848401525b50505050565b600060028204905060018216806200031d57607f821691505b602082108114156200033457620003336200033a565b5b50919050565b7f4e487b7100000000000000000000000000000000000000000000000000000000600052602260045260246000fd5b7f4e487b7100000000000000000000000000000000000000000000000000000000600052604160045260246000fd5b61518780620003a86000396000f3fe608060405234801561001057600080fd5b506004361061023d5760003560e01c806370a082311161013b578063ad0305ce116100b8578063c87b56dd1161007c578063c87b56dd1461070e578063c9991c2c1461073e578063e6ed84001461076e578063e985e9c51461079e578063eb3a86e3146107ce5761023d565b8063ad0305ce1461066e578063b7d76b7a1461069e578063b88d4fde146106ba578063bb98f6fd146106d6578063c6d2a7af146106f25761023d565b806395952e05116100ff57806395952e05146105b057806395d89b41146105cc5780639692dff0146105ea578063a22cb4651461061a578063a94887cd146106365761023d565b806370a0823114610510578063729acb09146105405780638447d42b1461055c578063867f1a3b146105785780638bddb0a6146105945761023d565b806324d7806c116101c957806342842e0e1161018d57806342842e0e146104485780634f6ccce7146104645780635604fccc146104945780636352211e146104b057806363e56aaa146104e05761023d565b806324d7806c1461037e5780632812a794146103ae5780632bf88d83146103cc5780632c0a8b38146103fc5780632f745c59146104185761023d565b80630d4d1513116102105780630d4d1513146102dc57806311f373d01461030c57806318160ddd14610328578063236d8e891461034657806323b872dd146103625761023d565b806301ffc9a71461024257806306fdde0314610272578063081812fc14610290578063095ea7b3146102c0575b600080fd5b61025c60048036038101906102579190613b2d565b6107fe565b6040516102699190614809565b60405180910390f35b61027a610878565b604051610287919061483f565b60405180910390f35b6102aa60048036038101906102a59190613bc0565b61090a565b6040516102b79190614780565b60405180910390f35b6102da60048036038101906102d59190613a79565b61098f565b005b6102f660048036038101906102f19190613ab5565b610aa7565b6040516103039190614c23565b60405180910390f35b61032660048036038101906103219190613c3d565b610d85565b005b610330610f52565b60405161033d9190614c23565b60405180910390f35b610360600480360381019061035b9190613b7f565b610f5f565b005b61037c60048036038101906103779190613973565b611065565b005b6103986004803603810190610393919061390e565b6110c5565b6040516103a59190614809565b60405180910390f35b6103b66110e5565b6040516103c39190614c23565b60405180910390f35b6103e660048036038101906103e19190613bc0565b6110eb565b6040516103f39190614c23565b60405180910390f35b61041660048036038101906104119190613c3d565b611103565b005b610432600480360381019061042d9190613a79565b6111ab565b60405161043f9190614c23565b60405180910390f35b610462600480360381019061045d9190613973565b611250565b005b61047e60048036038101906104799190613bc0565b611270565b60405161048b9190614c23565b60405180910390f35b6104ae60048036038101906104a99190613be9565b611307565b005b6104ca60048036038101906104c59190613bc0565b6113c2565b6040516104d79190614780565b60405180910390f35b6104fa60048036038101906104f59190613bc0565b611474565b6040516105079190614824565b60405180910390f35b61052a6004803603810190610525919061390e565b61148c565b6040516105379190614c23565b60405180910390f35b61055a60048036038101906105559190613be9565b611544565b005b61057660048036038101906105719190613be9565b611665565b005b610592600480360381019061058d919061390e565b611786565b005b6105ae60048036038101906105a9919061390e565b61186d565b005b6105ca60048036038101906105c59190613bc0565b611954565b005b6105d4611a35565b6040516105e1919061483f565b60405180910390f35b61060460048036038101906105ff9190613bc0565b611ac7565b604051610611919061483f565b60405180910390f35b610634600480360381019061062f9190613a3d565b611b6f565b005b610650600480360381019061064b9190613bc0565b611cf0565b60405161066599989796959493929190614861565b60405180910390f35b6106886004803603810190610683919061390e565b611fa8565b6040516106959190614809565b60405180910390f35b6106b860048036038101906106b39190613be9565b611fc8565b005b6106d460048036038101906106cf91906139c2565b6120e9565b005b6106f060048036038101906106eb9190613bc0565b61214b565b005b61070c60048036038101906107079190613bc0565b61222c565b005b61072860048036038101906107239190613bc0565b612350565b604051610735919061483f565b60405180910390f35b61075860048036038101906107539190613b04565b6123f7565b6040516107659190614c23565b60405180910390f35b61078860048036038101906107839190613bc0565b61240f565b60405161079591906147e7565b60405180910390f35b6107b860048036038101906107b39190613937565b61247a565b6040516107c59190614809565b60405180910390f35b6107e860048036038101906107e39190613bc0565b61250e565b6040516107f59190614c23565b60405180910390f35b60007f780e9d63000000000000000000000000000000000000000000000000000000007bffffffffffffffffffffffffffffffffffffffffffffffffffffffff1916827bffffffffffffffffffffffffffffffffffffffffffffffffffffffff19161480610871575061087082612526565b5b9050919050565b60606000805461088790614f20565b80601f01602080910402602001604051908101604052809291908181526020018280546108b390614f20565b80156109005780601f106108d557610100808354040283529160200191610900565b820191906000526020600020905b8154815290600101906020018083116108e357829003601f168201915b5050505050905090565b600061091582612608565b610954576040517f08c379a000000000000000000000000000000000000000000000000000000000815260040161094b90614ae3565b60405180910390fd5b6004600083815260200190815260200160002060009054906101000a900473ffffffffffffffffffffffffffffffffffffffff169050919050565b600061099a826113c2565b90508073ffffffffffffffffffffffffffffffffffffffff168373ffffffffffffffffffffffffffffffffffffffff161415610a0b576040517f08c379a0000000000000000000000000000000000000000000000000000000008152600401610a0290614b43565b60405180910390fd5b8073ffffffffffffffffffffffffffffffffffffffff16610a2a612674565b73ffffffffffffffffffffffffffffffffffffffff161480610a595750610a5881610a53612674565b61247a565b5b610a98576040517f08c379a0000000000000000000000000000000000000000000000000000000008152600401610a8f90614a63565b60405180910390fd5b610aa2838361267c565b505050565b6000601160003373ffffffffffffffffffffffffffffffffffffffff1673ffffffffffffffffffffffffffffffffffffffff16815260200190815260200160002060009054906101000a900460ff1680610b4a5750600c60003373ffffffffffffffffffffffffffffffffffffffff1673ffffffffffffffffffffffffffffffffffffffff16815260200190815260200160002060009054906101000a900460ff165b610b89576040517f08c379a0000000000000000000000000000000000000000000000000000000008152600401610b8090614c03565b60405180910390fd5b600a6000848152602001908152602001600020600401546001600a600086815260200190815260200160002060030154610bc39190614d4b565b1115610c04576040517f08c379a0000000000000000000000000000000000000000000000000000000008152600401610bfb90614b83565b60405180910390fd5b600a600084815260200190815260200160002060060160009054906101000a900460ff1680610c7c5750600c60008373ffffffffffffffffffffffffffffffffffffffff1673ffffffffffffffffffffffffffffffffffffffff16815260200190815260200160002060009054906101000a900460ff165b610cbb576040517f08c379a0000000000000000000000000000000000000000000000000000000008152600401610cb290614be3565b60405180910390fd5b600a600084815260200190815260200160002060060160029054906101000a900460ff1680610d335750600c60008373ffffffffffffffffffffffffffffffffffffffff1673ffffffffffffffffffffffffffffffffffffffff16815260200190815260200160002060009054906101000a900460ff165b610d72576040517f08c379a0000000000000000000000000000000000000000000000000000000008152600401610d6990614a43565b60405180910390fd5b610d7c8484612735565b90509392505050565b600c60003373ffffffffffffffffffffffffffffffffffffffff1673ffffffffffffffffffffffffffffffffffffffff16815260200190815260200160002060009054906101000a900460ff16610e11576040517f08c379a0000000000000000000000000000000000000000000000000000000008152600401610e08906149e3565b60405180910390fd5b600a600083815260200190815260200160002060060160019054906101000a900460ff161580610e565750600a60008381526020019081526020016000206004015481105b610e95576040517f08c379a0000000000000000000000000000000000000000000000000000000008152600401610e8c90614903565b60405180910390fd5b600a6000838152602001908152602001600020600301548111610eed576040517f08c379a0000000000000000000000000000000000000000000000000000000008152600401610ee490614923565b60405180910390fd5b620f4240811115610f33576040517f08c379a0000000000000000000000000000000000000000000000000000000008152600401610f2a90614b63565b60405180910390fd5b80600a6000848152602001908152602001600020600401819055505050565b6000600880549050905090565b600c60003373ffffffffffffffffffffffffffffffffffffffff1673ffffffffffffffffffffffffffffffffffffffff16815260200190815260200160002060009054906101000a900460ff16610feb576040517f08c379a0000000000000000000000000000000000000000000000000000000008152600401610fe2906149e3565b60405180910390fd5b6000601254905081600a6000838152602001908152602001600020600001908051906020019061101c92919061371d565b506001600a600083815260200190815260200160002060060160026101000a81548160ff021916908315150217905550600160125461105b9190614d4b565b6012819055505050565b611076611070612674565b826128d7565b6110b5576040517f08c379a00000000000000000000000000000000000000000000000000000000081526004016110ac90614ba3565b60405180910390fd5b6110c08383836129b5565b505050565b600c6020528060005260406000206000915054906101000a900460ff1681565b60125481565b600b6020528060005260406000206000915090505481565b600c60003373ffffffffffffffffffffffffffffffffffffffff1673ffffffffffffffffffffffffffffffffffffffff16815260200190815260200160002060009054906101000a900460ff1661118f576040517f08c379a0000000000000000000000000000000000000000000000000000000008152600401611186906149e3565b60405180910390fd5b80600b6000848152602001908152602001600020819055505050565b60006111b68361148c565b82106111f7576040517f08c379a00000000000000000000000000000000000000000000000000000000081526004016111ee90614943565b60405180910390fd5b600660008473ffffffffffffffffffffffffffffffffffffffff1673ffffffffffffffffffffffffffffffffffffffff168152602001908152602001600020600083815260200190815260200160002054905092915050565b61126b838383604051806020016040528060008152506120e9565b505050565b600061127a610f52565b82106112bb576040517f08c379a00000000000000000000000000000000000000000000000000000000081526004016112b290614bc3565b60405180910390fd5b600882815481106112f5577f4e487b7100000000000000000000000000000000000000000000000000000000600052603260045260246000fd5b90600052602060002001549050919050565b600c60003373ffffffffffffffffffffffffffffffffffffffff1673ffffffffffffffffffffffffffffffffffffffff16815260200190815260200160002060009054906101000a900460ff16611393576040517f08c379a000000000000000000000000000000000000000000000000000000000815260040161138a906149e3565b60405180910390fd5b80600a600084815260200190815260200160002060010190805190602001906113bd92919061371d565b505050565b6000806002600084815260200190815260200160002060009054906101000a900473ffffffffffffffffffffffffffffffffffffffff169050600073ffffffffffffffffffffffffffffffffffffffff168173ffffffffffffffffffffffffffffffffffffffff16141561146b576040517f08c379a000000000000000000000000000000000000000000000000000000000815260040161146290614aa3565b60405180910390fd5b80915050919050565b600f6020528060005260406000206000915090505481565b60008073ffffffffffffffffffffffffffffffffffffffff168273ffffffffffffffffffffffffffffffffffffffff1614156114fd576040517f08c379a00000000000000000000000000000000000000000000000000000000081526004016114f490614a83565b60405180910390fd5b600360008373ffffffffffffffffffffffffffffffffffffffff1673ffffffffffffffffffffffffffffffffffffffff168152602001908152602001600020549050919050565b600c60003373ffffffffffffffffffffffffffffffffffffffff1673ffffffffffffffffffffffffffffffffffffffff16815260200190815260200160002060009054906101000a900460ff166115d0576040517f08c379a00000000000000000000000000000000000000000000000000000000081526004016115c7906149e3565b60405180910390fd5b81600a600082815260200190815260200160002060060160019054906101000a900460ff1615611635576040517f08c379a000000000000000000000000000000000000000000000000000000000815260040161162c90614a23565b60405180910390fd5b81600a6000858152602001908152602001600020600001908051906020019061165f92919061371d565b50505050565b81600a600082815260200190815260200160002060060160019054906101000a900460ff16156116ca576040517f08c379a00000000000000000000000000000000000000000000000000000000081526004016116c190614a23565b60405180910390fd5b600c60003373ffffffffffffffffffffffffffffffffffffffff1673ffffffffffffffffffffffffffffffffffffffff16815260200190815260200160002060009054906101000a900460ff16611756576040517f08c379a000000000000000000000000000000000000000000000000000000000815260040161174d906149e3565b60405180910390fd5b81600a6000858152602001908152602001600020600201908051906020019061178092919061371d565b50505050565b600c60003373ffffffffffffffffffffffffffffffffffffffff1673ffffffffffffffffffffffffffffffffffffffff16815260200190815260200160002060009054906101000a900460ff16611812576040517f08c379a0000000000000000000000000000000000000000000000000000000008152600401611809906149e3565b60405180910390fd5b6000601160008373ffffffffffffffffffffffffffffffffffffffff1673ffffffffffffffffffffffffffffffffffffffff16815260200190815260200160002060006101000a81548160ff02191690831515021790555050565b600c60003373ffffffffffffffffffffffffffffffffffffffff1673ffffffffffffffffffffffffffffffffffffffff16815260200190815260200160002060009054906101000a900460ff166118f9576040517f08c379a00000000000000000000000000000000000000000000000000000000081526004016118f0906149e3565b60405180910390fd5b6001601160008373ffffffffffffffffffffffffffffffffffffffff1673ffffffffffffffffffffffffffffffffffffffff16815260200190815260200160002060006101000a81548160ff02191690831515021790555050565b600c60003373ffffffffffffffffffffffffffffffffffffffff1673ffffffffffffffffffffffffffffffffffffffff16815260200190815260200160002060009054906101000a900460ff166119e0576040517f08c379a00000000000000000000000000000000000000000000000000000000081526004016119d7906149e3565b60405180910390fd5b600a600082815260200190815260200160002060060160009054906101000a900460ff1615600a600083815260200190815260200160002060060160006101000a81548160ff02191690831515021790555050565b606060018054611a4490614f20565b80601f0160208091040260200160405190810160405280929190818152602001828054611a7090614f20565b8015611abd5780601f10611a9257610100808354040283529160200191611abd565b820191906000526020600020905b815481529060010190602001808311611aa057829003601f168201915b5050505050905090565b6060600a60008381526020019081526020016000206005018054611aea90614f20565b80601f0160208091040260200160405190810160405280929190818152602001828054611b1690614f20565b8015611b635780601f10611b3857610100808354040283529160200191611b63565b820191906000526020600020905b815481529060010190602001808311611b4657829003601f168201915b50505050509050919050565b611b77612674565b73ffffffffffffffffffffffffffffffffffffffff168273ffffffffffffffffffffffffffffffffffffffff161415611be5576040517f08c379a0000000000000000000000000000000000000000000000000000000008152600401611bdc906149c3565b60405180910390fd5b8060056000611bf2612674565b73ffffffffffffffffffffffffffffffffffffffff1673ffffffffffffffffffffffffffffffffffffffff16815260200190815260200160002060008473ffffffffffffffffffffffffffffffffffffffff1673ffffffffffffffffffffffffffffffffffffffff16815260200190815260200160002060006101000a81548160ff0219169083151502179055508173ffffffffffffffffffffffffffffffffffffffff16611c9f612674565b73ffffffffffffffffffffffffffffffffffffffff167f17307eab39ab6107e8899845ad3d59bd9653f200f220920489ca2b5937696c3183604051611ce49190614809565b60405180910390a35050565b6060806060600080600080600080600a60008b81526020019081526020016000206000018054611d1f90614f20565b80601f0160208091040260200160405190810160405280929190818152602001828054611d4b90614f20565b8015611d985780601f10611d6d57610100808354040283529160200191611d98565b820191906000526020600020905b815481529060010190602001808311611d7b57829003601f168201915b50505050509850600a60008b81526020019081526020016000206001018054611dc090614f20565b80601f0160208091040260200160405190810160405280929190818152602001828054611dec90614f20565b8015611e395780601f10611e0e57610100808354040283529160200191611e39565b820191906000526020600020905b815481529060010190602001808311611e1c57829003601f168201915b50505050509750600a60008b81526020019081526020016000206002018054611e6190614f20565b80601f0160208091040260200160405190810160405280929190818152602001828054611e8d90614f20565b8015611eda5780601f10611eaf57610100808354040283529160200191611eda565b820191906000526020600020905b815481529060010190602001808311611ebd57829003601f168201915b50505050509650600b60008b8152602001908152602001600020549550600a60008b8152602001908152602001600020600301549450600a60008b8152602001908152602001600020600401549350600a60008b815260200190815260200160002060060160019054906101000a900460ff169050600a60008b815260200190815260200160002060060160009054906101000a900460ff169250600a60008b815260200190815260200160002060060160029054906101000a900460ff1691509193959799909294969850565b60116020528060005260406000206000915054906101000a900460ff1681565b81600a600082815260200190815260200160002060060160019054906101000a900460ff161561202d576040517f08c379a000000000000000000000000000000000000000000000000000000000815260040161202490614a23565b60405180910390fd5b600c60003373ffffffffffffffffffffffffffffffffffffffff1673ffffffffffffffffffffffffffffffffffffffff16815260200190815260200160002060009054906101000a900460ff166120b9576040517f08c379a00000000000000000000000000000000000000000000000000000000081526004016120b0906149e3565b60405180910390fd5b81600a600085815260200190815260200160002060050190805190602001906120e392919061371d565b50505050565b6120fa6120f4612674565b836128d7565b612139576040517f08c379a000000000000000000000000000000000000000000000000000000000815260040161213090614ba3565b60405180910390fd5b61214584848484612c11565b50505050565b600c60003373ffffffffffffffffffffffffffffffffffffffff1673ffffffffffffffffffffffffffffffffffffffff16815260200190815260200160002060009054906101000a900460ff166121d7576040517f08c379a00000000000000000000000000000000000000000000000000000000081526004016121ce906149e3565b60405180910390fd5b600a600082815260200190815260200160002060060160029054906101000a900460ff1615600a600083815260200190815260200160002060060160026101000a81548160ff02191690831515021790555050565b600c60003373ffffffffffffffffffffffffffffffffffffffff1673ffffffffffffffffffffffffffffffffffffffff16815260200190815260200160002060009054906101000a900460ff166122b8576040517f08c379a00000000000000000000000000000000000000000000000000000000081526004016122af906149e3565b60405180910390fd5b80600a600082815260200190815260200160002060060160019054906101000a900460ff161561231d576040517f08c379a000000000000000000000000000000000000000000000000000000000815260040161231490614a23565b60405180910390fd5b6001600a600084815260200190815260200160002060060160016101000a81548160ff0219169083151502179055505050565b606061235b82612608565b61239a576040517f08c379a000000000000000000000000000000000000000000000000000000000815260040161239190614b23565b60405180910390fd5b60006123a4612c6d565b905060008151116123c457604051806020016040528060008152506123ef565b806123ce84612c84565b6040516020016123df92919061470e565b6040516020818303038152906040525b915050919050565b60106020528060005260406000206000915090505481565b6060600e600083815260200190815260200160002080548060200260200160405190810160405280929190818152602001828054801561246e57602002820191906000526020600020905b81548152602001906001019080831161245a575b50505050509050919050565b6000600560008473ffffffffffffffffffffffffffffffffffffffff1673ffffffffffffffffffffffffffffffffffffffff16815260200190815260200160002060008373ffffffffffffffffffffffffffffffffffffffff1673ffffffffffffffffffffffffffffffffffffffff16815260200190815260200160002060009054906101000a900460ff16905092915050565b600d6020528060005260406000206000915090505481565b60007f80ac58cd000000000000000000000000000000000000000000000000000000007bffffffffffffffffffffffffffffffffffffffffffffffffffffffff1916827bffffffffffffffffffffffffffffffffffffffffffffffffffffffff191614806125f157507f5b5e139f000000000000000000000000000000000000000000000000000000007bffffffffffffffffffffffffffffffffffffffffffffffffffffffff1916827bffffffffffffffffffffffffffffffffffffffffffffffffffffffff1916145b80612601575061260082612e31565b5b9050919050565b60008073ffffffffffffffffffffffffffffffffffffffff166002600084815260200190815260200160002060009054906101000a900473ffffffffffffffffffffffffffffffffffffffff1673ffffffffffffffffffffffffffffffffffffffff1614159050919050565b600033905090565b816004600083815260200190815260200160002060006101000a81548173ffffffffffffffffffffffffffffffffffffffff021916908373ffffffffffffffffffffffffffffffffffffffff160217905550808273ffffffffffffffffffffffffffffffffffffffff166126ef836113c2565b73ffffffffffffffffffffffffffffffffffffffff167f8c5be1e5ebec7d5bd14f71427d1e84f3dd0314c0f7b2291e5b200ac8c7c3b92560405160405180910390a45050565b600080600a600084815260200190815260200160002060030154620f42408461275e9190614dd2565b6127689190614d4b565b90506001600a60008581526020019081526020016000206003015461278d9190614d4b565b600a6000858152602001908152602001600020600301819055506000600a600085815260200190815260200160002060030154436001436127ce9190614e2c565b40336040516020016127e39493929190614732565b60405160208183030381529060405280519060200120905080600f6000848152602001908152602001600020819055508160106000838152602001908152602001600020819055506128358583612e9b565b83600d600084815260200190815260200160002081905550600e600085815260200190815260200160002082908060018154018082558091505060019003906000526020600020016000909190919091505583828673ffffffffffffffffffffffffffffffffffffffff167f4c209b5fc8ad50758f13e2e1088ba56a560dff690a1c6fef26394f4c03821c4f60405160405180910390a4819250505092915050565b60006128e282612608565b612921576040517f08c379a000000000000000000000000000000000000000000000000000000000815260040161291890614a03565b60405180910390fd5b600061292c836113c2565b90508073ffffffffffffffffffffffffffffffffffffffff168473ffffffffffffffffffffffffffffffffffffffff16148061299b57508373ffffffffffffffffffffffffffffffffffffffff166129838461090a565b73ffffffffffffffffffffffffffffffffffffffff16145b806129ac57506129ab818561247a565b5b91505092915050565b8273ffffffffffffffffffffffffffffffffffffffff166129d5826113c2565b73ffffffffffffffffffffffffffffffffffffffff1614612a2b576040517f08c379a0000000000000000000000000000000000000000000000000000000008152600401612a2290614b03565b60405180910390fd5b600073ffffffffffffffffffffffffffffffffffffffff168273ffffffffffffffffffffffffffffffffffffffff161415612a9b576040517f08c379a0000000000000000000000000000000000000000000000000000000008152600401612a92906149a3565b60405180910390fd5b612aa6838383612eb9565b612ab160008261267c565b6001600360008573ffffffffffffffffffffffffffffffffffffffff1673ffffffffffffffffffffffffffffffffffffffff1681526020019081526020016000206000828254612b019190614e2c565b925050819055506001600360008473ffffffffffffffffffffffffffffffffffffffff1673ffffffffffffffffffffffffffffffffffffffff1681526020019081526020016000206000828254612b589190614d4b565b92505081905550816002600083815260200190815260200160002060006101000a81548173ffffffffffffffffffffffffffffffffffffffff021916908373ffffffffffffffffffffffffffffffffffffffff160217905550808273ffffffffffffffffffffffffffffffffffffffff168473ffffffffffffffffffffffffffffffffffffffff167fddf252ad1be2c89b69c2b068fc378daa952ba7f163c4a11628f55a4df523b3ef60405160405180910390a4505050565b612c1c8484846129b5565b612c2884848484612fcd565b612c67576040517f08c379a0000000000000000000000000000000000000000000000000000000008152600401612c5e90614963565b60405180910390fd5b50505050565b606060405180602001604052806000815250905090565b60606000821415612ccc576040518060400160405280600181526020017f30000000000000000000000000000000000000000000000000000000000000008152509050612e2c565b600082905060005b60008214612cfe578080612ce790614f52565b915050600a82612cf79190614da1565b9150612cd4565b60008167ffffffffffffffff811115612d40577f4e487b7100000000000000000000000000000000000000000000000000000000600052604160045260246000fd5b6040519080825280601f01601f191660200182016040528015612d725781602001600182028036833780820191505090505b5090505b60008514612e2557600182612d8b9190614e2c565b9150600a85612d9a9190614fd3565b6030612da69190614d4b565b60f81b818381518110612de2577f4e487b7100000000000000000000000000000000000000000000000000000000600052603260045260246000fd5b60200101907effffffffffffffffffffffffffffffffffffffffffffffffffffffffffffff1916908160001a905350600a85612e1e9190614da1565b9450612d76565b8093505050505b919050565b60007f01ffc9a7000000000000000000000000000000000000000000000000000000007bffffffffffffffffffffffffffffffffffffffffffffffffffffffff1916827bffffffffffffffffffffffffffffffffffffffffffffffffffffffff1916149050919050565b612eb5828260405180602001604052806000815250613164565b5050565b612ec48383836131bf565b600073ffffffffffffffffffffffffffffffffffffffff168373ffffffffffffffffffffffffffffffffffffffff161415612f0757612f02816131c4565b612f46565b8173ffffffffffffffffffffffffffffffffffffffff168373ffffffffffffffffffffffffffffffffffffffff1614612f4557612f44838261320d565b5b5b600073ffffffffffffffffffffffffffffffffffffffff168273ffffffffffffffffffffffffffffffffffffffff161415612f8957612f848161337a565b612fc8565b8273ffffffffffffffffffffffffffffffffffffffff168273ffffffffffffffffffffffffffffffffffffffff1614612fc757612fc682826134bd565b5b5b505050565b6000612fee8473ffffffffffffffffffffffffffffffffffffffff1661353c565b15613157578373ffffffffffffffffffffffffffffffffffffffff1663150b7a02613017612674565b8786866040518563ffffffff1660e01b8152600401613039949392919061479b565b602060405180830381600087803b15801561305357600080fd5b505af192505050801561308457506040513d601f19601f820116820180604052508101906130819190613b56565b60015b613107573d80600081146130b4576040519150601f19603f3d011682016040523d82523d6000602084013e6130b9565b606091505b506000815114156130ff576040517f08c379a00000000000000000000000000000000000000000000000000000000081526004016130f690614963565b60405180910390fd5b805181602001fd5b63150b7a0260e01b7bffffffffffffffffffffffffffffffffffffffffffffffffffffffff1916817bffffffffffffffffffffffffffffffffffffffffffffffffffffffff19161491505061315c565b600190505b949350505050565b61316e838361354f565b61317b6000848484612fcd565b6131ba576040517f08c379a00000000000000000000000000000000000000000000000000000000081526004016131b190614963565b60405180910390fd5b505050565b505050565b6008805490506009600083815260200190815260200160002081905550600881908060018154018082558091505060019003906000526020600020016000909190919091505550565b6000600161321a8461148c565b6132249190614e2c565b9050600060076000848152602001908152602001600020549050818114613309576000600660008673ffffffffffffffffffffffffffffffffffffffff1673ffffffffffffffffffffffffffffffffffffffff168152602001908152602001600020600084815260200190815260200160002054905080600660008773ffffffffffffffffffffffffffffffffffffffff1673ffffffffffffffffffffffffffffffffffffffff168152602001908152602001600020600084815260200190815260200160002081905550816007600083815260200190815260200160002081905550505b6007600084815260200190815260200160002060009055600660008573ffffffffffffffffffffffffffffffffffffffff1673ffffffffffffffffffffffffffffffffffffffff16815260200190815260200160002060008381526020019081526020016000206000905550505050565b6000600160088054905061338e9190614e2c565b90506000600960008481526020019081526020016000205490506000600883815481106133e4577f4e487b7100000000000000000000000000000000000000000000000000000000600052603260045260246000fd5b90600052602060002001549050806008838154811061342c577f4e487b7100000000000000000000000000000000000000000000000000000000600052603260045260246000fd5b9060005260206000200181905550816009600083815260200190815260200160002081905550600960008581526020019081526020016000206000905560088054806134a1577f4e487b7100000000000000000000000000000000000000000000000000000000600052603160045260246000fd5b6001900381819060005260206000200160009055905550505050565b60006134c88361148c565b905081600660008573ffffffffffffffffffffffffffffffffffffffff1673ffffffffffffffffffffffffffffffffffffffff168152602001908152602001600020600083815260200190815260200160002081905550806007600084815260200190815260200160002081905550505050565b600080823b905060008111915050919050565b600073ffffffffffffffffffffffffffffffffffffffff168273ffffffffffffffffffffffffffffffffffffffff1614156135bf576040517f08c379a00000000000000000000000000000000000000000000000000000000081526004016135b690614ac3565b60405180910390fd5b6135c881612608565b15613608576040517f08c379a00000000000000000000000000000000000000000000000000000000081526004016135ff90614983565b60405180910390fd5b61361460008383612eb9565b6001600360008473ffffffffffffffffffffffffffffffffffffffff1673ffffffffffffffffffffffffffffffffffffffff16815260200190815260200160002060008282546136649190614d4b565b92505081905550816002600083815260200190815260200160002060006101000a81548173ffffffffffffffffffffffffffffffffffffffff021916908373ffffffffffffffffffffffffffffffffffffffff160217905550808273ffffffffffffffffffffffffffffffffffffffff16600073ffffffffffffffffffffffffffffffffffffffff167fddf252ad1be2c89b69c2b068fc378daa952ba7f163c4a11628f55a4df523b3ef60405160405180910390a45050565b82805461372990614f20565b90600052602060002090601f01602090048101928261374b5760008555613792565b82601f1061376457805160ff1916838001178555613792565b82800160010185558215613792579182015b82811115613791578251825591602001919060010190613776565b5b50905061379f91906137a3565b5090565b5b808211156137bc5760008160009055506001016137a4565b5090565b60006137d36137ce84614c6f565b614c3e565b9050828152602081018484840111156137eb57600080fd5b6137f6848285614ede565b509392505050565b600061381161380c84614c9f565b614c3e565b90508281526020810184848401111561382957600080fd5b613834848285614ede565b509392505050565b60008135905061384b816150de565b92915050565b600081359050613860816150f5565b92915050565b6000813590506138758161510c565b92915050565b60008135905061388a81615123565b92915050565b60008151905061389f81615123565b92915050565b600082601f8301126138b657600080fd5b81356138c68482602086016137c0565b91505092915050565b600082601f8301126138e057600080fd5b81356138f08482602086016137fe565b91505092915050565b6000813590506139088161513a565b92915050565b60006020828403121561392057600080fd5b600061392e8482850161383c565b91505092915050565b6000806040838503121561394a57600080fd5b60006139588582860161383c565b92505060206139698582860161383c565b9150509250929050565b60008060006060848603121561398857600080fd5b60006139968682870161383c565b93505060206139a78682870161383c565b92505060406139b8868287016138f9565b9150509250925092565b600080600080608085870312156139d857600080fd5b60006139e68782880161383c565b94505060206139f78782880161383c565b9350506040613a08878288016138f9565b925050606085013567ffffffffffffffff811115613a2557600080fd5b613a31878288016138a5565b91505092959194509250565b60008060408385031215613a5057600080fd5b6000613a5e8582860161383c565b9250506020613a6f85828601613851565b9150509250929050565b60008060408385031215613a8c57600080fd5b6000613a9a8582860161383c565b9250506020613aab858286016138f9565b9150509250929050565b600080600060608486031215613aca57600080fd5b6000613ad88682870161383c565b9350506020613ae9868287016138f9565b9250506040613afa8682870161383c565b9150509250925092565b600060208284031215613b1657600080fd5b6000613b2484828501613866565b91505092915050565b600060208284031215613b3f57600080fd5b6000613b4d8482850161387b565b91505092915050565b600060208284031215613b6857600080fd5b6000613b7684828501613890565b91505092915050565b600060208284031215613b9157600080fd5b600082013567ffffffffffffffff811115613bab57600080fd5b613bb7848285016138cf565b91505092915050565b600060208284031215613bd257600080fd5b6000613be0848285016138f9565b91505092915050565b60008060408385031215613bfc57600080fd5b6000613c0a858286016138f9565b925050602083013567ffffffffffffffff811115613c2757600080fd5b613c33858286016138cf565b9150509250929050565b60008060408385031215613c5057600080fd5b6000613c5e858286016138f9565b9250506020613c6f858286016138f9565b9150509250929050565b6000613c8583836146d9565b60208301905092915050565b613c9a81614e60565b82525050565b613cb1613cac82614e60565b614f9b565b82525050565b6000613cc282614cdf565b613ccc8185614d0d565b9350613cd783614ccf565b8060005b83811015613d08578151613cef8882613c79565b9750613cfa83614d00565b925050600181019050613cdb565b5085935050505092915050565b613d1e81614e72565b82525050565b613d2d81614e7e565b82525050565b613d44613d3f82614e7e565b614fad565b82525050565b6000613d5582614cea565b613d5f8185614d1e565b9350613d6f818560208601614eed565b613d78816150c0565b840191505092915050565b6000613d8e82614cf5565b613d988185614d2f565b9350613da8818560208601614eed565b613db1816150c0565b840191505092915050565b6000613dc782614cf5565b613dd18185614d40565b9350613de1818560208601614eed565b80840191505092915050565b6000613dfa603183614d2f565b91507f43616e206f6e6c7920696e637265617365206d6178207072696e74732069662060008301527f706965636520697320756e6c6f636b65640000000000000000000000000000006020830152604082019050919050565b6000613e60602b83614d2f565b91507f4d6178207072696e7473206d757374206265206d6f7265207468616e2063757260008301527f72656e74207072696e74730000000000000000000000000000000000000000006020830152604082019050919050565b6000613ec6602b83614d2f565b91507f455243373231456e756d657261626c653a206f776e657220696e646578206f7560008301527f74206f6620626f756e64730000000000000000000000000000000000000000006020830152604082019050919050565b6000613f2c603283614d2f565b91507f4552433732313a207472616e7366657220746f206e6f6e20455243373231526560008301527f63656976657220696d706c656d656e74657200000000000000000000000000006020830152604082019050919050565b6000613f92601c83614d2f565b91507f4552433732313a20746f6b656e20616c7265616479206d696e746564000000006000830152602082019050919050565b6000613fd2602483614d2f565b91507f4552433732313a207472616e7366657220746f20746865207a65726f2061646460008301527f72657373000000000000000000000000000000000000000000000000000000006020830152604082019050919050565b6000614038601983614d2f565b91507f4552433732313a20617070726f766520746f2063616c6c6572000000000000006000830152602082019050919050565b6000614078600a83614d2f565b91507f4f6e6c792061646d696e000000000000000000000000000000000000000000006000830152602082019050919050565b60006140b8602c83614d2f565b91507f4552433732313a206f70657261746f7220717565727920666f72206e6f6e657860008301527f697374656e7420746f6b656e00000000000000000000000000000000000000006020830152604082019050919050565b600061411e601083614d2f565b91507f4f6e6c7920696620756e6c6f636b6564000000000000000000000000000000006000830152602082019050919050565b600061415e602a83614d2f565b91507f50757263686173696e67207072696e7473206f6620746869732070696563652060008301527f61726520706175736564000000000000000000000000000000000000000000006020830152604082019050919050565b60006141c4603883614d2f565b91507f4552433732313a20617070726f76652063616c6c6572206973206e6f74206f7760008301527f6e6572206e6f7220617070726f76656420666f7220616c6c00000000000000006020830152604082019050919050565b600061422a602a83614d2f565b91507f4552433732313a2062616c616e636520717565727920666f7220746865207a6560008301527f726f2061646472657373000000000000000000000000000000000000000000006020830152604082019050919050565b6000614290602983614d2f565b91507f4552433732313a206f776e657220717565727920666f72206e6f6e657869737460008301527f656e7420746f6b656e00000000000000000000000000000000000000000000006020830152604082019050919050565b60006142f6602083614d2f565b91507f4552433732313a206d696e7420746f20746865207a65726f20616464726573736000830152602082019050919050565b6000614336602c83614d2f565b91507f4552433732313a20617070726f76656420717565727920666f72206e6f6e657860008301527f697374656e7420746f6b656e00000000000000000000000000000000000000006020830152604082019050919050565b600061439c602983614d2f565b91507f4552433732313a207472616e73666572206f6620746f6b656e2074686174206960008301527f73206e6f74206f776e00000000000000000000000000000000000000000000006020830152604082019050919050565b6000614402602f83614d2f565b91507f4552433732314d657461646174613a2055524920717565727920666f72206e6f60008301527f6e6578697374656e7420746f6b656e00000000000000000000000000000000006020830152604082019050919050565b6000614468602183614d2f565b91507f4552433732313a20617070726f76616c20746f2063757272656e74206f776e6560008301527f72000000000000000000000000000000000000000000000000000000000000006020830152604082019050919050565b60006144ce602283614d2f565b91507f4d6178207072696e74732063616e6e6f74206578636565642031206d696c6c6960008301527f6f6e0000000000000000000000000000000000000000000000000000000000006020830152604082019050919050565b6000614534601f83614d2f565b91507f4d757374206e6f7420657863656564206d617820696e766f636174696f6e73006000830152602082019050919050565b6000614574603183614d2f565b91507f4552433732313a207472616e736665722063616c6c6572206973206e6f74206f60008301527f776e6572206e6f7220617070726f7665640000000000000000000000000000006020830152604082019050919050565b60006145da602c83614d2f565b91507f455243373231456e756d657261626c653a20676c6f62616c20696e646578206f60008301527f7574206f6620626f756e647300000000000000000000000000000000000000006020830152604082019050919050565b6000614640601e83614d2f565b91507f5069656365206d75737420657869737420616e642062652061637469766500006000830152602082019050919050565b6000614680602583614d2f565b91507f4d7573742062652077686974656c697374656420746f206d696e74206469726560008301527f63746c792e0000000000000000000000000000000000000000000000000000006020830152604082019050919050565b6146e281614ed4565b82525050565b6146f181614ed4565b82525050565b61470861470382614ed4565b614fc9565b82525050565b600061471a8285613dbc565b91506147268284613dbc565b91508190509392505050565b600061473e82876146f7565b60208201915061474e82866146f7565b60208201915061475e8285613d33565b60208201915061476e8284613ca0565b60148201915081905095945050505050565b60006020820190506147956000830184613c91565b92915050565b60006080820190506147b06000830187613c91565b6147bd6020830186613c91565b6147ca60408301856146e8565b81810360608301526147dc8184613d4a565b905095945050505050565b600060208201905081810360008301526148018184613cb7565b905092915050565b600060208201905061481e6000830184613d15565b92915050565b60006020820190506148396000830184613d24565b92915050565b600060208201905081810360008301526148598184613d83565b905092915050565b600061012082019050818103600083015261487c818c613d83565b90508181036020830152614890818b613d83565b905081810360408301526148a4818a613d83565b90506148b360608301896146e8565b6148c060808301886146e8565b6148cd60a08301876146e8565b6148da60c0830186613d15565b6148e760e0830185613d15565b6148f5610100830184613d15565b9a9950505050505050505050565b6000602082019050818103600083015261491c81613ded565b9050919050565b6000602082019050818103600083015261493c81613e53565b9050919050565b6000602082019050818103600083015261495c81613eb9565b9050919050565b6000602082019050818103600083015261497c81613f1f565b9050919050565b6000602082019050818103600083015261499c81613f85565b9050919050565b600060208201905081810360008301526149bc81613fc5565b9050919050565b600060208201905081810360008301526149dc8161402b565b9050919050565b600060208201905081810360008301526149fc8161406b565b9050919050565b60006020820190508181036000830152614a1c816140ab565b9050919050565b60006020820190508181036000830152614a3c81614111565b9050919050565b60006020820190508181036000830152614a5c81614151565b9050919050565b60006020820190508181036000830152614a7c816141b7565b9050919050565b60006020820190508181036000830152614a9c8161421d565b9050919050565b60006020820190508181036000830152614abc81614283565b9050919050565b60006020820190508181036000830152614adc816142e9565b9050919050565b60006020820190508181036000830152614afc81614329565b9050919050565b60006020820190508181036000830152614b1c8161438f565b9050919050565b60006020820190508181036000830152614b3c816143f5565b9050919050565b60006020820190508181036000830152614b5c8161445b565b9050919050565b60006020820190508181036000830152614b7c816144c1565b9050919050565b60006020820190508181036000830152614b9c81614527565b9050919050565b60006020820190508181036000830152614bbc81614567565b9050919050565b60006020820190508181036000830152614bdc816145cd565b9050919050565b60006020820190508181036000830152614bfc81614633565b9050919050565b60006020820190508181036000830152614c1c81614673565b9050919050565b6000602082019050614c3860008301846146e8565b92915050565b6000604051905081810181811067ffffffffffffffff82111715614c6557614c64615091565b5b8060405250919050565b600067ffffffffffffffff821115614c8a57614c89615091565b5b601f19601f8301169050602081019050919050565b600067ffffffffffffffff821115614cba57614cb9615091565b5b601f19601f8301169050602081019050919050565b6000819050602082019050919050565b600081519050919050565b600081519050919050565b600081519050919050565b6000602082019050919050565b600082825260208201905092915050565b600082825260208201905092915050565b600082825260208201905092915050565b600081905092915050565b6000614d5682614ed4565b9150614d6183614ed4565b9250827fffffffffffffffffffffffffffffffffffffffffffffffffffffffffffffffff03821115614d9657614d95615004565b5b828201905092915050565b6000614dac82614ed4565b9150614db783614ed4565b925082614dc757614dc6615033565b5b828204905092915050565b6000614ddd82614ed4565b9150614de883614ed4565b9250817fffffffffffffffffffffffffffffffffffffffffffffffffffffffffffffffff0483118215151615614e2157614e20615004565b5b828202905092915050565b6000614e3782614ed4565b9150614e4283614ed4565b925082821015614e5557614e54615004565b5b828203905092915050565b6000614e6b82614eb4565b9050919050565b60008115159050919050565b6000819050919050565b60007fffffffff0000000000000000000000000000000000000000000000000000000082169050919050565b600073ffffffffffffffffffffffffffffffffffffffff82169050919050565b6000819050919050565b82818337600083830152505050565b60005b83811015614f0b578082015181840152602081019050614ef0565b83811115614f1a576000848401525b50505050565b60006002820490506001821680614f3857607f821691505b60208210811415614f4c57614f4b615062565b5b50919050565b6000614f5d82614ed4565b91507fffffffffffffffffffffffffffffffffffffffffffffffffffffffffffffffff821415614f9057614f8f615004565b5b600182019050919050565b6000614fa682614fb7565b9050919050565b6000819050919050565b6000614fc2826150d1565b9050919050565b6000819050919050565b6000614fde82614ed4565b9150614fe983614ed4565b925082614ff957614ff8615033565b5b828206905092915050565b7f4e487b7100000000000000000000000000000000000000000000000000000000600052601160045260246000fd5b7f4e487b7100000000000000000000000000000000000000000000000000000000600052601260045260246000fd5b7f4e487b7100000000000000000000000000000000000000000000000000000000600052602260045260246000fd5b7f4e487b7100000000000000000000000000000000000000000000000000000000600052604160045260246000fd5b6000601f19601f8301169050919050565b60008160601b9050919050565b6150e781614e60565b81146150f257600080fd5b50565b6150fe81614e72565b811461510957600080fd5b50565b61511581614e7e565b811461512057600080fd5b50565b61512c81614e88565b811461513757600080fd5b50565b61514381614ed4565b811461514e57600080fd5b5056fea2646970667358221220e1ffc215f0c9027c51ab19cfdd36f02627c7d3ff10bdccf6678289360fb555ec64736f6c63430008000033",
  "linkReferences": {},
  "deployedLinkReferences": {}
}