{
  "_format": "hh-sol-artifact-1",
  "contractName": "GenerativeArtworks",
  "sourceName": "contracts/GenerativeArtworks.sol",
  "abi": [
    {
      "inputs": [
        {
          "internalType": "string",
          "name": "tokenName",
          "type": "string"
        },
        {
          "internalType": "string",
          "name": "tokenSymbol",
          "type": "string"
        }
      ],
      "stateMutability": "nonpayable",
      "type": "constructor"
    },
    {
      "anonymous": false,
      "inputs": [
        {
          "indexed": true,
          "internalType": "address",
          "name": "owner",
          "type": "address"
        },
        {
          "indexed": true,
          "internalType": "address",
          "name": "approved",
          "type": "address"
        },
        {
          "indexed": true,
          "internalType": "uint256",
          "name": "tokenId",
          "type": "uint256"
        }
      ],
      "name": "Approval",
      "type": "event"
    },
    {
      "anonymous": false,
      "inputs": [
        {
          "indexed": true,
          "internalType": "address",
          "name": "owner",
          "type": "address"
        },
        {
          "indexed": true,
          "internalType": "address",
          "name": "operator",
          "type": "address"
        },
        {
          "indexed": false,
          "internalType": "bool",
          "name": "approved",
          "type": "bool"
        }
      ],
      "name": "ApprovalForAll",
      "type": "event"
    },
    {
      "anonymous": false,
      "inputs": [
        {
          "indexed": true,
          "internalType": "address",
          "name": "_to",
          "type": "address"
        },
        {
          "indexed": true,
          "internalType": "uint256",
          "name": "_printId",
          "type": "uint256"
        },
        {
          "indexed": true,
          "internalType": "uint256",
          "name": "_pieceId",
          "type": "uint256"
        }
      ],
      "name": "Mint",
      "type": "event"
    },
    {
      "anonymous": false,
      "inputs": [
        {
          "indexed": true,
          "internalType": "address",
          "name": "from",
          "type": "address"
        },
        {
          "indexed": true,
          "internalType": "address",
          "name": "to",
          "type": "address"
        },
        {
          "indexed": true,
          "internalType": "uint256",
          "name": "tokenId",
          "type": "uint256"
        }
      ],
      "name": "Transfer",
      "type": "event"
    },
    {
      "inputs": [
        {
          "internalType": "address",
          "name": "_address",
          "type": "address"
        }
      ],
      "name": "addMintWhitelisted",
      "outputs": [],
      "stateMutability": "nonpayable",
      "type": "function"
    },
    {
      "inputs": [
        {
          "internalType": "string",
          "name": "pieceName",
          "type": "string"
        }
      ],
      "name": "addPiece",
      "outputs": [],
      "stateMutability": "nonpayable",
      "type": "function"
    },
    {
      "inputs": [
        {
          "internalType": "address",
          "name": "to",
          "type": "address"
        },
        {
          "internalType": "uint256",
          "name": "tokenId",
          "type": "uint256"
        }
      ],
      "name": "approve",
      "outputs": [],
      "stateMutability": "nonpayable",
      "type": "function"
    },
    {
      "inputs": [
        {
          "internalType": "address",
          "name": "owner",
          "type": "address"
        }
      ],
      "name": "balanceOf",
      "outputs": [
        {
          "internalType": "uint256",
          "name": "",
          "type": "uint256"
        }
      ],
      "stateMutability": "view",
      "type": "function"
    },
    {
      "inputs": [
        {
          "internalType": "uint256",
          "name": "tokenId",
          "type": "uint256"
        }
      ],
      "name": "getApproved",
      "outputs": [
        {
          "internalType": "address",
          "name": "",
          "type": "address"
        }
      ],
      "stateMutability": "view",
      "type": "function"
    },
    {
      "inputs": [
        {
          "internalType": "bytes32",
          "name": "",
          "type": "bytes32"
        }
      ],
      "name": "hashToPrintId",
      "outputs": [
        {
          "internalType": "uint256",
          "name": "",
          "type": "uint256"
        }
      ],
      "stateMutability": "view",
      "type": "function"
    },
    {
      "inputs": [
        {
          "internalType": "address",
          "name": "",
          "type": "address"
        }
      ],
      "name": "isAdmin",
      "outputs": [
        {
          "internalType": "bool",
          "name": "",
          "type": "bool"
        }
      ],
      "stateMutability": "view",
      "type": "function"
    },
    {
      "inputs": [
        {
          "internalType": "address",
          "name": "owner",
          "type": "address"
        },
        {
          "internalType": "address",
          "name": "operator",
          "type": "address"
        }
      ],
      "name": "isApprovedForAll",
      "outputs": [
        {
          "internalType": "bool",
          "name": "",
          "type": "bool"
        }
      ],
      "stateMutability": "view",
      "type": "function"
    },
    {
      "inputs": [
        {
          "internalType": "address",
          "name": "",
          "type": "address"
        }
      ],
      "name": "isMintWhitelisted",
      "outputs": [
        {
          "internalType": "bool",
          "name": "",
          "type": "bool"
        }
      ],
      "stateMutability": "view",
      "type": "function"
    },
    {
      "inputs": [
        {
          "internalType": "uint256",
          "name": "pieceId",
          "type": "uint256"
        }
      ],
      "name": "lockPiece",
      "outputs": [],
      "stateMutability": "nonpayable",
      "type": "function"
    },
    {
      "inputs": [
        {
          "internalType": "address",
          "name": "to",
          "type": "address"
        },
        {
          "internalType": "uint256",
          "name": "pieceId",
          "type": "uint256"
        },
        {
          "internalType": "address",
          "name": "by",
          "type": "address"
        }
      ],
      "name": "mint",
      "outputs": [
        {
          "internalType": "uint256",
          "name": "",
          "type": "uint256"
        }
      ],
      "stateMutability": "nonpayable",
      "type": "function"
    },
    {
      "inputs": [],
      "name": "name",
      "outputs": [
        {
          "internalType": "string",
          "name": "",
          "type": "string"
        }
      ],
      "stateMutability": "view",
      "type": "function"
    },
    {
      "inputs": [],
      "name": "nextPieceId",
      "outputs": [
        {
          "internalType": "uint256",
          "name": "",
          "type": "uint256"
        }
      ],
      "stateMutability": "view",
      "type": "function"
    },
    {
      "inputs": [
        {
          "internalType": "uint256",
          "name": "tokenId",
          "type": "uint256"
        }
      ],
      "name": "ownerOf",
      "outputs": [
        {
          "internalType": "address",
          "name": "",
          "type": "address"
        }
      ],
      "stateMutability": "view",
      "type": "function"
    },
    {
      "inputs": [
        {
          "internalType": "uint256",
          "name": "",
          "type": "uint256"
        }
      ],
      "name": "pieceIdToPricePerPrintInWei",
      "outputs": [
        {
          "internalType": "uint256",
          "name": "",
          "type": "uint256"
        }
      ],
      "stateMutability": "view",
      "type": "function"
    },
    {
      "inputs": [
        {
          "internalType": "uint256",
          "name": "",
          "type": "uint256"
        }
      ],
      "name": "printIdToHash",
      "outputs": [
        {
          "internalType": "bytes32",
          "name": "",
          "type": "bytes32"
        }
      ],
      "stateMutability": "view",
      "type": "function"
    },
    {
      "inputs": [
        {
          "internalType": "uint256",
          "name": "",
          "type": "uint256"
        }
      ],
      "name": "printIdToPieceId",
      "outputs": [
        {
          "internalType": "uint256",
          "name": "",
          "type": "uint256"
        }
      ],
      "stateMutability": "view",
      "type": "function"
    },
    {
      "inputs": [
        {
          "internalType": "address",
          "name": "_address",
          "type": "address"
        }
      ],
      "name": "removeMintWhitelisted",
      "outputs": [],
      "stateMutability": "nonpayable",
      "type": "function"
    },
    {
      "inputs": [
        {
          "internalType": "address",
          "name": "from",
          "type": "address"
        },
        {
          "internalType": "address",
          "name": "to",
          "type": "address"
        },
        {
          "internalType": "uint256",
          "name": "tokenId",
          "type": "uint256"
        }
      ],
      "name": "safeTransferFrom",
      "outputs": [],
      "stateMutability": "nonpayable",
      "type": "function"
    },
    {
      "inputs": [
        {
          "internalType": "address",
          "name": "from",
          "type": "address"
        },
        {
          "internalType": "address",
          "name": "to",
          "type": "address"
        },
        {
          "internalType": "uint256",
          "name": "tokenId",
          "type": "uint256"
        },
        {
          "internalType": "bytes",
          "name": "_data",
          "type": "bytes"
        }
      ],
      "name": "safeTransferFrom",
      "outputs": [],
      "stateMutability": "nonpayable",
      "type": "function"
    },
    {
      "inputs": [
        {
          "internalType": "address",
          "name": "operator",
          "type": "address"
        },
        {
          "internalType": "bool",
          "name": "approved",
          "type": "bool"
        }
      ],
      "name": "setApprovalForAll",
      "outputs": [],
      "stateMutability": "nonpayable",
      "type": "function"
    },
    {
      "inputs": [
        {
          "internalType": "bytes4",
          "name": "interfaceId",
          "type": "bytes4"
        }
      ],
      "name": "supportsInterface",
      "outputs": [
        {
          "internalType": "bool",
          "name": "",
          "type": "bool"
        }
      ],
      "stateMutability": "view",
      "type": "function"
    },
    {
      "inputs": [],
      "name": "symbol",
      "outputs": [
        {
          "internalType": "string",
          "name": "",
          "type": "string"
        }
      ],
      "stateMutability": "view",
      "type": "function"
    },
    {
      "inputs": [
        {
          "internalType": "uint256",
          "name": "pieceId",
          "type": "uint256"
        }
      ],
      "name": "togglePieceIsActive",
      "outputs": [],
      "stateMutability": "nonpayable",
      "type": "function"
    },
    {
      "inputs": [
        {
          "internalType": "uint256",
          "name": "pieceId",
          "type": "uint256"
        }
      ],
      "name": "togglePieceIsPaused",
      "outputs": [],
      "stateMutability": "nonpayable",
      "type": "function"
    },
    {
      "inputs": [
        {
          "internalType": "uint256",
          "name": "index",
          "type": "uint256"
        }
      ],
      "name": "tokenByIndex",
      "outputs": [
        {
          "internalType": "uint256",
          "name": "",
          "type": "uint256"
        }
      ],
      "stateMutability": "view",
      "type": "function"
    },
    {
      "inputs": [
        {
          "internalType": "address",
          "name": "owner",
          "type": "address"
        },
        {
          "internalType": "uint256",
          "name": "index",
          "type": "uint256"
        }
      ],
      "name": "tokenOfOwnerByIndex",
      "outputs": [
        {
          "internalType": "uint256",
          "name": "",
          "type": "uint256"
        }
      ],
      "stateMutability": "view",
      "type": "function"
    },
    {
      "inputs": [
        {
          "internalType": "uint256",
          "name": "tokenId",
          "type": "uint256"
        }
      ],
      "name": "tokenURI",
      "outputs": [
        {
          "internalType": "string",
          "name": "",
          "type": "string"
        }
      ],
      "stateMutability": "view",
      "type": "function"
    },
    {
      "inputs": [],
      "name": "totalSupply",
      "outputs": [
        {
          "internalType": "uint256",
          "name": "",
          "type": "uint256"
        }
      ],
      "stateMutability": "view",
      "type": "function"
    },
    {
      "inputs": [
        {
          "internalType": "address",
          "name": "from",
          "type": "address"
        },
        {
          "internalType": "address",
          "name": "to",
          "type": "address"
        },
        {
          "internalType": "uint256",
          "name": "tokenId",
          "type": "uint256"
        }
      ],
      "name": "transferFrom",
      "outputs": [],
      "stateMutability": "nonpayable",
      "type": "function"
    },
    {
      "inputs": [
        {
          "internalType": "uint256",
          "name": "pieceId",
          "type": "uint256"
        },
        {
          "internalType": "string",
          "name": "pieceDescription",
          "type": "string"
        }
      ],
      "name": "updatePieceDescription",
      "outputs": [],
      "stateMutability": "nonpayable",
      "type": "function"
    },
    {
      "inputs": [
        {
          "internalType": "uint256",
          "name": "pieceId",
          "type": "uint256"
        },
        {
          "internalType": "uint256",
          "name": "maxPrints",
          "type": "uint256"
        }
      ],
      "name": "updatePieceMaxPrints",
      "outputs": [],
      "stateMutability": "nonpayable",
      "type": "function"
    },
    {
      "inputs": [
        {
          "internalType": "uint256",
          "name": "pieceId",
          "type": "uint256"
        },
        {
          "internalType": "string",
          "name": "pieceName",
          "type": "string"
        }
      ],
      "name": "updatePieceName",
      "outputs": [],
      "stateMutability": "nonpayable",
      "type": "function"
    },
    {
      "inputs": [
        {
          "internalType": "uint256",
          "name": "pieceId",
          "type": "uint256"
        },
        {
          "internalType": "uint256",
          "name": "pricePerPrintInWei",
          "type": "uint256"
        }
      ],
      "name": "updatePiecePricePerPrintInWei",
      "outputs": [],
      "stateMutability": "nonpayable",
      "type": "function"
    },
    {
      "inputs": [
        {
          "internalType": "uint256",
          "name": "pieceId",
          "type": "uint256"
        },
        {
          "internalType": "string",
          "name": "script",
          "type": "string"
        }
      ],
      "name": "updateProjectScript",
      "outputs": [],
      "stateMutability": "nonpayable",
      "type": "function"
    }
  ],
  "bytecode": "0x608060405260006012553480156200001657600080fd5b5060405162004de138038062004de183398181016040528101906200003c9190620001f4565b8181816000908051906020019062000056929190620000d2565b5080600190805190602001906200006f929190620000d2565b5050506001600c60003373ffffffffffffffffffffffffffffffffffffffff1673ffffffffffffffffffffffffffffffffffffffff16815260200190815260200160002060006101000a81548160ff021916908315150217905550505062000398565b828054620000e09062000304565b90600052602060002090601f01602090048101928262000104576000855562000150565b82601f106200011f57805160ff191683800117855562000150565b8280016001018555821562000150579182015b828111156200014f57825182559160200191906001019062000132565b5b5090506200015f919062000163565b5090565b5b808211156200017e57600081600090555060010162000164565b5090565b60006200019962000193846200029b565b62000267565b905082815260208101848484011115620001b257600080fd5b620001bf848285620002ce565b509392505050565b600082601f830112620001d957600080fd5b8151620001eb84826020860162000182565b91505092915050565b600080604083850312156200020857600080fd5b600083015167ffffffffffffffff8111156200022357600080fd5b6200023185828601620001c7565b925050602083015167ffffffffffffffff8111156200024f57600080fd5b6200025d85828601620001c7565b9150509250929050565b6000604051905081810181811067ffffffffffffffff8211171562000291576200029062000369565b5b8060405250919050565b600067ffffffffffffffff821115620002b957620002b862000369565b5b601f19601f8301169050602081019050919050565b60005b83811015620002ee578082015181840152602081019050620002d1565b83811115620002fe576000848401525b50505050565b600060028204905060018216806200031d57607f821691505b602082108114156200033457620003336200033a565b5b50919050565b7f4e487b7100000000000000000000000000000000000000000000000000000000600052602260045260246000fd5b7f4e487b7100000000000000000000000000000000000000000000000000000000600052604160045260246000fd5b614a3980620003a86000396000f3fe608060405234801561001057600080fd5b50600436106102115760003560e01c80636352211e11610125578063ad0305ce116100ad578063c6d2a7af1161007c578063c6d2a7af14610642578063c87b56dd1461065e578063c9991c2c1461068e578063e985e9c5146106be578063eb3a86e3146106ee57610211565b8063ad0305ce146105be578063b011bbdb146105ee578063b88d4fde1461060a578063bb98f6fd1461062657610211565b8063867f1a3b116100f4578063867f1a3b146105305780638bddb0a61461054c57806395952e051461056857806395d89b4114610584578063a22cb465146105a257610211565b80636352211e1461048457806363e56aaa146104b457806370a08231146104e4578063729acb091461051457610211565b806323b872dd116101a85780632c0a8b38116101775780632c0a8b38146103d05780632f745c59146103ec57806342842e0e1461041c5780634f6ccce7146104385780635604fccc1461046857610211565b806323b872dd1461033657806324d7806c146103525780632812a794146103825780632bf88d83146103a057610211565b80630d4d1513116101e45780630d4d1513146102b057806311f373d0146102e057806318160ddd146102fc578063236d8e891461031a57610211565b806301ffc9a71461021657806306fdde0314610246578063081812fc14610264578063095ea7b314610294575b600080fd5b610230600480360381019061022b9190613561565b61071e565b60405161023d9190614196565b60405180910390f35b61024e610798565b60405161025b91906141cc565b60405180910390f35b61027e600480360381019061027991906135f4565b61082a565b60405161028b919061412f565b60405180910390f35b6102ae60048036038101906102a991906134ad565b6108af565b005b6102ca60048036038101906102c591906134e9565b6109c7565b6040516102d7919061450e565b60405180910390f35b6102fa60048036038101906102f59190613671565b610ca5565b005b610304610e72565b604051610311919061450e565b60405180910390f35b610334600480360381019061032f91906135b3565b610e7f565b005b610350600480360381019061034b91906133a7565b610f85565b005b61036c60048036038101906103679190613342565b610fe5565b6040516103799190614196565b60405180910390f35b61038a611005565b604051610397919061450e565b60405180910390f35b6103ba60048036038101906103b591906135f4565b61100b565b6040516103c7919061450e565b60405180910390f35b6103ea60048036038101906103e59190613671565b611023565b005b610406600480360381019061040191906134ad565b6110cb565b604051610413919061450e565b60405180910390f35b610436600480360381019061043191906133a7565b611170565b005b610452600480360381019061044d91906135f4565b611190565b60405161045f919061450e565b60405180910390f35b610482600480360381019061047d919061361d565b611227565b005b61049e600480360381019061049991906135f4565b6112e2565b6040516104ab919061412f565b60405180910390f35b6104ce60048036038101906104c991906135f4565b611394565b6040516104db91906141b1565b60405180910390f35b6104fe60048036038101906104f99190613342565b6113ac565b60405161050b919061450e565b60405180910390f35b61052e6004803603810190610529919061361d565b611464565b005b61054a60048036038101906105459190613342565b611585565b005b61056660048036038101906105619190613342565b61166c565b005b610582600480360381019061057d91906135f4565b611753565b005b61058c611834565b60405161059991906141cc565b60405180910390f35b6105bc60048036038101906105b79190613471565b6118c6565b005b6105d860048036038101906105d39190613342565b611a47565b6040516105e59190614196565b60405180910390f35b6106086004803603810190610603919061361d565b611a67565b005b610624600480360381019061061f91906133f6565b611b88565b005b610640600480360381019061063b91906135f4565b611bea565b005b61065c600480360381019061065791906135f4565b611ccb565b005b610678600480360381019061067391906135f4565b611def565b60405161068591906141cc565b60405180910390f35b6106a860048036038101906106a39190613538565b611e96565b6040516106b5919061450e565b60405180910390f35b6106d860048036038101906106d3919061336b565b611eae565b6040516106e59190614196565b60405180910390f35b610708600480360381019061070391906135f4565b611f42565b604051610715919061450e565b60405180910390f35b60007f780e9d63000000000000000000000000000000000000000000000000000000007bffffffffffffffffffffffffffffffffffffffffffffffffffffffff1916827bffffffffffffffffffffffffffffffffffffffffffffffffffffffff19161480610791575061079082611f5a565b5b9050919050565b6060600080546107a7906147d2565b80601f01602080910402602001604051908101604052809291908181526020018280546107d3906147d2565b80156108205780601f106107f557610100808354040283529160200191610820565b820191906000526020600020905b81548152906001019060200180831161080357829003601f168201915b5050505050905090565b60006108358261203c565b610874576040517f08c379a000000000000000000000000000000000000000000000000000000000815260040161086b906143ce565b60405180910390fd5b6004600083815260200190815260200160002060009054906101000a900473ffffffffffffffffffffffffffffffffffffffff169050919050565b60006108ba826112e2565b90508073ffffffffffffffffffffffffffffffffffffffff168373ffffffffffffffffffffffffffffffffffffffff16141561092b576040517f08c379a00000000000000000000000000000000000000000000000000000000081526004016109229061442e565b60405180910390fd5b8073ffffffffffffffffffffffffffffffffffffffff1661094a6120a8565b73ffffffffffffffffffffffffffffffffffffffff1614806109795750610978816109736120a8565b611eae565b5b6109b8576040517f08c379a00000000000000000000000000000000000000000000000000000000081526004016109af9061434e565b60405180910390fd5b6109c283836120b0565b505050565b6000601160003373ffffffffffffffffffffffffffffffffffffffff1673ffffffffffffffffffffffffffffffffffffffff16815260200190815260200160002060009054906101000a900460ff1680610a6a5750600c60003373ffffffffffffffffffffffffffffffffffffffff1673ffffffffffffffffffffffffffffffffffffffff16815260200190815260200160002060009054906101000a900460ff165b610aa9576040517f08c379a0000000000000000000000000000000000000000000000000000000008152600401610aa0906144ee565b60405180910390fd5b600a6000848152602001908152602001600020600401546001600a600086815260200190815260200160002060030154610ae391906145fd565b1115610b24576040517f08c379a0000000000000000000000000000000000000000000000000000000008152600401610b1b9061446e565b60405180910390fd5b600a600084815260200190815260200160002060060160009054906101000a900460ff1680610b9c5750600c60008373ffffffffffffffffffffffffffffffffffffffff1673ffffffffffffffffffffffffffffffffffffffff16815260200190815260200160002060009054906101000a900460ff165b610bdb576040517f08c379a0000000000000000000000000000000000000000000000000000000008152600401610bd2906144ce565b60405180910390fd5b600a600084815260200190815260200160002060060160029054906101000a900460ff1680610c535750600c60008373ffffffffffffffffffffffffffffffffffffffff1673ffffffffffffffffffffffffffffffffffffffff16815260200190815260200160002060009054906101000a900460ff165b610c92576040517f08c379a0000000000000000000000000000000000000000000000000000000008152600401610c899061432e565b60405180910390fd5b610c9c8484612169565b90509392505050565b600c60003373ffffffffffffffffffffffffffffffffffffffff1673ffffffffffffffffffffffffffffffffffffffff16815260200190815260200160002060009054906101000a900460ff16610d31576040517f08c379a0000000000000000000000000000000000000000000000000000000008152600401610d28906142ce565b60405180910390fd5b600a600083815260200190815260200160002060060160019054906101000a900460ff161580610d765750600a60008381526020019081526020016000206004015481105b610db5576040517f08c379a0000000000000000000000000000000000000000000000000000000008152600401610dac906141ee565b60405180910390fd5b600a6000838152602001908152602001600020600301548111610e0d576040517f08c379a0000000000000000000000000000000000000000000000000000000008152600401610e049061420e565b60405180910390fd5b620f4240811115610e53576040517f08c379a0000000000000000000000000000000000000000000000000000000008152600401610e4a9061444e565b60405180910390fd5b80600a6000848152602001908152602001600020600401819055505050565b6000600880549050905090565b600c60003373ffffffffffffffffffffffffffffffffffffffff1673ffffffffffffffffffffffffffffffffffffffff16815260200190815260200160002060009054906101000a900460ff16610f0b576040517f08c379a0000000000000000000000000000000000000000000000000000000008152600401610f02906142ce565b60405180910390fd5b6000601254905081600a60008381526020019081526020016000206000019080519060200190610f3c929190613151565b506001600a600083815260200190815260200160002060060160026101000a81548160ff0219169083151502179055506001601254610f7b91906145fd565b6012819055505050565b610f96610f906120a8565b8261230b565b610fd5576040517f08c379a0000000000000000000000000000000000000000000000000000000008152600401610fcc9061448e565b60405180910390fd5b610fe08383836123e9565b505050565b600c6020528060005260406000206000915054906101000a900460ff1681565b60125481565b600b6020528060005260406000206000915090505481565b600c60003373ffffffffffffffffffffffffffffffffffffffff1673ffffffffffffffffffffffffffffffffffffffff16815260200190815260200160002060009054906101000a900460ff166110af576040517f08c379a00000000000000000000000000000000000000000000000000000000081526004016110a6906142ce565b60405180910390fd5b80600b6000848152602001908152602001600020819055505050565b60006110d6836113ac565b8210611117576040517f08c379a000000000000000000000000000000000000000000000000000000000815260040161110e9061422e565b60405180910390fd5b600660008473ffffffffffffffffffffffffffffffffffffffff1673ffffffffffffffffffffffffffffffffffffffff168152602001908152602001600020600083815260200190815260200160002054905092915050565b61118b83838360405180602001604052806000815250611b88565b505050565b600061119a610e72565b82106111db576040517f08c379a00000000000000000000000000000000000000000000000000000000081526004016111d2906144ae565b60405180910390fd5b60088281548110611215577f4e487b7100000000000000000000000000000000000000000000000000000000600052603260045260246000fd5b90600052602060002001549050919050565b600c60003373ffffffffffffffffffffffffffffffffffffffff1673ffffffffffffffffffffffffffffffffffffffff16815260200190815260200160002060009054906101000a900460ff166112b3576040517f08c379a00000000000000000000000000000000000000000000000000000000081526004016112aa906142ce565b60405180910390fd5b80600a600084815260200190815260200160002060010190805190602001906112dd929190613151565b505050565b6000806002600084815260200190815260200160002060009054906101000a900473ffffffffffffffffffffffffffffffffffffffff169050600073ffffffffffffffffffffffffffffffffffffffff168173ffffffffffffffffffffffffffffffffffffffff16141561138b576040517f08c379a00000000000000000000000000000000000000000000000000000000081526004016113829061438e565b60405180910390fd5b80915050919050565b600f6020528060005260406000206000915090505481565b60008073ffffffffffffffffffffffffffffffffffffffff168273ffffffffffffffffffffffffffffffffffffffff16141561141d576040517f08c379a00000000000000000000000000000000000000000000000000000000081526004016114149061436e565b60405180910390fd5b600360008373ffffffffffffffffffffffffffffffffffffffff1673ffffffffffffffffffffffffffffffffffffffff168152602001908152602001600020549050919050565b600c60003373ffffffffffffffffffffffffffffffffffffffff1673ffffffffffffffffffffffffffffffffffffffff16815260200190815260200160002060009054906101000a900460ff166114f0576040517f08c379a00000000000000000000000000000000000000000000000000000000081526004016114e7906142ce565b60405180910390fd5b81600a600082815260200190815260200160002060060160019054906101000a900460ff1615611555576040517f08c379a000000000000000000000000000000000000000000000000000000000815260040161154c9061430e565b60405180910390fd5b81600a6000858152602001908152602001600020600001908051906020019061157f929190613151565b50505050565b600c60003373ffffffffffffffffffffffffffffffffffffffff1673ffffffffffffffffffffffffffffffffffffffff16815260200190815260200160002060009054906101000a900460ff16611611576040517f08c379a0000000000000000000000000000000000000000000000000000000008152600401611608906142ce565b60405180910390fd5b6000601160008373ffffffffffffffffffffffffffffffffffffffff1673ffffffffffffffffffffffffffffffffffffffff16815260200190815260200160002060006101000a81548160ff02191690831515021790555050565b600c60003373ffffffffffffffffffffffffffffffffffffffff1673ffffffffffffffffffffffffffffffffffffffff16815260200190815260200160002060009054906101000a900460ff166116f8576040517f08c379a00000000000000000000000000000000000000000000000000000000081526004016116ef906142ce565b60405180910390fd5b6001601160008373ffffffffffffffffffffffffffffffffffffffff1673ffffffffffffffffffffffffffffffffffffffff16815260200190815260200160002060006101000a81548160ff02191690831515021790555050565b600c60003373ffffffffffffffffffffffffffffffffffffffff1673ffffffffffffffffffffffffffffffffffffffff16815260200190815260200160002060009054906101000a900460ff166117df576040517f08c379a00000000000000000000000000000000000000000000000000000000081526004016117d6906142ce565b60405180910390fd5b600a600082815260200190815260200160002060060160009054906101000a900460ff1615600a600083815260200190815260200160002060060160006101000a81548160ff02191690831515021790555050565b606060018054611843906147d2565b80601f016020809104026020016040519081016040528092919081815260200182805461186f906147d2565b80156118bc5780601f10611891576101008083540402835291602001916118bc565b820191906000526020600020905b81548152906001019060200180831161189f57829003601f168201915b5050505050905090565b6118ce6120a8565b73ffffffffffffffffffffffffffffffffffffffff168273ffffffffffffffffffffffffffffffffffffffff16141561193c576040517f08c379a0000000000000000000000000000000000000000000000000000000008152600401611933906142ae565b60405180910390fd5b80600560006119496120a8565b73ffffffffffffffffffffffffffffffffffffffff1673ffffffffffffffffffffffffffffffffffffffff16815260200190815260200160002060008473ffffffffffffffffffffffffffffffffffffffff1673ffffffffffffffffffffffffffffffffffffffff16815260200190815260200160002060006101000a81548160ff0219169083151502179055508173ffffffffffffffffffffffffffffffffffffffff166119f66120a8565b73ffffffffffffffffffffffffffffffffffffffff167f17307eab39ab6107e8899845ad3d59bd9653f200f220920489ca2b5937696c3183604051611a3b9190614196565b60405180910390a35050565b60116020528060005260406000206000915054906101000a900460ff1681565b81600a600082815260200190815260200160002060060160019054906101000a900460ff1615611acc576040517f08c379a0000000000000000000000000000000000000000000000000000000008152600401611ac39061430e565b60405180910390fd5b600c60003373ffffffffffffffffffffffffffffffffffffffff1673ffffffffffffffffffffffffffffffffffffffff16815260200190815260200160002060009054906101000a900460ff16611b58576040517f08c379a0000000000000000000000000000000000000000000000000000000008152600401611b4f906142ce565b60405180910390fd5b81600a60008581526020019081526020016000206005019080519060200190611b82929190613151565b50505050565b611b99611b936120a8565b8361230b565b611bd8576040517f08c379a0000000000000000000000000000000000000000000000000000000008152600401611bcf9061448e565b60405180910390fd5b611be484848484612645565b50505050565b600c60003373ffffffffffffffffffffffffffffffffffffffff1673ffffffffffffffffffffffffffffffffffffffff16815260200190815260200160002060009054906101000a900460ff16611c76576040517f08c379a0000000000000000000000000000000000000000000000000000000008152600401611c6d906142ce565b60405180910390fd5b600a600082815260200190815260200160002060060160029054906101000a900460ff1615600a600083815260200190815260200160002060060160026101000a81548160ff02191690831515021790555050565b600c60003373ffffffffffffffffffffffffffffffffffffffff1673ffffffffffffffffffffffffffffffffffffffff16815260200190815260200160002060009054906101000a900460ff16611d57576040517f08c379a0000000000000000000000000000000000000000000000000000000008152600401611d4e906142ce565b60405180910390fd5b80600a600082815260200190815260200160002060060160019054906101000a900460ff1615611dbc576040517f08c379a0000000000000000000000000000000000000000000000000000000008152600401611db39061430e565b60405180910390fd5b6001600a600084815260200190815260200160002060060160016101000a81548160ff0219169083151502179055505050565b6060611dfa8261203c565b611e39576040517f08c379a0000000000000000000000000000000000000000000000000000000008152600401611e309061440e565b60405180910390fd5b6000611e436126a1565b90506000815111611e635760405180602001604052806000815250611e8e565b80611e6d846126b8565b604051602001611e7e9291906140bd565b6040516020818303038152906040525b915050919050565b60106020528060005260406000206000915090505481565b6000600560008473ffffffffffffffffffffffffffffffffffffffff1673ffffffffffffffffffffffffffffffffffffffff16815260200190815260200160002060008373ffffffffffffffffffffffffffffffffffffffff1673ffffffffffffffffffffffffffffffffffffffff16815260200190815260200160002060009054906101000a900460ff16905092915050565b600d6020528060005260406000206000915090505481565b60007f80ac58cd000000000000000000000000000000000000000000000000000000007bffffffffffffffffffffffffffffffffffffffffffffffffffffffff1916827bffffffffffffffffffffffffffffffffffffffffffffffffffffffff1916148061202557507f5b5e139f000000000000000000000000000000000000000000000000000000007bffffffffffffffffffffffffffffffffffffffffffffffffffffffff1916827bffffffffffffffffffffffffffffffffffffffffffffffffffffffff1916145b80612035575061203482612865565b5b9050919050565b60008073ffffffffffffffffffffffffffffffffffffffff166002600084815260200190815260200160002060009054906101000a900473ffffffffffffffffffffffffffffffffffffffff1673ffffffffffffffffffffffffffffffffffffffff1614159050919050565b600033905090565b816004600083815260200190815260200160002060006101000a81548173ffffffffffffffffffffffffffffffffffffffff021916908373ffffffffffffffffffffffffffffffffffffffff160217905550808273ffffffffffffffffffffffffffffffffffffffff16612123836112e2565b73ffffffffffffffffffffffffffffffffffffffff167f8c5be1e5ebec7d5bd14f71427d1e84f3dd0314c0f7b2291e5b200ac8c7c3b92560405160405180910390a45050565b600080600a600084815260200190815260200160002060030154620f4240846121929190614684565b61219c91906145fd565b90506001600a6000858152602001908152602001600020600301546121c191906145fd565b600a6000858152602001908152602001600020600301819055506000600a6000858152602001908152602001600020600301544360014361220291906146de565b403360405160200161221794939291906140e1565b60405160208183030381529060405280519060200120905080600f60008481526020019081526020016000208190555081601060008381526020019081526020016000208190555061226985836128cf565b83600d600084815260200190815260200160002081905550600e600085815260200190815260200160002082908060018154018082558091505060019003906000526020600020016000909190919091505583828673ffffffffffffffffffffffffffffffffffffffff167f4c209b5fc8ad50758f13e2e1088ba56a560dff690a1c6fef26394f4c03821c4f60405160405180910390a4819250505092915050565b60006123168261203c565b612355576040517f08c379a000000000000000000000000000000000000000000000000000000000815260040161234c906142ee565b60405180910390fd5b6000612360836112e2565b90508073ffffffffffffffffffffffffffffffffffffffff168473ffffffffffffffffffffffffffffffffffffffff1614806123cf57508373ffffffffffffffffffffffffffffffffffffffff166123b78461082a565b73ffffffffffffffffffffffffffffffffffffffff16145b806123e057506123df8185611eae565b5b91505092915050565b8273ffffffffffffffffffffffffffffffffffffffff16612409826112e2565b73ffffffffffffffffffffffffffffffffffffffff161461245f576040517f08c379a0000000000000000000000000000000000000000000000000000000008152600401612456906143ee565b60405180910390fd5b600073ffffffffffffffffffffffffffffffffffffffff168273ffffffffffffffffffffffffffffffffffffffff1614156124cf576040517f08c379a00000000000000000000000000000000000000000000000000000000081526004016124c69061428e565b60405180910390fd5b6124da8383836128ed565b6124e56000826120b0565b6001600360008573ffffffffffffffffffffffffffffffffffffffff1673ffffffffffffffffffffffffffffffffffffffff168152602001908152602001600020600082825461253591906146de565b925050819055506001600360008473ffffffffffffffffffffffffffffffffffffffff1673ffffffffffffffffffffffffffffffffffffffff168152602001908152602001600020600082825461258c91906145fd565b92505081905550816002600083815260200190815260200160002060006101000a81548173ffffffffffffffffffffffffffffffffffffffff021916908373ffffffffffffffffffffffffffffffffffffffff160217905550808273ffffffffffffffffffffffffffffffffffffffff168473ffffffffffffffffffffffffffffffffffffffff167fddf252ad1be2c89b69c2b068fc378daa952ba7f163c4a11628f55a4df523b3ef60405160405180910390a4505050565b6126508484846123e9565b61265c84848484612a01565b61269b576040517f08c379a00000000000000000000000000000000000000000000000000000000081526004016126929061424e565b60405180910390fd5b50505050565b606060405180602001604052806000815250905090565b60606000821415612700576040518060400160405280600181526020017f30000000000000000000000000000000000000000000000000000000000000008152509050612860565b600082905060005b6000821461273257808061271b90614804565b915050600a8261272b9190614653565b9150612708565b60008167ffffffffffffffff811115612774577f4e487b7100000000000000000000000000000000000000000000000000000000600052604160045260246000fd5b6040519080825280601f01601f1916602001820160405280156127a65781602001600182028036833780820191505090505b5090505b60008514612859576001826127bf91906146de565b9150600a856127ce9190614885565b60306127da91906145fd565b60f81b818381518110612816577f4e487b7100000000000000000000000000000000000000000000000000000000600052603260045260246000fd5b60200101907effffffffffffffffffffffffffffffffffffffffffffffffffffffffffffff1916908160001a905350600a856128529190614653565b94506127aa565b8093505050505b919050565b60007f01ffc9a7000000000000000000000000000000000000000000000000000000007bffffffffffffffffffffffffffffffffffffffffffffffffffffffff1916827bffffffffffffffffffffffffffffffffffffffffffffffffffffffff1916149050919050565b6128e9828260405180602001604052806000815250612b98565b5050565b6128f8838383612bf3565b600073ffffffffffffffffffffffffffffffffffffffff168373ffffffffffffffffffffffffffffffffffffffff16141561293b5761293681612bf8565b61297a565b8173ffffffffffffffffffffffffffffffffffffffff168373ffffffffffffffffffffffffffffffffffffffff1614612979576129788382612c41565b5b5b600073ffffffffffffffffffffffffffffffffffffffff168273ffffffffffffffffffffffffffffffffffffffff1614156129bd576129b881612dae565b6129fc565b8273ffffffffffffffffffffffffffffffffffffffff168273ffffffffffffffffffffffffffffffffffffffff16146129fb576129fa8282612ef1565b5b5b505050565b6000612a228473ffffffffffffffffffffffffffffffffffffffff16612f70565b15612b8b578373ffffffffffffffffffffffffffffffffffffffff1663150b7a02612a4b6120a8565b8786866040518563ffffffff1660e01b8152600401612a6d949392919061414a565b602060405180830381600087803b158015612a8757600080fd5b505af1925050508015612ab857506040513d601f19601f82011682018060405250810190612ab5919061358a565b60015b612b3b573d8060008114612ae8576040519150601f19603f3d011682016040523d82523d6000602084013e612aed565b606091505b50600081511415612b33576040517f08c379a0000000000000000000000000000000000000000000000000000000008152600401612b2a9061424e565b60405180910390fd5b805181602001fd5b63150b7a0260e01b7bffffffffffffffffffffffffffffffffffffffffffffffffffffffff1916817bffffffffffffffffffffffffffffffffffffffffffffffffffffffff191614915050612b90565b600190505b949350505050565b612ba28383612f83565b612baf6000848484612a01565b612bee576040517f08c379a0000000000000000000000000000000000000000000000000000000008152600401612be59061424e565b60405180910390fd5b505050565b505050565b6008805490506009600083815260200190815260200160002081905550600881908060018154018082558091505060019003906000526020600020016000909190919091505550565b60006001612c4e846113ac565b612c5891906146de565b9050600060076000848152602001908152602001600020549050818114612d3d576000600660008673ffffffffffffffffffffffffffffffffffffffff1673ffffffffffffffffffffffffffffffffffffffff168152602001908152602001600020600084815260200190815260200160002054905080600660008773ffffffffffffffffffffffffffffffffffffffff1673ffffffffffffffffffffffffffffffffffffffff168152602001908152602001600020600084815260200190815260200160002081905550816007600083815260200190815260200160002081905550505b6007600084815260200190815260200160002060009055600660008573ffffffffffffffffffffffffffffffffffffffff1673ffffffffffffffffffffffffffffffffffffffff16815260200190815260200160002060008381526020019081526020016000206000905550505050565b60006001600880549050612dc291906146de565b9050600060096000848152602001908152602001600020549050600060088381548110612e18577f4e487b7100000000000000000000000000000000000000000000000000000000600052603260045260246000fd5b906000526020600020015490508060088381548110612e60577f4e487b7100000000000000000000000000000000000000000000000000000000600052603260045260246000fd5b906000526020600020018190555081600960008381526020019081526020016000208190555060096000858152602001908152602001600020600090556008805480612ed5577f4e487b7100000000000000000000000000000000000000000000000000000000600052603160045260246000fd5b6001900381819060005260206000200160009055905550505050565b6000612efc836113ac565b905081600660008573ffffffffffffffffffffffffffffffffffffffff1673ffffffffffffffffffffffffffffffffffffffff168152602001908152602001600020600083815260200190815260200160002081905550806007600084815260200190815260200160002081905550505050565b600080823b905060008111915050919050565b600073ffffffffffffffffffffffffffffffffffffffff168273ffffffffffffffffffffffffffffffffffffffff161415612ff3576040517f08c379a0000000000000000000000000000000000000000000000000000000008152600401612fea906143ae565b60405180910390fd5b612ffc8161203c565b1561303c576040517f08c379a00000000000000000000000000000000000000000000000000000000081526004016130339061426e565b60405180910390fd5b613048600083836128ed565b6001600360008473ffffffffffffffffffffffffffffffffffffffff1673ffffffffffffffffffffffffffffffffffffffff168152602001908152602001600020600082825461309891906145fd565b92505081905550816002600083815260200190815260200160002060006101000a81548173ffffffffffffffffffffffffffffffffffffffff021916908373ffffffffffffffffffffffffffffffffffffffff160217905550808273ffffffffffffffffffffffffffffffffffffffff16600073ffffffffffffffffffffffffffffffffffffffff167fddf252ad1be2c89b69c2b068fc378daa952ba7f163c4a11628f55a4df523b3ef60405160405180910390a45050565b82805461315d906147d2565b90600052602060002090601f01602090048101928261317f57600085556131c6565b82601f1061319857805160ff19168380011785556131c6565b828001600101855582156131c6579182015b828111156131c55782518255916020019190600101906131aa565b5b5090506131d391906131d7565b5090565b5b808211156131f05760008160009055506001016131d8565b5090565b60006132076132028461455a565b614529565b90508281526020810184848401111561321f57600080fd5b61322a848285614790565b509392505050565b60006132456132408461458a565b614529565b90508281526020810184848401111561325d57600080fd5b613268848285614790565b509392505050565b60008135905061327f81614990565b92915050565b600081359050613294816149a7565b92915050565b6000813590506132a9816149be565b92915050565b6000813590506132be816149d5565b92915050565b6000815190506132d3816149d5565b92915050565b600082601f8301126132ea57600080fd5b81356132fa8482602086016131f4565b91505092915050565b600082601f83011261331457600080fd5b8135613324848260208601613232565b91505092915050565b60008135905061333c816149ec565b92915050565b60006020828403121561335457600080fd5b600061336284828501613270565b91505092915050565b6000806040838503121561337e57600080fd5b600061338c85828601613270565b925050602061339d85828601613270565b9150509250929050565b6000806000606084860312156133bc57600080fd5b60006133ca86828701613270565b93505060206133db86828701613270565b92505060406133ec8682870161332d565b9150509250925092565b6000806000806080858703121561340c57600080fd5b600061341a87828801613270565b945050602061342b87828801613270565b935050604061343c8782880161332d565b925050606085013567ffffffffffffffff81111561345957600080fd5b613465878288016132d9565b91505092959194509250565b6000806040838503121561348457600080fd5b600061349285828601613270565b92505060206134a385828601613285565b9150509250929050565b600080604083850312156134c057600080fd5b60006134ce85828601613270565b92505060206134df8582860161332d565b9150509250929050565b6000806000606084860312156134fe57600080fd5b600061350c86828701613270565b935050602061351d8682870161332d565b925050604061352e86828701613270565b9150509250925092565b60006020828403121561354a57600080fd5b60006135588482850161329a565b91505092915050565b60006020828403121561357357600080fd5b6000613581848285016132af565b91505092915050565b60006020828403121561359c57600080fd5b60006135aa848285016132c4565b91505092915050565b6000602082840312156135c557600080fd5b600082013567ffffffffffffffff8111156135df57600080fd5b6135eb84828501613303565b91505092915050565b60006020828403121561360657600080fd5b60006136148482850161332d565b91505092915050565b6000806040838503121561363057600080fd5b600061363e8582860161332d565b925050602083013567ffffffffffffffff81111561365b57600080fd5b61366785828601613303565b9150509250929050565b6000806040838503121561368457600080fd5b60006136928582860161332d565b92505060206136a38582860161332d565b9150509250929050565b6136b681614712565b82525050565b6136cd6136c882614712565b61484d565b82525050565b6136dc81614724565b82525050565b6136eb81614730565b82525050565b6137026136fd82614730565b61485f565b82525050565b6000613713826145ba565b61371d81856145d0565b935061372d81856020860161479f565b61373681614972565b840191505092915050565b600061374c826145c5565b61375681856145e1565b935061376681856020860161479f565b61376f81614972565b840191505092915050565b6000613785826145c5565b61378f81856145f2565b935061379f81856020860161479f565b80840191505092915050565b60006137b86031836145e1565b91507f43616e206f6e6c7920696e637265617365206d6178207072696e74732069662060008301527f706965636520697320756e6c6f636b65640000000000000000000000000000006020830152604082019050919050565b600061381e602b836145e1565b91507f4d6178207072696e7473206d757374206265206d6f7265207468616e2063757260008301527f72656e74207072696e74730000000000000000000000000000000000000000006020830152604082019050919050565b6000613884602b836145e1565b91507f455243373231456e756d657261626c653a206f776e657220696e646578206f7560008301527f74206f6620626f756e64730000000000000000000000000000000000000000006020830152604082019050919050565b60006138ea6032836145e1565b91507f4552433732313a207472616e7366657220746f206e6f6e20455243373231526560008301527f63656976657220696d706c656d656e74657200000000000000000000000000006020830152604082019050919050565b6000613950601c836145e1565b91507f4552433732313a20746f6b656e20616c7265616479206d696e746564000000006000830152602082019050919050565b60006139906024836145e1565b91507f4552433732313a207472616e7366657220746f20746865207a65726f2061646460008301527f72657373000000000000000000000000000000000000000000000000000000006020830152604082019050919050565b60006139f66019836145e1565b91507f4552433732313a20617070726f766520746f2063616c6c6572000000000000006000830152602082019050919050565b6000613a36600a836145e1565b91507f4f6e6c792061646d696e000000000000000000000000000000000000000000006000830152602082019050919050565b6000613a76602c836145e1565b91507f4552433732313a206f70657261746f7220717565727920666f72206e6f6e657860008301527f697374656e7420746f6b656e00000000000000000000000000000000000000006020830152604082019050919050565b6000613adc6010836145e1565b91507f4f6e6c7920696620756e6c6f636b6564000000000000000000000000000000006000830152602082019050919050565b6000613b1c602a836145e1565b91507f50757263686173696e67207072696e7473206f6620746869732070696563652060008301527f61726520706175736564000000000000000000000000000000000000000000006020830152604082019050919050565b6000613b826038836145e1565b91507f4552433732313a20617070726f76652063616c6c6572206973206e6f74206f7760008301527f6e6572206e6f7220617070726f76656420666f7220616c6c00000000000000006020830152604082019050919050565b6000613be8602a836145e1565b91507f4552433732313a2062616c616e636520717565727920666f7220746865207a6560008301527f726f2061646472657373000000000000000000000000000000000000000000006020830152604082019050919050565b6000613c4e6029836145e1565b91507f4552433732313a206f776e657220717565727920666f72206e6f6e657869737460008301527f656e7420746f6b656e00000000000000000000000000000000000000000000006020830152604082019050919050565b6000613cb46020836145e1565b91507f4552433732313a206d696e7420746f20746865207a65726f20616464726573736000830152602082019050919050565b6000613cf4602c836145e1565b91507f4552433732313a20617070726f76656420717565727920666f72206e6f6e657860008301527f697374656e7420746f6b656e00000000000000000000000000000000000000006020830152604082019050919050565b6000613d5a6029836145e1565b91507f4552433732313a207472616e73666572206f6620746f6b656e2074686174206960008301527f73206e6f74206f776e00000000000000000000000000000000000000000000006020830152604082019050919050565b6000613dc0602f836145e1565b91507f4552433732314d657461646174613a2055524920717565727920666f72206e6f60008301527f6e6578697374656e7420746f6b656e00000000000000000000000000000000006020830152604082019050919050565b6000613e266021836145e1565b91507f4552433732313a20617070726f76616c20746f2063757272656e74206f776e6560008301527f72000000000000000000000000000000000000000000000000000000000000006020830152604082019050919050565b6000613e8c6022836145e1565b91507f4d6178207072696e74732063616e6e6f74206578636565642031206d696c6c6960008301527f6f6e0000000000000000000000000000000000000000000000000000000000006020830152604082019050919050565b6000613ef2601f836145e1565b91507f4d757374206e6f7420657863656564206d617820696e766f636174696f6e73006000830152602082019050919050565b6000613f326031836145e1565b91507f4552433732313a207472616e736665722063616c6c6572206973206e6f74206f60008301527f776e6572206e6f7220617070726f7665640000000000000000000000000000006020830152604082019050919050565b6000613f98602c836145e1565b91507f455243373231456e756d657261626c653a20676c6f62616c20696e646578206f60008301527f7574206f6620626f756e647300000000000000000000000000000000000000006020830152604082019050919050565b6000613ffe601e836145e1565b91507f5069656365206d75737420657869737420616e642062652061637469766500006000830152602082019050919050565b600061403e6025836145e1565b91507f4d7573742062652077686974656c697374656420746f206d696e74206469726560008301527f63746c792e0000000000000000000000000000000000000000000000000000006020830152604082019050919050565b6140a081614786565b82525050565b6140b76140b282614786565b61487b565b82525050565b60006140c9828561377a565b91506140d5828461377a565b91508190509392505050565b60006140ed82876140a6565b6020820191506140fd82866140a6565b60208201915061410d82856136f1565b60208201915061411d82846136bc565b60148201915081905095945050505050565b600060208201905061414460008301846136ad565b92915050565b600060808201905061415f60008301876136ad565b61416c60208301866136ad565b6141796040830185614097565b818103606083015261418b8184613708565b905095945050505050565b60006020820190506141ab60008301846136d3565b92915050565b60006020820190506141c660008301846136e2565b92915050565b600060208201905081810360008301526141e68184613741565b905092915050565b60006020820190508181036000830152614207816137ab565b9050919050565b6000602082019050818103600083015261422781613811565b9050919050565b6000602082019050818103600083015261424781613877565b9050919050565b60006020820190508181036000830152614267816138dd565b9050919050565b6000602082019050818103600083015261428781613943565b9050919050565b600060208201905081810360008301526142a781613983565b9050919050565b600060208201905081810360008301526142c7816139e9565b9050919050565b600060208201905081810360008301526142e781613a29565b9050919050565b6000602082019050818103600083015261430781613a69565b9050919050565b6000602082019050818103600083015261432781613acf565b9050919050565b6000602082019050818103600083015261434781613b0f565b9050919050565b6000602082019050818103600083015261436781613b75565b9050919050565b6000602082019050818103600083015261438781613bdb565b9050919050565b600060208201905081810360008301526143a781613c41565b9050919050565b600060208201905081810360008301526143c781613ca7565b9050919050565b600060208201905081810360008301526143e781613ce7565b9050919050565b6000602082019050818103600083015261440781613d4d565b9050919050565b6000602082019050818103600083015261442781613db3565b9050919050565b6000602082019050818103600083015261444781613e19565b9050919050565b6000602082019050818103600083015261446781613e7f565b9050919050565b6000602082019050818103600083015261448781613ee5565b9050919050565b600060208201905081810360008301526144a781613f25565b9050919050565b600060208201905081810360008301526144c781613f8b565b9050919050565b600060208201905081810360008301526144e781613ff1565b9050919050565b6000602082019050818103600083015261450781614031565b9050919050565b60006020820190506145236000830184614097565b92915050565b6000604051905081810181811067ffffffffffffffff821117156145505761454f614943565b5b8060405250919050565b600067ffffffffffffffff82111561457557614574614943565b5b601f19601f8301169050602081019050919050565b600067ffffffffffffffff8211156145a5576145a4614943565b5b601f19601f8301169050602081019050919050565b600081519050919050565b600081519050919050565b600082825260208201905092915050565b600082825260208201905092915050565b600081905092915050565b600061460882614786565b915061461383614786565b9250827fffffffffffffffffffffffffffffffffffffffffffffffffffffffffffffffff03821115614648576146476148b6565b5b828201905092915050565b600061465e82614786565b915061466983614786565b925082614679576146786148e5565b5b828204905092915050565b600061468f82614786565b915061469a83614786565b9250817fffffffffffffffffffffffffffffffffffffffffffffffffffffffffffffffff04831182151516156146d3576146d26148b6565b5b828202905092915050565b60006146e982614786565b91506146f483614786565b925082821015614707576147066148b6565b5b828203905092915050565b600061471d82614766565b9050919050565b60008115159050919050565b6000819050919050565b60007fffffffff0000000000000000000000000000000000000000000000000000000082169050919050565b600073ffffffffffffffffffffffffffffffffffffffff82169050919050565b6000819050919050565b82818337600083830152505050565b60005b838110156147bd5780820151818401526020810190506147a2565b838111156147cc576000848401525b50505050565b600060028204905060018216806147ea57607f821691505b602082108114156147fe576147fd614914565b5b50919050565b600061480f82614786565b91507fffffffffffffffffffffffffffffffffffffffffffffffffffffffffffffffff821415614842576148416148b6565b5b600182019050919050565b600061485882614869565b9050919050565b6000819050919050565b600061487482614983565b9050919050565b6000819050919050565b600061489082614786565b915061489b83614786565b9250826148ab576148aa6148e5565b5b828206905092915050565b7f4e487b7100000000000000000000000000000000000000000000000000000000600052601160045260246000fd5b7f4e487b7100000000000000000000000000000000000000000000000000000000600052601260045260246000fd5b7f4e487b7100000000000000000000000000000000000000000000000000000000600052602260045260246000fd5b7f4e487b7100000000000000000000000000000000000000000000000000000000600052604160045260246000fd5b6000601f19601f8301169050919050565b60008160601b9050919050565b61499981614712565b81146149a457600080fd5b50565b6149b081614724565b81146149bb57600080fd5b50565b6149c781614730565b81146149d257600080fd5b50565b6149de8161473a565b81146149e957600080fd5b50565b6149f581614786565b8114614a0057600080fd5b5056fea2646970667358221220324d7fd2351627d951d2833ee710e3ca558da06d64ef56e66a1624bbe839192964736f6c63430008000033",
  "linkReferences": {},
  "deployedLinkReferences": {}
}