{
  "_format": "hh-sol-artifact-1",
  "contractName": "GenerativeArtworks",
  "sourceName": "contracts/GenerativeArtworks.sol",
  "abi": [
    {
      "inputs": [
        {
          "internalType": "string",
          "name": "tokenName",
          "type": "string"
        },
        {
          "internalType": "string",
          "name": "tokenSymbol",
          "type": "string"
        }
      ],
      "stateMutability": "nonpayable",
      "type": "constructor"
    },
    {
      "anonymous": false,
      "inputs": [
        {
          "indexed": true,
          "internalType": "address",
          "name": "owner",
          "type": "address"
        },
        {
          "indexed": true,
          "internalType": "address",
          "name": "approved",
          "type": "address"
        },
        {
          "indexed": true,
          "internalType": "uint256",
          "name": "tokenId",
          "type": "uint256"
        }
      ],
      "name": "Approval",
      "type": "event"
    },
    {
      "anonymous": false,
      "inputs": [
        {
          "indexed": true,
          "internalType": "address",
          "name": "owner",
          "type": "address"
        },
        {
          "indexed": true,
          "internalType": "address",
          "name": "operator",
          "type": "address"
        },
        {
          "indexed": false,
          "internalType": "bool",
          "name": "approved",
          "type": "bool"
        }
      ],
      "name": "ApprovalForAll",
      "type": "event"
    },
    {
      "anonymous": false,
      "inputs": [
        {
          "indexed": true,
          "internalType": "address",
          "name": "_to",
          "type": "address"
        },
        {
          "indexed": true,
          "internalType": "uint256",
          "name": "_printId",
          "type": "uint256"
        },
        {
          "indexed": true,
          "internalType": "uint256",
          "name": "_pieceId",
          "type": "uint256"
        }
      ],
      "name": "Mint",
      "type": "event"
    },
    {
      "anonymous": false,
      "inputs": [
        {
          "indexed": true,
          "internalType": "address",
          "name": "from",
          "type": "address"
        },
        {
          "indexed": true,
          "internalType": "address",
          "name": "to",
          "type": "address"
        },
        {
          "indexed": true,
          "internalType": "uint256",
          "name": "tokenId",
          "type": "uint256"
        }
      ],
      "name": "Transfer",
      "type": "event"
    },
    {
      "inputs": [
        {
          "internalType": "address",
          "name": "_address",
          "type": "address"
        }
      ],
      "name": "addMintWhitelisted",
      "outputs": [],
      "stateMutability": "nonpayable",
      "type": "function"
    },
    {
      "inputs": [
        {
          "internalType": "string",
          "name": "pieceName",
          "type": "string"
        }
      ],
      "name": "addPiece",
      "outputs": [],
      "stateMutability": "nonpayable",
      "type": "function"
    },
    {
      "inputs": [
        {
          "internalType": "address",
          "name": "to",
          "type": "address"
        },
        {
          "internalType": "uint256",
          "name": "tokenId",
          "type": "uint256"
        }
      ],
      "name": "approve",
      "outputs": [],
      "stateMutability": "nonpayable",
      "type": "function"
    },
    {
      "inputs": [
        {
          "internalType": "address",
          "name": "owner",
          "type": "address"
        }
      ],
      "name": "balanceOf",
      "outputs": [
        {
          "internalType": "uint256",
          "name": "",
          "type": "uint256"
        }
      ],
      "stateMutability": "view",
      "type": "function"
    },
    {
      "inputs": [
        {
          "internalType": "uint256",
          "name": "tokenId",
          "type": "uint256"
        }
      ],
      "name": "getApproved",
      "outputs": [
        {
          "internalType": "address",
          "name": "",
          "type": "address"
        }
      ],
      "stateMutability": "view",
      "type": "function"
    },
    {
      "inputs": [
        {
          "internalType": "bytes32",
          "name": "",
          "type": "bytes32"
        }
      ],
      "name": "hashToPrintId",
      "outputs": [
        {
          "internalType": "uint256",
          "name": "",
          "type": "uint256"
        }
      ],
      "stateMutability": "view",
      "type": "function"
    },
    {
      "inputs": [
        {
          "internalType": "address",
          "name": "",
          "type": "address"
        }
      ],
      "name": "isAdmin",
      "outputs": [
        {
          "internalType": "bool",
          "name": "",
          "type": "bool"
        }
      ],
      "stateMutability": "view",
      "type": "function"
    },
    {
      "inputs": [
        {
          "internalType": "address",
          "name": "owner",
          "type": "address"
        },
        {
          "internalType": "address",
          "name": "operator",
          "type": "address"
        }
      ],
      "name": "isApprovedForAll",
      "outputs": [
        {
          "internalType": "bool",
          "name": "",
          "type": "bool"
        }
      ],
      "stateMutability": "view",
      "type": "function"
    },
    {
      "inputs": [
        {
          "internalType": "address",
          "name": "",
          "type": "address"
        }
      ],
      "name": "isMintWhitelisted",
      "outputs": [
        {
          "internalType": "bool",
          "name": "",
          "type": "bool"
        }
      ],
      "stateMutability": "view",
      "type": "function"
    },
    {
      "inputs": [
        {
          "internalType": "uint256",
          "name": "pieceId",
          "type": "uint256"
        }
      ],
      "name": "lockPiece",
      "outputs": [],
      "stateMutability": "nonpayable",
      "type": "function"
    },
    {
      "inputs": [
        {
          "internalType": "address",
          "name": "to",
          "type": "address"
        },
        {
          "internalType": "uint256",
          "name": "pieceId",
          "type": "uint256"
        },
        {
          "internalType": "address",
          "name": "by",
          "type": "address"
        }
      ],
      "name": "mint",
      "outputs": [
        {
          "internalType": "uint256",
          "name": "",
          "type": "uint256"
        }
      ],
      "stateMutability": "nonpayable",
      "type": "function"
    },
    {
      "inputs": [],
      "name": "name",
      "outputs": [
        {
          "internalType": "string",
          "name": "",
          "type": "string"
        }
      ],
      "stateMutability": "view",
      "type": "function"
    },
    {
      "inputs": [],
      "name": "nextPieceId",
      "outputs": [
        {
          "internalType": "uint256",
          "name": "",
          "type": "uint256"
        }
      ],
      "stateMutability": "view",
      "type": "function"
    },
    {
      "inputs": [
        {
          "internalType": "uint256",
          "name": "tokenId",
          "type": "uint256"
        }
      ],
      "name": "ownerOf",
      "outputs": [
        {
          "internalType": "address",
          "name": "",
          "type": "address"
        }
      ],
      "stateMutability": "view",
      "type": "function"
    },
    {
      "inputs": [
        {
          "internalType": "uint256",
          "name": "pieceId",
          "type": "uint256"
        }
      ],
      "name": "pieceDetails",
      "outputs": [
        {
          "internalType": "string",
          "name": "pieceName_",
          "type": "string"
        },
        {
          "internalType": "string",
          "name": "description_",
          "type": "string"
        },
        {
          "internalType": "string",
          "name": "license_",
          "type": "string"
        }
      ],
      "stateMutability": "view",
      "type": "function"
    },
    {
      "inputs": [
        {
          "internalType": "uint256",
          "name": "",
          "type": "uint256"
        }
      ],
      "name": "pieceIdToPricePerPrintInWei",
      "outputs": [
        {
          "internalType": "uint256",
          "name": "",
          "type": "uint256"
        }
      ],
      "stateMutability": "view",
      "type": "function"
    },
    {
      "inputs": [
        {
          "internalType": "uint256",
          "name": "pieceId",
          "type": "uint256"
        }
      ],
      "name": "piecePrintInfo",
      "outputs": [
        {
          "internalType": "uint256",
          "name": "pricePerPrintInWei_",
          "type": "uint256"
        },
        {
          "internalType": "uint256",
          "name": "currentPrints_",
          "type": "uint256"
        },
        {
          "internalType": "uint256",
          "name": "maxPrints_",
          "type": "uint256"
        },
        {
          "internalType": "bool",
          "name": "active_",
          "type": "bool"
        },
        {
          "internalType": "bool",
          "name": "locked_",
          "type": "bool"
        },
        {
          "internalType": "bool",
          "name": "paused_",
          "type": "bool"
        }
      ],
      "stateMutability": "view",
      "type": "function"
    },
    {
      "inputs": [
        {
          "internalType": "uint256",
          "name": "pieceId",
          "type": "uint256"
        }
      ],
      "name": "pieceShowAllPrints",
      "outputs": [
        {
          "internalType": "uint256[]",
          "name": "",
          "type": "uint256[]"
        }
      ],
      "stateMutability": "view",
      "type": "function"
    },
    {
      "inputs": [
        {
          "internalType": "uint256",
          "name": "",
          "type": "uint256"
        }
      ],
      "name": "printIdToHash",
      "outputs": [
        {
          "internalType": "bytes32",
          "name": "",
          "type": "bytes32"
        }
      ],
      "stateMutability": "view",
      "type": "function"
    },
    {
      "inputs": [
        {
          "internalType": "uint256",
          "name": "",
          "type": "uint256"
        }
      ],
      "name": "printIdToPieceId",
      "outputs": [
        {
          "internalType": "uint256",
          "name": "",
          "type": "uint256"
        }
      ],
      "stateMutability": "view",
      "type": "function"
    },
    {
      "inputs": [
        {
          "internalType": "address",
          "name": "_address",
          "type": "address"
        }
      ],
      "name": "removeMintWhitelisted",
      "outputs": [],
      "stateMutability": "nonpayable",
      "type": "function"
    },
    {
      "inputs": [
        {
          "internalType": "address",
          "name": "from",
          "type": "address"
        },
        {
          "internalType": "address",
          "name": "to",
          "type": "address"
        },
        {
          "internalType": "uint256",
          "name": "tokenId",
          "type": "uint256"
        }
      ],
      "name": "safeTransferFrom",
      "outputs": [],
      "stateMutability": "nonpayable",
      "type": "function"
    },
    {
      "inputs": [
        {
          "internalType": "address",
          "name": "from",
          "type": "address"
        },
        {
          "internalType": "address",
          "name": "to",
          "type": "address"
        },
        {
          "internalType": "uint256",
          "name": "tokenId",
          "type": "uint256"
        },
        {
          "internalType": "bytes",
          "name": "_data",
          "type": "bytes"
        }
      ],
      "name": "safeTransferFrom",
      "outputs": [],
      "stateMutability": "nonpayable",
      "type": "function"
    },
    {
      "inputs": [
        {
          "internalType": "address",
          "name": "operator",
          "type": "address"
        },
        {
          "internalType": "bool",
          "name": "approved",
          "type": "bool"
        }
      ],
      "name": "setApprovalForAll",
      "outputs": [],
      "stateMutability": "nonpayable",
      "type": "function"
    },
    {
      "inputs": [
        {
          "internalType": "bytes4",
          "name": "interfaceId",
          "type": "bytes4"
        }
      ],
      "name": "supportsInterface",
      "outputs": [
        {
          "internalType": "bool",
          "name": "",
          "type": "bool"
        }
      ],
      "stateMutability": "view",
      "type": "function"
    },
    {
      "inputs": [],
      "name": "symbol",
      "outputs": [
        {
          "internalType": "string",
          "name": "",
          "type": "string"
        }
      ],
      "stateMutability": "view",
      "type": "function"
    },
    {
      "inputs": [
        {
          "internalType": "uint256",
          "name": "pieceId",
          "type": "uint256"
        }
      ],
      "name": "togglePieceIsActive",
      "outputs": [],
      "stateMutability": "nonpayable",
      "type": "function"
    },
    {
      "inputs": [
        {
          "internalType": "uint256",
          "name": "pieceId",
          "type": "uint256"
        }
      ],
      "name": "togglePieceIsPaused",
      "outputs": [],
      "stateMutability": "nonpayable",
      "type": "function"
    },
    {
      "inputs": [
        {
          "internalType": "uint256",
          "name": "index",
          "type": "uint256"
        }
      ],
      "name": "tokenByIndex",
      "outputs": [
        {
          "internalType": "uint256",
          "name": "",
          "type": "uint256"
        }
      ],
      "stateMutability": "view",
      "type": "function"
    },
    {
      "inputs": [
        {
          "internalType": "address",
          "name": "owner",
          "type": "address"
        },
        {
          "internalType": "uint256",
          "name": "index",
          "type": "uint256"
        }
      ],
      "name": "tokenOfOwnerByIndex",
      "outputs": [
        {
          "internalType": "uint256",
          "name": "",
          "type": "uint256"
        }
      ],
      "stateMutability": "view",
      "type": "function"
    },
    {
      "inputs": [
        {
          "internalType": "uint256",
          "name": "tokenId",
          "type": "uint256"
        }
      ],
      "name": "tokenURI",
      "outputs": [
        {
          "internalType": "string",
          "name": "",
          "type": "string"
        }
      ],
      "stateMutability": "view",
      "type": "function"
    },
    {
      "inputs": [],
      "name": "totalSupply",
      "outputs": [
        {
          "internalType": "uint256",
          "name": "",
          "type": "uint256"
        }
      ],
      "stateMutability": "view",
      "type": "function"
    },
    {
      "inputs": [
        {
          "internalType": "address",
          "name": "from",
          "type": "address"
        },
        {
          "internalType": "address",
          "name": "to",
          "type": "address"
        },
        {
          "internalType": "uint256",
          "name": "tokenId",
          "type": "uint256"
        }
      ],
      "name": "transferFrom",
      "outputs": [],
      "stateMutability": "nonpayable",
      "type": "function"
    },
    {
      "inputs": [
        {
          "internalType": "uint256",
          "name": "pieceId",
          "type": "uint256"
        },
        {
          "internalType": "string",
          "name": "pieceDescription",
          "type": "string"
        }
      ],
      "name": "updatePieceDescription",
      "outputs": [],
      "stateMutability": "nonpayable",
      "type": "function"
    },
    {
      "inputs": [
        {
          "internalType": "uint256",
          "name": "pieceId",
          "type": "uint256"
        },
        {
          "internalType": "uint256",
          "name": "maxPrints",
          "type": "uint256"
        }
      ],
      "name": "updatePieceMaxPrints",
      "outputs": [],
      "stateMutability": "nonpayable",
      "type": "function"
    },
    {
      "inputs": [
        {
          "internalType": "uint256",
          "name": "pieceId",
          "type": "uint256"
        },
        {
          "internalType": "string",
          "name": "pieceName",
          "type": "string"
        }
      ],
      "name": "updatePieceName",
      "outputs": [],
      "stateMutability": "nonpayable",
      "type": "function"
    },
    {
      "inputs": [
        {
          "internalType": "uint256",
          "name": "pieceId",
          "type": "uint256"
        },
        {
          "internalType": "uint256",
          "name": "pricePerPrintInWei",
          "type": "uint256"
        }
      ],
      "name": "updatePiecePricePerPrintInWei",
      "outputs": [],
      "stateMutability": "nonpayable",
      "type": "function"
    },
    {
      "inputs": [
        {
          "internalType": "uint256",
          "name": "pieceId",
          "type": "uint256"
        },
        {
          "internalType": "string",
          "name": "script",
          "type": "string"
        }
      ],
      "name": "updateProjectScript",
      "outputs": [],
      "stateMutability": "nonpayable",
      "type": "function"
    }
  ],
  "bytecode": "0x608060405260006012553480156200001657600080fd5b506040516200534c3803806200534c83398181016040528101906200003c9190620001f4565b8181816000908051906020019062000056929190620000d2565b5080600190805190602001906200006f929190620000d2565b5050506001600c60003373ffffffffffffffffffffffffffffffffffffffff1673ffffffffffffffffffffffffffffffffffffffff16815260200190815260200160002060006101000a81548160ff021916908315150217905550505062000398565b828054620000e09062000304565b90600052602060002090601f01602090048101928262000104576000855562000150565b82601f106200011f57805160ff191683800117855562000150565b8280016001018555821562000150579182015b828111156200014f57825182559160200191906001019062000132565b5b5090506200015f919062000163565b5090565b5b808211156200017e57600081600090555060010162000164565b5090565b60006200019962000193846200029b565b62000267565b905082815260208101848484011115620001b257600080fd5b620001bf848285620002ce565b509392505050565b600082601f830112620001d957600080fd5b8151620001eb84826020860162000182565b91505092915050565b600080604083850312156200020857600080fd5b600083015167ffffffffffffffff8111156200022357600080fd5b6200023185828601620001c7565b925050602083015167ffffffffffffffff8111156200024f57600080fd5b6200025d85828601620001c7565b9150509250929050565b6000604051905081810181811067ffffffffffffffff8211171562000291576200029062000369565b5b8060405250919050565b600067ffffffffffffffff821115620002b957620002b862000369565b5b601f19601f8301169050602081019050919050565b60005b83811015620002ee578082015181840152602081019050620002d1565b83811115620002fe576000848401525b50505050565b600060028204905060018216806200031d57607f821691505b602082108114156200033457620003336200033a565b5b50919050565b7f4e487b7100000000000000000000000000000000000000000000000000000000600052602260045260246000fd5b7f4e487b7100000000000000000000000000000000000000000000000000000000600052604160045260246000fd5b614fa480620003a86000396000f3fe608060405234801561001057600080fd5b50600436106102325760003560e01c806370a0823111610130578063ad0305ce116100b8578063c87b56dd1161007c578063c87b56dd146106e6578063c9991c2c14610716578063e6ed840014610746578063e985e9c514610776578063eb3a86e3146107a657610232565b8063ad0305ce14610646578063b011bbdb14610676578063b88d4fde14610692578063bb98f6fd146106ae578063c6d2a7af146106ca57610232565b806395952e05116100ff57806395952e0514610589578063959de076146105a557806395d89b41146105da578063a22cb465146105f8578063a94887cd1461061457610232565b806370a0823114610505578063729acb0914610535578063867f1a3b146105515780638bddb0a61461056d57610232565b806324d7806c116101be57806342842e0e1161018257806342842e0e1461043d5780634f6ccce7146104595780635604fccc146104895780636352211e146104a557806363e56aaa146104d557610232565b806324d7806c146103735780632812a794146103a35780632bf88d83146103c15780632c0a8b38146103f15780632f745c591461040d57610232565b80630d4d1513116102055780630d4d1513146102d157806311f373d01461030157806318160ddd1461031d578063236d8e891461033b57806323b872dd1461035757610232565b806301ffc9a71461023757806306fdde0314610267578063081812fc14610285578063095ea7b3146102b5575b600080fd5b610251600480360381019061024c919061393f565b6107d6565b60405161025e919061461b565b60405180910390f35b61026f610850565b60405161027c9190614651565b60405180910390f35b61029f600480360381019061029a91906139d2565b6108e2565b6040516102ac9190614592565b60405180910390f35b6102cf60048036038101906102ca919061388b565b610967565b005b6102eb60048036038101906102e691906138c7565b610a7f565b6040516102f891906149df565b60405180910390f35b61031b60048036038101906103169190613a4f565b610d5d565b005b610325610f2a565b60405161033291906149df565b60405180910390f35b61035560048036038101906103509190613991565b610f37565b005b610371600480360381019061036c9190613785565b61103d565b005b61038d60048036038101906103889190613720565b61109d565b60405161039a919061461b565b60405180910390f35b6103ab6110bd565b6040516103b891906149df565b60405180910390f35b6103db60048036038101906103d691906139d2565b6110c3565b6040516103e891906149df565b60405180910390f35b61040b60048036038101906104069190613a4f565b6110db565b005b6104276004803603810190610422919061388b565b611183565b60405161043491906149df565b60405180910390f35b61045760048036038101906104529190613785565b611228565b005b610473600480360381019061046e91906139d2565b611248565b60405161048091906149df565b60405180910390f35b6104a3600480360381019061049e91906139fb565b6112df565b005b6104bf60048036038101906104ba91906139d2565b61139a565b6040516104cc9190614592565b60405180910390f35b6104ef60048036038101906104ea91906139d2565b61144c565b6040516104fc9190614636565b60405180910390f35b61051f600480360381019061051a9190613720565b611464565b60405161052c91906149df565b60405180910390f35b61054f600480360381019061054a91906139fb565b61151c565b005b61056b60048036038101906105669190613720565b61163d565b005b61058760048036038101906105829190613720565b611724565b005b6105a3600480360381019061059e91906139d2565b61180b565b005b6105bf60048036038101906105ba91906139d2565b6118ec565b6040516105d1969594939291906149fa565b60405180910390f35b6105e26119b8565b6040516105ef9190614651565b60405180910390f35b610612600480360381019061060d919061384f565b611a4a565b005b61062e600480360381019061062991906139d2565b611bcb565b60405161063d93929190614673565b60405180910390f35b610660600480360381019061065b9190613720565b611dba565b60405161066d919061461b565b60405180910390f35b610690600480360381019061068b91906139fb565b611dda565b005b6106ac60048036038101906106a791906137d4565b611efb565b005b6106c860048036038101906106c391906139d2565b611f5d565b005b6106e460048036038101906106df91906139d2565b61203e565b005b61070060048036038101906106fb91906139d2565b612162565b60405161070d9190614651565b60405180910390f35b610730600480360381019061072b9190613916565b612209565b60405161073d91906149df565b60405180910390f35b610760600480360381019061075b91906139d2565b612221565b60405161076d91906145f9565b60405180910390f35b610790600480360381019061078b9190613749565b61228c565b60405161079d919061461b565b60405180910390f35b6107c060048036038101906107bb91906139d2565b612320565b6040516107cd91906149df565b60405180910390f35b60007f780e9d63000000000000000000000000000000000000000000000000000000007bffffffffffffffffffffffffffffffffffffffffffffffffffffffff1916827bffffffffffffffffffffffffffffffffffffffffffffffffffffffff19161480610849575061084882612338565b5b9050919050565b60606000805461085f90614d3d565b80601f016020809104026020016040519081016040528092919081815260200182805461088b90614d3d565b80156108d85780601f106108ad576101008083540402835291602001916108d8565b820191906000526020600020905b8154815290600101906020018083116108bb57829003601f168201915b5050505050905090565b60006108ed8261241a565b61092c576040517f08c379a00000000000000000000000000000000000000000000000000000000081526004016109239061489f565b60405180910390fd5b6004600083815260200190815260200160002060009054906101000a900473ffffffffffffffffffffffffffffffffffffffff169050919050565b60006109728261139a565b90508073ffffffffffffffffffffffffffffffffffffffff168373ffffffffffffffffffffffffffffffffffffffff1614156109e3576040517f08c379a00000000000000000000000000000000000000000000000000000000081526004016109da906148ff565b60405180910390fd5b8073ffffffffffffffffffffffffffffffffffffffff16610a02612486565b73ffffffffffffffffffffffffffffffffffffffff161480610a315750610a3081610a2b612486565b61228c565b5b610a70576040517f08c379a0000000000000000000000000000000000000000000000000000000008152600401610a679061481f565b60405180910390fd5b610a7a838361248e565b505050565b6000601160003373ffffffffffffffffffffffffffffffffffffffff1673ffffffffffffffffffffffffffffffffffffffff16815260200190815260200160002060009054906101000a900460ff1680610b225750600c60003373ffffffffffffffffffffffffffffffffffffffff1673ffffffffffffffffffffffffffffffffffffffff16815260200190815260200160002060009054906101000a900460ff165b610b61576040517f08c379a0000000000000000000000000000000000000000000000000000000008152600401610b58906149bf565b60405180910390fd5b600a6000848152602001908152602001600020600401546001600a600086815260200190815260200160002060030154610b9b9190614b68565b1115610bdc576040517f08c379a0000000000000000000000000000000000000000000000000000000008152600401610bd39061493f565b60405180910390fd5b600a600084815260200190815260200160002060060160009054906101000a900460ff1680610c545750600c60008373ffffffffffffffffffffffffffffffffffffffff1673ffffffffffffffffffffffffffffffffffffffff16815260200190815260200160002060009054906101000a900460ff165b610c93576040517f08c379a0000000000000000000000000000000000000000000000000000000008152600401610c8a9061499f565b60405180910390fd5b600a600084815260200190815260200160002060060160029054906101000a900460ff1680610d0b5750600c60008373ffffffffffffffffffffffffffffffffffffffff1673ffffffffffffffffffffffffffffffffffffffff16815260200190815260200160002060009054906101000a900460ff165b610d4a576040517f08c379a0000000000000000000000000000000000000000000000000000000008152600401610d41906147ff565b60405180910390fd5b610d548484612547565b90509392505050565b600c60003373ffffffffffffffffffffffffffffffffffffffff1673ffffffffffffffffffffffffffffffffffffffff16815260200190815260200160002060009054906101000a900460ff16610de9576040517f08c379a0000000000000000000000000000000000000000000000000000000008152600401610de09061479f565b60405180910390fd5b600a600083815260200190815260200160002060060160019054906101000a900460ff161580610e2e5750600a60008381526020019081526020016000206004015481105b610e6d576040517f08c379a0000000000000000000000000000000000000000000000000000000008152600401610e64906146bf565b60405180910390fd5b600a6000838152602001908152602001600020600301548111610ec5576040517f08c379a0000000000000000000000000000000000000000000000000000000008152600401610ebc906146df565b60405180910390fd5b620f4240811115610f0b576040517f08c379a0000000000000000000000000000000000000000000000000000000008152600401610f029061491f565b60405180910390fd5b80600a6000848152602001908152602001600020600401819055505050565b6000600880549050905090565b600c60003373ffffffffffffffffffffffffffffffffffffffff1673ffffffffffffffffffffffffffffffffffffffff16815260200190815260200160002060009054906101000a900460ff16610fc3576040517f08c379a0000000000000000000000000000000000000000000000000000000008152600401610fba9061479f565b60405180910390fd5b6000601254905081600a60008381526020019081526020016000206000019080519060200190610ff492919061352f565b506001600a600083815260200190815260200160002060060160026101000a81548160ff02191690831515021790555060016012546110339190614b68565b6012819055505050565b61104e611048612486565b826126e9565b61108d576040517f08c379a00000000000000000000000000000000000000000000000000000000081526004016110849061495f565b60405180910390fd5b6110988383836127c7565b505050565b600c6020528060005260406000206000915054906101000a900460ff1681565b60125481565b600b6020528060005260406000206000915090505481565b600c60003373ffffffffffffffffffffffffffffffffffffffff1673ffffffffffffffffffffffffffffffffffffffff16815260200190815260200160002060009054906101000a900460ff16611167576040517f08c379a000000000000000000000000000000000000000000000000000000000815260040161115e9061479f565b60405180910390fd5b80600b6000848152602001908152602001600020819055505050565b600061118e83611464565b82106111cf576040517f08c379a00000000000000000000000000000000000000000000000000000000081526004016111c6906146ff565b60405180910390fd5b600660008473ffffffffffffffffffffffffffffffffffffffff1673ffffffffffffffffffffffffffffffffffffffff168152602001908152602001600020600083815260200190815260200160002054905092915050565b61124383838360405180602001604052806000815250611efb565b505050565b6000611252610f2a565b8210611293576040517f08c379a000000000000000000000000000000000000000000000000000000000815260040161128a9061497f565b60405180910390fd5b600882815481106112cd577f4e487b7100000000000000000000000000000000000000000000000000000000600052603260045260246000fd5b90600052602060002001549050919050565b600c60003373ffffffffffffffffffffffffffffffffffffffff1673ffffffffffffffffffffffffffffffffffffffff16815260200190815260200160002060009054906101000a900460ff1661136b576040517f08c379a00000000000000000000000000000000000000000000000000000000081526004016113629061479f565b60405180910390fd5b80600a6000848152602001908152602001600020600101908051906020019061139592919061352f565b505050565b6000806002600084815260200190815260200160002060009054906101000a900473ffffffffffffffffffffffffffffffffffffffff169050600073ffffffffffffffffffffffffffffffffffffffff168173ffffffffffffffffffffffffffffffffffffffff161415611443576040517f08c379a000000000000000000000000000000000000000000000000000000000815260040161143a9061485f565b60405180910390fd5b80915050919050565b600f6020528060005260406000206000915090505481565b60008073ffffffffffffffffffffffffffffffffffffffff168273ffffffffffffffffffffffffffffffffffffffff1614156114d5576040517f08c379a00000000000000000000000000000000000000000000000000000000081526004016114cc9061483f565b60405180910390fd5b600360008373ffffffffffffffffffffffffffffffffffffffff1673ffffffffffffffffffffffffffffffffffffffff168152602001908152602001600020549050919050565b600c60003373ffffffffffffffffffffffffffffffffffffffff1673ffffffffffffffffffffffffffffffffffffffff16815260200190815260200160002060009054906101000a900460ff166115a8576040517f08c379a000000000000000000000000000000000000000000000000000000000815260040161159f9061479f565b60405180910390fd5b81600a600082815260200190815260200160002060060160019054906101000a900460ff161561160d576040517f08c379a0000000000000000000000000000000000000000000000000000000008152600401611604906147df565b60405180910390fd5b81600a6000858152602001908152602001600020600001908051906020019061163792919061352f565b50505050565b600c60003373ffffffffffffffffffffffffffffffffffffffff1673ffffffffffffffffffffffffffffffffffffffff16815260200190815260200160002060009054906101000a900460ff166116c9576040517f08c379a00000000000000000000000000000000000000000000000000000000081526004016116c09061479f565b60405180910390fd5b6000601160008373ffffffffffffffffffffffffffffffffffffffff1673ffffffffffffffffffffffffffffffffffffffff16815260200190815260200160002060006101000a81548160ff02191690831515021790555050565b600c60003373ffffffffffffffffffffffffffffffffffffffff1673ffffffffffffffffffffffffffffffffffffffff16815260200190815260200160002060009054906101000a900460ff166117b0576040517f08c379a00000000000000000000000000000000000000000000000000000000081526004016117a79061479f565b60405180910390fd5b6001601160008373ffffffffffffffffffffffffffffffffffffffff1673ffffffffffffffffffffffffffffffffffffffff16815260200190815260200160002060006101000a81548160ff02191690831515021790555050565b600c60003373ffffffffffffffffffffffffffffffffffffffff1673ffffffffffffffffffffffffffffffffffffffff16815260200190815260200160002060009054906101000a900460ff16611897576040517f08c379a000000000000000000000000000000000000000000000000000000000815260040161188e9061479f565b60405180910390fd5b600a600082815260200190815260200160002060060160009054906101000a900460ff1615600a600083815260200190815260200160002060060160006101000a81548160ff02191690831515021790555050565b600080600080600080600b6000888152602001908152602001600020549550600a6000888152602001908152602001600020600301549450600a6000888152602001908152602001600020600401549350600a600088815260200190815260200160002060060160009054906101000a900460ff169250600a600088815260200190815260200160002060060160019054906101000a900460ff169150600a600088815260200190815260200160002060060160029054906101000a900460ff16905091939550919395565b6060600180546119c790614d3d565b80601f01602080910402602001604051908101604052809291908181526020018280546119f390614d3d565b8015611a405780601f10611a1557610100808354040283529160200191611a40565b820191906000526020600020905b815481529060010190602001808311611a2357829003601f168201915b5050505050905090565b611a52612486565b73ffffffffffffffffffffffffffffffffffffffff168273ffffffffffffffffffffffffffffffffffffffff161415611ac0576040517f08c379a0000000000000000000000000000000000000000000000000000000008152600401611ab79061477f565b60405180910390fd5b8060056000611acd612486565b73ffffffffffffffffffffffffffffffffffffffff1673ffffffffffffffffffffffffffffffffffffffff16815260200190815260200160002060008473ffffffffffffffffffffffffffffffffffffffff1673ffffffffffffffffffffffffffffffffffffffff16815260200190815260200160002060006101000a81548160ff0219169083151502179055508173ffffffffffffffffffffffffffffffffffffffff16611b7a612486565b73ffffffffffffffffffffffffffffffffffffffff167f17307eab39ab6107e8899845ad3d59bd9653f200f220920489ca2b5937696c3183604051611bbf919061461b565b60405180910390a35050565b6060806060600a60008581526020019081526020016000206000018054611bf190614d3d565b80601f0160208091040260200160405190810160405280929190818152602001828054611c1d90614d3d565b8015611c6a5780601f10611c3f57610100808354040283529160200191611c6a565b820191906000526020600020905b815481529060010190602001808311611c4d57829003601f168201915b50505050509250600a60008581526020019081526020016000206001018054611c9290614d3d565b80601f0160208091040260200160405190810160405280929190818152602001828054611cbe90614d3d565b8015611d0b5780601f10611ce057610100808354040283529160200191611d0b565b820191906000526020600020905b815481529060010190602001808311611cee57829003601f168201915b50505050509150600a60008581526020019081526020016000206002018054611d3390614d3d565b80601f0160208091040260200160405190810160405280929190818152602001828054611d5f90614d3d565b8015611dac5780601f10611d8157610100808354040283529160200191611dac565b820191906000526020600020905b815481529060010190602001808311611d8f57829003601f168201915b505050505090509193909250565b60116020528060005260406000206000915054906101000a900460ff1681565b81600a600082815260200190815260200160002060060160019054906101000a900460ff1615611e3f576040517f08c379a0000000000000000000000000000000000000000000000000000000008152600401611e36906147df565b60405180910390fd5b600c60003373ffffffffffffffffffffffffffffffffffffffff1673ffffffffffffffffffffffffffffffffffffffff16815260200190815260200160002060009054906101000a900460ff16611ecb576040517f08c379a0000000000000000000000000000000000000000000000000000000008152600401611ec29061479f565b60405180910390fd5b81600a60008581526020019081526020016000206005019080519060200190611ef592919061352f565b50505050565b611f0c611f06612486565b836126e9565b611f4b576040517f08c379a0000000000000000000000000000000000000000000000000000000008152600401611f429061495f565b60405180910390fd5b611f5784848484612a23565b50505050565b600c60003373ffffffffffffffffffffffffffffffffffffffff1673ffffffffffffffffffffffffffffffffffffffff16815260200190815260200160002060009054906101000a900460ff16611fe9576040517f08c379a0000000000000000000000000000000000000000000000000000000008152600401611fe09061479f565b60405180910390fd5b600a600082815260200190815260200160002060060160029054906101000a900460ff1615600a600083815260200190815260200160002060060160026101000a81548160ff02191690831515021790555050565b600c60003373ffffffffffffffffffffffffffffffffffffffff1673ffffffffffffffffffffffffffffffffffffffff16815260200190815260200160002060009054906101000a900460ff166120ca576040517f08c379a00000000000000000000000000000000000000000000000000000000081526004016120c19061479f565b60405180910390fd5b80600a600082815260200190815260200160002060060160019054906101000a900460ff161561212f576040517f08c379a0000000000000000000000000000000000000000000000000000000008152600401612126906147df565b60405180910390fd5b6001600a600084815260200190815260200160002060060160016101000a81548160ff0219169083151502179055505050565b606061216d8261241a565b6121ac576040517f08c379a00000000000000000000000000000000000000000000000000000000081526004016121a3906148df565b60405180910390fd5b60006121b6612a7f565b905060008151116121d65760405180602001604052806000815250612201565b806121e084612a96565b6040516020016121f1929190614520565b6040516020818303038152906040525b915050919050565b60106020528060005260406000206000915090505481565b6060600e600083815260200190815260200160002080548060200260200160405190810160405280929190818152602001828054801561228057602002820191906000526020600020905b81548152602001906001019080831161226c575b50505050509050919050565b6000600560008473ffffffffffffffffffffffffffffffffffffffff1673ffffffffffffffffffffffffffffffffffffffff16815260200190815260200160002060008373ffffffffffffffffffffffffffffffffffffffff1673ffffffffffffffffffffffffffffffffffffffff16815260200190815260200160002060009054906101000a900460ff16905092915050565b600d6020528060005260406000206000915090505481565b60007f80ac58cd000000000000000000000000000000000000000000000000000000007bffffffffffffffffffffffffffffffffffffffffffffffffffffffff1916827bffffffffffffffffffffffffffffffffffffffffffffffffffffffff1916148061240357507f5b5e139f000000000000000000000000000000000000000000000000000000007bffffffffffffffffffffffffffffffffffffffffffffffffffffffff1916827bffffffffffffffffffffffffffffffffffffffffffffffffffffffff1916145b80612413575061241282612c43565b5b9050919050565b60008073ffffffffffffffffffffffffffffffffffffffff166002600084815260200190815260200160002060009054906101000a900473ffffffffffffffffffffffffffffffffffffffff1673ffffffffffffffffffffffffffffffffffffffff1614159050919050565b600033905090565b816004600083815260200190815260200160002060006101000a81548173ffffffffffffffffffffffffffffffffffffffff021916908373ffffffffffffffffffffffffffffffffffffffff160217905550808273ffffffffffffffffffffffffffffffffffffffff166125018361139a565b73ffffffffffffffffffffffffffffffffffffffff167f8c5be1e5ebec7d5bd14f71427d1e84f3dd0314c0f7b2291e5b200ac8c7c3b92560405160405180910390a45050565b600080600a600084815260200190815260200160002060030154620f4240846125709190614bef565b61257a9190614b68565b90506001600a60008581526020019081526020016000206003015461259f9190614b68565b600a6000858152602001908152602001600020600301819055506000600a600085815260200190815260200160002060030154436001436125e09190614c49565b40336040516020016125f59493929190614544565b60405160208183030381529060405280519060200120905080600f6000848152602001908152602001600020819055508160106000838152602001908152602001600020819055506126478583612cad565b83600d600084815260200190815260200160002081905550600e600085815260200190815260200160002082908060018154018082558091505060019003906000526020600020016000909190919091505583828673ffffffffffffffffffffffffffffffffffffffff167f4c209b5fc8ad50758f13e2e1088ba56a560dff690a1c6fef26394f4c03821c4f60405160405180910390a4819250505092915050565b60006126f48261241a565b612733576040517f08c379a000000000000000000000000000000000000000000000000000000000815260040161272a906147bf565b60405180910390fd5b600061273e8361139a565b90508073ffffffffffffffffffffffffffffffffffffffff168473ffffffffffffffffffffffffffffffffffffffff1614806127ad57508373ffffffffffffffffffffffffffffffffffffffff16612795846108e2565b73ffffffffffffffffffffffffffffffffffffffff16145b806127be57506127bd818561228c565b5b91505092915050565b8273ffffffffffffffffffffffffffffffffffffffff166127e78261139a565b73ffffffffffffffffffffffffffffffffffffffff161461283d576040517f08c379a0000000000000000000000000000000000000000000000000000000008152600401612834906148bf565b60405180910390fd5b600073ffffffffffffffffffffffffffffffffffffffff168273ffffffffffffffffffffffffffffffffffffffff1614156128ad576040517f08c379a00000000000000000000000000000000000000000000000000000000081526004016128a49061475f565b60405180910390fd5b6128b8838383612ccb565b6128c360008261248e565b6001600360008573ffffffffffffffffffffffffffffffffffffffff1673ffffffffffffffffffffffffffffffffffffffff16815260200190815260200160002060008282546129139190614c49565b925050819055506001600360008473ffffffffffffffffffffffffffffffffffffffff1673ffffffffffffffffffffffffffffffffffffffff168152602001908152602001600020600082825461296a9190614b68565b92505081905550816002600083815260200190815260200160002060006101000a81548173ffffffffffffffffffffffffffffffffffffffff021916908373ffffffffffffffffffffffffffffffffffffffff160217905550808273ffffffffffffffffffffffffffffffffffffffff168473ffffffffffffffffffffffffffffffffffffffff167fddf252ad1be2c89b69c2b068fc378daa952ba7f163c4a11628f55a4df523b3ef60405160405180910390a4505050565b612a2e8484846127c7565b612a3a84848484612ddf565b612a79576040517f08c379a0000000000000000000000000000000000000000000000000000000008152600401612a709061471f565b60405180910390fd5b50505050565b606060405180602001604052806000815250905090565b60606000821415612ade576040518060400160405280600181526020017f30000000000000000000000000000000000000000000000000000000000000008152509050612c3e565b600082905060005b60008214612b10578080612af990614d6f565b915050600a82612b099190614bbe565b9150612ae6565b60008167ffffffffffffffff811115612b52577f4e487b7100000000000000000000000000000000000000000000000000000000600052604160045260246000fd5b6040519080825280601f01601f191660200182016040528015612b845781602001600182028036833780820191505090505b5090505b60008514612c3757600182612b9d9190614c49565b9150600a85612bac9190614df0565b6030612bb89190614b68565b60f81b818381518110612bf4577f4e487b7100000000000000000000000000000000000000000000000000000000600052603260045260246000fd5b60200101907effffffffffffffffffffffffffffffffffffffffffffffffffffffffffffff1916908160001a905350600a85612c309190614bbe565b9450612b88565b8093505050505b919050565b60007f01ffc9a7000000000000000000000000000000000000000000000000000000007bffffffffffffffffffffffffffffffffffffffffffffffffffffffff1916827bffffffffffffffffffffffffffffffffffffffffffffffffffffffff1916149050919050565b612cc7828260405180602001604052806000815250612f76565b5050565b612cd6838383612fd1565b600073ffffffffffffffffffffffffffffffffffffffff168373ffffffffffffffffffffffffffffffffffffffff161415612d1957612d1481612fd6565b612d58565b8173ffffffffffffffffffffffffffffffffffffffff168373ffffffffffffffffffffffffffffffffffffffff1614612d5757612d56838261301f565b5b5b600073ffffffffffffffffffffffffffffffffffffffff168273ffffffffffffffffffffffffffffffffffffffff161415612d9b57612d968161318c565b612dda565b8273ffffffffffffffffffffffffffffffffffffffff168273ffffffffffffffffffffffffffffffffffffffff1614612dd957612dd882826132cf565b5b5b505050565b6000612e008473ffffffffffffffffffffffffffffffffffffffff1661334e565b15612f69578373ffffffffffffffffffffffffffffffffffffffff1663150b7a02612e29612486565b8786866040518563ffffffff1660e01b8152600401612e4b94939291906145ad565b602060405180830381600087803b158015612e6557600080fd5b505af1925050508015612e9657506040513d601f19601f82011682018060405250810190612e939190613968565b60015b612f19573d8060008114612ec6576040519150601f19603f3d011682016040523d82523d6000602084013e612ecb565b606091505b50600081511415612f11576040517f08c379a0000000000000000000000000000000000000000000000000000000008152600401612f089061471f565b60405180910390fd5b805181602001fd5b63150b7a0260e01b7bffffffffffffffffffffffffffffffffffffffffffffffffffffffff1916817bffffffffffffffffffffffffffffffffffffffffffffffffffffffff191614915050612f6e565b600190505b949350505050565b612f808383613361565b612f8d6000848484612ddf565b612fcc576040517f08c379a0000000000000000000000000000000000000000000000000000000008152600401612fc39061471f565b60405180910390fd5b505050565b505050565b6008805490506009600083815260200190815260200160002081905550600881908060018154018082558091505060019003906000526020600020016000909190919091505550565b6000600161302c84611464565b6130369190614c49565b905060006007600084815260200190815260200160002054905081811461311b576000600660008673ffffffffffffffffffffffffffffffffffffffff1673ffffffffffffffffffffffffffffffffffffffff168152602001908152602001600020600084815260200190815260200160002054905080600660008773ffffffffffffffffffffffffffffffffffffffff1673ffffffffffffffffffffffffffffffffffffffff168152602001908152602001600020600084815260200190815260200160002081905550816007600083815260200190815260200160002081905550505b6007600084815260200190815260200160002060009055600660008573ffffffffffffffffffffffffffffffffffffffff1673ffffffffffffffffffffffffffffffffffffffff16815260200190815260200160002060008381526020019081526020016000206000905550505050565b600060016008805490506131a09190614c49565b90506000600960008481526020019081526020016000205490506000600883815481106131f6577f4e487b7100000000000000000000000000000000000000000000000000000000600052603260045260246000fd5b90600052602060002001549050806008838154811061323e577f4e487b7100000000000000000000000000000000000000000000000000000000600052603260045260246000fd5b9060005260206000200181905550816009600083815260200190815260200160002081905550600960008581526020019081526020016000206000905560088054806132b3577f4e487b7100000000000000000000000000000000000000000000000000000000600052603160045260246000fd5b6001900381819060005260206000200160009055905550505050565b60006132da83611464565b905081600660008573ffffffffffffffffffffffffffffffffffffffff1673ffffffffffffffffffffffffffffffffffffffff168152602001908152602001600020600083815260200190815260200160002081905550806007600084815260200190815260200160002081905550505050565b600080823b905060008111915050919050565b600073ffffffffffffffffffffffffffffffffffffffff168273ffffffffffffffffffffffffffffffffffffffff1614156133d1576040517f08c379a00000000000000000000000000000000000000000000000000000000081526004016133c89061487f565b60405180910390fd5b6133da8161241a565b1561341a576040517f08c379a00000000000000000000000000000000000000000000000000000000081526004016134119061473f565b60405180910390fd5b61342660008383612ccb565b6001600360008473ffffffffffffffffffffffffffffffffffffffff1673ffffffffffffffffffffffffffffffffffffffff16815260200190815260200160002060008282546134769190614b68565b92505081905550816002600083815260200190815260200160002060006101000a81548173ffffffffffffffffffffffffffffffffffffffff021916908373ffffffffffffffffffffffffffffffffffffffff160217905550808273ffffffffffffffffffffffffffffffffffffffff16600073ffffffffffffffffffffffffffffffffffffffff167fddf252ad1be2c89b69c2b068fc378daa952ba7f163c4a11628f55a4df523b3ef60405160405180910390a45050565b82805461353b90614d3d565b90600052602060002090601f01602090048101928261355d57600085556135a4565b82601f1061357657805160ff19168380011785556135a4565b828001600101855582156135a4579182015b828111156135a3578251825591602001919060010190613588565b5b5090506135b191906135b5565b5090565b5b808211156135ce5760008160009055506001016135b6565b5090565b60006135e56135e084614a8c565b614a5b565b9050828152602081018484840111156135fd57600080fd5b613608848285614cfb565b509392505050565b600061362361361e84614abc565b614a5b565b90508281526020810184848401111561363b57600080fd5b613646848285614cfb565b509392505050565b60008135905061365d81614efb565b92915050565b60008135905061367281614f12565b92915050565b60008135905061368781614f29565b92915050565b60008135905061369c81614f40565b92915050565b6000815190506136b181614f40565b92915050565b600082601f8301126136c857600080fd5b81356136d88482602086016135d2565b91505092915050565b600082601f8301126136f257600080fd5b8135613702848260208601613610565b91505092915050565b60008135905061371a81614f57565b92915050565b60006020828403121561373257600080fd5b60006137408482850161364e565b91505092915050565b6000806040838503121561375c57600080fd5b600061376a8582860161364e565b925050602061377b8582860161364e565b9150509250929050565b60008060006060848603121561379a57600080fd5b60006137a88682870161364e565b93505060206137b98682870161364e565b92505060406137ca8682870161370b565b9150509250925092565b600080600080608085870312156137ea57600080fd5b60006137f88782880161364e565b94505060206138098782880161364e565b935050604061381a8782880161370b565b925050606085013567ffffffffffffffff81111561383757600080fd5b613843878288016136b7565b91505092959194509250565b6000806040838503121561386257600080fd5b60006138708582860161364e565b925050602061388185828601613663565b9150509250929050565b6000806040838503121561389e57600080fd5b60006138ac8582860161364e565b92505060206138bd8582860161370b565b9150509250929050565b6000806000606084860312156138dc57600080fd5b60006138ea8682870161364e565b93505060206138fb8682870161370b565b925050604061390c8682870161364e565b9150509250925092565b60006020828403121561392857600080fd5b600061393684828501613678565b91505092915050565b60006020828403121561395157600080fd5b600061395f8482850161368d565b91505092915050565b60006020828403121561397a57600080fd5b6000613988848285016136a2565b91505092915050565b6000602082840312156139a357600080fd5b600082013567ffffffffffffffff8111156139bd57600080fd5b6139c9848285016136e1565b91505092915050565b6000602082840312156139e457600080fd5b60006139f28482850161370b565b91505092915050565b60008060408385031215613a0e57600080fd5b6000613a1c8582860161370b565b925050602083013567ffffffffffffffff811115613a3957600080fd5b613a45858286016136e1565b9150509250929050565b60008060408385031215613a6257600080fd5b6000613a708582860161370b565b9250506020613a818582860161370b565b9150509250929050565b6000613a9783836144eb565b60208301905092915050565b613aac81614c7d565b82525050565b613ac3613abe82614c7d565b614db8565b82525050565b6000613ad482614afc565b613ade8185614b2a565b9350613ae983614aec565b8060005b83811015613b1a578151613b018882613a8b565b9750613b0c83614b1d565b925050600181019050613aed565b5085935050505092915050565b613b3081614c8f565b82525050565b613b3f81614c9b565b82525050565b613b56613b5182614c9b565b614dca565b82525050565b6000613b6782614b07565b613b718185614b3b565b9350613b81818560208601614d0a565b613b8a81614edd565b840191505092915050565b6000613ba082614b12565b613baa8185614b4c565b9350613bba818560208601614d0a565b613bc381614edd565b840191505092915050565b6000613bd982614b12565b613be38185614b5d565b9350613bf3818560208601614d0a565b80840191505092915050565b6000613c0c603183614b4c565b91507f43616e206f6e6c7920696e637265617365206d6178207072696e74732069662060008301527f706965636520697320756e6c6f636b65640000000000000000000000000000006020830152604082019050919050565b6000613c72602b83614b4c565b91507f4d6178207072696e7473206d757374206265206d6f7265207468616e2063757260008301527f72656e74207072696e74730000000000000000000000000000000000000000006020830152604082019050919050565b6000613cd8602b83614b4c565b91507f455243373231456e756d657261626c653a206f776e657220696e646578206f7560008301527f74206f6620626f756e64730000000000000000000000000000000000000000006020830152604082019050919050565b6000613d3e603283614b4c565b91507f4552433732313a207472616e7366657220746f206e6f6e20455243373231526560008301527f63656976657220696d706c656d656e74657200000000000000000000000000006020830152604082019050919050565b6000613da4601c83614b4c565b91507f4552433732313a20746f6b656e20616c7265616479206d696e746564000000006000830152602082019050919050565b6000613de4602483614b4c565b91507f4552433732313a207472616e7366657220746f20746865207a65726f2061646460008301527f72657373000000000000000000000000000000000000000000000000000000006020830152604082019050919050565b6000613e4a601983614b4c565b91507f4552433732313a20617070726f766520746f2063616c6c6572000000000000006000830152602082019050919050565b6000613e8a600a83614b4c565b91507f4f6e6c792061646d696e000000000000000000000000000000000000000000006000830152602082019050919050565b6000613eca602c83614b4c565b91507f4552433732313a206f70657261746f7220717565727920666f72206e6f6e657860008301527f697374656e7420746f6b656e00000000000000000000000000000000000000006020830152604082019050919050565b6000613f30601083614b4c565b91507f4f6e6c7920696620756e6c6f636b6564000000000000000000000000000000006000830152602082019050919050565b6000613f70602a83614b4c565b91507f50757263686173696e67207072696e7473206f6620746869732070696563652060008301527f61726520706175736564000000000000000000000000000000000000000000006020830152604082019050919050565b6000613fd6603883614b4c565b91507f4552433732313a20617070726f76652063616c6c6572206973206e6f74206f7760008301527f6e6572206e6f7220617070726f76656420666f7220616c6c00000000000000006020830152604082019050919050565b600061403c602a83614b4c565b91507f4552433732313a2062616c616e636520717565727920666f7220746865207a6560008301527f726f2061646472657373000000000000000000000000000000000000000000006020830152604082019050919050565b60006140a2602983614b4c565b91507f4552433732313a206f776e657220717565727920666f72206e6f6e657869737460008301527f656e7420746f6b656e00000000000000000000000000000000000000000000006020830152604082019050919050565b6000614108602083614b4c565b91507f4552433732313a206d696e7420746f20746865207a65726f20616464726573736000830152602082019050919050565b6000614148602c83614b4c565b91507f4552433732313a20617070726f76656420717565727920666f72206e6f6e657860008301527f697374656e7420746f6b656e00000000000000000000000000000000000000006020830152604082019050919050565b60006141ae602983614b4c565b91507f4552433732313a207472616e73666572206f6620746f6b656e2074686174206960008301527f73206e6f74206f776e00000000000000000000000000000000000000000000006020830152604082019050919050565b6000614214602f83614b4c565b91507f4552433732314d657461646174613a2055524920717565727920666f72206e6f60008301527f6e6578697374656e7420746f6b656e00000000000000000000000000000000006020830152604082019050919050565b600061427a602183614b4c565b91507f4552433732313a20617070726f76616c20746f2063757272656e74206f776e6560008301527f72000000000000000000000000000000000000000000000000000000000000006020830152604082019050919050565b60006142e0602283614b4c565b91507f4d6178207072696e74732063616e6e6f74206578636565642031206d696c6c6960008301527f6f6e0000000000000000000000000000000000000000000000000000000000006020830152604082019050919050565b6000614346601f83614b4c565b91507f4d757374206e6f7420657863656564206d617820696e766f636174696f6e73006000830152602082019050919050565b6000614386603183614b4c565b91507f4552433732313a207472616e736665722063616c6c6572206973206e6f74206f60008301527f776e6572206e6f7220617070726f7665640000000000000000000000000000006020830152604082019050919050565b60006143ec602c83614b4c565b91507f455243373231456e756d657261626c653a20676c6f62616c20696e646578206f60008301527f7574206f6620626f756e647300000000000000000000000000000000000000006020830152604082019050919050565b6000614452601e83614b4c565b91507f5069656365206d75737420657869737420616e642062652061637469766500006000830152602082019050919050565b6000614492602583614b4c565b91507f4d7573742062652077686974656c697374656420746f206d696e74206469726560008301527f63746c792e0000000000000000000000000000000000000000000000000000006020830152604082019050919050565b6144f481614cf1565b82525050565b61450381614cf1565b82525050565b61451a61451582614cf1565b614de6565b82525050565b600061452c8285613bce565b91506145388284613bce565b91508190509392505050565b60006145508287614509565b6020820191506145608286614509565b6020820191506145708285613b45565b6020820191506145808284613ab2565b60148201915081905095945050505050565b60006020820190506145a76000830184613aa3565b92915050565b60006080820190506145c26000830187613aa3565b6145cf6020830186613aa3565b6145dc60408301856144fa565b81810360608301526145ee8184613b5c565b905095945050505050565b600060208201905081810360008301526146138184613ac9565b905092915050565b60006020820190506146306000830184613b27565b92915050565b600060208201905061464b6000830184613b36565b92915050565b6000602082019050818103600083015261466b8184613b95565b905092915050565b6000606082019050818103600083015261468d8186613b95565b905081810360208301526146a18185613b95565b905081810360408301526146b58184613b95565b9050949350505050565b600060208201905081810360008301526146d881613bff565b9050919050565b600060208201905081810360008301526146f881613c65565b9050919050565b6000602082019050818103600083015261471881613ccb565b9050919050565b6000602082019050818103600083015261473881613d31565b9050919050565b6000602082019050818103600083015261475881613d97565b9050919050565b6000602082019050818103600083015261477881613dd7565b9050919050565b6000602082019050818103600083015261479881613e3d565b9050919050565b600060208201905081810360008301526147b881613e7d565b9050919050565b600060208201905081810360008301526147d881613ebd565b9050919050565b600060208201905081810360008301526147f881613f23565b9050919050565b6000602082019050818103600083015261481881613f63565b9050919050565b6000602082019050818103600083015261483881613fc9565b9050919050565b600060208201905081810360008301526148588161402f565b9050919050565b6000602082019050818103600083015261487881614095565b9050919050565b60006020820190508181036000830152614898816140fb565b9050919050565b600060208201905081810360008301526148b88161413b565b9050919050565b600060208201905081810360008301526148d8816141a1565b9050919050565b600060208201905081810360008301526148f881614207565b9050919050565b600060208201905081810360008301526149188161426d565b9050919050565b60006020820190508181036000830152614938816142d3565b9050919050565b6000602082019050818103600083015261495881614339565b9050919050565b6000602082019050818103600083015261497881614379565b9050919050565b60006020820190508181036000830152614998816143df565b9050919050565b600060208201905081810360008301526149b881614445565b9050919050565b600060208201905081810360008301526149d881614485565b9050919050565b60006020820190506149f460008301846144fa565b92915050565b600060c082019050614a0f60008301896144fa565b614a1c60208301886144fa565b614a2960408301876144fa565b614a366060830186613b27565b614a436080830185613b27565b614a5060a0830184613b27565b979650505050505050565b6000604051905081810181811067ffffffffffffffff82111715614a8257614a81614eae565b5b8060405250919050565b600067ffffffffffffffff821115614aa757614aa6614eae565b5b601f19601f8301169050602081019050919050565b600067ffffffffffffffff821115614ad757614ad6614eae565b5b601f19601f8301169050602081019050919050565b6000819050602082019050919050565b600081519050919050565b600081519050919050565b600081519050919050565b6000602082019050919050565b600082825260208201905092915050565b600082825260208201905092915050565b600082825260208201905092915050565b600081905092915050565b6000614b7382614cf1565b9150614b7e83614cf1565b9250827fffffffffffffffffffffffffffffffffffffffffffffffffffffffffffffffff03821115614bb357614bb2614e21565b5b828201905092915050565b6000614bc982614cf1565b9150614bd483614cf1565b925082614be457614be3614e50565b5b828204905092915050565b6000614bfa82614cf1565b9150614c0583614cf1565b9250817fffffffffffffffffffffffffffffffffffffffffffffffffffffffffffffffff0483118215151615614c3e57614c3d614e21565b5b828202905092915050565b6000614c5482614cf1565b9150614c5f83614cf1565b925082821015614c7257614c71614e21565b5b828203905092915050565b6000614c8882614cd1565b9050919050565b60008115159050919050565b6000819050919050565b60007fffffffff0000000000000000000000000000000000000000000000000000000082169050919050565b600073ffffffffffffffffffffffffffffffffffffffff82169050919050565b6000819050919050565b82818337600083830152505050565b60005b83811015614d28578082015181840152602081019050614d0d565b83811115614d37576000848401525b50505050565b60006002820490506001821680614d5557607f821691505b60208210811415614d6957614d68614e7f565b5b50919050565b6000614d7a82614cf1565b91507fffffffffffffffffffffffffffffffffffffffffffffffffffffffffffffffff821415614dad57614dac614e21565b5b600182019050919050565b6000614dc382614dd4565b9050919050565b6000819050919050565b6000614ddf82614eee565b9050919050565b6000819050919050565b6000614dfb82614cf1565b9150614e0683614cf1565b925082614e1657614e15614e50565b5b828206905092915050565b7f4e487b7100000000000000000000000000000000000000000000000000000000600052601160045260246000fd5b7f4e487b7100000000000000000000000000000000000000000000000000000000600052601260045260246000fd5b7f4e487b7100000000000000000000000000000000000000000000000000000000600052602260045260246000fd5b7f4e487b7100000000000000000000000000000000000000000000000000000000600052604160045260246000fd5b6000601f19601f8301169050919050565b60008160601b9050919050565b614f0481614c7d565b8114614f0f57600080fd5b50565b614f1b81614c8f565b8114614f2657600080fd5b50565b614f3281614c9b565b8114614f3d57600080fd5b50565b614f4981614ca5565b8114614f5457600080fd5b50565b614f6081614cf1565b8114614f6b57600080fd5b5056fea2646970667358221220531a1c119181fc8ed472b58628dcf67ffde5fde83bc99a81895a1104a825688364736f6c63430008000033",
  "linkReferences": {},
  "deployedLinkReferences": {}
}